S021000053616D34535F54435F434150545552455F57415645464F524D2E737265632C
S214400000603900203D08400039084000390840006B
S2144000103908400039084000390840000000000018
S214400020000000000000000000000000390840000A
S21440003039084000000000003908400039084000F8
S2144000403908400039084000390840003908400067
S2144000503908400039084000390840003908400057
S214400060390840003908400000000000D90540002B
S214400070ED054000010640003908400039084000C0
S2144000800000000000000000390840003908400029
S2144000903908400039084000390840003908400017
S2144000A039084000550D40003908400039084000E6
S2144000B039084000390840003908400039084000F7
S2144000C039084000390840003908400010B5054C52
S2144000D0237833B9044B13B10448AFF300800123AF
S2144000E0237010BD74080020000000009C5B400098
S2144000F0084B10B51BB108480849AFF300800848C4
S214400100036803B910BD074B002BFBD0BDE8104079
S214400110184700BF000000009C5B400078080020A5
S2144001209C5B40000000000010B50E480E4B984700
S21440013000203E210D4B98470D4CA0470028FCD090
S2144001400C4B98470C4A0D4B9A620D4CA047002822
S214400150FCD010200B4B98470B4B98470148024B5E
S214400160984710BD000E2707010A40007D06400054
S214400170D1064000E1064000013F132000040E4037
S214400180F106400015064000ED084000A8B92DE9EC
S214400190F0410C469046002A0ADD8F18084E094D5D
S2144001A0306821462B6898470134BC42F8D101E0BC
S2144001B04FF000084046BDE8F0814FF0FF307047F2
S2144001C0540900204C0900200138022818D82DE98F
S2144001D0F0410E46144682B10D46DFF838800C4F8B
S2144001E0D8F8000015F8011B3B68984700280ADB42
S2144001F0A81B013CF4D1BDE8F0810020BDE8F081A9
S2144002004FF0FF3070474FF0FF30BDE8F08100BF41
S214400210500900205409002010B54FF400420F4BFF
S2144002205A600B200E4CA0470C20A0470D20A0473C
S21440023013204FF060510B4CA04714204FF06051F4
S214400240A04723200849A0474C200849A047084813
S2144002500C214FF00062074B984710BD50140E40DB
S214400260010740007103400079000028590000282B
S21440027000100E40950440004264B1F1C05F2FD09C
S21440028007D8B1F1006F14D0B1F1805F1ED039B9F4
S2144002907047B1F1205F37D004D8B1F1005F29D064
S2144002A042607047B1F1405F2ED0B1F1605F2BD015
S2144002B0F6E710B4016F046FD3432140194001673D
S2144002C0416F446F21400B4043671AE0036F13436E
S2144002D00367436F416F0B4023EA02034367DFE740
S2144002E0036F016F0B4023EA02030367436F134318
S2144002F04367D5E7036F13430367436F134343676F
S214400300CEE742605DF8044B704700BF416412F090
S214400310010F14BF4166016612F00A0F14BF016256
S214400320416212F0020F02D0C0F8801004E012F0D2
S214400330080F18BFC0F8841041610160704700BFC5
S21440034010B44164019C0CB1416600E001660BB1FB
S214400350016500E041650AB1016300E04163016167
S21440036001605DF8044B7047C06C7047806C704706
S21440037070B582B00D46430903F5001303F20773C8
S2144003805C0201F0F043B3F1005F47D009D8B3F107
S214400390805F21D0B3F1C05F2FD0B3F1006F6FD133
S2144003A009E0B3F1405F55D0B3F1605F52D0B3F18E
S2144003B0205F44D064E000F01F00012686402046BF
S2144003C04FF000613246304B984715F0010F14BF8E
S2144003D066662666012054E000F01F00012686402F
S2144003E020464FF080513246274B984715F0010F74
S2144003F014BF66662666012043E000F01F00012613
S214400400864020464FF0C05132461F4B984715F065
S214400410010F14BF66662666012032E000F01F001A
S2144004200126864020464FF000513246164B9847EC
S21440043015F0010F14BF66662666012021E000F025
S2144004401F030126204606FA03F12A460F4B98471B
S214400450304616E000F01F03012605F0605205EA1C
S21440046006010091204606FA03F1B2F1605F14BF20
S21440047000220122C5F38003054CA047304600E029
S214400480002002B070BD00BF790240000D0340005E
S2144004904103400070B582B006460D46144602F051
S2144004A0F043B3F1005F38D009D8B3F1805F1CD079
S2144004B0B3F1C05F25D0B3F1006F50D109E0B3F17E
S2144004C0405F3AD0B3F1605F37D0B3F1205F30D0B1
S2144004D045E04FF000612A46224B984714F0010F42
S2144004E014BF7566356601203AE04FF080512A46C3
S2144004F01C4B984714F0010F14BF756635660120F3
S2144005002EE04FF0C0512A46164B984714F0010F84
S21440051014BF75663566012022E04FF000512A462A
S214400520104B984714F0010F14BF756635660120CE
S21440053016E00D4B9847012012E004F0605204F09C
S2144005400103009330462946B2F1605F14BF002293
S2144005500122C4F38003054CA047012000E00020A0
S21440056002B070BD790240000D03400041034000D8
S2144005702DE9F84381468846124B9847054648463B
S214400580114B9847054013D0104C04F16006236881
S214400590434508D16168294205D0E36840469847FC
S2144005A0636825EA0305B44202D01034002DEED12C
S2144005B0074B1B6823B1074B1B680BB1484698474F
S2144005C0BDE8F883690340006D03400094080020AE
S2144005D0580900209008002008B502480B21024B1D
S2144005E0984708BD000E0E407105400008B5024809
S2144005F00C21024B984708BD00100E407105400084
S21440060008B502480D21024B984708BD00120E401F
S21440061071054000184A136B23F0700318431063AB
S214400620936E13F0080F03D009E0013B03D11EE0A0
S2144006304FF4006310498A6E12F0080FF5D00E4A48
S214400640136B23F0030343F002031363906E10F022
S214400650080004D000207047013B03D109E04FF466
S214400660006305498A6E12F0080FF5D070470120E6
S21440067070470120704700BF00040E4038B1114952
S2144006800B6A114A1A40114B13430B6270470D4ACE
S214400690136A23F45C1323F0030343F45C1343F020
S2144006A00103090289B20B431362936E13F0010FE4
S2144006B0FBD0044A136A43F09B7343F480331362BF
S2144006C0704700BF00040E40FCFFC8FE0200370122
S2144006D0024B986E00F48030704700BF00040E4016
S2144006E04FF00052014B9A62704700BF00040E4024
S2144006F0024B986E00F00200704700BF00040E40A8
S21440070022281ED81F280CD8114B9A6901238340F3
S2144007101A40934217D0012383400D4A13610020AC
S21440072070470B4BD3F808212038012383401A40EA
S21440073093420AD001238340054AC2F80031002084
S214400740704701207047002070470020704700BF68
S21440075000040E4010B489014318022444504FF060
S214400760FF319962196A5A605DF8044B704700BFC2
S214400770890105234350704700EB81114869704753
S21440078000EB81118869704700EB81114A61704720
S21440079000EB8111CA61704700EB81114A627047D5
S2144007A000EB81118A62704700EB8111086A70473E
S2144007B010B4AC2303600B684A68B3FBF2F31B0922
S2144007C05C1E4FF6FE7294420AD803628B68436002
S2144007D040F20223C0F8203150230360002000E09E
S2144007E001205DF8044B7047436913F0020F1ABFAF
S2144007F0C161002001207047436913F0010F1DBFFF
S21440080083690B7000200120704700BF436913F0D6
S214400810020F1DBFC1F30801C161002001207047CF
S214400820436913F0010F05D08369C3F308030B60D7
S2144008300020704701207047FEE700BF08B5204BF8
S214400840204A9A4213D9204B1D4A9A421FD211463B
S214400850043203339B1A23F003030433194A134428
S21440086052F8040B41F8040B9A42F9D10FE0144BAE
S214400870144A9A420BD2144B114A9A1A13488118BA
S2144008802AB151F8042943F8042D8142F9D100BF1A
S2144008900F4B104A9A420BD2131D0F4AD21A22F01F
S2144008A003021A44043B002143F8041B9342FBD145
S2144008B00A4B0B4A9A600B4B98470B4B9847FEE700
S2144008C0000000209C5B400074080020985B4000BD
S2144008D060090020740800206309002000ED00E055
S2144008E00000400015104000A50D40003D4B1B6B1E
S2144008F003F00303032B5DD8DFE803F0020E2B2B37
S214400900394B5B6913F0800F14BF4FF400424FF42D
S214400910FA42364B1A604DE0324B1B6A13F0807F2A
S21440092003D0334A314B1A6044E0324A2F4B1A60A8
S2144009302C4B1B6A03F07003102B02D0202B04D0E4
S21440094038E02D4A294B1A6034E0294A274B1A6072
S21440095030E0244B1B6A13F0807F03D0244A234B9D
S2144009601A6012E0234A214B1A601E4B1B6A03F0A2
S2144009707003102B02D0202B04D006E01E4A1B4BDF
S2144009801A6002E01A4A194B1A60164B1B6B03F0AA
S2144009900303022B134A07BF936A926AD36AD26A4A
S2144009A01248C3F30A41036801FB0333D2B2B3FBD8
S2144009B0F2F303600B4B1B6B03F07003702B07D1F5
S2144009C00A4A13680D49A1FB03135B08136070477E
S2144009D0044B1A6B0549C2F302120B68D3400B60F6
S2144009E0704700BF00040E4010140E400000002068
S2144009F0001BB70000093D0000127A00ABAAAAAA65
S214400A001A4B984207D84FF08063194A136002F594
S214400A10007213607047174B984206D8164B144A1C
S214400A20136002F5007213607047144B984206D864
S214400A30134B0F4A136002F5007213607047114B58
S214400A40984206D8104B0A4A136002F500721360AB
S214400A5070470E4B984294BF4FF004230C4B044A09
S214400A60136002F500721360704700BFFF2C31011F
S214400A70000A0E40FF59620200010004FF869303FD
S214400A8000020004FFB3C40400030004FFE0F505C1
S214400A9000050004094B1B6813B9094A074B1A6046
S214400AA0064B1B681A180749914204DB1046034A56
S214400AB01060184670474FF0FF307047040900201A
S214400AC060390020FC7F02204FF0FF30704700BFA7
S214400AD04FF400534B600020704700BF0120704722
S214400AE000207047F8B50B480B4B98470B4D002439
S214400AF00B4F0C4E38462146AA88EB88B047013447
S214400B000835052CF6D1084800210222054B9847A7
S214400B10F8BD00BFBC554000AD11400094554000A4
S214400B20EC5540006510400020564000F0B583B0BC
S214400B3005460C4600230193184B984207D11F46A2
S214400B40174E38462146B0470028FAD117E0154BD5
S214400B50984207D11E46124D30462146A8470028E7
S214400B60FAD118E0104B984209D11E460F4D304638
S214400B7001A9A8470028FAD1019B23700BE00C4B33
S214400B809D4208D11E46094D304601A9A847002877
S214400B90FAD1019B237003B0F0BD00BF00060E40A3
S214400BA0F907400000080E4000400240210840007F
S214400BB00080024070B50C46184B984208D11E463D
S214400BC0174D30462146A8470028FAD1012070BD6F
S214400BD0144B984208D11E46114D30462146A84730
S214400BE00028FAD1012070BD0F4B984208D11E460E
S214400BF00E4D30462146A8470028FAD1012070BD48
S214400C000B4B984208D11E46084D30462146A84711
S214400C100028FAD1012070BD002070BD00060E40AD
S214400C20E907400000080E40004002400D08400022
S214400C30008002402DE9F0471820324B9847324E4C
S214400C40324C334F3B7854F833203046012142F43F
S214400C501C22304B98473B78DFF8F09054F833200E
S214400C60DFF8ECA059F82220BAFBF2F204EBC303FB
S214400C70B3F80480B2FBF8F8304601214246264BD2
S214400C8098473B7804EBC303DD88C5F1640508FB51
S214400C9005F5224BA3FB05356D09304601212A4652
S214400CA01F4B9847304601211E4B98473B7804EB34
S214400CB0C3031D489988DA881C4EB0471C485146E5
S214400CC0B0473B781B4854F83310B0473B7854F84D
S214400CD03330194859F82310B0473B7804EBC30328
S214400CE016489988B0473B7804EBC3041448E1881B
S214400CF0B04714482946B04713484146B047BDE878
S214400D00F08700BF010740000000014094554000B6
S214400D101409002055074000910740001F85EB51FD
S214400D208907400071074000D056400065104000DB
S214400D300C574000345740005C57400080574000F6
S214400D40A8574000D4574000E0574000D8594000CC
S214400D50000E270710B50C4802210C4B984710F0A0
S214400D60400F10D00A4A136801331360064C2046E1
S214400D700221084B9847084B186020460221074B33
S214400D809847074B186010BD00000140A907400077
S214400D90100900207907400008090020810740001C
S214400DA00C0900202DE9F04786B06C4B98476C4BF9
S214400DB098476C4C6C4B1C606C4A6D4B1A606D4A85
S214400DC06D4B1A606D4B02934FF4E13303934FF42F
S214400DD00063049309206A4DA847204602A9694B40
S214400DE09847694E336898680021684CA047336836
S214400DF058680021A0476648664CA0476648674941
S214400E00A04767486749684AA047684B4FF4004286
S214400E101A66C3F890205A655A62C3F88020196F44
S214400E2011431967596F21F4004159675A604FF0D2
S214400E3080621A66C3F890205A655A62C3F88020CA
S214400E40196F11431967596F21F0806159675A60CD
S214400E50574800210122A047564B98475648002144
S214400E600222A0471920A84754480221544A554B0D
S214400E709847554B4FF00072C3F88020C3F8802146
S214400E80002183F819131A60504B9847504D514C27
S214400E904E4F28460DF11701A0479DF81730682B96
S214400EA004D0732B04D0632B48D139E0B847F0E721
S214400EB0494B1B686BB3414802214022474B984739
S214400EC0DFF81491DFF84881D8F800300093444E9C
S214400ED0336801934348D9F8001000220223DFF814
S214400EE0B4A0D04730684049B1FBF0F1D8F80020B4
S214400EF0821A642303FB02F3B3FBF0F23B4889B249
S214400F0092B2D0470023C9F80030C8F800303360AA
S214400F1002E03748374B98473748364B9847B8E74C
S214400F203648344B9847254E304602214022344BB3
S214400F30984730460221334B9847AAE7303BDBB20E
S214400F40042BA6D8244A126822B92F4A1370194B8C
S214400F5098479EE72D48274B98479AE72901400037
S214400F601902400000080E4054090020B50B40000E
S214400F70500900202D0B40004C090020000E27078A
S214400F8001074000B107400030040020BD1140007A
S214400F90EC5740006510400010584000185840007C
S214400FA0245840003C58400048584000000E0E4030
S214400FB054584000350C40008C584000000001401A
S214400FC0020609005507400000E100E0E50A40003F
S214400FD0C45840008D10400010090020A107400072
S214400FE00C090020C85840007038390008594000A5
S214400FF040594000AD1140006059400080594000C3
S214401000990740007107400014090020A459400089
S2144010100809002070B50F4E0F4D761BB61018BF4E
S214401020002405D0013455F8043B9847A642F9D130
S2144010300A4E0B4D761B04F09BFDB61018BF0024DD
S21440104006D0013455F8043B9847A642F9D170BD06
S21440105070BD00BF7C5B40007C5B4000845B400012
S2144010607C5B40000FB400B5074983B004AB08680A
S21440107053F8042B8168019300F08EF903B05DF8B5
S21440108004EB04B0704700BF300400200FB400B536
S214401090074983B004AB086853F8042B41680193B2
S2144010A000F0BEFF03B05DF804EB04B0704700BF2D
S2144010B03004002070B4840746D0541E002A41D025
S2144010C0CDB2034602E0621EE4B3144603F8015B69
S2144010D09A07F8D1032C2ED9CDB245EA05250F2C18
S2144010E045EA054519D903F110022646103E0F2E53
S2144010F042F8105C42F80C5C42F8085C42F8045C2B
S21440110002F11002F2D8A4F1100222F00F0204F00D
S2144011100F041032032C13440DD91E462246043ABF
S214401120032A46F8045BFAD8221F22F00302043250
S214401130134404F003042CB1C9B21C4403F8011B49
S214401140A342FBD170BC704714460346C2E700BFBB
S214401150F0B5044689B008460D4600F0B3F8A368DB
S214401160114F9A890495022100F1010E012604AD23
S214401170029191040590CDF80CE0069707960195EC
S21440118006D4596E42F4005221F400519A815966B1
S2144011902046194601AA02F05BF8002814BF4FF01B
S2144011A0FF300A2009B0F0BDF4594000024B01461A
S2144011B01868FFF7CDBF00BF3004002000290CBFE1
S2144011C0022200224FF4806300F000B82DE9F0417F
S2144011D03A4C26680D46044690461F4616B1B36BF9
S2144011E0002B3CD0B8F1020F2FD8002F2DDB214624
S2144011F0304601F00DFDA18900236360A3610B0614
S21440120027D421F0830189B2B8F1020FA1812AD0F8
S214401210002D36D0B8F1010F11D089B201F0080088
S214401220274BF36380B225602561676178B111F082
S214401230030F18BF0027A7600020BDE8F08141F0EB
S21440124001017B42A181A361E7E74FF0FF30BDE893
S214401250F0812169304601F023FFA189D1E730466D
S21440126001F07CFDBEE7002004F1430341F002019B
S21440127000250122A181A560236023616261BDE84B
S214401280F081002F08BF4FF48067384602F044FADA
S214401290054628B1A18941F0800189B2A181B9E70C
S2144012A04FF4806002F038FA054618B9A1894FF02D
S2144012B0FF30D9E74FF48067ECE700BF30040020EA
S2144012C0612C400020F0030110F00300C0F1000044
S2144012D051F8043B00F1040C4FEACC0C6FF00002CE
S2144012E01CBF22FA0CF213434FF0010C4CEA0C2CB4
S2144012F04CEA0C4CA3EB0C0222EA030212EACC1294
S21440130004BF51F8043B0430F4D0C2F1000102EAB5
S2144013100102B2FA82F2C2F11F0200EBD20070471D
S2144013204B6E2DE9F0479C040F4692462BD59368AA
S214401330126833B3804602F1080919E96000B6081E
S21440134017D0043D002401E0A64210D0404655F890
S214401350041F3A4601F07AFD431C04F10104F3D120
S2144013600023CAF80830CAF80430BDE8F087DAF837
S2144013700830A3EB8603CAF8083009F10809002BA9
S214401380DBD10020ECE701F063FF0023CAF8083009
S214401390CAF80430BDE8F0872DE9F04FABB01C46E4
S2144013A0009193460493019018B1836B002B00F094
S2144013B0E380009B99898AB2900408D418465B6EF5
S2144013C041F4005223F400538281436692B21107DF
S2144013D040F1B280009B1B69002B00F0AD8002F00C
S2144013E01A020A2A00F0B48000230DF1680A099315
S2144013F00F930E930293CDF834A054469BF80030DA
S214401400002B00F0A384252B00F0A0845A4601E070
S214401410252B03D012F8013F002BF9D1CBEB020667
S214401420154696B10E9B0F9AC4F800B0013332446D
S214401430072B66600F920E9379DD002A40F0AF844A
S214401440029B0E923344544602932B78002B00F0B6
S214401450608300214FF000034FF0FF3C8DF82F30A3
S214401460681C6B7888460D46664600F1010BA3F172
S2144014702002582A00F2AB82DFE812F09B02A90253
S214401480A902A302A902A902A902A902A902A902C5
S21440149055026202A9020D016E02A90229012F011E
S2144014A02F012F012F012F012F012F012F012F0177
S2144014B0A902A902A902A902A902A902A902A9028F
S2144014C0A902A9023D01A902A902A902A902A902EC
S2144014D0A902A902A902A902A9027401A902A902A5
S2144014E0A902A902A9028B01A902A902A301A90285
S2144014F0A902A902A902A902A902A902A902A9024F
S214401500A902C701DA01A902A902A9022301DA0148
S214401510A902A9024C02A9028A021301F30107029A
S214401520A9020D02A9028100A902A90233020834C9
S214401530029B3344029388E70198009901F04CFAE5
S214401540A8B9009B9A8902F01A020A2A7FF44CAF87
S214401550009BB3F90E30002BFFF646AF019800997A
S2144015605A46234600F020FD2BB0BDE8F08F4FF0E2
S214401570FF302BB0BDE8F08F01F0F0FB19E718F014
S214401580200F0395B44600F00C81049B073323F0EC
S214401590070303F10802D3E90067049201234FF0E2
S2144015A000028DF82F20E1460025BCF1000FA8BFB1
S2144015B028F0800856EA070240F0C480BCF1000FCD
S2144015C000F08183012B00F0C580022B00F087835A
S2144015D05146F20842EA4772F80806F00703074603
S2144015E01646303356EA070201F8013DF1D118F0AD
S2144015F0010F079140F0FC83C1EB0A09E1454E46D6
S214401600B8BF664605B1013618F00203059318BF09
S214401610023618F08403069340F0FA81039B9D1B24
S214401620002D40F3F581102D40F38C84DDF838E032
S2144016300F9AC64F2046102364467146844607E0FC
S21440164001F1020E0CF1080C0146103D102D13DD81
S214401650481C103207280F92CCF80070CCF80430A3
S2144016600E90EDDD002A40F0C381103D102D11464E
S2144016704FF0010ED446EBDC63467146A4461C464A
S2144016802A4407290F92276065600E9100F346832F
S2144016900834481CBFE1584648F004089BF8003020
S2144016A0E3E618F020030395B44662D0049B073364
S2144016B023F0070303F10802D3E9006704920023EE
S2144016C06DE748F040089BF800305846CDE648F0B5
S2144016D080089BF800305846C7E6A3F13002002544
S2144016E01BF8013B05EB850502EB4505A3F13002EF
S2144016F0092AF5D9BBE648F0100818F0200F0395E4
S214401700B4468DF82F1000F09B800499073121F0E5
S2144017100701D1E900230831049116461F46002AE6
S21440172073F10003C0F2A683BCF1000FA8BF28F0F7
S214401730800856EA07029DF82F50E1464FF0010315
S2144017403FF43CAF012B7FF440AF002F08BF0A2E7A
S21440175080F034832AAB303603F8416DC3EB0A0978
S21440176007934BE748F0100818F020030395B4465B
S2144017709CD118F0100240F0F78218F0400300F0B9
S214401780F382049913460A4604320E8804920027D0
S21440179005E748F0100818F0200F0395B4467FF48C
S2144017A0F4AE049A18F0100F134640F0E48218F096
S2144017B0400F00F0E082168804320027012304928E
S2144017C0EDE6634A039518F0200FB4468DF82F10C7
S2144017D0099200F09080049A073222F00702D2E97C
S2144017E0006702F10801049118F0010F00F09082A2
S2144017F056EA070200F08C8230228DF8313048F0ED
S21440180002088DF830200223C9E6049A039513682F
S2144018108DF840301346043301264FF00001049300
S21440182010AB8DF82F10B14607934FF0000CEBE647
S21440183018F0200F0395B4468DF82F107FF465AF4F
S21440184018F0100F40F0A28218F0400F00F09E8271
S2144018500499B1F900600431F71732463B460491CB
S2144018605DE70499039530230A468DF83030782397
S21440187004328DF83130374B0993B44648F00208AD
S2144018800E6804920027022389E648F020089BF859
S21440189000305846E9E5049A0395136807934FF0DD
S2144018A00001B4468DF82F10161D002B00F0508313
S2144018B0BCF1000FC0F22A83079DCDF810C06246E7
S2144018C02846002102F006FADDF810C0002800F095
S2144018D05083C5EB000904969DF82F504FF0000C3E
S2144018E08CE61C4A039518F0200FB44609928DF8F2
S2144018F02F107FF470AF049918F0100F0A4640F08E
S214401900408218F0400F00F03C8204320E88049269
S214401910002769E79BF800306C2B00F0EA8248F01D
S21440192010085846A1E5049A15681346002D03F1A1
S2144019300403C0F2E68204939BF80030584694E5D0
S2144019409BF8003058462B218FE500BF385A4000A0
S214401950085A40001C5A40009BF800302A2B0BF1D6
S214401960010000F00F83A3F13002092A83464FF0AE
S21440197000063FF67CAD1BF8013B06EB860602EB05
S2144019804606A3F13002092AF5D946EAE6766EE520
S21440199018F0200F8DF82F1000F08382049A0299D9
S2144019A01368CF170846043239460492C3E900014B
S2144019B024E558469BF8003000297FF456AD202198
S2144019C053E548F0010858469BF800304DE503952E
S2144019D08DF82F10002B00F09C808DF840304FF093
S2144019E0000301268DF82F3010ABB14607931CE755
S2144019F00198009908930DAAFFF792FC002840F042
S214401A008F800E990F9A089B01F1010ED4461CE672
S214401A100E990F9A481C9DF82F306BB101320DF18C
S214401A202F03012107280F920E902360616000F378
S214401A303481014608340130059B63B102320CA95B
S214401A40022307280F920E9084E80A0000F33481A0
S214401A50014608340130069B802B00F0D480C9EB49
S214401A600C07002F2BDD102FAA4D1FDDA646102396
S214401A70019C07E001F1020C0EF1080E0146103FF2
S214401A80102F11DD481C103207280F92CEF8005058
S214401A90CEF804300E90EDDD6ABB103F102F4FF0AD
S214401AA0010C1146D646EDDC744660463A4407289B
S214401AB00F9284E8A0000E903BDC0834013002EB25
S214401AC00903079A0F93072884E804020E903DDD29
S214401AD0002B40F03E8118F0040F0E9340F02F810B
S214401AE0029B039A9642ACBF9B199B180293002315
S214401AF00E93544682E42046009905930DAAFFF7BC
S214401B000FFC68B90E990F9A059B01F1010CD64659
S214401B10B5E70F9B23B1019800990DAAFFF700FC8B
S214401B20009B9B895B063FF522AD02982BB0BDE833
S214401B30F08F002A40F0918101220799CDF86C90F1
S214401B404B46CDF83C901A910E92544604F108024A
S214401B5018F0040F39D003998D1B002D35DD102D5C
S214401B6040F302820E986C4FDDF80480DDF800905A
S214401B70102406E000F1020E08320846103D102DF3
S214401B8010DD411C103307290F93176054600E91E7
S214401B90F0DD002B2AD1103D102D4FF0010E1846D7
S214401BA05246EEDC2B44BEF1070F0F93176055608C
S214401BB0CDF838E009DD002B92D0019800990DAAA7
S214401BC0FFF7AEFB0028ABD10F9B029A03998E42DB
S214401BD0ACBF921952180292002B88D001980099F7
S214401BE00DAAFFF79DFB002881D099E7404649465D
S214401BF00DAAFFF795FB002892D10E980F9B00F197
S214401C00010E5246BAE7039B9F1B002F7FF727AF74
S214401C10102F404D40F3B48120461023644684463E
S214401C2007E001F1020E0CF1080C0146103F102FA0
S214401C3011DD481C103207280F92CCF80050CCF823
S214401C4004300E90EDDDC2B9103F102F4FF0010E5C
S214401C501146D446EDDC6346A4461C463A44BEF1E3
S214401C60070F0F9284E8A000CDF838E000F3EF802D
S214401C7008340EF101007146F1E60198009905938B
S214401C800DAAFFF74DFB00287FF44AAF0E990F9A36
S214401C90059B01F1010ED446C8E7002A40F0C680F5
S214401CA0059B002B00F086800CAA02231A92084659
S214401CB01B931A465446CBE6002A40F0A6800120E5
S214401CC011465446C7E603BB18F0010F1DD02AAB99
S214401CD0302203F8412DC3EB0A0907938EE4099896
S214401CE0D146330906F00F0143EA07733A091E4608
S214401CF01746435C09F8013D56EA0703F1D14B46C7
S214401D00CDF81C90C3EB0A0978E4CDF81CA075E426
S214401D10022344E4F8594000385A4000002A40F074
S214401D20D7809DF82F30002B00F0AE8001230DF1B8
S214401D302F0118461B931A461A91544679E6039A81
S214401D40951B002D52463FF70AAFC9E65D46FFF7A2
S214401D507CBB019800990DAAFFF7E2FA00287FF4B1
S214401D60DFAE0F9B5246F3E604990A4604320E68ED
S214401D700492002713E404321E68049201230027CD
S214401D800DE416680432049200272DE5049A16687E
S214401D9013460433F717049332463B46BFE4019894
S214401DA000990DAAFFF7BCFA00287FF4B9AE544656
S214401DB0FFF7BEBB0846544611464CE6D146CDF822
S214401DC014C0304639460A22002303F015F9303253
S214401DD03046394609F8012D00230A2203F00CF953
S214401DE006460F4656EA0703EBD1DDF814C086E7F1
S214401DF0302B079B86D0013B1A4607933023C2EB15
S214401E000A0901F8013CFFF7F9BB01980099CDF8A3
S214401E1014C00DAAFFF784FA00287FF481AE0E990D
S214401E200F9ADDF814C0481C544614E601980099F1
S214401E30CDF820C00DAAFFF773FA00287FF470AEE5
S214401E400E990F9ADDF820C0481C5446F4E5002A47
S214401E5067D101201146544601E6019800990DAA23
S214401E60FFF75EFA00287FF45BAE0E980F9A0130BB
S214401E70544624E62D25764267EB47078DF82F50CB
S214401E80E1460123FFF791BB059B114601205446CE
S214401E90002B3FF4E4AD0CAA02238AE80C001A4655
S214401EA0D6E518F0100F0BD118F0400F08D0049A62
S214401EB0136804320492BDF808201A80FFF79EBAD1
S214401EC0049A136804320492029A1A60FFF796BA8C
S214401ED001980099CDF820C00DAAFFF721FA0028F6
S214401EE07FF41EAE0E990F9ADDF820C0481C54466B
S214401EF091E548F020080BF101009BF80130FFF710
S214401F00B4BA6D4204935846FFF7C6BB079804968A
S214401F10FFF7D8F99DF82F5081464FF0000CFFF799
S214401F206DBB01980099CDF814C00DAAFFF7F8F9DB
S214401F3000287FF4F5AD0E990F9ADDF814C0481CC2
S214401F4054468CE50E990F9A154F0131FFF798BB12
S214401F50BCF1060F28BF4FF0060C124B0496E14624
S214401F602CEAEC76079360E40E990D4F01F1010ED2
S214401F7018E6E1469DF82F5004968446FFF73EBB90
S214401F8086466BE6049A9BF8013016680432002EAB
S214401F900492BFF66AAA4FF0FF36FFF766BA00BF54
S214401FA0385A4000305A40002DE9F0420C46ADF514
S214401FB08D6DB1F80CE0E769496EB4F80E90199152
S214401FC01AAD4FF480662EF0020E4FF0000C0797C5
S214401FD06946676A0095049502960596ADF80CE04A
S214401FE0ADF80E900997CDF818C00646FFF7D4F91D
S214401FF0051E07DB3046694600F00AFE002818BF7B
S2144020004FF0FF35BDF80C305B0603D5A38943F08F
S2144020104003A38128460DF58D6DBDE8F08200BFD4
S2144020202DE9F04F0C468989DBB08D04059306D424
S214402030636E41F4005123F40053A1816366174652
S214402040002317F8011B069304931D460893DFF8F8
S214402050E8B30D91804639B3DBF8000043185B784F
S21440206003F0080303F0FF0913B363680DE0236829
S214402070DBF800101A780A440133527811070CD561
S21440208062682360531E01356360002BEFDC4046D8
S214402090214602F06BF90028E9D03A46174617F871
S2144020A0011B0D910029D7D108985BB0BDE8F08F91
S2144020B0252940F087805378CA46791C782B00F251
S2144020C04A81DFE813F07900480148014801480199
S2144020D04801480148014801480148014801480173
S2144020E04801480148014801480148014801480163
S2144020F04801480148014801480148014801480153
S2144021004801480148014801480148014801480142
S2144021107E00480148014801480143014801480102
S2144021204801480148013A013A013A013A013A0168
S2144021303A013A013A013A013A0148014801480158
S2144021404801480148014801480148014801360114
S2144021504801480148014801480148014801310109
S214402160480148012D0148014801480148014801FD
S2144021704801480148012901480148012001480119
S2144021804801480148014801480148011A01120126
S2144021904801480148010D01050148014801FD007C
S2144021A04801E300DB00F30048014801BE00480157
S2144021B092004801480129014FF0FF305BB0BDE86E
S2144021C0F08F0F466368002B40F34F83236817F861
S2144021D0012C197891427FF467AF62680133013A67
S2144021E06260236001353A4658E7914B06930A23CE
S2144021F004930F46564603236268002A28DD19F0EA
S214402200400F40F0B680DBF80000216800E0216017
S2144022100A78024401315278120740F1AA80626877
S214402220013A002A05F101056260F0DC404621468D
S214402230039302F09BF898B9DBF800002168039BF3
S214402240E6E76268002A0F4656464FF00203D6DCA1
S21440225040462146039302F089F8039B0028CED0DF
S214402260089A002AA8D0A38913F0400F134618BF37
S2144022704FF0FF3318465BB0BDE8F08F0F466C4B0F
S21440228006930823049356460323B5E719F0100F28
S2144022900F467FF402AF19F0040F00F00083059A52
S2144022A01368043205921D803A46F7E60F4649F415
S2144022B008795F4B069310230493564603239BE707
S2144022C07B786C2B00F0E68249F001090F46F4E675
S2144022D0584B0693002304930F46564603238BE73A
S2144022E07B7849F004090F46E7E60F46514B0693C4
S2144022F00A230493564603237EE70F4649F04009D7
S2144023005646002378E71AA802F0CAF849F0400972
S2144023100746564601236FE70F4649F40079C8E75B
S2144023200F4649F00109AAE77B7849F002090F46B3
S214402330C3E60F4649F00109D8E70AEB8A0A03EBE1
S2144023404A0AAAF1300A7B780F46B6E67B7849F00F
S21440235010090F46B1E603440F465B7803F00303CB
S214402360012BE7D0334B06930A23049356460323A8
S21440237042E7022B00F01581032B5FD0012B25D0BE
S214402380BAF1000F14BF5646012619F0010340F07B
S214402390D38119F0100F00F05282994608E013449A
S2144023A023609144B61A01F0E1FF002840F04182D4
S2144023B062682368B24240462146F0DB921B3344B3
S2144023C06260B14423604D443A4667E6BAF1000F76
S2144023D014BF56464FF0FF3619F0100F00F00F812D
S2144023E01AAA21684FF0000992460B781AF8033073
S2144023F00131B3B16368216009F10109013B4E45E3
S2144024006360E0D0002BF0DC4046214601F0AEFF92
S2144024100028D8D121680B781AF803300131002BF8
S214402420E8D1B9F1000F3FF43FAE4D44CCE700BFD2
S214402430854840009D454000340400200AF1FF33A3
S214402440262B8CBFAAF1270300234FF000020DF184
S214402450400C07932B46049D039288BF272649F4D9
S2144024605869E2463A46206890F800E0AEF12B0103
S2144024704D293FD8DFE801F08F3E8F3E3E666060D4
S21440248060606060605A5A3E3E3E3E3E3E3E555517
S214402490555555553E3E3E3E3E3E3E3E3E3E3E3EBB
S2144024A03E3E3E3E3E273E3E3E3E3E3E3E3E5555F0
S2144024B0555555553E3E3E3E3E3E3E3E3E3E3E3E9B
S2144024C03E3E3E3E3E2709F4C061B1F5007F11D145
S2144024D029F4007949F4A069102561688AF800E07B
S2144024E0013900290AF1010A616045DD01302060AA
S2144024F0013EB8D119F4807F049517461D4605D095
S214402500E24500F2BA81E2453FF4CEAD19F010063E
S21440251000F0FA80039BCCEB0A0C9C4465443A4698
S214402520BCE50A2DE6DD29F43869D6E7AD4931F930
S2144025301550082DF7DCDDE7AA4929F4386931F94A
S2144025401550CAE719F4006FC7D015B949F4007999
S214402550082519F4806F40F03B81079929F460798B
S21440256011B1013907910136039901310391616830
S214402570013900296160B9DC404621460A92099338
S214402580CDF810C001F0F2FEDDF810C0099B0A9AA3
S2144025900028ADD0AEE719F0800FABD029F0800907
S2144025A09BE7BAF1000F14BF56464FF0FF3619F0BE
S2144025B0010340F0838019F0100F50D0DBF8001074
S2144025C02268994613780B4401325B7818073FF52A
S2144025D0FAAE6368226009F10109013B4E4563602B
S2144025E03FF4F1AE002BEDDC4046214601F0BEFE46
S2144025F000287FF4E8AEDBF800102268E2E7059A90
S2144026001346D2F8009004330593CA461AAA2368A4
S2144026101978515C581CB1B161682060013961601D
S2144026201B780AF8013B013E0DD06368002BEEDCB8
S21440263040462146039201F099FE039A0028E6D0D0
S214402640CA453FF40DAEBAEB09093FF42DAD089BE1
S2144026500022013308938AF800204D44B4E6059AD8
S2144026601346D2F8009004330393CA462168DBF839
S21440267000200B7813444A1C5B781B0711D4636810
S2144026802260013B63600B780AF8013B013E08D0AC
S2144026906368002BEADC4046214601F067FE0028CE
S2144026A0E4D0089A0132C9EB0A0900230892039A3B
S2144026B005924D448AF800303A46EFE40EAB184691
S2144026C0002108220993FEF7F5FC19F01003039346
S2144026D000F081800DF1340A002291462368DBF831
S2144026E000201B7813445B781B0702D4002E40F072
S2144026F00B81039B002B7FF4D0ACCAF80030089BBC
S214402700013308933A46C9E4324661468AF8006087
S2144027104046049B069ECDF81CC0B04719F0200FDB
S214402720DDF81CC075D0059A13680432059218600F
S214402730089B01330893EDE60EAB184600210822AD
S2144027400993FEF7B7FC19F010030A935AD00023FA
S214402750194603950A9D0B974FF0000A0DF1400964
S2144027600F46CDF81C8000F061FF50453FF478AD31
S21440277094E80A00099A11F801EB2160013B0AF13E
S2144027800108009239466360079809F80AE0434614
S2144027904A4601F05BFA411C3FF462AD002841D145
S2144027A005B93D60039B43440393013E002D3DD154
S2144027B00437AA466368002B16DD002ED3D1039D4E
S2144027C00B9FDDF81C800A9B002B98D03A4665E4A8
S2144027D029F4B06981E6059A13460433D2F800A07E
S2144027E0059379E7485A40000798214601F0BEFD18
S2144027F00028E2D0039D0B9FDDF81C80BAF1000F45
S214402800E1D02DE5059A136819461346043305931F
S2144028109FE719F0040F5BD0059A136804320592BF
S214402820188085E70230BDD1C246C3E74FF0000AA4
S214402830C0E7B9F1000F3FF413AD4D44C4E5059B26
S2144028404046196800943346012200F011FB059B70
S21440285003F1040A00283FF403AD089BCDF814A00A
S2144028600133054408933A4618E44046214601F0B1
S2144028707DFD00283FF4AAACF2E41AF8011CCDF81E
S2144028801CC04046224602F0B9F90AF1FF3ADDF88C
S2144028901CC038E6BB7849F0020902370DE419F04F
S2144028A0010F0DD119F0020F0AD0059A1368284679
S2144028B00432E9170592C3E900013A46FFF7EEBB3A
S2144028C0059A1368043205921D603A46FFF7E6BB48
S2144028D019F001027FF427AF19F0020F3FF423AF3F
S2144028E03C4B0699CDF81CC0994240466146049B35
S2144028F067D001F0E1FEDDF81CC0059A136804328B
S2144029000592C3E9000113E700F090FE48453FF406
S214402910A7AC94E80A000DF1400E11F8012B216097
S21440292009F1010C09990091013B63600EF80920FA
S2144029306346724640465146CDF81CC001F086F9C3
S214402940421C3FF48DACDDF81CC098B1023008BF85
S214402950E1463BD16368002B3FF7C0AE4046214678
S21440296001F004FD00283FF4B9AE4A46002A7FF441
S21440297077ACBEE6CAF80000CDF81CC000F044FEB6
S214402980DDF81CC098B1E146BCF1000F3FF4B1AE93
S21440299010AB03EB0C0609F1FF39404616F8011D53
S2144029A0224602F02BF9B9F1000FF4D1A1E6039BC1
S2144029B06544013E1BB90AF1040A9946CAE78146B6
S2144029C0C8E701F0F3FFDDF81CC096E7DAF8000030
S2144029D0D2E700BF8548400038B52F4B1B680546F8
S2144029E00C4613B19A6B002A36D0A28993B21807C8
S2144029F00CD52069A8B113F001021ED063690022ED
S214402A005B42A361A260F0B1002038BDD9063BD539
S214402A10580725D4206942F00803A3819BB20028BA
S214402A20E9D103F42072B2F5007FE4D0284621466F
S214402A3000F002FEA3892069DDE7990758BF626966
S214402A40A2600028E0D1A3891A06DED543F04003F1
S214402A50A3814FF0FF3038BD184600F07FF9C4E739
S214402A60216B49B104F14003994203D0284600F057
S214402A7017FBA2890023236322F024020023206947
S214402A80636092B22060C6E742F0400209232B60A2
S214402A904FF0FF30A28138BD30040020024B13B106
S214402AA0024800F005B8704700000000712D400055
S214402AB0014600200246034602F0AAB98B899AB224
S214402AC02DE9F0410D46110780463CD46A6843F430
S214402AD00063002AAB8165DDAE6A002E4BD09BB208
S214402AE003F48052002192B2D8F80040C8F8001093
S214402AF0002A5BD02A6D5F0705D569682B6B521A92
S214402B000BB1EB6BD21A4046E9690023B047461C2E
S214402B1056D0AB892A692A6023F400639BB2002210
S214402B206A60DA04AB813BD4296BC8F8004011B325
S214402B3005F14003994202D0404600F0B1FA002029
S214402B402863BDE8F0812E69AEB12C682E609107EF
S214402B500CBF6B690023A41BAB600AE032462346D9
S214402B606F6AE9694046B8470028A4EB000406446B
S214402B7004DD002CF2DC0020BDE8F081AB8943F098
S214402B804003AB814FF0FF30BDE8F081AB892A6946
S214402B90696023F400639BB2AB81DB042A60C3D533
S214402BA02865C1E7EA6B002A96DCE4E70123404645
S214402BB0E969B047431C024619D0AB89AE6A9AE72A
S214402BC0D8F800100029E1D01D2907D0162905D0D5
S214402BD0AB8943F04003AB81BDE8F081AB892A69FD
S214402BE02A6023F400630022AB816A609CE7D8F831
S214402BF00030002BE1D01D2B07D0162B05D0AB891B
S214402C0043F04003AB81BDE8F081C8F80040B2E72E
S214402C1010B5044682B008B1836B53B1B1F90C00CD
S214402C2008B902B010BD204602B0BDE81040FFF71C
S214402C3045BF019100F092F80199EFE720B1054BAE
S214402C4001461868FFF7E4BF034B0449186800F0D4
S214402C50B1BC00BF30040020F0594000112C4000A9
S214402C60014900F0A7BC00BFD94E40002DE9F04F07
S214402C70354B4568C3630024074600F53B72042382
S214402C800321C0F8E412C0F8E822C0F8E04283B05E
S214402C902C606C60AC606C66EC812C616C61AC61E5
S214402CA0AB81214605F15C000822FEF703FABE68B8
S214402CB0DFF898B0DFF898A0DFF89890DFF89880B3
S214402CC0C5F820B001230922C5F824A0C5F82890ED
S214402CD0C5F82C80ED612146F381B28106F15C0097
S214402CE034607460B460746634617461B4610822A0
S214402CF00193FEF7DFF9FD68F66112200222C6F85E
S214402D0020B0C6F824A0C6F82890C6F82C802146E5
S214402D10A881EA812C606C60AC606C662C616C614A
S214402D20AC6105F15C000822FEF7C4F9019BED6139
S214402D30C5F820B0C5F824A0C5F82890C5F82C8062
S214402D40BB6303B0BDE8F08F612C400019454000DE
S214402D503D4540007545400095454000836B03B1B6
S214402D607047FFF783BF00BF704700BF704700BF84
S214402D7038B5084B084DED1AAC1018BFED1805D005
S214402D80013C55F8043D9847002CF9D1BDE8384041
S214402D9002F0F8BE905B4000945B40002DE9F041A5
S214402DA082B007460E46144600F040FC012841D04B
S214402DB0384601A9324604F15C0301F0DDFFB0F16C
S214402DC0FF3F80462FD000283CD09DF804100025B9
S214402DD009E0236819702368013323600135A8454C
S214402DE030D901AB595DA368013B002BA360F0DAF4
S214402DF0A269934207DB23681970236819780A2969
S214402E0003F10103E9D13846224601F061FFA0F103
S214402E10FF30B0FA80F040090028DFD04FF0FF3096
S214402E2002B0BDE8F081A38943F04003A38102B01D
S214402E30BDE8F081731EFE2BBAD8F1B280468DF8FD
S214402E400410C4E7304602B0BDE8F081938913F41D
S214402E50005F0BD110B4546E43F4005344F4005456
S214402E60546693815DF8044BFFF798BFFFF796BF13
S214402E702DE9F04F85B002FB03F590460393DDF84D
S214402E8038B0002D48D08946044618B1826B002AD7
S214402E9000F0A880BBF80C2091B288040AD4DBF876
S214402EA0641042F4005221F40050ABF80C2091B26A
S214402EB0CBF86400DBF80460002E38DB8B07324624
S214402EC03CD4AA4610E000F04FFFDBF80020324426
S214402ED0CBF8002020465946B144C6EB0A0A01F01A
S214402EE045FAE8B9DBF80460DBF80010B245324634
S214402EF04846E8D8524600F037FFDBF80410DBF8C7
S214402F0000200398CAEB01015244CBF80410CBF8DA
S214402F10002005B0BDE8F08F284605B0BDE8F08F2C
S214402F20CAEB0505B5FBF8F005B0BDE8F08F00200C
S214402F308B070246CBF804000646C2D5AA4228BFF5
S214402F402A46DBF800104846924600F00DFFDBF8B4
S214402F500060DBF80420DBF8301006EB0A03CAEB0F
S214402F600202019309EB0A07CBF80030CBF80420A5
S214402F70CAEB050600293ED0002E3ED00BF140009D
S214402F80814205D0204600F08BF8DBF800300193F4
S214402F900021CBF83010DBF810300293DBF814A099
S214402FA04FF0000900E046B3CBF81070CBF8146041
S214402FB0CBF800705946204601F0D8F9DBF80410EB
S214402FC0029BCBF81030019BCBF814A0CBF8003016
S214402FD0761A0F44CBF804900028E4D0AD1BB5FB1E
S214402FE0F8F096E7FFF7BAFEBBF80C2091B28804DB
S214402FF03FF560AF53E7002ECDD1039805B0BDE84E
S214403000F08F00BFF8B5234F0C46064600F0AAFFE7
S214403010BB685D6825F00305291B01F6EF7121F4B6
S2144030207F6121F00F01A1F58054B4F5805F07DB86
S2144030303046002101F022FABB682B44984204D067
S214403040304600F091FF0020F8BD3046614201F066
S21440305015FA01300DD0104BBA6819682D1B45F093
S21440306001053046091B5560196000F07DFF0120C0
S214403070F8BD3046002101F001FABA68831A0F2BDA
S214403080DEDD064C0449246843F00103001B536010
S2144030900860D5E75C04002024090020680800206A
S2144030A000294ED02DE9F0410C46804600F05AFFEC
S2144030B054F8047C624927F00102A4F10805AB18D5
S2144030C08E6858689E4220F003005AD0FE0758602B
S2144030D00BD454F8087CED1B01F1080EAC6874451F
S2144030E03A4467D0EF68E760BC601C186468E40741
S2144030F00CD4544F9C68BC4202447CD0D868E060F4
S21440310042F0010384606B60AA5003E042F0010382
S2144031106B60AA50B2F5007F14D2D20801EBC2030E
S21440312048689F68AF609210012404FA02F2104388
S214403130EB6048609D60FD604046BDE8F04100F0B1
S21440314013BF7047530A042B47D8930903F138043A
S214403150600001EB80003A498368834243D0596857
S21440316021F00301914202D99B689842F7D1DA6870
S214403170EA60AB6040469560DD60BDE8F04100F037
S214403180F3BEFF07024407D454F8083CED1A1A442D
S214403190A868EB68C36098602B4B1B6842F0010040
S2144031A09A4268608D60C7D3284B40461968FFF73F
S2144031B029FFC1E719184968C90709D4D9689B6827
S2144031C0024442F00100D9608B606860AA50B3E7C1
S2144031D042F001036B60AA50AEE7142B14D803F1FB
S2144031E05B046000B5E74A68A4100120A040024393
S2144031F04A601A46BCE742F001034D610D61EC603F
S214403200AC606B60AA5097E7542B04D8130B03F1BD
S2144032106E0460009DE7B3F5AA7F04D8D30B03F194
S2144032207704600095E740F25450834204D8930CEC
S21440323003F17C0460008CE7FC207E2489E700BF15
S2144032405C0400206404002064080020200900205C
S2144032509368002B7AD02DE9F04FB1F80CE01EF0C1
S214403260080F83B00C468146164626D00B6923B31A
S2144032700EF002081FFA88F0356870B34FF0000A67
S214403280DFF8E0B2D046D8454346524628BF5B46B4
S2144032904846B8F1000F53D0E169676AB84700283E
S2144032A073DDB3681B1A8244C0EB0808B360002B7A
S2144032B0E9D1002003B0BDE8F08F48462146FFF72D
S2144032C08BFB002840F04581B4F80CE035680EF0E2
S2144032D002081FFA88F00028D0D11EF0010B5DD1FD
S2144032E0D846B8F1000F25D01EF4007FA7682FD02F
S2144032F0B845BA46C0F0A9801EF4906F40F0B6803C
S21440330020685246594600F0C9FDA0682268C01B96
S21440331002EB0A03A06023604046B3681B1A83444E
S214403320C0EB0808B360002BC3D0B4F80CE0B8F18B
S214403330000FD9D1D5F800B0D5F804800835D0E7CD
S214403340D5F800A0D5F8048008359CE700207047E3
S21440335020682369984203D86269904580F0B98016
S214403360474528BF47463A46594600F097FDA3686A
S2144033702268DB1B3A44A3602260002B4AD14846B1
S2144033802146FFF745FC002844D0A38943F040037C
S2144033904FF0FF30A38103B0BDE8F08F8046009029
S2144033A083468246BAF1000F2CD0009B002B50D0AB
S2144033B020682169D4F808E06269D045434628BFB2
S2144033C0534688421F4604D90EEB020C634500F371
S2144033D09280934220DB1346676AE16948465A4624
S2144033E0B847071ED1DDB8EB070825D0B368DB1B0E
S2144033F0BB44C7EB0A0AB360002B3FF45AAFBAF19E
S214403400000FD2D10023D5F800B0D5F804A0009321
S2144034100835C7E7384680E71A465946019300F014
S2144034203DFDA2682168019BB8EB0708A2EB0302AA
S2144034300B44A2602360D9D148462146FFF7E8FBFB
S2144034400028A2D1CDF80080D0E720684746C24683
S21440345057E758460A21524600F03CFC002873D0F5
S21440346001300123CBEB00080093A1E7676921698F
S214403470236807EB47075B1A07EBD777581C7F1084
S214403480404487423A463CBF07463A461EF4806F61
S214403490009346D01146484600F046F9009B8246C7
S2144034A0002859D01A462169009300F05DFCA28995
S2144034B0009B22F4906242F08002A2810AEB030055
S2144034C0FB1AC4F810A067612060A3604746C24656
S2144034D017E76FF00043434528BF4346676A93FBB0
S2144034E0F2F3484603FB02F3E1695A46B847002820
S2144034F03FF713AF49E762465946CDF804C000F09F
S214403500CDFC2368DDF804C063442360484621466A
S214403510FFF77EFBDDF804C000287FF436AF674631
S21440352061E7484600F022FD009B82460028C5D150
S21440353048462169FFF7B4FDA3890C2223F0800397
S2144035409BB2C9F8002021E701230AF10108009345
S2144035502EE74FF0FF30ADE60C23C9F80030A389C4
S21440356014E700BF00FCFF7F2DE9F04110F53877E7
S2144035701BD0884600267D68BC68013D0FD4A389D1
S214403580012B05F1FF3506D9B4F90E30013320463C
S21440359001D0C04706436B1C04F16804EFD13F6876
S2144035A0002FE8D13046BDE8F0813E463046BDE8C3
S2144035B0F08100BF2DE9F84310F538771FD08846D4
S2144035C006464FF000097D68BC68013D11D4A389CA
S2144035D0012B05F1FF3508D9B4F90E3001332146E9
S2144035E0304602D0C04749EA00096B1C04F1680423
S2144035F0EDD13F68002FE6D14846BDE8F883B9468E
S2144036004846BDE8F88300BFFF2807D8044B1B6830
S2144036101844407800F00800C0B270470020704759
S214403620340400200048704738040020014B1868D6
S214403630704700BF580400208B899AB212F0020FE0
S2144036403CD1F0B50C46B1F90E10002991B00546B4
S21440365019DB01AA01F082FC002812DB029B03F46E
S2144036607043B3F5004FA3F50057B7FA87F74FEA14
S21440367057172AD0A38943F40063A3814FF480668A
S2144036800BE0A3899AB212F0800F43F40063A38143
S2144036900CBF4FF48066402600272846314600F08F
S2144036A043F8A38940B31A4AEA6343F08003A381F0
S2144036B02060206166619FB911B0F0BD01F14303FF
S2144036C001220B600B614A617047124BA26A9A4214
S2144036D0D0D1A3894FF480663343A381E664DCE708
S2144036E02846B4F90E1001F04DFC0028E4D0A3891A
S2144036F043F00103A381DFE79A05DDD404F14302DA
S21440370043F002030121A381226022616161D3E775
S214403710612C400075454000024B0146186800F099
S21440372003B800BF300400202DE9F04F01F10B052F
S214403730162D83B0064627D935F0070500F1B6802A
S214403740A94200F2B38000F00DFCB5F5FC7F22D212
S214403750C24FE80807EBC003DC689C4200F0C88113
S2144037606368E168A56823F00303234430465A683B
S214403770E96042F001028D605A6000F0F5FB0834C3
S214403780204603B0BDE8F08F102900F28F8000F08D
S214403790E9FB1025DCE7680A00F08F80042800F279
S2144037A05481A80938304100AC4F07EB8101CC6802
S2144037B0A14206D10CE0002A80F28280E468A14251
S2144037C006D0636823F003035A1B0F2AF3DD013843
S2144037D00130A2493C6901F1080E744500F07D8134
S2144037E0636823F003035A1B0F2A00F36381002A01
S2144037F0C1F814E0C1F810E073DAB3F5007F80F04A
S2144038003981DB0801EBC3084FEAA30C4A68D8F8B5
S2144038100890C4F80890012303FA0CF31343C4F845
S2144038200C804B60C8F80840C9F80C408210012450
S21440383094409C4262D8234206D120F003006400A4
S214403840234200F10400FAD007EBC008C446814684
S214403850DCF80C309C4507D141E1002980F25181CB
S214403860DB689C4500F03B815A6822F00302511BFE
S2144038700F29F2DD1C46D3F80CC054F8088F5A19AD
S21440388045F0010941F00105C3F804903046C8F8F8
S2144038900CC0CCF808807A613A61C2F80CE0C2F8F5
S2144038A008E05560515000F05FFB69E700240C23A8
S2144038B02046336003B0BDE8F08F7E213F2073E79B
S2144038C02344E1685A68A56842F00102E960304640
S2144038D08D605A6000F048FB0834204603B0BDE8CF
S2144038E0F08F234430465A6842F001025A6000F096
S2144038F03BFB0834204603B0BDE8F08FBC686368E5
S21440390023F00308454504D8C5EB08030F2B00F306
S2144039108C80534BDFF858A11A68DAF80030013330
S2144039202A4404EB080B00F0508102F580520F3217
S21440393022F47F6222F00F0211463046019200F0D8
S2144039409DFDB0F1FF3F8146019A00F047818345D7
S21440395000F2EE80434B1968CB451144196000F0E5
S2144039604281DAF80000DFF808E101301BBFCBEBFC
S214403970090B5944CEF80090196019F0070100F081
S2144039800781C1F10800C1F58051814408314A449D
S214403990C2F30B02C2EB010A51463046019300F0D7
S2144039A06DFD431C019B00F02C81C9EB0002524484
S2144039B042F001021968C7F808905144BC42C9F861
S2144039C004201960DFF89CA016D0B8F10F0F40F223
S2144039D0EE806268A8F10C0323F00703E01802F0BB
S2144039E001024FF0050E1A430F2B6260C0F804E048
S2144039F0C0F808E000F209811B4BBC681A68914287
S214403A0088BF1960194B1A689142626888BF19606E
S214403A1022F003029542A2EB050301D80F2B04DCEB
S214403A20304600F0A1FA0024AAE6621943F00103EA
S214403A3045F0010565603046BA60536000F094FA80
S214403A400834204603B0BDE8F08F142868D95428BF
S214403A5000F29780280B6E304100A5E65C040020FB
S214403A6020090020240900201C09002018090020F5
S214403A70680800205A0A042A55D9142A00F2A7805A
S214403A805B324FEA420C07EB8C0CDFF8BC81DCF86B
S214403A90081061457FD04A6822F00302934202D262
S214403AA089688C45F7D1CA687B68E260A1609460FB
S214403AB0CC60BBE6631942F0010745F0010565603E
S214403AC030464B610B61C3F80CE0C3F808E05F601A
S214403AD09A50083400F048FA52E64B68A6E609F1D8
S214403AE0010919F0030F0CF1080C7FF4B1AE2CE07D
S214403AF004F108036469A34208BF02303FF469AE8C
S214403B002EE61A441C465168DB6854F8085F41F0BC
S214403B10010151603046EB609D6000F025FA2FE6CB
S214403B205B30410040E69A0938324FEA420CAAE739
S214403B30BC42454B3FF40EAF9C68626822F00302DD
S214403B4068E7D8F8008098457CD110F0030FA8F1BC
S214403B50080300F1FF30F4D17B6823EA04037B605E
S214403B6064009C423FF6CAAE002C3FF4C7AE2342E8
S214403B7048467FF469AE6400234200F10400FAD060
S214403B8062E6B0F5AA7F18D8E80B773041000BE61E
S214403B904FF48051FBE6D8F8043092104FF0010CF9
S214403BA00CFA02F21343C8F804300A467DE70123B4
S214403BB0C9F804304C4600222CE740F25453984251
S214403BC01CD8A80C7C304100EEE51032B4E6542AEE
S214403BD023D81A0B6E324FEA420C54E7BC68626830
S214403BE022F0030216E7CBF30B0000287FF4B9AEB1
S214403BF04244BB6842F001025A60FDE6FC217E204A
S214403C00D2E501224FF0000AD4E604F1080130461E
S214403C10FFF746FADAF80010EEE6B2F5AA7F04D8C7
S214403C20DA0B77324FEA420C2DE740F254518A4283
S214403C3004D89A0C7C324FEA420C24E74FF0FC0C36
S214403C407E2220E77B688BE75C0400202DE9F0436A
S214403C5083B005460A9E1446B2B11F46104B8846AE
S214403C60D3F80090FFF7DEFC41468DE8410022463F
S214403C703B462846C847431C03D100228A2332606D
S214403C802B6003B0BDE8F083054B1F68FFF7CAFC06
S214403C9021468DE84100034A28460123B847EAE713
S214403CA06C0800203057400082B049B15AB16BB121
S214403CB013780B601278101C18BF012002B07047B2
S214403CC001A9002AF3D1104602B070476FF00100F8
S214403CD0F4E700BF830770B4C9B240D0541E002A30
S214403CE03FD003788B4218BF431C06D11DE0F4B189
S214403CF002788A4204F1FF3417D013F0030F1846B7
S214403D0003F10103F3D1032C14D884B103788B421A
S214403D100BD00519431C02E002788A4205D0AB421C
S214403D20184603F10103F7D1002070BC70472046C7
S214403D3070BC704741EA0126024646EA06461046EF
S214403D40043203687340A3F1013525EA030313F0F8
S214403D50803FDAD1043C032C1046F0D8D5E7144611
S214403D60D1E71046E1E700BF844641EA000313F07E
S214403D7003036DD1403A41D351F8043B40F8043B2D
S214403D8051F8043B40F8043B51F8043B40F8043BF0
S214403D9051F8043B40F8043B51F8043B40F8043BE0
S214403DA051F8043B40F8043B51F8043B40F8043BD0
S214403DB051F8043B40F8043B51F8043B40F8043BC0
S214403DC051F8043B40F8043B51F8043B40F8043BB0
S214403DD051F8043B40F8043B51F8043B40F8043BA0
S214403DE051F8043B40F8043B51F8043B40F8043B90
S214403DF051F8043B40F8043B403ABDD2303211D330
S214403E0051F8043B40F8043B51F8043B40F8043B6F
S214403E1051F8043B40F8043B51F8043B40F8043B5F
S214403E20103AEDD20C3205D351F8043B40F8043B2F
S214403E30043AF9D2043208D0D2071CBF11F8013B2D
S214403E4000F8013B01D30B8803806046704700BFF3
S214403E50082A13D38B078DD010F003038AD0C3F102
S214403E600403D21ADB071CBF11F8013B00F8013BE4
S214403E7080D331F8023B20F8023B7BE7043AD9D3A3
S214403E80013A11F8013B00F8013BF9D20B78037078
S214403E904B7843708B788370604670478842F0B5A5
S214403EA00DD98B1898420AD28118002A54D09A1AF3
S214403EB013F8014D01F8014D9342F9D1F0BD0F2A98
S214403EC048D940EA01039B0747D100F1100401F1AD
S214403ED01003154653F8106C44F8106C53F80C6CED
S214403EE044F80C6C53F8086C44F8086C103D53F8D2
S214403EF0046C44F8046C0F2D03F1100304F1100415
S214403F00E8D8A2F1100323F00F0302F00F0E10338F
S214403F10BEF1030F1944034421D91E1F0D467446B3
S214403F20043C55F8047B46F8047F032CF8D8AEF1E1
S214403F30040424F0030404342344214402F003021E
S214403F4052B1013B0A4411F8014B03F8014F91422C
S214403F50F9D1F0BD0346F3E7F0BD0346F1E77246FC
S214403F60EEE700BF704700BF704700BF2DE9F04F37
S214403F70174683B00E46002900F0E780814607F1D9
S214403F800B05FFF7EFFF56F8043C162D23F003040D
S214403F90A6F108084CD810221546AF424DD8944298
S214403FA080F28480DFF8ACB3DBF8080008EB04014D
S214403FB0884200F0D680486820F0010E8E44DEF835
S214403FC004E01EF0010F3FD120F003002044904251
S214403FD080F2C180DB0700F18F8056F8083CC3EBC7
S214403FE0080ADAF8043023F0030300EB030E964584
S214403FF034DBCB688A685746D3609A6057F8081F08
S214404000DAF80C30CB60221F242A996000F2368101
S214404010132A40F2FD803368CAF808307368CAF83D
S2144040200C301B2A00F2408108360AF11003F0E0FB
S21440403025F00705002D2A46AFDA0C230020C9F8E4
S214404040003003B0BDE8F08FD90755D456F8083C89
S214404050C3EB080ADAF8043023F003032344934200
S2144040604ADB5746DAF80C1057F8080F221F242A66
S214404070C160886000F20E81132A40F209813168DF
S214404080CAF808107168CAF80C101B2A00F2218181
S21440409008360AF110023168116071685160B168E3
S2144040A091601C46DAF804303E46D046621B0F2A22
S2144040B003F001030ED823434444C8F80430636831
S2144040C043F0010363604846FFF74EFF304603B0B7
S2144040D0BDE8F08F08EB05011D4342F001030A449A
S2144040E0C8F804504B60536843F0010308315360EE
S2144040F04846FEF7D5FFE6E739464846FFF714FB45
S2144041000746D8B156F8043C23F001024244A0F1D9
S2144041100801914200F0AC80221F242A00F29980C8
S214404120132A6AD8034632461168196051685960A6
S21440413092689A6031464846FEF7B2FF4846FFF717
S21440414013FF384603B0BDE8F08F114603B0BDE814
S214404150F04FFFF7E9BACA6889680446CA609160BA
S214404160A4E7416821F00301214405F11000814293
S2144041705BDADB07C0D456F8083CC3EB080ADAF82B
S214404180043023F0030301EB030C60453FF766AFB2
S2144041905746DAF80C3057F8081F221F242ACB60FF
S2144041A0996000F2B880132A40F2A9803368CAF8B2
S2144041B008307368CAF80C301B2A00F2B5800836FF
S2144041C00AF1100332681A6072685A60B2689A60E0
S2144041D00AEB0502C5EB0C0343F00103CBF80820BD
S2144041E05360DAF8043003F001031D434846CAF82A
S2144041F00450FFF7B9FE384669E7336803607368D2
S21440420043601B2A29D800F1080306F108028BE711
S2144042103B4632681A6072685A60B2689A603E4698
S2144042207446DAF80430D04640E708EB05024B1BEC
S21440423043F00103CBF80820536056F8043C03F0E3
S21440424001031D43484646F8045CFFF78DFE3046A2
S2144042503DE73146FFF722FE6CE7B3688360F368BC
S214404260C360242A2CD000F1100306F110025BE74D
S21440427050F8042C22F00302144417E7314638461F
S21440428074463E46FFF70AFED046DAF804300DE79D
S2144042903A4600E7314638461C463E46FFF7FEFDA6
S2144042A0D046DAF8043001E7B368CAF81030F3684D
S2144042B0CAF81430242A18D010360AF11803A8E792
S2144042C0336903617369436106F1180200F118030C
S2144042D02AE7B168CAF81010F168CAF81410242A00
S2144042E00FD010360AF11802D5E63369CAF81830EE
S2144042F07369CAF81C3018360AF1200389E73B4632
S21440430060E73269CAF818207269CAF81C20183665
S2144043100AF12002BFE631463846CDF804C0FFF722
S214404320BDFDDDF804C053E7B368CAF81030F36843
S214404330CAF81430242A03D010360AF1180341E78D
S2144043403369CAF818307369CAF81C3018360AF14F
S214404350200337E75C040020838903F00903092B18
S21440436001D000207047FEF769BC00BFF8B50C4688
S214404370054610B1836B002B43D0A3899AB29704AD
S21440438007D4626E43F4005322F400526266A3815F
S2144043909AB200219606616030D4500721D5216B31
S2144043A061B104F14003994202D02846FEF778FEF8
S2144043B0E36B636000202063002B3ED12369002B13
S2144043C04BD0A789BEB2B3071ED1226922602846C9
S2144043D0E169256A6369A8470028606009DD002016
S2144043E0F8BDD1063ED512072AD443F00403A38174
S2144043F0E4E7A38919D143F02003A3814FF0FF30AF
S214404400F8BDFEF7ABFCB8E71A4B1B49186801230A
S214404410A38106F00906FFF7A7F8092EA781D4D195
S21440442028462146FEF74AFBCFE7002243F04003EA
S214404430A38162604FF0FF30F8BDA36B2360F8BDE8
S21440444028462146FEF7E4FB0028D7D1A389A06082
S21440445023F00803A0619BB2C7E728462146FFF732
S214404460EBF8AEE743F0400309222A604FF0FF30F6
S214404470A381F8BDF05940005943400038B5074C79
S2144044800023054608462360FCF704FB431C00D087
S21440449038BD2368002BFBD02B6038BD5C0900205C
S2144044A070B40D785E2D2FD0002201311646431E83
S2144044B000F1FF0403F8012FA342FBD185B186F03B
S2144044C0010242554E1C16F8013C2D2B0ED05D2B9A
S2144044D009D013B11D463146F3E7084670BC704715
S2144044E0481E70BC7047304670BC70474C785D2C98
S2144044F00FD0A5420DDC023143190135AC4203F81A
S214404500012FFADC0236DEE701224D7816460231EC
S214404510CDE731461D46D4E710B50C46B1F90E102E
S21440452000F056FD002803DB236D0344236510BDD1
S214404530A38923F48053A38110BD00BF2DE9F04129
S21440454016468A891D46D3050C46074606D50022E0
S214404550B1F90E10022300F027FDA289B4F90E101F
S21440456022F48052A281384632462B46BDE8F041BE
S21440457000F03ABC10B50C46B1F90E1000F014FD30
S214404580A389421C0EBF23F4805343F48053206516
S214404590A38110BDB1F90E1000F08CBC2DE9F04F90
S2144045A0444C83460E46D4F800E000E026463446A7
S2144045B014F8015B0EEB0500407800F0080000F0B0
S2144045C0FF080028F2D12D2D4BD02B2D04BF757837
S2144045D0B41C1BB1102B60D09A4603E0302D54D04B
S2144045E00A239A46B8F1000F14BF4FF000406FF010
S2144045F000400027B0FBFAF9BC460AFB19000CE065
S214404600303DAB4219DD7E1C05D0CC4524D821D0A8
S2144046100AFB0C5C012714F8015B0EEB0506767866
S21440462016F0040FECD116F0030606D0012E0CBF90
S21440463037265726AD1BAB42E5DC7B1C16D0C8F1AF
S21440464000008CEA000040444AB107B1611E116088
S214404650BDE8F08F8542DBDD4FF0FF37DBE7BDE896
S214404660F08FB41C75784FF00108B2E7B8F1000F30
S2144046704FF0220314BF4FF000406FF00040CBF8DD
S2144046800030002AE2D1BDE8F08F237803F0DF0344
S214404690582B09D008239A46A4E7302D9CD1207881
S2144046A000F0DF00582897D14FF0100A657853463F
S2144046B0023497E7340400202DE9F04F704C87B061
S2144046C09B460192049105900A46D4F800A000E06B
S2144046D02A46154615F8014B0AEB04035B7803F0AF
S2144046E0080303F0FF01002BF2D12D2C00F092803E
S2144046F02B2C08BF54788C4608BF951CBBF1000F86
S21440470071D0BBF1100F00F0A2805E46F717BCF1E7
S214404710000F71D14FF0FF386FF0004940464946D0
S21440472032463B46CDF80CC000F066FC404602924E
S2144047303B463246494600F05FFC4FF0000E0022F2
S2144047400023DDF80CC0DDF808801BE0303CA345B4
S2144047502DDDBEF1FF3F13D0994208BF904252D3A1
S2144047608B4208BF82424CD002FB07FE06FB03EE9C
S214404770A2FB06237344121943EBE4734FF0010E79
S21440478015F8014B0AEB040999F8019019F0040F4B
S214404790DCD119F003090AD0B9F1010F0CBF4FF074
S2144047A037094FF05709C9EB0404A345D1DCBEF1E5
S2144047B0FF3F34D06046C117DCF1000661EB41078D
S2144047C072407B4012EB0C024B410199002953D0BA
S2144047D0BEF1000F1AD1049D10461946019B1D607C
S2144047E007B0BDE8F08F302C27D00A2600274FF0C0
S2144047F00A0BBCF1000F8DD04FF000084FF0004977
S2144048008CE74445B0DD4FF0FF3EB9E71046194609
S214404810013DE3E7951C54784FF0010C6EE7BCF180
S214404820000F19D14FF0FF306FF00041059A222358
S2144048301360019B002BEBD1D2E72B7803F0DF030C
S214404840582B12D0082600274FF0080B5FE7302C75
S21440485006D0102600275AE700204FF00041E5E733
S2144048602B7803F0DF03582BF3D16C781026002703
S21440487002354FF0100B4AE710461946B0E700BF26
S214404880340400202DE9F04F464C0F46D4F800E0A3
S21440489000E027463C4614F8015B0EEB05067678AA
S2144048A006F0080606F0FF08002EF2D12D2D51D056
S2144048B02B2D04BF7D78BC1C5BB1102B5BD04FF01A
S2144048C0FF39B9FBF3F903FB09FB6FEA0B0B9A467A
S2144048D007E0302D43D00A23DFF8CC909A464FF0BD
S2144048E0050B0027BC460CE0303DAB4219DD7E1C74
S2144048F005D0CC4524D821D00AFB0C5C012714F8FF
S214404900015B0EEB0506767816F0040FECD116F038
S214404910030606D0012E0CBF37265726AD1BAB42EA
S214404920E5DC002F11DBC8F100008CEA00004044B3
S2144049304AB107B1611E1160BDE8F08F5D45DBDD11
S2144049404FF0FF37DBE7BDE8F08F222303604FF0E0
S214404950FF30EDE7BC1C7D784FF00108ACE72378CC
S21440496003F0DF03582B13D008239A464FF0070B6B
S2144049706FF06049B5E7302D05D04FF00F0B6FF064
S21440498070499A46ADE7267806F0DF06582EF4D1F1
S2144049904FF0100A657853464FF00F0B02346FF015
S2144049A070499EE734040020999999192DE9F04FF3
S2144049B0724C87B092468B46049099460A46D4F885
S2144049C0008000E02A46154615F8014B08EB040324
S2144049D05B7803F0080303F0FF00002BF2D12D2C88
S2144049E000F099802B2C08BF5478039008BF951C84
S2144049F0B9F1000F1DD0B9F1100F00F0A1804E465E
S214404A00F7174A463B464FF0FF304FF0FF3100F075
S214404A10F3FA4A46059000913B464FF0FF304FF080
S214404A20FF3100F0E9FADDF814C0029260460099C2
S214404A300AE0302C74D00523514902934FF0993048
S214404A400A2600274FF00A094FF0000E00220023E6
S214404A50CDE900671DE0303CA1452FDDBEF1FF3FAC
S214404A6015D0994208BF904248D38B4208BF824235
S214404A7041D0019E02FB06FE009E06FB03EEA2FB13
S214404A8006237344121943EBE4734FF0010E15F8F6
S214404A90014B08EB040C9CF801C01CF0040FDAD163
S214404AA01CF0030C0AD0BCF1010F0CBF4FF0370CC2
S214404AB04FF0570CCCEB0404A145CFDCBEF1000F01
S214404AC021DB03990E4676424FEAE177084682EAB2
S214404AD00602394667EB47077B4080185941BAF1D2
S214404AE0000F05D0BEF1000F0BD0013DCAF80050B4
S214404AF007B0BDE8F08F029EB442BADD4FF0FF3EED
S214404B00C5E75D46F2E7049A222313604FF0FF3074
S214404B104FF0FF31E3E70123951C5478039367E792
S214404B202B7803F0DF03582B1AD0072302934FF05D
S214404B30FF306FF06041082600274FF0080983E7F2
S214404B40302C08D00F2302934FF0FF306FF07041A7
S214404B501026002778E72B7803F0DF03582BF1D197
S214404B600F2302936FF070436C78009302354FF03A
S214404B70FF3C102600274FF0100957E7340400206A
S214404B809999991901F140032DE9F0410C46096BBA
S214404B90994214D0666B77003A46FFF7E7F9054628
S214404BA040B300EB0608324640462946FFF7DCF89D
S214404BB0C4F80080256367630020BDE8F0814FF4A9
S214404BC08061FEF7B1FDA8B194F8423020634FF4FF
S214404BD08062626380F8FF3394F8413080F8FE3399
S214404BE094F8403080F8FD3300F2FD30206000201D
S214404BF0BDE8F0814FF0FF30BDE8F08170B50D465E
S214404C00013133D01446064610B1836B002B30D0AA
S214404C10A3899A0405D4626E22F4005243F40053EA
S214404C20626623F020039BB29AB25007A38106D453
S214404C30D1061BD5120738D443F00403A381236B57
S214404C40EDB2CBB16268636B9A4209DA23685A1EAA
S214404C50226003F8015C636801332846636070BDD8
S214404C6030462146FFF78EFF0028EFD04FF0FF304A
S214404C7070BDFEF773F8CBE7226923682AB19A42E3
S214404C8003D213F8010CA8421CD0A36323466068E5
S214404C90E06304F1400103226263216303F8425F4C
S214404CA0012223602846626070BD30462146FDF7EB
S214404CB0AFFF0028DAD1A389A06023F00803A061E3
S214404CC09BB2B9E76268013B01322360626070BD07
S214404CD070B50D461446064610B1836B002B48D07F
S214404CE0A289A369A36091B2080738D52369002B2F
S214404CF035D08904EDB215D522686169D31A8B4246
S214404D001CDA0133A168501C0139A160206015707F
S214404D1062699A421AD0A389DB0701D50A2D15D0BD
S214404D20284670BD616E42F4005221F40051A281C3
S214404D30226861666169D31A8B42E2DB30462146BF
S214404D40FDF766FF40B922680123DBE7304621467F
S214404D50FDF75EFF0028E3D04FF0FF3070BD3046D1
S214404D602146FDF739FE0028F6D1A289236991B283
S214404D70BFE7FDF7F3FFB3E72DE9F041054686B000
S214404D801E460C46A1B1104B1746D3F80080FEF7DE
S214404D9049FC0096034621463A462846C047431CEF
S214404DA003D100228A2332602B6006B0BDE8F08132
S214404DB0054B1F68FEF736FC0096034622462846FB
S214404DC003A9B847EBE700BF7008002021B1FF2ACF
S214404DD004D80A7001207047084670478A2303604B
S214404DE04FF0FF30704700BF70B5084C06460025B0
S214404DF0084611461A462560FBF7E6F9431C00D0E4
S214404E0070BD2368002BFBD0336070BD5C0900206A
S214404E102DE9F047254C2568D5F848410646884692
S214404E2092469946CCB360681F2818DC431C7EB176
S214404E3004EB80050121C5F888A0D4F8887101FAF2
S214404E4000F21743022EC4F88871C5F808911ED0A8
S214404E500230636044F820800020BDE8F087144BA1
S214404E6003B34FF4C870FEF757FC0446D0B1D5F8EC
S214404E704831002780E88800C5F848413846012375
S214404E80C4F88871C4F88C71002EE1D0D0E7D4F80D
S214404E908C110A43C4F88C21DAE705F5A674C5F8E8
S214404EA04841C0E74FF0FF30BDE8F087F05940007A
S214404EB01937400038B5074C00230546084623609E
S214404EC0FBF702FE431C00D038BD2368002BFBD006
S214404ED02B6038BD5C09002000293DD070B50546E2
S214404EE00C4608B1836B7BB3B4F90C300BB9002089
S214404EF070BD28462146FDF7E1FDE36A064633B11C
S214404F002846E16998470028B8BF4FF0FF36A38986
S214404F101B061CD4216B41B104F14003994202D0D8
S214404F202846FEF7BDF800232363616C21B128466E
S214404F30FEF7B6F800236364FDF716FF0023A3814F
S214404F40FDF714FF304670BDFDF708FFCCE7284656
S214404F502169FEF7A5F8DDE70020704738B5084C14
S214404F6000230546084611462360FBF7B1FD431C67
S214404F7000D038BD2368002BFBD02B6038BD00BF67
S214404F805C09002038B5074C0023054608462360D8
S214404F90FBF7A4FD431C00D038BD2368002BFBD094
S214404FA02B6038BD5C09002070B5084C06460025CD
S214404FB0084611461A462560FBF792FD431C00D072
S214404FC070BD2368002BFBD0336070BD5C090020A9
S214404FD070B5084C06460025084611461A46256018
S214404FE0FBF7D4F8431C00D070BD2368002BFBD0E1
S214404FF0336070BD5C09002053B94AB9002908BF28
S21440500000281CBF4FF0FF314FF0FF3000F03CB897
S21440501082B0EC462DE9005000F01EF8DDF804E0C2
S21440502002B00CBC704700BF2DE9F041069C154607
S21440503006460F46984600F029F805FB01F300FBAC
S2144050400838A5FB0023B21A434467EB0303C4E9C0
S2144050500023BDE8F08100BF2DE9F041069C904654
S21440506006460F461D4600F05FF900FB05F5A0FB1F
S214405070082308FB0155B21A2B4467EB0303C4E927
S2144050800023BDE8F08100BF704700BF00292DE92E
S214405090F043C0F2A6800026002BC0F29C808846D3
S2144050A094469E46154604460F46002B3DD18A42FE
S2144050B059D9B2FA82F33BB1C3F120029F4020FA9D
S2144050C002F29D4017439C40290C220CB7FBF1FE90
S2144050D0A8B201FB1E7742EA074700FB0EF3BB422D
S2144050E00AD97F190EF1FF3280F00581BB4240F2AB
S2144050F00281AEF1020E2F44FF1AA4B2B7FBF1F3C1
S21440510001FB137744EA074700FB03F0B84208D98F
S2144051107F1903F1FF3280F0F080B84240F2ED8014
S214405120023B43EA0E43002203E08B420FD90022A3
S2144051301346341C18BF012460424FF0000565EB4F
S21440514045015840514000196941BDE8F083B3FA23
S21440515083F2002A40F086808B4202D3844500F2D8
S214405160DB800123E5E712B90123B3FBF2F5B5FA7C
S21440517085F000283BD1781B4FEA154E1FFA85FC78
S2144051800122B0FBFEF8210C0EFB180741EA074748
S2144051900CFB08F3BB4207D97F1908F1FF3102D256
S2144051A0BB4200F2BD808846FF1AA4B2B7FBFEF3AE
S2144051B00EFB137744EA07470CFB03FCBC4507D9B4
S2144051C07F1903F1FF3102D2BC4500F2A7800B469F
S2144051D043EA0843ADE752426FEA060663EB4303F1
S2144051E05DE7404261EB41014FF0FF3654E7C0F1C6
S2144051F0200224FA02F107FA00F385404FEA154EE2
S214405200D7401943B7FBFEF20B0C0EFB12771FFA82
S21440521085FC43EA07430CFB02F79F4204FA00F47E
S21440522007D95B1902F1FF3074D29F4272D9023A15
S2144052302B44DF1B89B2B7FBFEF80EFB187341EA1E
S21440524003430CFB08F79F4208D95B1908F1FF316E
S2144052505CD29F425AD9A8F102082B44D81B48EA90
S21440526002428EE7C2F120032CFA03F10EFA02FE48
S21440527020FA03F741EA0E0E08FA02F028FA03F184
S2144052804FEA1E453843B1FBF5F8030C05FB1811F1
S2144052901FFA8EF743EA014107FB08F38B420CFAEC
S2144052A002FC09D911EB0E0108F1FF3930D28B42CE
S2144052B02ED9A8F102087144C91A80B2B1FBF5F3A1
S2144052C005FB131140EA014107FB03F78F4208D95B
S2144052D011EB0E0103F1FF3016D28F4214D9023B78
S2144052E0714443EA0843C91BA3FB0C89494509D3CB
S2144052F005D000221DE79646FEE6134611E7944089
S2144053004445F6D2013BF4E70346EAE78846A5E77C
S214405310C846D1E702468CE713460AE7023B57E702
S214405320A8F102082F443FE72DE9F041002B44D175
S2144053308A42154604464FD9B2FA82F70E464FB116
S214405340C7F12003B94020FA03F602FA07F50E43E8
S21440535000FA07F44FEA154E230CB6FBFEF0AFB248
S2144053600EFB106143EA014307FB00F1994209D95D
S2144053705B1900F1FF3280F0EC80994240F2E98000
S21440538002382B445A1AA4B2B2FBFEF30EFB132289
S21440539044EA024207FB03F7974208D9521903F141
S2144053A0FF3180F0D880974240F2D580023B43EAF6
S2144053B0004000263146BDE8F0818B4247D8B3FA1C
S2144053C083F6002E48D18B4202D3824200F2CD8033
S2144053D001203146BDE8F08112B90125B5FBF2F552
S2144053E0B5FA85F8B8F1000F77D14A1B4FEA154E4B
S2144053F0AFB20126B2FBFEF0230C0EFB102143EAAF
S214405400014107FB00F38B4207D9491900F1FF32EF
S21440541002D28B4200F2BA801046C91AA4B2B1FB3F
S214405420FEF30EFB131144EA014407FB03F7A742C1
S21440543008D9641903F1FF3280F08F80A74240F20A
S2144054408C80023B43EA00403146BDE8F0810026AE
S21440545030463146BDE8F081C6F1200422FA04F514
S214405460B3402B4320FA04FC01FA06F721FA04F570
S2144054704FEA134E4CEA0707B5FBFEF8390C0EFB15
S21440548018551FFA83FC41EA05450CFB08F1A94272
S21440549002FA06F204D9ED1808F1FF3467D3A046A5
S2144054A06D1ABFB2B5FBFEF40EFB145547EA054134
S2144054B00CFB04FC8C4504D9C91804F1FF355CD3B9
S2144054C02C4644EA0844CCEB0101A4FB0223994253
S2144054D048D344D0204600266CE7C8F1200401FAA1
S2144054E008F305FA08F520FA04F7E1404FEA154EAE
S2144054F01F43B1FBFEF63A0C0EFB16111FFA85FC55
S21440550042EA01430CFB06F29A4200FA08F407D935
S2144055105B1906F1FF3137D29A4235D9023E2B4409
S2144055209B1ABFB2B3FBFEF00EFB103347EA0343B1
S2144055300CFB00F1994207D95B1900F1FF3221D2EA
S21440554099421FD902382B445A1A40EA0646674603
S21440555050E7104616E70B4629E7134672E7B04079
S2144055609042B7D2601E002624E7304622E7A94282
S21440557095D9A8F102081D4492E78C45A0D9023C73
S21440558019449EE71046DFE70E46C9E7023829442D
S21440559043E700BF03000000B2001E000200000008
S2144055A0770132000200000020034B00010000009B
S2144055B0E803500000000000803E32000A0D4D65B2
S2144055C06E75203A0A0D2D2D2D2D2D2D0A0D2020DD
S2144055D04F75747075742077617665666F726D204E
S2144055E070726F70657274793A0D000020202564E1
S2144055F03A20536574204672657175656E637920EE
S2144056003D2025347520487A2C20447574792043F3
S21440561079636C65203D2025327525250A0D0000EE
S21440562020202D2D2D2D2D2D2D2D2D2D2D2D2D2D7F
S2144056302D2D2D2D2D2D2D2D2D2D2D2D2D2D2D2D55
S2144056402D2D2D2D2D2D2D2D2D2D2D2D2D0A0D2095
S21440565020633A2043617074757265207761766581
S214405660666F726D2066726F6D20544325642063AA
S21440567068616E6E656C2025640A0D2020733A20A2
S21440568053746F70206361707475726520616E64C8
S21440569020646973706C617920636170747572659B
S2144056A06420696E666F726D6174696F6E200A0D54
S2144056B02020683A20446973706C6179206D656E6D
S2144056C075200A0D2D2D2D2D2D2D0A0D0D000000B7
S2144056D00D0A53746172742077617665666F726DD9
S2144056E03A204672657175656E6379203D20256463
S2144056F020487A2C44757479204379636C65203D44
S2144057002025326425250A0D000000007379736356
S2144057106C6B5F6765745F706572697068657261AF
S2144057206C5F6275735F687A28293A2575200D0A82
S21440573000000000436C6F636B2053656C656374B8
S214405740696F6E202D3E202E756C5F696E74636C9B
S2144057506F636B3A202575200D0A0000436C6F631B
S2144057606B2053656C656374696F6E202D3E2064B4
S214405770697669736F72735B5D3A2575200D0A0012
S214405780546172676574204672657175656E63799B
S214405790202D3E202E75735F6672657175656E634B
S2144057A0793A2575200D0A00546172676574204465
S2144057B0757479204379636C65202D3E202E757371
S2144057C05F647574796379636C653A2575200D0A54
S2144057D00000000072613A2575200D0A00000000A6
S2144057E072633A2575200D0A000000002D2D2054C6
S2144057F04320636170747572652077617665666F65
S214405800726D204578616D706C65202D2D0D0A00F7
S2144058102D2D2025730A0D0053414D34532D454BF5
S214405820320000002D2D20436F6D70696C65643A20
S214405830202573202573202D2D0A0D004D617220E2
S214405840323420323031360031343A32383A32321D
S21440585000000000436F6E666967757265205443AA
S2144058602564206368616E6E656C202564206173D4
S2144058702077617665666F726D206F7065726174B1
S214405880696E67206D6F6465200A0D00436F6E6613
S21440589069677572652054432564206368616E6E3F
S2144058A0656C202564206173206361707475726531
S2144058B0206F7065726174696E67206D6F646520D5
