S01400005254435F4558414D504C45312E737265638B
S214400000E8390020E11A4000A91B4000A91B400027
S214400010A91B4000A91B4000A91B4000000000008F
S214400020000000000000000000000000A91B400087
S214400030A91B400000000000A91B4000A91B40006F
S214400040A91B4000A91B400061284000A91B400096
S214400050A91B4000A91B4000A91B4000000000004F
S214400060A91B4000A91B400000000000C10B400037
S214400070D90B4000F10B4000A91B4000A91B4000D3
S2144000800000000000000000A91B4000A91B400023
S214400090A91B4000A91B4000A91B4000A91B40000B
S2144000A0A91B4000A91B4000A91B4000A91B4000FB
S2144000B0A91B4000A91B4000A91B4000A91B4000EB
S2144000C0A91B4000A91B4000A91B400010B5054CC9
S2144000D0237833B9044B13B10448AFF300800123AF
S2144000E0237010BDDC0800200000000034D840001B
S2144000F0084B10B51BB108480849AFF300800848C4
S214400100036803B910BD074B002BFBD0BDE8104079
S214400110184700BF0000000034D84000E008002028
S21440012034D840000000000080B582B000AF786050
S2144001307B68072B30D801A252F823F09901400083
S2144001405D014000650140006D01400075014000C2
S2144001507D014000850140008F0140000020104B8B
S214400160984719E001200E4B984715E000200D4BAC
S214400170984711E010200B4B98470DE02020094B84
S214400180984709E000203E21074B984704E00120AD
S2144001903E21054B984700BF0837BD4680BD00BF8F
S2144001A08D0C4000F90C4000690D400080B582B0CF
S2144001B000AF78607B68072B26D801A252F823F060
S2144001C0E1014000E5014000E5014000F701400044
S2144001D0F7014000F7014000F7014000F7014000FA
S2144001E0012312E00B4B98470346002B14BF012314
S2144001F00023DBB209E0084B98470346002B14BFA8
S21440020001230023DBB200E0002318460837BD4632
S21440021080BD00BFC50C4000E10D400080B483B0F7
S21440022000AF78607B68072B25D801A252F823F0F0
S21440023051024000570240005D0240006302400009
S214400240670240006B0240006F02400073024000AD
S2144002504FF4FA4310E04FF400430DE04FF40043F0
S2144002600AE0084B08E0084B06E0084B04E0074B62
S21440027002E0064B00E0002318460C37BD465DF80A
S214400280047B704700093D0000127A00001BB7004F
S21440029080B582B000AF0346FB7100BFFB791846BD
S2144002A0054B9847034683F00103DBB2002BF5D19C
S2144002B00837BD4680BD00BFAD01400080B586B062
S2144002C000AFF8607A603B600B46FB72FB7A1846DC
S2144002D00D4B984702467B68B2FBF3F37B617B6924
S2144002E03A6802FB03F37B613B68013B1A04074B09
S2144002F013407A68D2B2134343F47C52FB681A60C8
S2144003001837BD4680BD00BF1D0240000000FF07F5
S21440031080B582B000AF786039603B68002B08D16A
S214400320084B9847084A7B681B6843F00053936223
S21440033005E0064B9847044A7B681B68D36208373B
S214400340BD4680BDFD0D400000040E40310E40000D
S21440035080B582B000AF78607B68002B03D1054B38
S2144003609847034602E0044B98470346184608372A
S214400370BD4680BD150E4000490E400080B582B097
S21440038000AF0346FB71FB79033B042B08D8FB798F
S2144003901846054B9847FB791846044B984700E0AB
S2144003A000BF0837BD4680BD29014000910240008D
S2144003B080B582B000AF786000BF7868044B98473D
S2144003C00346002BF9D0002318460837BD4680BDAB
S2144003D05103400080B500AF0620044B98470246C4
S2144003E013469B0013449B00184680BD1D024000E8
S2144003F080B500AF024B984703465B08184680BD61
S214400400D503400090B583B000AF1148114B9847D4
S2144004100620114B98473B1D1846062101221423FF
S2144004200E4CA0473B1D184600210D4B9847002018
S2144004300C4B984710200C4B98470C4B98470C4B4E
S214400440984703461846034B98470C37BD4690BD21
S214400450000E27074D1D40007D034000BD024000B2
S21440046011034000B1034000090C4000B11B40009E
S214400470F103400080B586B000AFF860B9607A609E
S21440048000237B61FB68002B02D04FF0FF3314E063
S2144004900FE00C4B1B680C4A12681046B968984728
S2144004A0BB680133BB607B6901337B617B68013B82
S2144004B07B607B68002BECDC7B6918461837BD46B2
S2144004C080BD00BFD0090020D809002080B586B086
S2144004D000AFF860B9607A6000237B61FB68012B4F
S2144004E008D0FB68022B05D0FB68032B02D04FF0E8
S2144004F0FF331AE015E00F4B1A680F4B1868BB68BD
S214400500591CB9601B78194690470346002B02DAFF
S2144005104FF0FF3309E07B6901337B617B68013B29
S2144005207B607B68002BE6D17B6918461837BD4652
S21440053080BD00BFD4090020D809002080B500AF98
S2144005400A4B4FF400425A604C204FF06051084B23
S214400550984702200749064B984707484FF4C06122
S2144005604FF00062054B984780BD00BF50140E40C8
S214400570E907400079000028000E0E40A10940001F
S21440058080B485B000AFF860B9607A607B68002BB5
S21440059003D0FB68BA685A6602E0FB68BA681A6617
S2144005A01437BD465DF8047B704700BF80B487B003
S2144005B000AFF860B9607A60FB687A685A64BB68D6
S2144005C0B3F1C05F4AD0B3F1C05F08D8B3F1006F53
S2144005D016D0B3F1805F2CD0002B69D064E0B3F125
S2144005E0205F65D0B3F1205F03D8B3F1005F4AD0F7
S2144005F05AE0B3F1405F5BD0B3F1605F58D053E050
S214400600FB681B6F7B61FB681A6F7B68D9437B690D
S2144006100B401A40FB681A67FB685B6F7B61FB68A0
S2144006205A6F7B68D9437B690B401A40FB685A6710
S2144006303AE0FB681B6F7B617A687B691A43FB680C
S2144006401A67FB685B6F7B61FB685A6F7B68D943B0
S2144006507B690B401A40FB685A6725E0FB681B6FB6
S2144006607B61FB681A6F7B68D9437B690B401A40F5
S214400670FB681A67FB685B6F7B617A687B691A4325
S214400680FB685A6710E0FB681B6F7B617A687B6982
S2144006901A43FB681A67FB685B6F7B617A687B6905
S2144006A01A43FB685A6700BFFB687A685A6000E0E6
S2144006B000BF1C37BD465DF8047B704780B584B0EC
S2144006C000AFF860B9607A60F868B968184B984728
S2144006D07B6803F00103F868B9681A46154B9847DB
S2144006E07B6803F00A03002B03D0FB68BA681A62E3
S2144006F002E0FB68BA685A627B6803F00203002B8C
S21440070004D0FB68BA68C3F8802008E07B6803F032
S2144007100803002B03D0FB68BA68C3F88420FB6844
S214400720BA685A61FB68BA681A601037BD4680BD21
S2144007309D0740008105400080B584B000AFF8605A
S214400740B9607A603B60F868B968124B9847F868B9
S214400750B968BA69104B98473B68002B03D0FB68D2
S214400760BA681A6502E0FB68BA685A657B68002B6F
S21440077003D0FB68BA681A6302E0FB68BA685A633B
S214400780FB68BA681A61FB68BA681A601037BD46DB
S21440079080BD00BF9D0740008105400080B483B007
S2144007A000AF786039607B683A685A640C37BD465B
S2144007B05DF8047B704700BF80B483B000AF7860BC
S2144007C07B68DB6C18460C37BD465DF8047B70478B
S2144007D080B483B000AF78607B689B6C18460C375B
S2144007E0BD465DF8047B704790B587B002AF786031
S2144007F039607868654B9847F8603B6803F0F0438B
S214400800B3F1005F6BD0B3F1005F09D8B3F1805FFE
S2144008102DD0B3F1C05F46D0B3F1006F0BD0AEE041
S214400820B3F1405F00F08380B3F1605F7FD0B3F1F7
S214400830205F70D0A3E07B6803F01F03012202FA1A
S21440084003F3F8684FF000611A46514B98477B68AF
S21440085003F01F03012202FA03F31A463B6803F033
S2144008600103F86811461A464A4B984789E07B6868
S21440087003F01F03012202FA03F3F8684FF0805199
S2144008801A46434B98477B6803F01F03012202FA3F
S21440089003F31A463B6803F00103F86811461A460C
S2144008A03C4B98476DE07B6803F01F03012202FA39
S2144008B003F3F8684FF0C0511A46354B98477B68AB
S2144008C003F01F03012202FA03F31A463B6803F0C3
S2144008D00103F86811461A462E4B984751E07B684C
S2144008E003F01F03012202FA03F3F8684FF00051A9
S2144008F01A46274B98477B6803F01F03012202FAEB
S21440090003F31A463B6803F00103F86811461A469B
S214400910204B984735E07B6803F01F03012202FA1C
S21440092003F3F86819463A681B4B984729E07B68FA
S21440093003F01F03012202FA03F319463B6803F053
S2144009406053B3F1605F0CBF01230023DBB21A464D
S2144009503B6803F00403002B14BF01230023DBB2E3
S2144009601C463B6803F00103002B14BF0123002301
S214400970DBB20093F8682346084CA04701E000230A
S21440098000E0012318461437BD4690BDCD0A40000E
S214400990AD05400081054000BD06400039074000D7
S2144009A090B587B002AFF860B9607A607B6803F0B4
S2144009B0F043B3F1005F43D0B3F1005F09D8B3F121
S2144009C0805F1FD0B3F1C05F2BD0B3F1006F0AD069
S2144009D06DE0B3F1405F48D0B3F1605F45D0B3F10E
S2144009E0205F3CD063E0F8684FF00061BA68334B54
S2144009F098477B6803F00103F868B9681A46304B9D
S214400A00984756E0F8684FF08051BA682B4B9847A5
S214400A107B6803F00103F868B9681A46284B984784
S214400A2047E0F8684FF0C051BA68244B98477B6857
S214400A3003F00103F868B9681A46214B984738E036
S214400A40F8684FF00051BA681C4B98477B6803F033
S214400A500103F868B9681A46194B984729E0F868C0
S214400A60B9687A68174B984723E07B6803F0605371
S214400A70B3F1605F0CBF01230023DBB21A467B68EC
S214400A8003F00403002B14BF01230023DBB21C46F3
S214400A907B6803F00103002B14BF01230023DBB265
S214400AA00093F868B9682346074CA04701E0002346
S214400AB000E0012318461437BD4690BDAD05400002
S214400AC081054000BD0640003907400080B485B02F
S214400AD000AF78607B685B0903F5001303F2077389
S214400AE05B02FB60FB6818461437BD465DF8047B26
S214400AF0704700BF80B584B000AF786039607868D2
S214400B002A4B9847F8607868294B98470246FB6816
S214400B101340FB60FB68002B38D00023BB6032E0FC
S214400B20244ABB681B0113441A683B689A4223D187
S214400B30204ABB681B0113445A68FB681340002BCD
S214400B401AD01C4ABB681B01134408335B6819491A
S214400B50BA6812010A4410681649BA6812010A4473
S214400B60526811469847134ABB681B0113445B689A
S214400B70DB43FA681340FB60BB680133BB60BB686D
S214400B80062B00D902E0FB68002BC9D10A4B1B6834
S214400B90002B07D0094B1B68002B03D0074B1B6864
S214400BA0786898471037BD4680BD00BFB9074000FB
S214400BB0D1074000F8080020DC0900206809002022
S214400BC080B500AF02480B21024B984780BD00BF5E
S214400BD0000E0E40F50A400080B500AF02480C21DA
S214400BE0024B984780BD00BF00100E40F50A4000FB
S214400BF080B500AF02480D21024B984780BD00BF2C
S214400C0000120E40F50A400080B485B000AF786010
S214400C101D491D4B1B6B23F070027B6813430B630F
S214400C204FF40063FB6007E0FB68002B01D1012313
S214400C3023E0FB68013BFB60134B9B6E03F008030D
S214400C40002BF1D0104A104B1B6B23F0030343F0EC
S214400C50020313634FF40063FB6007E0FB68002B5E
S214400C6001D1012309E0FB68013BFB60064B9B6E0C
S214400C7003F00803002BF1D0002318461437BD4676
S214400C805DF8047B704700BF00040E4080B483B01C
S214400C9000AF78607B68012B07D1084A074B9B68FA
S214400CA043F0254343F480139360044B044A1A6090
S214400CB00C37BD465DF8047B704700BF10140E40ED
S214400CC0080000A580B400AF094B5B6903F08003C1
S214400CD0002B07D0074B9B6E03F08003002B01D000
S214400CE0012300E000231846BD465DF8047B7047AC
S214400CF010140E4000040E4080B483B000AF7860FD
S214400D00184A184B1B6A43F45C1343F008031362FB
S214400D1000BF144B9B6E03F40033002BF9D01149EF
S214400D20104B1B6A23F45C1323F070037A6813435A
S214400D3043F45C130B6200BF0A4B9B6E03F4003314
S214400D40002BF9D0074A074B1B6A23F09B7323F40A
S214400D50803343F45C1313620C37BD465DF8047B66
S214400D60704700BF00040E4080B483B000AF786088
S214400D7039607B68002B08D01649164B1B6A164A0A
S214400D801A40164B13430B621EE01249114B1B6A66
S214400D9023F45C1323F003033A68120292B213431F
S214400DA043F45C1343F001030B6200BF094B9B6E98
S214400DB003F00103002BF9D0064A064B1B6A43F0AA
S214400DC09B7343F4803313620C37BD465DF8047B57
S214400DD0704700BF00040E40FCFFC8FE020037010B
S214400DE080B400AF044B9B6E03F480331846BD4678
S214400DF05DF8047B704700BF00040E4080B400AF2F
S214400E00034B4FF000529A62BD465DF8047B704734
S214400E1000040E4080B400AF044B9B6E03F0020308
S214400E201846BD465DF8047B704700BF00040E4080
S214400E3080B400AF034B0022DA62BD465DF8047B07
S214400E40704700BF00040E4080B400AF044B9B6E5A
S214400E5003F004031846BD465DF8047B704700BFA8
S214400E6000040E4080B483B000AF78607B68222BCD
S214400E7001D901232FE07B681F2B13D8194B9A69A1
S214400E807B68012101FA03F31A407B68012101FACD
S214400E9003F39A421ED0134A7B68012101FA03F3FA
S214400EA0136117E07B68203B7B600E4BD3F808212C
S214400EB07B68012101FA03F31A407B68012101FA9D
S214400EC003F39A4206D0074A7B68012101FA03F3EE
S214400ED0C2F80031002318460C37BD465DF8047B47
S214400EE0704700BF00040E4080B483B000AF786007
S214400EF039603B68002B06D07B685B6843F0010294
S214400F007B685A6005E07B685B6823F001027B687B
S214400F105A600C37BD465DF8047B704780B483B09A
S214400F2000AF786039607B683A681A620C37BD4615
S214400F305DF8047B704700BF80B483B000AF786034
S214400F4039607B683A685A620C37BD465DF8047B68
S214400F50704700BF80B487B000AFF860B9607A6071
S214400F603B60FB689B687B6102E0FB689B687B613B
S214400F70FB689A687B699A42F7D1BB68002B1CD005
S214400F807B6903F47C131B0C3B613B691A091346CF
S214400F909B0013445B001A463B6903F00F031A4458
S214400FA0BB681A607B6903F48003002B05D0BB68DE
S214400FB01B6803F10C02BB681A607B68002B11D0DB
S214400FC07B6903F4FE431B0A3B613B691A091346DF
S214400FD09B0013445B001A463B6903F00F031A4418
S214400FE07B681A603B68002B10D07B6903F07F0358
S214400FF03B613B691A0913469B0013445B001A4643
S2144010003B6903F00F031A443B681A601C37BD4621
S2144010105DF8047B704700BF80B487B000AFF860CF
S214401020B9607A603B6000237B61FB685B6803F0D5
S2144010300103002B09D0BB680C2B06D9BB680C3BC0
S214401040BB607B6943F480037B61BB68334AA2FB89
S2144010500323DB081805B968304BA3FB0123DA08E5
S21440106013469B0013445B00CA1A130403437A6971
S21440107013437B617B68294AA2FB0323DB081803E2
S2144010807968264BA3FB0123DA0813469B001344DA
S2144010905B00CA1A130203437A6913437B613B68B9
S2144010A01E4AA2FB0323DB08180139681B4BA3FB2F
S2144010B00123DA0813469B0013445B00CA1A40EA31
S2144010C002037A6913437B61FB681B6843F00102A5
S2144010D0FB681A6000BFFB689B6903F00103002BA6
S2144010E0F9D0FB680122DA61FB687A699A60FB688E
S2144010F01B6823F00102FB681A60FB68DB6943F05B
S2144011000402FB68DA61FB68DB6A03F001031846F9
S2144011101C37BD465DF8047B704700BFCDCCCCCCB9
S21440112080B487B000AFF860B9607A603B60002357
S2144011307B61BB68002B24D0FB685B6803F001032F
S214401140002B09D07B680C2B06D97B680C3B7B6058
S2144011507B6943F480037B617B68304AA2FB0323B0
S214401160DB08180579682D4BA3FB0123DA081346E4
S2144011709B0013445B00CA1A130403437A69134363
S2144011807B613B68002B14D03B6A244AA2FB0323B6
S214401190DB081803396A214BA3FB0123DA08134600
S2144011A09B0013445B00CA1A130203437A69134335
S2144011B07B617B6A002B14D0BB6A184AA2FB0323D0
S2144011C0DB081801B96A154BA3FB0123DA0813465E
S2144011D09B0013445B00CA1A40EA02037A69134331
S2144011E07B61FB681B6923F0801323F40043FA6895
S2144011F01361FB687A691A61FB681B6943F08013C8
S21440120043F40043FA681361FB68DB6A03F00403A7
S21440121018461C37BD465DF8047B7047CDCCCCCC19
S21440122080B489B000AFF860B9607A603B60FB6814
S214401230DB68FB6102E0FB68DB68FB61FB68DA6841
S214401240FB699A42F7D1BB68002B25D0FB6903F0B7
S2144012507F03BB61BB691A0913469B0013445B00BE
S2144012601A46BB6903F00F0313447B61FB6903F422
S2144012707F431B0ABB617B69642202FB03F1BB69A7
S2144012801A0913469B0013445B00CA18BB6903F057
S2144012900F031A44BB681A607B68002B11D0FB69A9
S2144012A003F4F8131B0CBB61BB691A0913469B0079
S2144012B013445B001A46BB6903F00F031A447B686D
S2144012C01A603B68002B11D0FB6903F07C531B0E61
S2144012D0BB61BB691A0913469B0013445B001A4660
S2144012E0BB6903F00F031A443B681A60BB6A002BC5
S2144012F005D0FB6903F460035A0DBB6A1A602437B5
S214401300BD465DF8047B704780B487B000AFF86098
S214401310B9607A603B6000237B61BB68464AA2FBAB
S21440132003239B091801BB68444AA2FB03235909BF
S214401330434BA3FB0123DA0813469B0013445B0090
S214401340CA1A40EA02037A6913437B61BB683C4A87
S214401350A2FB0323D9083A4BA3FB0123DA08134622
S2144013609B0013445B00CA1A1003B968344BA3FBB6
S2144013700123DA0813469B0013445B00CA1A130283
S21440138003437A6913437B617B682D4AA2FB0323A0
S214401390DB08180579682A4BA3FB0123DA081346B5
S2144013A09B0013445B00CA1A130403437A69134331
S2144013B07B613B6A5B057A6913437B613B68204AE5
S2144013C0A2FB0323DB08180739681D4BA3FB012348
S2144013D0DA0813469B0013445B00CA1A13060343FD
S2144013E07A6913437B61FB681B6843F00202FB6823
S2144013F01A6000BFFB689B6903F00103002BF9D01D
S214401400FB680122DA61FB687A69DA60FB681B6870
S21440141023F00202FB681A60FB68DB6943F00402B3
S214401420FB68DA61FB68DB6A03F0020318461C3788
S214401430BD465DF8047B7047D34D62101F85EB5167
S214401440CDCCCCCC80B487B000AFF860B9607A60C1
S2144014503B6000237B61BB68002B14D07B68244A2A
S214401460A2FB0323DB0818057968214BA3FB012365
S214401470DA0813469B0013445B00CA1A130403435E
S2144014807A6913437B613B68002B14D03B6A184A49
S214401490A2FB0323DB081807396A154BA3FB01237D
S2144014A0DA0813469B0013445B00CA1A130603432C
S2144014B07A6913437B61FB685B6923F0004323F43E
S2144014C00003FA685361FB687A695A61FB685B6996
S2144014D043F0004343F40003FA685361FB68DB6A59
S2144014E003F0080318461C37BD465DF8047B70477A
S2144014F0CDCCCCCC80B483B000AF78607B68002283
S2144015001A610C37BD465DF8047B704780B483B0E3
S21440151000AF78607B68034A5A610C37BD465DF879
S214401520047B70470000010180B483B000AF786050
S2144015307B689B6918460C37BD465DF8047B704750
S21440154080B483B000AF786039607B683A68DA610F
S2144015500C37BD465DF8047B704700BF80B485B04D
S21440156000AFF860B9607A60BB68002B7ED17B68BC
S214401570072B79D801A252F823F000BF9D154000F2
S214401580B3154000CD154000E71540000116400059
S2144015901B164000351640004F164000FB685B683F
S2144015A023F4E022FB685A60FB685A68FB685A607E
S2144015B05BE0FB685B6823F4E022FB685A60FB68EC
S2144015C05B6843F48032FB685A604EE0FB685B68B9
S2144015D023F4E022FB685A60FB685B6843F4003201
S2144015E0FB685A6041E0FB685B6823F4E022FB68D6
S2144015F05A60FB685B6843F44032FB685A6034E0EC
S214401600FB685B6823F4E022FB685A60FB685B6813
S21440161043F48022FB685A6027E0FB685B6823F44B
S214401620E022FB685A60FB685B6843F4A022FB68D4
S2144016305A601AE0FB685B6823F4E022FB685A6055
S214401640FB685B6843F4C022FB685A600DE0FB68A9
S2144016505B6823F4E022FB685A60FB685B6843F4EF
S214401660E022FB685A6000E000BF7CE07B68072B06
S21440167078D801A252F823F099164000AF164000E1
S214401680C9164000E3164000FD16400017174000FC
S214401690311740004B174000FB685B6823F4E002BC
S2144016A0FB685A60FB685A68FB685A605BE0FB68F8
S2144016B05B6823F4E002FB685A60FB685B6843F4AF
S2144016C08012FB685A604EE0FB685B6823F4E002D9
S2144016D0FB685A60FB685B6843F40012FB685A601C
S2144016E041E0FB685B6823F4E002FB685A60FB68F5
S2144016F05B6843F44012FB685A6034E0FB685B6802
S21440170023F4E002FB685A60FB685B6843F480029F
S214401710FB685A6027E0FB685B6823F4E002FB68DE
S2144017205A60FB685B6843F4A002FB685A601AE0A4
S214401730FB685B6823F4E002FB685A60FB685B6802
S21440174043F4C002FB685A600DE0FB685B6823F414
S214401750E002FB685A60FB685B6843F4E002FB68A3
S2144017605A6000E000BF1437BD465DF8047B704702
S21440177080B485B000AF786039600023FB607B683A
S214401780AC221A603B681A683B685B68B2FBF3F3AE
S2144017901B09FB60FB68002B03D0FB68B3F5803F5A
S2144017A001D301230FE07B68FA681A623B689A68A7
S2144017B07B685A607B6840F20222C3F820217B682F
S2144017C050221A60002318461437BD465DF8047B45
S2144017D0704700BF80B483B000AF78600B46FB70A4
S2144017E07B685B6903F00203002B01D1012303E011
S2144017F0FA787B68DA61002318460C37BD465DF8F8
S214401800047B704780B483B000AF786039607B68F3
S2144018105B6903F00103002B01D1012305E07B68DF
S2144018209B69DAB23B681A70002318460C37BD46EF
S2144018305DF8047B704700BF80B489B000AFF860A5
S214401840B9607A60BB681A017B689A4202D8102356
S214401850FB6101E00823FB617B68DA00FB69B9683D
S21440186001FB03F35B081A44FB69B96801FB03F309
S214401870B2FBF3F3BB61BB69DB087B61BB6903F07A
S21440188007033B617B69002B03D07B69B3F5803F40
S21440189001D301230FE0FB69082B05D1FB685B6889
S2144018A043F40022FB685A603B691A047B691A437A
S2144018B0FB681A62002318462437BD465DF8047B51
S2144018C0704700BF80B582B000AF786078680E4B36
S2144018D098477B6800225A607B6800225A627B6881
S2144018E000229A627868094B98477868084B984770
S2144018F07868084B98477868074B98477868074B4E
S21440190098470837BD4680BDC11A4000BD19400003
S214401910ED194000051A40003D1A4000211A4000CB
S21440192080B584B000AFF860B9607A60F8681A4B4A
S21440193098471A4B00221A60BB68002B09D0BB6838
S2144019401B68F86819467A68154B98470346002B7B
S21440195001D001231BE0BB685A68BB689B681A43EA
S214401960BB681B691A43BB68DB681A430B4B1B6892
S21440197013430A4A1360094B1B68084A1360FB6806
S2144019805A68064B1B681A43FB685A600023184681
S2144019901037BD4680BD00BFC51840006C0900200A
S2144019A03918400080B483B000AF78607B6840222E
S2144019B01A600C37BD465DF8047B704780B483B030
S2144019C000AF78607B6888221A600C37BD465DF8A9
S2144019D0047B704780B483B000AF78607B68102289
S2144019E01A600C37BD465DF8047B704780B483B000
S2144019F000AF78607B6824221A600C37BD465DF8DD
S214401A00047B704780B483B000AF78607B684FF447
S214401A1080721A600C37BD465DF8047B704700BF85
S214401A2080B483B000AF78607B684FF400321A60B1
S214401A300C37BD465DF8047B704700BF80B483B06A
S214401A4000AF78607B684FF400221A600C37BD46C2
S214401A505DF8047B704700BF80B483B000AF786009
S214401A6039607B685B6903F00203002B01D10123D8
S214401A7005E03B68C3F308027B68DA61002318463A
S214401A800C37BD465DF8047B704700BF80B483B01A
S214401A9000AF786039607B685B6903F00103002B18
S214401AA001D1012306E07B689B69C3F308023B68CB
S214401AB01A60002318460C37BD465DF8047B704715
S214401AC080B483B000AF78607B68044AC3F8E420F3
S214401AD00C37BD465DF8047B704700BF0041535548
S214401AE080B584B000AF274BFB60274BBB60FA68DD
S214401AF0BB689A420DD907E0BB681A1DBA60FA68FF
S214401B00111DF96012681A60BB68204A9342F3D3ED
S214401B1020E0FA68BB689A421CD21C4A1A4BD31A79
S214401B207B60FA687B681344043BFB60BA687B685A
S214401B301344043BBB600AE0BB681A1FBA60FA68ED
S214401B40111FF96012681A607B68043B7B607B68F3
S214401B50002BF1D100BF0E4BBB6004E0BB681A1DE2
S214401B60BA6000221A60BB680A4A9342F6D30A4B10
S214401B70FB600A4AFB689360094B9847094B9847B5
S214401B80FEE700BF34D8400000000020DC080020FC
S214401B90DC080020E40900200000400000ED00E0E2
S214401BA0512D4000F128400080B400AFFEE700BF52
S214401BB080B400AF5D4B1B6B03F00303032B00F2B6
S214401BC0968001A252F823F0D91B4000F91B400032
S214401BD0431C4000431C4000554B5B6903F08003A8
S214401BE0002B04D0534B4FF400421A6080E0514B18
S214401BF04FF4FA421A607BE04C4B1B6A03F080734A
S214401C00002B03D04B4B4C4A1A6019E0494B4B4AC9
S214401C101A60464B1B6A03F07003102B08D0202B2B
S214401C200AD0002B00D00BE0424B444A1A6007E033
S214401C30404B434A1A6003E03E4B3F4A1A6000BF9F
S214401C4056E03A4B1B6A03F08073002B03D0394BA7
S214401C50394A1A6019E0374B384A1A60334B1B6AC8
S214401C6003F07003102B08D0202B0AD0002B00D096
S214401C700BE0304B314A1A6007E02E4B304A1A6070
S214401C8003E02C4B2C4A1A6000BF284B1B6B03F01A
S214401C900303022B15D1254B9A6A2A4B13401B0C83
S214401CA00133244A126802FB03F3224A13601F4B97
S214401CB09B6ADBB21F4A1268B2FBF3F31D4A1360FD
S214401CC016E01A4BDA6A1F4B13401B0C0133194AB5
S214401CD0126802FB03F3174A1360144BDB6ADBB24D
S214401CE0144A1268B2FBF3F3124A136000E000BFD6
S214401CF00E4B1B6B03F07003702B08D10D4B1B680B
S214401D00114AA2FB03235B080A4A136009E0074B0B
S214401D101B6B03F070031A09064B1B68D340054A39
S214401D201360BD465DF8047B704700BF00040E405C
S214401D3010140E4000000020001BB70000093D00B4
S214401D4000127A000000FF07ABAAAAAA80B483B0AC
S214401D5000AF78607B68184A934204D8174B4FF020
S214401D6080621A6023E07B68154A934203D8134B7F
S214401D70144A1A601BE07B68134A934203D80F4B01
S214401D80124A1A6013E07B68114A934203D80B4B01
S214401D90104A1A600BE07B680F4A934204D8074B00
S214401DA04FF004221A6002E0044B0C4A1A600C37CB
S214401DB0BD465DF8047B7047FF2C3101000A0E409B
S214401DC0FF59620200010004FF86930300020004EC
S214401DD0FFB3C40400030004FFE0F505000500045B
S214401DE080B485B000AF7860104BFB60104B1B682A
S214401DF0002B02D10E4B0F4A1A600D4B1B68BB607E
S214401E00BA687B681A44FB689A4202DD4FF0FF339B
S214401E1006E0074B1A687B681344054A1360BB68A4
S214401E2018461437BD465DF8047B7047FCFF01201A
S214401E3070090020E839002080B483B000AF786095
S214401E404FF0FF3318460C37BD465DF8047B7047AD
S214401E5080B483B000AF786039603B684FF400527E
S214401E605A60002318460C37BD465DF8047B704721
S214401E7080B483B000AF7860012318460C37BD4667
S214401E805DF8047B704700BF80B485B000AFF86053
S214401E90B9607A60002318461437BD465DF8047B67
S214401EA0704700BF80B483B000AF0346FB7108495B
S214401EB097F907305B09FA7902F01F02012000FA11
S214401EC002F241F823200C37BD465DF8047B70478C
S214401ED000E100E080B483B000AF0346FB710949DF
S214401EE097F907305B09FA7902F01F02012000FAE1
S214401EF002F2203341F823200C37BD465DF8047BC0
S214401F00704700BF00E100E080B483B000AF0346F6
S214401F10FB71094997F907305B09FA7902F01F020D
S214401F20012000FA02F2603341F823200C37BD4608
S214401F305DF8047B704700BF00E100E080B483B0EA
S214401F4000AF03463960FB7197F90730002B0BDA78
S214401F500D49FB7903F00F03043B3A68D2B21201F5
S214401F60D2B20B441A7609E0084997F907303A6826
S214401F70D2B21201D2B20B4483F800230C37BD46CE
S214401F805DF8047B704700BF00ED00E000E100E034
S214401F9080B483B000AF78607B68072B25D801A259
S214401FA052F823F0C51F4000CB1F4000D11F400011
S214401FB0D71F4000DB1F4000DF1F4000E31F4000EC
S214401FC0E71F40004FF4FA4310E04FF400430DE0A3
S214401FD04FF400430AE0084B08E0084B06E0084B85
S214401FE004E0074B02E0064B00E0002318460C379F
S214401FF0BD465DF8047B704700093D0000127A003C
S214402000001BB70080B500AF0620044B9847024639
S21440201013469B0013449B00184680BD911F40000A
S21440202080B500AF024B984703465B08184680BD14
S2144020300520400080B582B000AF78607868024BDB
S21440204098470837BD4680BD650E400080B58CB0C9
S21440205000AF78603960304B984703467B623B68F8
S2144020601B68BB623B689B68FB623B681B68FB6007
S2144020703B685B683B613B689B687B613B68DB68B1
S214402080BB610023FB617B68244A934208D1082049
S214402090234B984707F1240378681946214B984705
S2144020A07B68214A934208D109201D4B984707F187
S2144020B02403786819461B4B98477B681B4A934213
S2144020C011D10E20164B9847134B9847024607F1FE
S2144020D00C0378681946164B98477868154B98470E
S2144020E07868154B98477B68144A934211D10F2065
S2144020F00B4B9847084B9847024607F10C03786805
S21440210019460B4B984778680A4B984778680A4BAD
S21440211098473037BD4680BD2120400000060E401F
S214402120352040007117400000080E400040024035
S21440213021194000A5194000D519400000800240F2
S21440214080B582B000AF78600B46FB707B682A4A49
S21440215093420FD100BFFB7878681946274B9847C3
S2144021600346002B14BF01230023DBB2002BF2D121
S21440217001233CE07B68224A93420FD100BFFB78A4
S214402180786819461D4B98470346002B14BF012319
S2144021900023DBB2002BF2D1012328E07B68194AEA
S2144021A093420FD100BFFB7878681946164B984784
S2144021B00346002B14BF01230023DBB2002BF2D1D1
S2144021C0012314E07B68114A93420FD100BFFB788D
S2144021D0786819460C4B98470346002B14BF0123DA
S2144021E00023DBB2002BF2D1012300E00023184687
S2144021F00837BD4680BD00BF00060E40D5174000DC
S21440220000080E4000400240591A4000008002403C
S21440221080B584B000AF786039600023FB607B688F
S214402220284A93420CD100BF78683968264B9847B5
S2144022300346002B14BF01230023DBB2002BF3D14F
S2144022407B68224A93420CD100BF786839681E4B9F
S21440225098470346002B14BF01230023DBB2002B14
S214402260F3D17B681A4A934212D100BF07F10C03A0
S21440227078681946174B98470346002B14BF01232E
S2144022800023DBB2002BF1D1FB68DAB23B681A7050
S2144022907B68114A934212D100BF07F10C0378685D
S2144022A019460C4B98470346002B14BF01230023C6
S2144022B0DBB2002BF1D1FB68DAB23B681A701037FC
S2144022C0BD4680BD00060E400518400000080E4082
S2144022D0004002408D1A40000080024080B582B027
S2144022E000AF786039600F4A7B6813600E4B0F4A28
S2144022F01A600F4B0F4A1A60786839680E4B984739
S2144023000E4B1B689B68184600210D4B98470B4B9D
S2144023101B685B6818460021094B98470837BD463E
S21440232080BD00BFD8090020D409002041214000CC
S214402330D0090020112240004D20400060040020BB
S2144023400D2F400080B584B000AF3B4600221A6097
S214402350043300221A60043300221A600433002239
S2144023601A6004334FF4E1333B604FF400637B6004
S2144023700820054B98473B4604481946044B984767
S2144023801037BD4680BD00BF3520400000060E40D9
S214402390DD22400080B582B000AF00237B60504B0A
S2144023A04FF0FF321A604F4B4FF0FF321A604E4BE1
S2144023B04FF0FF321A60FB1C4C4819464C4B98476E
S2144023C0FB780D2B02D0FB780A2B07D149484A4BA5
S2144023D0984700BF7B68002B41D13EE0FB787F2BBF
S2144023E002D0FB78082B26D17B68002B23D0434AAB
S2144023F07B6813441B78002B02D17B68013B7B60D3
S2144024003F483D4B98477B68013B7B603B4A7B6837
S21440241013441B782F2B05D9384A7B6813441B7806
S214402420392B08D97B68002B05D03548324B984766
S2144024307B68013B7B60314A7B6813441B78002BEA
S21440244000D109E0FB7818462E4B98477B685A1C0B
S2144024507A60F978294AD154ADE700233BE07B689F
S214402460002B07D0254A7B6813441B78002B01D0ED
S214402470012330E0214B1B78A3F1300213469B002A
S21440248013445B001A461D4B5B78303B13441A4698
S214402490134B1A60194BDB78A3F1300213469B00AE
S2144024A013445B001A46154B1B79303B13441A46BF
S2144024B00C4B1A60114B9B79A3F1300213469B00DC
S2144024C013445B001A460D4BDB79303B13441A46E7
S2144024D0054B1A60002318460837BD4680BD00BF2E
S2144024E0780900207C0900208009002008D04000A0
S2144024F0E52E40000CD04000D52E400004000020C1
S21440250010D04000652E400080B487B000AFF86021
S214402510B9607A60BB68012B02D0BB68022B05D13C
S214402520BB680C33BB60FB68013BFB60BB685A0072
S2144025307B68D118BB685A1C13465B001344164A86
S214402540A2FB03239B08CA18FB681A44FB689B0837
S2144025501A44FB681149A1FB03135B09D21AFB68B6
S2144025600E49A1FB0313DB091A440D4BA2FB0301E2
S214402570531A5B080B4499080B46DB005B1AD31AC8
S2144025807B617B6901337B617B6918461C37BD469E
S2144025905DF8047B704700BFCDCCCCCC1F85EB519B
S2144025A02549922480B582B000AF00237B60634B00
S2144025B04FF0FF321A60624B4FF0FF321A60614BA9
S2144025C04FF0FF321A60604B4FF0FF321A60FB1C30
S2144025D05E4819465E4B9847FB780D2B02D0FB7839
S2144025E00A2B07D15B485C4B984700BF7B68002BA3
S2144025F041D13EE0FB787F2B02D0FB78082B26D1DA
S2144026007B68002B23D0554A7B6813441B78002BED
S21440261002D17B68013B7B6051484F4B98477B68B3
S214402620013B7B604D4A7B6813441B782F2B05D9B2
S2144026304A4A7B6813441B78392B08D97B68002BA1
S21440264005D04748444B98477B68013B7B60434AEC
S2144026507B6813441B78002B00D109E0FB781846B2
S214402660404B98477B685A1C7A60F9783B4AD1546D
S214402670ADE700235DE07B68002B0AD0374A7B68D5
S21440268013441B78002B04D07B68062B01D0012313
S2144026904FE0324B1B78A3F1300213469B001344A5
S2144026A05B001A462D4B5B78303B13441A46244B4E
S2144026B01A602A4BDB78A3F1300213469B00134482
S2144026C05B001A46254B1B79303B13441A461D4B7C
S2144026D01A607B68062B2BD0204B9B79303B4FF4FF
S2144026E07A7202FB03F21D4BDB79303B642101FB1F
S2144026F003F3D118194B1B7AA3F1300213469B0003
S21440270013445B00CA18154B5B7A303B13441A4699
S2144027100A4B1A60094B1968094B1A68094B1B6823
S214402720084611461A46104B98470246064B1A6012
S214402730002318460837BD4680BD00BF84090020E8
S214402740880900208C0900209009002008D040000D
S214402750E52E40000CD04000D52E40001000002052
S21440276010D04000652E400009254000F0B58FB0DF
S21440277006AF2A4B1B68002B4CD107F11C0107F112
S214402780180207F114032648264CA04707F110010B
S21440279007F10C0207F108043B1D0093204823462E
S2144027A0214CA047214B1B68002B12D12048214BBF
S2144027B0984721481F4B9847204B1B68002B02D058
S2144027C01F481C4B98471F481F4B9847174B0122E2
S2144027D01A601E48174B9847D7F81CE0BE697D69BB
S2144027E0FC68B86839697B68013B9B00184A1A4404
S2144027F0124B1B68002B01D0164B00E0164B009482
S21440280001900291039204931448714632462B4637
S2144028100D4CA0472437BD46F0BD00BF74090020CC
S21440282060140E40550F40002112400098090020C9
S21440283014D04000D52E40006CD0400094090020B3
S21440284088D04000A8D040003D2E40000CD040002C
S2144028501C000020ACD04000B8D04000BCD04000A7
S21440286080B582B000AF1A481A4B984778607B68AC
S21440287003F00403002B0ED015480421164B98474E
S214402880164B984712480421154B98471048042188
S214402890144B984718E07B6803F00203002B13D0D4
S2144028A00B4802210C4B98470F4B01221A600B4BEA
S2144028B098470E4B00221A6005480221084B98475D
S2144028C003480221074B98470837BD4680BD00BFE6
S2144028D060140E4029154000390F40006D27400017
S2144028E0411540001D0F4000940900209809002023
S2144028F090B587B004AF864B9847864B9847864B33
S21440290098478648864B984786480021864B984786
S2144029100220864B98470220854B9847022000218C
S214402920844B98470220844B98477E480621834B29
S2144029309847834B9847FB1D82481946824B9847D9
S214402940FB79742B42D1814B01221A608048744B2C
S2144029509847804B98470346002B14BF012300231B
S214402960DBB2002BF2D17C4B1B68B3F1FF3F1CD08F
S2144029707A4B9B783A2B18D1784B5B793A2B14D10B
S214402980754B1968764B1A68764B1B686548764CCB
S214402990A0470346002B14BF01230023DBB2002BC5
S2144029A002D072485E4B984708E06C4B3A229A70C9
S2144029B06A4B3A225A716D48594B9847634B0022EE
S2144029C01A606B4B00221A605D4B9847FB79642B6C
S2144029D053D15E4B02221A606648514B9847664B6D
S2144029E098470346002B14BF01230023DBB2002B7D
S2144029F0F2D1624B1B68B3F1FF3F20D0604B9B780F
S214402A002F2B1CD15E4B5B792F2B18D15B4B196853
S214402A105C4B1A685C4B1C685C4B1B6800934148D7
S214402A2023465B4CA0470346002B14BF01230023DC
S214402A30DBB2002B02D05748394B984708E0504B42
S214402A402F229A704E4B2F225A714848344B984743
S214402A504C4B1B68B3F1FF3F07D0484B1B68B3F1A4
S214402A60FF3F02D14C482E4B9847384B00221A6005
S214402A703F4B00221A60324B9847FB79692B40F057
S214402A80AD80324B03221A602648444B9847444850
S214402A90234B98472F4B98470346002B14BF0123E0
S214402AA00023DBB2002BF2D12B4B1B68B3F1FF3F68
S214402AB000F08080294B9B783A2B7BD1274B5B7963
S214402AC03A2B77D1244B1C68254B1A68254B1B683C
S214402AD000920122019202931248012122460123CC
S214402AE0304CA0470346002B14BF01230023DBB223
S214402AF0002B03D02C480A4B984764E0164B1968C5
S214402B00174B1A68174B1B682848294CA0475AE0B1
S214402B10050440003D0540004523400000D14000EC
S214402B20D52E400060140E40E90E4000D51E4000F1
S214402B30091F40003D1F4000A51E40001D0F4000DD
S214402B406D27400008D04000E52E40007409002064
S214402B5050D1400095234000780900200400002012
S214402B607C09002080090020191040006CD14000EC
S214402B709809002090D14000A525400084090020F7
S214402B8010000020880900208C09002090090020B1
S214402B9009134000ACD14000D0D140000D15400094
S214402BA0F0D140002111400010D2400038D2400001
S214402BB03D2E40004F4B3A229A704E4B3A225A7165
S214402BC04D484E4B98474E4B00221A604D4B0022C4
S214402BD01A604D4B00221A604C4B9847FB796D2B80
S214402BE053D1474B04221A6049484A4B98474A48B3
S214402BF0424B9847494B98470346002B14BF012346
S214402C000023DBB2002BF2D1454B1B68B3F1FF3FEC
S214402C1027D0444B9B782F2B23D1424B5B792F2BCD
S214402C201FD1414B1A68414B1B680093384801211D
S214402C3001233F4CA0470346002B14BF012300232B
S214402C40DBB2002B03D03B482C4B984712E0364B68
S214402C501968364B1A68324B1B683748374CA047C2
S214402C6008E0304B2F229A702E4B2F225A71314853
S214402C70224B9847224B00221A60224B00221A60B1
S214402C80214B00221A60214B9847FB79772B25D1A0
S214402C901B4B05221A602A48184B9847FB1D2948AB
S214402CA01946294B9847FB792F2B09D9FB79372BA7
S214402CB006D8FB79303B164800211A46234B9847E6
S214402CC0FB79382B09D10E4B00221A600D4B00229F
S214402CD01A600E4B984700BF00E0DFE7FB79632B96
S214402CE007D1094B00221A60064B00221A60074B98
S214402CF0984720E6040000206CD14000D52E4000C6
S214402D007409002098090020940900206D2740008F
S214402D1060140E40F514400060D24000A5254000E7
S214402D208409002010000020880900208C0900201B
S214402D304514400084D24000ACD240003D2E4000B6
S214402D40D4D2400008D04000E52E40005D1540003B
S214402D5070B50F4E0F4D761BB61018BF002405D029
S214402D60013455F8043B9847A642F9D10A4E0B4D1C
S214402D70761B0AF049FDB61018BF002406D0013471
S214402D8055F8043B9847A642F9D170BD70BD00BFC8
S214402D9014D8400014D840001CD8400014D8400036
S214402DA070B4840746D0541E002A41D0CDB20346A4
S214402DB002E0621EE4B3144603F8015B9A07F8D1BA
S214402DC0032C2ED9CDB245EA05250F2C45EA0545FC
S214402DD019D903F110022646103E0F2E42F8105C19
S214402DE042F80C5C42F8085C42F8045C02F11002BF
S214402DF0F2D8A4F1100222F00F0204F00F041032B1
S214402E00032C13440DD91E462246043A032A46F89C
S214402E10045BFAD8221F22F003020432134404F063
S214402E2003042CB1C9B21C4403F8011BA342FBD1D6
S214402E3070BC704714460346C2E700BF0FB400B5E7
S214402E40074983B004AB086853F8042B81680193A4
S214402E5000F056F903B05DF804EB04B0704700BFCD
S214402E6060040020034B1B6801469A68184605F02C
S214402E70A3B900BF60040020F0B5044689B00846F8
S214402E800D4600F0C7F8A368114F9A8904950221B1
S214402E9000F1010E012604AD029191040590CDF893
S214402EA00CE006970796019506D4596E42F40052F8
S214402EB021F400519A8159662046194601AA03F02A
S214402EC0A7FE002814BF4FF0FF300A2009B0F0BD1F
S214402ED0D0D34000024B01461868FFF7CDBF00BF75
S214402EE0600400200FB400B5074983B004AB0868FF
S214402EF053F8042B4168019302F058FA03B05DF88A
S214402F0004EB04B0704700BF6004002000290CBFEB
S214402F10022200224FF4806300F000B82DE9F04111
S214402F203A4C26680D46044690461F4616B1B36B8B
S214402F30002B3CD0B8F1020F2FD8002F2DDB2146B6
S214402F40304603F045FBA18900236360A3610B066E
S214402F5027D421F0830189B2B8F1020FA1812AD08B
S214402F60002D36D0B8F1010F11D089B201F008001B
S214402F70274BF36380B225602561676178B111F015
S214402F80030F18BF0027A7600020BDE8F08141F07E
S214402F9001017B42A181A361E7E74FF0FF30BDE826
S214402FA0F0812169304603F05BFDA189D1E73046C8
S214402FB003F0B4FBBEE7002004F1430341F00201F6
S214402FC000250122A181A560236023616261BDE8DE
S214402FD0F081002F08BF4FF48067384604F080F831
S214402FE0054628B1A18941F0800189B2A181B9E79F
S214402FF04FF4806004F074F8054618B9A1894FF084
S214403000FF30D9E74FF48067ECE700BF600400204C
S2144030102166400020F0030110F00300C0F10000DC
S21440302051F8043B00F1040C4FEACC0C6FF0000260
S2144030301CBF22FA0CF213434FF0010C4CEA0C2C46
S2144030404CEA0C4CA3EB0C0222EA030212EACC1226
S21440305004BF51F8043B0430F4D0C2F1000102EA48
S2144030600102B2FA82F2C2F11F0200EBD2007047B0
S2144030704B6E2DE9F0479C040F4692462BD593683D
S214403080126833B3804602F1080919E96000B608B1
S21440309017D0043D002401E0A64210D0404655F823
S2144030A0041F3A4603F0B2FB431C04F10104F3D17B
S2144030B00023CAF80830CAF80430BDE8F087DAF8CA
S2144030C00830A3EB8603CAF8083009F10809002B3C
S2144030D0DBD10020ECE703F09BFD0023CAF8083064
S2144030E0CAF80430BDE8F087936810B41BB15DF8A9
S2144030F0044BFFF7BDBF184653605DF8044B70475E
S2144031002DE9F04FBFB01C4689460892074603F0AB
S21440311073FF036815931846FFF77CFF0C941690D0
S2144031201FB1BB6B002B00F0F380B9F80C2093B2B4
S2144031309D040AD4D9F8641042F4005321F4005197
S214403140A9F80C30C9F864109BB2180740F1AA8061
S214403150D9F81020002A00F0A58003F01A030A2BA5
S21440316000F0AC8000231A461193239322931493C5
S214403170179309932EAB9C46219312921392644662
S214403180B846089D2B78002B00F0C680252B02D130
S214403190C2E0252B03D015F8013F002BF9D1089B40
S2144031A0EE1A7EB1229B239A08992160013332445D
S2144031B0072B66602392229300F393800834099B82
S2144031C0334409932B78002B00F093800023691C2E
S2144031D04FF0FF3A6D788DF867301A460A9306939B
S2144031E056464B1CA5F12001582900F2C183DFE862
S2144031F011F05602BF03BF03F602BF03BF03BF036F
S214403200BF03BF03BF03FD02C602BF03F20147036D
S214403210BF03CA02D102D102D102D102D102D102E9
S214403220D102D102D102BF03BF03BF03BF03BF0316
S214403230BF03BF03BF03BF03BF036B028D02BF03C1
S2144032408D02BF03BF03BF03BF03BF02BF03BF035D
S2144032506203BF03BF03BF03BF03BF03A903BF038C
S214403260BF037F03BF03BF03BF03BF03BF03BF0349
S214403270BF03BF03BF03BF0394030B038D028D023E
S2144032808D0224030B03BF03BF032B03BF03350389
S214403290F901E0025D02BF030B02BF039500BF03C6
S2144032A0BF0330023846494602F094F8A0B9B9F850
S2144032B00C3003F01A030A2B7FF454AFB9F90E30E2
S2144032C0002BFFF64FAF38464946089A234601F092
S2144032D00BF93FB0BDE8F08F4FF0FF303FB0BDE890
S2144032E0F08F4046494621AAFFF7FEFE40B92EAC75
S2144032F065E7239B23B14046494621AAFFF7F4FEE3
S214403300B9F80C305A06E7D409983FB0BDE8F08FBC
S214403310384603F003FA08E7089D53E70893069BF0
S214403320B2469E0640F118830C9F073727F00703E6
S21440333003F10802D3E900670C9201234FF0000C1A
S2144033408DF867C0CDF83CA0BAF1000F03DB069AB3
S21440335022F08002069256EA070240F01983BAF13C
S214403360000F00F01684012B00F01A83022B00F0A9
S2144033704C842EA9F20842EA4772F80806F0070382
S21440338007461646303356EA070201F8013DF1D1AA
S214403390069A0E91D00700F10D852EAB5B1A0B9363
S2144033A00B9A92455346B8BF134607930023109393
S2144033B0BCF1000F02D0079B01330793069B13F026
S2144033C002030D9302D0079B02330793069B13F02C
S2144033D0840640F0DA820A9B079AC2EB030ABAF1E7
S2144033E0000F40F3D282BAF1100F2399229AB34FBE
S2144033F0C8BF4FF0100B07DC1EE0AAF1100ABAF166
S214403400100F04F1080417DD01321031072A23910A
S214403410229284E88008F0DD4046494621AAFFF71C
S21440342063FE00287FF46CAFAAF1100ABAF1100FC1
S2144034302399229A2EACE7DC01320AEB010B072ACD
S214403440CDF88CB0229284E8800400F343849DF843
S21440345067C00834BCF1000F0FD0229B01330BF13C
S214403460010B0DF167010122072BCDF88CB022939A
S21440347084E8060000F3B78308340D9B73B1229BA3
S21440348001330BF1020B1AA90222072BCDF88CB0A0
S214403490229384E8060000F39A830834802E00F0D6
S2144034A0EA820F9B0B9AC2EB030ABAF1000F32DD99
S2144034B0BAF1100F229A824F22DD10265B4606E0B4
S2144034C0AAF1100ABAF1100F04F1080417DD013210
S2144034D01033072A2393229227606660F0DD404629
S2144034E0494621AAFFF700FE00287FF409AFAAF15B
S2144034F0100ABAF1100F239B229A2EACE7DC9B46AB
S2144035000132D344072ACDF88CB0229284E8800456
S21440351000F351830834069BDB0500F15582229B5D
S2144035200B990E9A226001338B44072BCDF88CB052
S2144035306160229300F317830834069B59073AD5F7
S2144035400A9B079A9D1A002D35DD102D229B5B4F56
S2144035501EDD10265A4604E0103D102D04F10804E6
S21440356015DD01331032072B2392229327606660C5
S214403570F2DD4046494621AAFFF7B6FD00287FF413
S214403580BFAE103D102D239A229B2EACE9DC93460D
S2144035900133AB44072BCDF88CB02293276065608F
S2144035A009DD4046494621AAFFF79EFD00287FF4E4
S2144035B0A7AEDDF88CB0099B079A0A998A42ACBF41
S2144035C09B185B180993BBF1000F40F0D88200238C
S2144035D022932EACD5E5194606981D7840F0040097
S2144035E00690FEE50893069B13F02003B24600F0D3
S2144035F06D810C9F073727F0070303F10802D3E9D4
S21440360000670C92002399E60C9A089313680E9371
S2144036104FF0000B8DF867B0171D002B00F04F865B
S214403620002E0E98C0F201865946324604F036F80F
S214403630002800F080860E9BCDF83CB0C31A0B9352
S2144036400C9723EAE3730793CDF840B09DF867C024
S214403650AEE608931B4B1493069B8DF8672099069D
S214403660B24640F14F810C9F073727F00703D3E956
S214403670006703F108020C92069BDB0740F1DE82EE
S21440368056EA070300F0DA82069A8DF8695030232E
S21440369042F002028DF86830069202234EE61D780C
S2144036A01946002A7FF49DAD20229AE5069941F0FE
S2144036B0200106911D78194693E500BF28D44000A6
S2144036C0D4D3400008D440000893069B8DF867206A
S2144036D043F010030693069B9906B24640F19C8041
S2144036E00C9F073727F00707D7E9002307F10801A3
S2144036F00C9116461F46002A73F10003C0F215844B
S2144037009DF867C0CDF83CA001231DE60C9F0893AA
S214403710073727F007038DF8672003F108020C925D
S2144037201A6812925B6813931399129804F0F8FF84
S2144037300128B3461298139940F0068400220023CD
S21440374009F0C4F8002840F0EE859DF867C0069E54
S214403750994A9A4B0321002026F08006472DD8BF71
S2144037601A4607910F9006960E920B9110901FE600
S214403770069941F0080106911D78194631E51D78F5
S21440378019462B222DE5069941F0800106911D78B9
S214403790194626E5A5F13000002113F8015B01EB40
S2144037A0810100EB4101A5F130000928F5D90A91C5
S2144037B018E50C9908933023069A8DF868300B4626
S2144037C00433782542F002020C937D4B1493B246A4
S2144037D006920E688DF8695000270223AEE50699DA
S2144037E041F0010106911D781946FAE40C9D2968BE
S2144037F00A9108460028294601F10401C0F2E384F4
S2144038000C911D781946ECE40893069B8DF86720CA
S2144038109906B2463FF564AF069BDA0600F19282FF
S214403820069B5B0640F18E820C99B1F9006004312C
S214403830F71732463B460C915DE7069941F040014A
S21440384006911D781946CCE41D7806996C2D00F03B
S214403850B38441F0100106911946C2E40893069BD2
S2144038608DF867209A0640F100840C9A09991368EF
S214403870CF170846043239460C92C3E9000180E46B
S2144038801D782A2D03F1010100F00E86A5F13000C7
S21440389009280B464FF000063FF6A4AC13F8015B30
S2144038A006EB860600EB4606A5F130000928F5D95A
S2144038B046EAE67696E40893069B43F010030693A2
S2144038C0069B13F02003B2467FF493AE069A12F09E
S2144038D0100240F04082069B13F0400300F03B820B
S2144038E00C9913460A4604320E880C92002725E5AA
S2144038F00893344B1493069B8DF867209906B2467E
S2144039003FF5B1AE069BDA0640F1C6830C9A1346E5
S214403910043316680C930027AEE60C9908930A68A1
S2144039208DF890200023012204319C4607920C918A
S2144039308DF8673024ABCDF83CC0CDF840C00B9234
S2144039400E933BE50893069B43F010030693069BB5
S214403950B2469E063FF5E8AC069BD80640F1778314
S2144039600C9A134604321E680C9201230027E5E4A5
S21440397008938DF86720002D3FF4BBAC002301224E
S2144039809C4607928DF89050D2E7DDF88CB061E502
S214403990012B7FF4EBAC002F08BF0A2E80F0EF819E
S2144039A00DF1F80B30360BF8416D2EABCBEB030325
S2144039B00B93CDF838B0F3E4E8D34000E4D34000AE
S2144039C008D44000F4D34000652D40F38A80129816
S2144039D013990022002308F06FFF002800F0318181
S2144039E0229BBA4A226001330BF1010B0122072BBE
S2144039F0CDF88CB02293626000F3678308341B9B3B
S214403A00119A934203DB069BDF077FF596AD229B18
S214403A101699159A226001338B44072BCDF88CB04B
S214403A206160229300F3D6830834119B5D1E002DFF
S214403A307FF783AD102D229BA54F40F3958110262E
S214403A405A4604E00834103D102D40F38C81013373
S214403A501032072B2392229327606660F2DD4046A1
S214403A60494621AAFFF740FB00287FF449AC239A39
S214403A70229B2EACE7E70A9B079A9E1A002E7FF7FA
S214403A8010AD102E229A924F1FDD4FF0100A5B4663
S214403A9004E0103E102E04F1080415DD0132103308
S214403AA0072A2393229284E88004F2DD4046494662
S214403AB021AAFFF719FB00287FF422AC103E102EF7
S214403AC0239B229A2EACE9DC9B460132B344072A5C
S214403AD0CDF88CB022922760666000F319820834D5
S214403AE0DFE4119B229D012B40F3D4810E9B236083
S214403AF001350BF101060123072D239622956360BD
S214403B0000F3E4810834169A159B23600135164469
S214403B10072D23962295626000F3E4810834002343
S214403B2012981399002208F0C7FE119B002840F017
S214403B30E0800E9A013B013501321E44072D229546
S214403B4023962260636000F3B5810834179A62605A
S214403B50013506EB020B1DAB072DCDF88CB0229538
S214403B6023607FF7E9AC4046494621AAFFF7BCFAF6
S214403B7000287FF4C5ABDDF88CB02EACDDE44046C3
S214403B80494621AAFFF7B0FA00283FF420ADFFF7D8
S214403B90B7BB002B33D1069BDA0730D50DF1F80BB7
S214403BA030230BF8413D2EABCBEB03030B93CDF804
S214403BB038B0FFF7F5BB4046494621AAFFF794FACE
S214403BC000287FF49DABDDF88CB02EACA3E44046D5
S214403BD0494621AAFFF788FA00287FF491ABDDF822
S214403BE08CB02EAC5AE44046494621AAFFF77CFAF0
S214403BF000287FF485ABDDF88CB02EAC3DE42EABD0
S214403C00CDF82CA00E93FFF7CBBB14980DF1B80B54
S214403C10330906F00F0143EA07733A091E46174672
S214403C20435C0BF8013D56EA0703F1D15A462EABEA
S214403C309B1ACDF838B00B93FFF7B2BB0223FFF7C1
S214403C407DBB1B9D002D40F34C82119A10998A42F1
S214403C501346A8BF0B461D460E99002D01EB020ADF
S214403C600BDD229B21600133AB44072BCDF88CB093
S214403C706560229300F300830834109B002DA8BF94
S214403C805B1B002B1D4640F3AF80102D229B104F30
S214403C9040F30F8210265A4604E00834103D102D9B
S214403CA040F3068201331032072B2392229327607B
S214403CB06660F2DD4046494621AAFFF715FA00281D
S214403CC07FF41EAB239A229B2EACE7E724D4400019
S214403CD0D4D340004046494621AAFFF705FA0028BB
S214403CE07FF40EAB9DF867C0DDF88CB02EACFFF7C6
S214403CF0B1BB03F1FF3ABAF1000F7FF727AFBAF135
S214403D00100F904FC8BF4FF0100B07DCF6E008349A
S214403D10AAF1100ABAF1100F40F3F08001351036C0
S214403D20072D2396229584E88008F0DD40464946D4
S214403D3021AAFFF7D9F900287FF4E2AA239E229D04
S214403D402EACE5E70C9A166813460433F7170C9327
S214403D5032463B46CFE40C990A4604320E680C9233
S214403D600027FFF7EBBA93460133AB44072BCDF859
S214403D708CB02293276065607FF7DEABF3E60DF1EB
S214403D80B80BCDF81CC0304639460A22002308F04E
S214403D905DFE3032304639460BF8012D00230A22AC
S214403DA008F054FE06460F4656EA0703EBD1DDF808
S214403DB01CC03BE7302B00F019820E9B013B1A4695
S214403DC02EA80E93821A30230B9201F8013CFFF77F
S214403DD0E7BA4046494621AAFFF786F900287FF40D
S214403DE08FAADDF88CB02EAC0E9A10991B9B0A4415
S214403DF01646119A93423EDB069AD5073BD4119A53
S214403E00C6EB0A05D31A9D42A8BF1D46002D2F4675
S214403E100BDD229A26600132AB44072ACDF88CB0DF
S214403E206560229200F35E820834002FACBFDD1B33
S214403E301D46002D7FF781AB102D229B414F93DD11
S214403E4010265A4603E00834103D102D8BDD013312
S214403E501032072B2392229327606660F3DD40469C
S214403E60494621AAFFF740F900287FF449AA239A39
S214403E70229B2EACE8E7229A1698159921600132CB
S214403E808344072ACDF88CB06060229200F30A8201
S214403E900834B4E7069BD8073FF528AE0E9B236050
S214403EA001350BF101060123072D23962295636009
S214403EB07FF74BAE4046494621AAFFF715F9002842
S214403EC07FF41EAA239E229D2EAC3FE640464946DE
S214403ED021AAFFF709F900287FF412AA239E229D03
S214403EE02EAC10E64046494621AAFFF7FDF80028CA
S214403EF07FF406AA239E229D2EAC10E6013556443A
S214403F00072D2396229584E880047FF71EAED1E7DE
S214403F104046494621AAFFF7E7F800287FF4F0A973
S214403F20DDF88CB02EACFFF7BCBA4FF02D0C7642C5
S214403F3067EB47078DF867C0CDF83CA00123FFF735
S214403F4003BA00BFD4D3400004F0EAFB002800F0D8
S214403F500D8125F02003B6F1FF3F0B9300F0588209
S214403F60472B04D1002E14BFB3464FF0010B069BDF
S214403F7043F480730F93139BB3F1000A129B07938D
S214403F80BBBF534603F1004A00232D23662D0D93F5
S214403F9000F05481462D00F051810B9B079A452B2B
S214403FA00CBF0BF101075F4602201BA98DE881007C
S214403FB002911CA81FA9039053460491404601F065
S214403FC013FB672D0E9002D0472D40F04781069B8D
S214403FD0DB0740F13A820E9BDE19079851460022D5
S214403FE0002308F069FC002840F0A3811F9B9E42F6
S214403FF006D930215A1C1F9219701F9B9E42F9D831
S2144040000E9A9B1A11930B9B472B1B9B00F07981B2
S214404010652D40F39C81662D109300F00982119B1C
S214404020109A934200F3F781069BD90700F1178256
S21440403022EAE2730B920D9A002A40F069810793B8
S2144040400F9B06930F929DF867C0FFF7B1B9069B8A
S2144040500C9A13F0400F13463FF484AC1688043293
S214404060002701230C92FFF769B9069BDB060BD4A9
S214404070069B5F0608D50C9A136804320C92BDF86E
S21440408024201A80FFF77DB80C9A136804320C92ED
S214404090099A1A60FFF775B8069B0C9A13F0400F02
S2144040A0134676D0043316880C930027FFF7E4BAFD
S2144040B093460133AB44072BCDF88CB02293276050
S2144040C065603FF786AE08348EE64046494621AAEC
S2144040D0FFF70AF800287FF413A9DDF88CB02EAC61
S2144040E08DE4229BB04A226001330BF1010B012282
S2144040F0072BCDF88CB02293626050DC08342DB983
S214404100119B1BB9069BDE077FF517AA229B1699C3
S214404110159A226001330BEB0102072B2392616054
S214404120229300F3688108346D42002D6FDD102D18
S2144041309E4FC8BF102605DCAAE00834103D102D5F
S21440414040F3A68001331032072B23922293276038
S2144041506660F2DD4046494621AAFEF7C5FF0028C4
S2144041607FF4CEA8239A229B2EACE7E7069E904A81
S214404170904B9DF867C00F90032126F08006472D90
S214404180D8BF1A460791069610900E920B91FFF7ED
S2144041900FB9043316680C930027FFF76DBA4046F4
S2144041A0494621AAFEF7A0FF00287FF4A9A81B9D38
S2144041B0DDF88CB02EACA2E741F0200106915D7888
S2144041C0591CFFF70EB80A980C9140420A901946BF
S2144041D0FFF702BA4046494621AAFEF785FF002867
S2144041E07FF48EA8DDF88CB02EAC1EE40E9A2EAB73
S2144041F09B1A0B93FFF7D4B84046494621AAFEF7D0
S21440420073FF00287FF47CA8239A229B2EAC11983B
S2144042106060013302EB000B072B0E9ACDF88CB092
S214404220229322607FF788A99DE4CDF83CB0FEF744
S214404230F1FE0C970B900346FFF703BA03201BA929
S2144042408DE8010802911CA81FA90390079A0491C3
S2144042505346404601F0C8F95F460E900E9BDE1965
S2144042600B9B462B7FF4B9AE0E9B1B78302B00F091
S214404270FC801B9F3E44B0E64046494621AAFEF7D6
S21440428033FF00287FF43CA8DDF88CB02EACF4E475
S21440429001332A44072B2392229327606560ABDCC8
S2144042A00834B4E74046494621AAFEF71DFF0028D9
S2144042B07FF426A81B9BDDF88CB02EAC9FE5062E1F
S2144042C0334628BF06230B9323EAE373DDF838C052
S2144042D00793394B0C97CDF83CC0CDF840C00E93B1
S2144042E0FFF766B84046494621AAFEF7FDFE00287D
S2144042F07FF406A81B9B119ADDF88CB0D31A2EAC1F
S21440430093E5DF1C22DB9B4520DB1093672586E682
S21440431007930F9B06934FF02D0C00238DF867C034
S2144043200F93FFF748B84FF02D0C8DF867C0FFF796
S2144043300EBA334664E626EAE6730F900C97109062
S2144043409DF867C007930B96FFF732B8023D013BD6
S214404350002B1B93BABF5B422D222B22092B8DF8D4
S21440436074508DF8752072DD0DF183063046134A81
S21440437082FB0321DA17C2EBA10202EB8201A3EB18
S214404380410303F13001092A134600F8011DEEDC13
S21440439002463033D9B202F8011D964240F2A08060
S2144043A00DF1760203460DE024D44000D4D34000FD
S2144043B0F0D34000ECD340001CD4400067666666ED
S2144043C013F8011B02F8011BB342F9D121AB1B1AAB
S2144043D00DF1760213441DAA9B1A119A1793012ACF
S2144043E013440B936DDD0B9B002201330B9310920D
S2144043F023EAE3731FE64046494621AAFEF774FEC9
S21440440000287EF47DAF1B9D239A229B2EAC8BE624
S2144044104FF0060BABE5109B002BD8BFC3F102064E
S214404420119BC8BF0126F3180B9323EAE37302E6F9
S214404430002B30DDBBF1000F25D1069BDE0722D4D2
S214404440109A0B9222EAE273F5E51F9BD8E53033CB
S21440445030228DF877308DF876201EABBBE7109B68
S21440446001330B9323EAE373E5E5079851460022B0
S214404470002308F021FA00287FF4FBAEC7F10107BD
S2144044801B973E44A9E5109B0BF1010633440B9362
S21440449023EAE373CFE5BBF1000F1BD1069BD80799
S2144044A018D401230B93C6E50C9D2E68284604308D
S2144044B0002E5D780C90BEF694AE4FF0FF36FEF7B9
S2144044C090BE069B13F001038DD110930B9B23EAFD
S2144044D0E373B0E50BF102030B9323EAE373AAE51B
S2144044E00DF1760377E700BF2DE9F0420C46ADF5B7
S2144044F08D6DB1F80CE0E769496EB4F80E901991ED
S2144045001AAD4FF480662EF0020E4FF0000C07975F
S2144045106946676A0095049502960596ADF80CE0E4
S214404520ADF80E900997CDF818C00646FEF7E8FDA0
S214404530051E07DB3046694602F04AF8002818BFD9
S2144045404FF0FF35BDF80C305B0603D5A38943F02A
S2144045504003A38128460DF58D6DBDE8F08200BF6F
S2144045602DE9F04F8A468989ADF52D7D8E04834628
S214404570039309D4DAF8643041F4005123F400532D
S214404580AAF80C10CAF864301646002316F8011B29
S214404590089306931F460793DFF87494CDF808B047
S2144045A0119169B3D9F8000043185B7803F008030B
S2144045B003F0FF054BB3DAF80430029C11E0DAF85A
S2144045C00030D9F800101A780A440133527815079B
S2144045D00FD5DAF80420CAF80030531E0137CAF85F
S2144045E00430002BEBDC2046514604F011F800283E
S2144045F0E5D03246164616F8011B11910029D1D156
S21440460007980DF52D7DBDE8F08F252940F0828076
S21440461053782C46711C782B00F2C982DFE813F0E1
S2144046209200C702C702C702C702C702C702C70234
S214404630C702C702C702C702C702C702C702C702ED
S214404640C702C702C702C702C702C702C702C702DD
S214404650C702C702C702C702C702C702C702C702CD
S214404660C702C702C702C702C7027900C702C7020D
S214404670C702C7023902C702C702C702C702C7023B
S21440468064026402640264026402640264026402B5
S21440469064026402C702C702C702C702C702C70253
S2144046A0C702C702C702C7023E028502C70285028A
S2144046B0C702C702C702C7028002C702C702760205
S2144046C0C702C702C702C702C702C702C702C7025D
S2144046D06C02C702C702A602C702C702C702C702C9
S2144046E0C702C702C702A0029E0285028502850253
S2144046F099029800C702C702BF02C7028B0289020E
S214404700BB02C702C702B702C702AF02C702C70250
S2144047106C020E46DAF80430002B40F36185DAF876
S214404720003016F8012C197891427FF469AFDAF818
S21440473004200133013ACAF80420CAF80030013791
S214404740324657E74FF0FF300DF52D7DBDE8F08F30
S214404750AD4B089300230E4606934FF00308DAF855
S2144047600430002B40F3A8816B0612D508F1FF38C1
S214404770B8F1030F00F2C080DFE818F0E8009200BE
S214404780220024020298514603F042FF002840F0DF
S2144047909A81D9F80010DAF8002001E0CAF8002023
S2144047A013780B4401325B781807DFD5DAF804300B
S2144047B0013B002B07F10107CAF80430EEDCE1E7C5
S2144047C0631EB3F5AE7F84BF6FF4AE71631854AA10
S2144047D098BF002309929046B4461A46069E3B462A
S2144047E088BF40F25D1445F458654FF0000B1746FD
S2144047F0DAF800100878A0F12B024D2A00F2EC807F
S214404800DFE812F03101EA003101EA00EA0008016F
S214404810D400D400D400D400D400D400D400410145
S2144048204101EA00EA00EA00EA00EA00EA00EA009B
S2144048302C012C012C012C012C012C01EA00EA0051
S214404840EA00EA00EA00EA00EA00EA00EA00EA00D3
S214404850EA00EA00EA00EA00EA00EA00EA00360176
S214404860EA00EA00EA00EA00EA00EA00EA00EA00B3
S2144048702C012C012C012C012C012C01EA00EA0011
S214404880EA00EA00EA00EA00EA00EA00EA00EA0093
S214404890EA00EA00EA00EA00EA00EA00EA00360136
S2144048A0002C08BF4FF0FF3415F0010340F0DF83C3
S2144048B0EA0640F15983D9F80010DAF800201D4680
S2144048C013780B4401325B781B073CD4DAF804308B
S2144048D0CAF800200135013BAC42CAF8043032D059
S2144048E0002BEDDC0298514603F092FE58BBD9F8F7
S2144048F00010DAF80020E3E7002C08BF012415F08A
S214404900010340F06483E90640F147841D46DDF824
S214404910088009E01344CAF800301544A41A03F08E
S21440492077FE002840F03384DAF80420DAF80030C6
S214404930A24240465146EDDB121B2344CAF80420EF
S2144049402544CAF800302F44324653E6002C08BFB0
S2144049504FF0FF34EA0640F1D382DAF80010002523
S2144049600DF150080B7818F803300131CBB1DAF866
S2144049700430CAF800100135013BAC42CAF8043096
S214404980E1D0002BEEDC0298514603F041FE0028B1
S214404990D9D1DAF800100B7818F803300131002B23
S2144049A0E5D1002D3FF42CAE2F44CDE7174A32F91F
S2144049B0166025F43865DAF8042088F80000013AD5
S2144049C0002A08F10108CAF804203ADD0131CAF885
S2144049D00010013C7FF40CAFE90506961F4666467C
S2144049E007D5099B984500F2EE83099B98453FF40E
S2144049F007AE15F0100400F06183099BC3EB08086E
S214404A00D84447443246F5E55598400038D44000EF
S214404A10640400202A05CED516B945F4007508264C
S214404A206A0500F1748325F460750FB1013F0134C7
S214404A30DAF80420013A002A0BF1010BCAF80420E8
S214404A40C4DC0298CDF810C05146069303F0E0FD52
S214404A50069BDDF810C00028BBD0BDE70A2EBBDDA4
S214404A6025F43865A7E72A06B6D525F08005A2E7DF
S214404A7005F4C062B2F5007FAED125F4007545F46A
S214404A80A065102697E7AA4A32F91660082EE7DC9A
S214404A90A2E7737845F010050E46BBE50E4645F096
S214404AA00105A44B08930A230693DAF80430002B3A
S214404AB04FF003083FF758AE0298514603F0A8FD62
S214404AC000283FF451AE079A002A3FF43BAEBAF8AE
S214404AD00C3013F0400F134618BF4FF0FF33184604
S214404AE00DF52D7DBDE8F08F04EB840403EB440404
S214404AF0303C73780E468DE50E4645F400758E4B79
S214404B000893102306934FF0030828E60E4645F018
S214404B100105894B0893082306934FF003081EE6C9
S214404B20737845F002050E4674E50E464FF00408CD
S214404B3015E60E46EDE7EC060E463FF55AAD68071D
S214404B4040F16883039A1368043203921F8032460A
S214404B5050E5737845F004050E465BE50E46A0E743
S214404B600E4645F040054FF00008F8E514A803F05F
S214404B7015FE45F0400506464FF00108EFE56E4B42
S214404B8008930A230E4606934FF00308E7E50E46C1
S214404B904FF00208E3E50E4645F40875AFE7737834
S214404BA06C2B00F0318345F001050E4632E5034498
S214404BB00E465B7803F00303012B7FF472AF45F09B
S214404BC001056EE7029802F017FA631E02680D921E
S214404BD0B3F5AE7F40F291816FF4AE7163180C93DB
S214404BE040F25D144FF0000B54AB099398460A967A
S214404BF045F4F065CDF83CB0CDF838B0CDF82CB0E3
S214404C005B465E46DAF800000178A1F12B0EBEF155
S214404C104E0F00F24381DFE81EF07D0041017D002B
S214404C204101410171004F004F004F004F004F00BF
S214404C304F004F004F004F004101410141014101EB
S214404C404101410141013A01410141014101230134
S214404C501E0141014101A3004101410141014101C1
S214404C60910041014101410141014101860041015C
S214404C70410141014101820041014101410141019F
S214404C804101410141013A014101410141012301F4
S214404C901E0141014101A300410141014101410181
S214404CA0910041014101410141014101860041011C
S214404CB041014101410182001BEB030F16D125F44F
S214404CC0C07588F8001008F10108DAF804100139B8
S214404CD0002904F1FF3407F10107CAF8041040F335
S214404CE0EA800130CAF80000002C8BD104965A4660
S214404CF09B46049B0A9E002B42D0FBE0EA05DBD590
S214404D000C9A25F080050136002ADED0013A0C9236
S214404D100134DAE72A06E9D525F08005D1E7072BE6
S214404D20E4D10823CDE7062BE0D10723C9E700BF2F
S214404D3038D44000559840003D9B4000BBF1000FE2
S214404D4040F0CD802EB905F4E06EBEF5E06F00F081
S214404D504F82012B01D0042BC8D10133DBB2B0E720
S214404D60002B40F0B580002E40F0C08005F4E06E89
S214404D70BEF5E06F00F0308204960A9E5A469B4687
S214404D80013A012A40F2D8820BF1FF32062A1DD89A
S214404D90BBF1020F40F2E182BBF1030F16D0ABF13C
S214404DA00404E4B26FEA040BC3440A954546A046A1
S214404DB0029C15F8011D2046524606F0C5FA5D4590
S214404DC0F7D14446013FA8460A9D3F1BEA051CD53D
S214404DD06B0500F1D38218F8011C652908F1FF34F1
S214404DE007F1FF3B0BD0452909D00298524606F002
S214404DF0ABFA18F8021CA7F1020BA8F102040298BD
S214404E00524606F0A1FA5F46A04615F010027FF41F
S214404E10F0AB05F4C061B1F5806F88F8002000F073
S214404E20EC810E9B002B40F0968100220999029857
S214404E3003F07EFDEC0702460B4640F15281039894
S214404E40016804300390C1E90023079B01330793B0
S214404E503246FFF7CFBB022B7FF448AF032330E741
S214404E6005F4A06EBEF5806F04D06A057FF53EAFB0
S214404E70002E81D0AA0504D40B9ACDF83C80B21AF5
S214404E800E9225F4F06545F4C075002619E7BBF18F
S214404E90010F7FF42BAF4FF0020B12E70D9A92F8FA
S214404EA000E08E457FF422AFAA057FF51FAF25F4BC
S214404EB020750B9605E702980493514603F0A8FB2D
S214404EC0049B00287FF412AF002C7FF49BAE0DE7C6
S214404ED0032B3FF442AF052B3FF43FAF06E7BBF151
S214404EE0020F7FF436AF4FF0030BEAE604960A9EB5
S214404EF05A469B4625F4807542E700230C9371E69C
S214404F00039A1346156804330393AB460DF15008D5
S214404F10DAF800301A7818F80220591CC2B1DAF8CC
S214404F200420CAF80010013ACAF804201B780BF88F
S214404F30013B013C0CD0DAF80430002BE8DC029848
S214404F40514603F065FB0028E2D0AB453FF4BBADCD
S214404F50BBEB05053FF454AB079A0023013207929A
S214404F608BF800302F44EFE4039A156802F10408EA
S214404F70AB46DAF80010D9F800200B7813444A1CE8
S214404F805B78180715D4DAF80430CAF80020013BDD
S214404F90CAF804300B780BF8013B013C09D0DAF82C
S214404FA00430002BE5DC0298514603F031FB002824
S214404FB0DFD0079ACDF80C800132C5EB0B050023F5
S214404FC007922F448BF800303246FFF713BB12ABE4
S214404FD01846002108220993FDF7E2FE15F010035B
S214404FE00A9300F0A980002319460025AB460A9D87
S214404FF00B960DF5A87804970E4601F0F7FF584536
S2144050003FF461AD9AE80A00099A11F801EBCAF834
S2144050100010013B0BF1010700920298CAF80430D9
S21440502031463B4608F80BE0424602F0F3FA431C92
S2144050303FF449AD002840F0A28005B93560049B96
S2144050403B440493013C002D40F09E800436AB4622
S214405050DAF80430002B63DD002CCED1049F0B9E83
S2144050600A9B002B3FF4F1AE3246FFF7C3BA12ABB1
S2144050701846002108220993FDF792FE15F0100B02
S21440508048D011AD002290460496DAF80030D9F8A0
S21440509000201B7813445B78190702D4002C40F09C
S2144050A0ED80049EBBF1000F7FF4A3AA079BC5F8D2
S2144050B000B0013307933246FFF79CBA224688F881
S2144050C0004002980999069B089CA047AA063AD534
S2144050D0039A1368043203921860079B01330793C0
S2144050E08BE4AC073FF5ABAECDE90423039B1D1D17
S2144050F01C6803F015FBDDE90423002800F0B980A6
S2144051001046194607F052FC039520609DE625F4AC
S214405110B06550E4039A1346043315680393B1E729
S2144051200298514603F074FA002895D05D46049FD5
S2144051300B9E002D94D0C6E4039A13681946134676
S2144051400433039351E76B077BD5039A1368043205
S21440515003921880C1E70F9C02980A23611C04F052
S21440516079FB0E9BA046C21A0DF2A321884528BFA4
S2144051700DF2A22840468B4903F050FB55E602301C
S2144051807FF45DAFBB4663E74FF0000B60E7002D52
S2144051903FF499AC2F44FFF7D7BB039D029829688C
S2144051A0CDF800A02346012201F042FB2B460433F3
S2144051B000283FF488AC079A0393013207920744CD
S2144051C03246FFF717BA18F8011C0298524606F006
S2144051D0BBF808F1FF3808E425F4F065012370E5D4
S2144051E00298514603F014FA00283FF498AA6AE45D
S2144051F025F4F0654FF0010B63E50B9A049B991A72
S2144052004A420029B0D110E6B37845F0020502368E
S214405210FFF700BAE9070CD4AA070AD5039A136821
S21440522038460432F9170392C3E900013246FFF7C5
S214405230E1B9039A1368043203921F603246FFF7BF
S214405240D9B915F001027FF443AFAC077FF540AF04
S214405250554B0899029899420999069B00F09F8001
S21440526004F086FB039A136804320392C3E90001F4
S21440527033E703F0CFFA03952060E6E501F0B6FE8B
S21440528040453FF420AC9AE80A000DF5A87E11F898
S214405290012BCAF80010013B0999009108F101065C
S2144052A0CAF804300EF8082033460298294672465B
S2144052B002F0B0F9431C3FF406ACE0B9286001F0B8
S2144052C083FE68B3B0464446049E002C3FF4EAAEE4
S2144052D054AB984404953346029D46469846013C56
S2144052E0284616F8011D524606F02EF8002CF6D138
S2144052F0049D4646D6E602301AD1B046DAF8043067
S214405300002B3FF7C2AE0298514603F081F90028C1
S2144053103FF4BBAE4246049E002A7FF4D4ABC1E6BF
S2144053203744013CBBF1000F04D10435D846E5E7CD
S2144053302868C4E78046E1E7099BDDF808B0984551
S2144053407FF65EA918F8011D5846524605F0FCFF48
S214405350099B9845F6D1FFF753B9099BDDF808B08D
S21440536098457FF64DA918F8011D5846524605F057
S214405370EBFF099B9845F6D1FFF742B9099BDDF84C
S21440538008B098457FF63CA918F8011D5846524685
S21440539005F0DAFF099B9845F6D1FFF731B904F0DE
S2144053A061FC5FE75CD440003D9B400030B504465E
S2144053B085B040B1856B35B903930292019101F0F7
S2144053C0ADF901A90EC9204605B0BDE83040FFF74B
S2144053D0C7B800BF38B52F4B1B6805460C4613B1FF
S2144053E09A6B002A36D0A28993B218070CD520694A
S2144053F0A8B113F001021ED0636900225B42A3618C
S214405400A260F0B1002038BDD9063BD5580725D458
S214405410206942F00803A3819BB20028E9D103F437
S2144054202072B2F5007FE4D02846214601F0E8FD20
S214405430A3892069DDE7990758BF6269A260002802
S214405440E0D1A3891A06DED543F04003A3814FF08E
S214405450FF3038BD184601F061F9C4E7216B49B109
S21440546004F14003994203D0284601F0F9FAA28994
S2144054700023236322F0240200232069636092B253
S2144054802060C6E742F0400209232B604FF0FF3011
S214405490A28138BD60040020024B13B1024800F0E0
S2144054A005B8704700000000316740000146002004
S2144054B00246034606F052B802690B69934200F36F
S2144054C08F802DE9F04F03F1FF3801F1140700F10A
S2144054D0140B57F828205BF828304FEA880483B02E
S2144054E00132B3FBF2F90BEB0403009407EB040A1A
S2144054F00193B9F1000F3BD000263246BC46DE464B
S21440550034465CF8046BDEF80050B3B2360C03FB4E
S214405510094406FB09F606EB1446A3B2D31AB4B206
S21440552013FA85F3C4EB154404EB23449BB243EAD9
S2144055300443E2454FEA24424EF8043B4FEA164401
S214405540DFD2009B5BF8033093B9019C231F9B4539
S2144055500CD254F8043C4BB9A4F1080302E01A6894
S214405560043B1AB99B4508F1FF38F8D3C0F81080C1
S214405570044602F035FC00282EDB09F101095D46A1
S214405580002357F8041B28688AB29A1A090C12FAA4
S21440559080F2C1EB104303EB224391B241EA034150
S2144055A0BA4545F8041B4FEA2343EAD25BF8282065
S2144055B00BEB880382B91A1F93450BD253F8042C81
S2144055C042B9083B02E01A68043B1AB99B4508F109
S2144055D0FF38F8D3C4F81080484603B0BDE8F08FD3
S2144055E000207047000000002DE9F04F016C97B096
S2144055F00446239DCDE9022341B1426C4A60012313
S21440560093408B6002F0BCF900232364DDE902235B
S214405610002B994636DB00232B60A54B1A4609EA39
S2144056200303934217D0DDE902670022304639462D
S214405630002307F041F9804600282BD0229A012308
S2144056401360249B002B00F0CB809A4818600138EA
S21440565017B0BDE8F08F229A42F20F731360029B98
S214405660002B00F0A6809448249B002BF0D0C378F3
S214405670002B00F0B78000F10803249A136017B09F
S214405680BDE8F08F039A012322F000492B60CDF845
S2144056900C90C2E715AA14AB8DE80C0020463246A3
S2144056A03B4602F0ADFC5FEA1955834640F08A80DF
S2144056B0DDF85080159D6FF4826345449D42C0F2EC
S2144056C097827E4A521B09FA02F9029A05F2124361
S2144056D022FA03F049EA000006F010FE0123013DDD
S2144056E0A1F1F8710D930022754B06F0C9FC6AA330
S2144056F0D3E9002306F078FE69A3D3E9002306F039
S214405700C1FC064628460F4606F008FE66A3D3E9C7
S214405710002306F069FE02460B463046394606F040
S214405720B1FC06460F4607F0F9F8394604900022C9
S2144057303046002307F0CAF8002840F0A681049BB4
S214405740162B00F29F81049A5E4B03EBC203D3E90B
S2144057500001DDE9022307F0D7F8002800F04E826A
S214405760049B013B049300230B93C5EB0805B5F15E
S214405770010A00F1A18100230593049B002BC0F28F
S21440578092819A440A9300230893209B092B2BD896
S214405790052B40F37086043B20930025209B023B5C
S2144057A0032B00F24E86DFE813F0CC03BE03B202B2
S2144057B06306414B444AC9F31300002814BF1846F9
S2144057C0104651E7C7F3130343F07F51CDF83480BA
S2144057D03046A5F2FF3541F44011DDF8508082E7AF
S2144057E03A4835E7C31C48E70021616420462091CB
S2144057F002F0A0F84FF0FF330693209A0C93012353
S2144058000790219220640993159B002BC0F2D2800A
S214405810049A0E2A00F3CE802A4B03EBC203D3E948
S2144058200089219B002BC0F28F83DDE90267424648
S2144058304B463046394606F001FF07F06FF8824681
S21440584006F06CFD42464B4606F0CEFD0B46024641
S2144058503946304606F014FC079D0AF130032B709B
S214405860069B012B06460F4605F1010562D0002235
S214405870174B06F0B9FD0022002306460F4607F0F8
S2144058801BF8002840F08380CDF808B00594DDF87A
S2144058901CB0069C29E000BF61436F63A787D23FD8
S2144058A0B3C8608B288AC63FFB799F501344D33FCA
S2144058B00000F07F25D4400074D540000EFCFFFF6A
S2144058C00000F83F88D5400068D5400024D440000A
