:020000040040BA
:10000000207F0020511740004D1740004D17400041
:100010004D1740004D1740004D17400000000000F4
:10002000000000000000000000000000291F400048
:100030004D17400000000000A11F4000F11F4000CC
:100040004D1740004D1740004D1740004D17400020
:100050004D1740004D1740004D1740005D11400006
:100060004D1140004D174000000000004D174000AA
:100070004D1740004D1740004D1740004D174000F0
:100080004D1740004D1740004D1740004D174000E0
:100090004D1740004D1740004D1740004D174000D0
:1000A0004D1740004D1740004D1740004D174000C0
:1000B0004D1740004D1740004D1740000000000054
:1000C0000000000000000000000000000000000030
:1000D0000000000000000000000000000000000020
:1000E0000000000000000000000000000000000010
:1000F0000000000000000000000000004D1740005C
:100100004D1740004D1740000000000000000000A7
:1001100000000000000000000000000000000000DF
:1001200000000000000000000000000000000000CF
:1001300000000000000000000000000000000000BF
:10014000000000000000000010B5054C237833B912
:10015000044B13B10448AFF300800123237010BD9A
:10016000980800200000000064A24000084B10B571
:100170001BB108480849AFF300800848036803B979
:1001800010BD074B002BFBD0BDE81040184700BF47
:100190000000000064A240009C08002064A240000F
:1001A000000000002DE9F04F83B081460D4602AEFD
:1001B000032306F8043D344808214A46334B984748
:1001C0000446287B31460122314B9847072C52DCEC
:1001D000002853D02F4B03EBC40840462E49082279
:1001E0002E4B984720B12E484FF481712D4B9847E4
:1001F0002D4F07EBC407384627490822274B98475D
:1002000020B1274840F20511264B98471E4A23018A
:1002100002EB030BD658A6F5C06A5046234B98470D
:1002200050460321224B9847DBF8040040F202219C
:10023000204B984730464FF0FF311F4B98473046D0
:100240001E4B98472B7B032B02D130461C4B984703
:10025000687B41463A461B4B984730464FF45071F5
:10026000194B9847084B03EB041494F90C00A96848
:10027000164B984704E04FF0000901E04FF00009E9
:10028000484603B0BDE8F08FAC944000FD07400045
:100290002D084000340900202C9540003D404000CE
:1002A00034954000E13D4000B4080020DD124000DC
:1002B0005914400099144000D5054000E505400060
:1002C000B104400061084000D1054000150940001C
:1002D0002DE9F04385B004460F46039298466848DE
:1002E00008212246674B98470646072800F3C0803E
:1002F000FB68002B00F0BE80634800EBC60003A93A
:10030000624B98470546002840F0B6802046604B77
:100310009847002363607B681B0203F4407343F437
:1003200080523B7C1B0403F4FE03134363607A6832
:100330005AB13B78012A84BF797841EA0323022A23
:1003400004D9BA7842EA032300E00023E360FA68A4
:10035000022A6BD833014A4A52F8038040464FF4D0
:1003600050714C4B9847FB68B868012B0FD10322A2
:1003700022604FF0010EFFE7226A12F4807F11D154
:1003800000214FF002094FF0010C0F461AE0012244
:1003900022604FF0000E002BEED12CE0226A12F406
:1003A000807F0FD040464FF450713B4B9847364BFF
:1003B00003EBC606706800210A460B46374CA0477F
:1003C000F62059E0012B05D1BEF1000F02D1C4F88F
:1003D0000090E64612F0020F04D10131B1F1FF3F67
:1003E00005D107E0226B0270013B01303946002B3A
:1003F000D4D100E0FD254FF0FF3301E0013B04D0F4
:10040000226A12F0010FF9D000E0FD2540464FF4BA
:100410005071214B98471C4B03EBC60670680021B6
:100420000A460B461D4CA047284625E0B9681C4BE0
:1004300043F83610F00003445A601A4D0544104B3F
:1004400003EB06167368CDF8008000200190284663
:10045000023A154EB0470123236020464FF48051E5
:100460000D4B984728464146039A104B984703E0A6
:10047000F82001E0F820FFE740B205B0BDE8F083C6
:10048000AC944000FD07400034090020050A4000FC
:10049000DD054000D5054000D10540001524400091
:1004A000F4080020B4080020550A4000D50A400096
:1004B000082303602023036004230360704700BF08
:1004C0000F4B994219D84900B2FBF1F2043AFF2AC6
:1004D00007D9002301335208FF2A03D9072BF9D18A
:1004E00000E00023110289B21B0403F4E0230B4354
:1004F000D2B21A430261002070470120704700BF4A
:10050000801A06000346CA688868002A40D070B482
:1005100000265E600C7C240404F4FE054C68240272
:1005200004F440742C435C60DE604D685DB10C786F
:10053000012DC4BF4E7846EA0424022D04DD8978DB
:1005400041EA042400E00024DC600BE0196A11F4A5
:10055000807F1FD111F0040FF8D010F8011B5963F0
:10056000013A07D0196A11F4807F15D111F0040FF8
:10057000ECD0F2E71A6A12F480700FD112F0040F77
:10058000F8D002221A601A6A12F0010FFBD006E0BE
:1005900001207047052002E0052000E0052070BC26
:1005A000704700BF00B587B0002306AA02F8153DCA
:1005B0000392012204928DF814108DF804300293F6
:1005C00001A9024B984707B05DF804FB0505400000
:1005D000416270478162036A704700BF006BC0B21E
:1005E000704700BF80230360036B70472DE9F0471D
:1005F00092B0804620484F21204B984730B9204880
:10060000204B9847204C214E214F03E021481D4BA1
:100610009847F7E74F238DF8103002940323039394
:1006200000238DF800300122019240466946642281
:10063000B04728B10122184B1A6040237B6316E0B3
:1006400040233B63DFF85CA005A8514600222378D5
:10065000DFF85490C84705A80A4DA84705A8514699
:1006600001226378C84705A8A8470C48A8474FF45B
:10067000FA700B4B9847CDE700C60140A505400036
:10068000A4954000111C40007C090020D1024000CC
:10069000000E0E40B095400074090020349D4000CB
:1006A0003D2F4000BC954000794340002DE9F043C8
:1006B0008DB00646884691461F46274C94E80F00A9
:1006C0000CAD05E90F0004AD103494E80F0085E887
:1006D0000F00224B1F602FB9304608A9204B9847C6
:1006E00004461FE0304604A91D4B984704460120EC
:1006F000002103221B4B98471B4B186038B1002187
:100700000A460B46194DA847174B1B681BB91848DA
:10071000AB21184B9847144B186800210A460B462A
:10072000154DA8471CB91248B221124B98473046C4
:100730001249134A134B9847CDF8009000230193B8
:10074000029303931048114942462346104CA04798
:100750000DB0BDE8F08300BF74954000044F002049
:10076000A5014000852340007809002015244000A1
:10077000CC954000E13D400049264000801A06002B
:1007800000002707C1044000ED054000209640000E
:100790008D29400010B50E480E4B984700200E4B97
:1007A00098470E4CA0470028FCD00D4B98470D4AA7
:1007B0000D4B9A620D4CA0470028FCD000200C4B3A
:1007C00098470C4B98470C48024B984710BD00BF08
:1007D000000E27071D194000111540003515400077
:1007E00055154000013F4D0E00040E4061154000BC
:1007F000A9144000351840000000270730B40D460A
:1008000081B1036893420AD00146002303E051F806
:10081000104F944205D00133AB42F8D102E00025DD
:1008200000E01D46284630BC704700BF002A0EDDA0
:100830000B7883420DD010B44B1C114403E013F825
:10084000014B844207D08B42F9D1002004E0002004
:1008500070470120704701205DF8044B704700BFCE
:10086000F8B504460E46154610F0010F08D00120D9
:10087000224B9847706018B921487A21214B98473C
:1008800014F0040F18D00120002103221E4B9847BA
:10089000306030B100210A460B461C4FB847336820
:1008A0001BB917488321174B9847306800210A4627
:1008B0000B46174EB04701E00023336014F0080FD9
:1008C00019D0C5B10120002103220F4B98472860A1
:1008D00030B100210A460B460C4CA0472B681BB9CF
:1008E00007489621074B9847286800210A460B467F
:1008F000074CA047F8BD00232B60F8BD45254000FC
:100900002C964000E13D4000852340001524400026
:100910004926400038B504460D460F2903D915482D
:10092000AC21154B9847092D03D81248AE21124B24
:100930009847E1B201F01F0301229A4063099B002E
:1009400003F1604303F56143C3F88021002C06DA0C
:1009500001F00F012D01EDB20848455407E02D01CB
:10096000EDB204F1604404F5614484F800531A6068
:1009700038BD00BF2C964000E13D400014ED00E082
:100980002DE9F041064690461F468569A94204D1EB
:10099000C36843B94468641A06E08D4232BF4C1BF9
:1009A0004468641B00E00024BC420AD3A74207D07D
:1009B000306900210A460B460E4CA0473C4600E039
:1009C0003C464046B16922460B4B98472544736824
:1009D0009D4206D3094B98473368B361084B98474B
:1009E00004E0064B9847B561054B98472046BDE8A3
:1009F000F08100BF15244000A1404000651F400069
:100A0000851F40004368B3B130B583B00D4604463E
:100A100068460D4B9847606800212A680B460B4CCE
:100A2000A04758B168462946094B9847012807D185
:100A30000020286005E0002040B27047FD2000E063
:100A4000002040B203B030BD393440004926400098
:100A500069344000F0B583B00E4615461C46089B2D
:100A600013B10360184601E0006820B100210A4676
:100A70000B46134FB847009601959DF824307BB183
:100A800020464FF400710F4B9847204669460022DC
:100A90000D4B984720464FF480710C4B98470CE063
:100AA00020460221074B9847204669460022084B02
:100AB000984720460121054B984703B0F0BD00BF81
:100AC00049264000991440005D1440008D144000F8
:100AD0007514400051B9006850B110B50B46074C71
:100AE000A04701280CBF0020FD2004E0002000E00A
:100AF000002040B2704740B210BD00BF4926400000
:100B0000F8B50446C0EBC002314B03EB82039A698F
:100B10009868824214D151B9C4EBC4032C4901EB4B
:100B200083030020D8605B689A4248D924E0C4EB74
:100B3000C403274901EB830359688A1ADA6011E07C
:100B4000824207D9C4EBC403214901EB8303121A83
:100B5000DA6007E0C4EBC4031D4A02EB83035A6862
:100B6000121ADA60C4EBC403194A02EB8303DA6891
:100B700010445B68984204D9164840F29B21164BFA
:100B80009847C4EBC403124A02EB8303DB68B3B19A
:100B9000124E250173195F68C4EBC40402EB840193
:100BA0003846083100220E4B9847384601210D4B3C
:100BB000984770594FF484710B4B9847F8BD240146
:100BC000064B18594FF48471084B9847F8BD00BF85
:100BD0008009002074964000E13D4000B49640003A
:100BE000751440008D1440002D174000311740004F
:100BF000F0B583B00446002301930301454AD6585B
:100C00003046454B984705463046444B984705408B
:100C100015F0100F16D030461021414B9847414B2C
:100C200003EBC403586820B1002101AA0B463E4FD4
:100C3000B8473C4B53F8340020B1002101AA0B46C1
:100C4000394FB84715F0080F3BD0C4EBC403374AFF
:100C500002EB83039B6923B9354840F2DF21354B12
:100C60009847C4EBC403314A02EB83039B69012B11
:100C700004D12F4840F2E1212E4B9847C4EBC40326
:100C80002A4A02EB8303D9689A680A449A605B682F
:100C90009A4206D3254AC4EBC4039B00D118D3580B
:100CA0008B6020460021244B9847C4EBC4031F4AA5
:100CB00002EB8303186920B1002101AA0B461A4FE9
:100CC000B84715F4807F0ED030461C4B9847C4EBD4
:100CD000C403164A02EB8303186920B1002101AA5C
:100CE0000B46114FB84715F0E00F0CD03046144BAF
:100CF00098470C4B03EBC404606820B1002101AAA3
:100D00000B46094CA047019B0BB10E4B984703B013
:100D1000F0BD00BFB49640003917400035174000C1
:100D200031174000600A0020AD25400080090020F6
:100D300074964000E13D4000010B40004517400023
:100D40003D174000451F40002DE9F04782B00546A1
:100D50008946164602AF002307F8043D6248082181
:100D60002A46624B98470446307B39460122604B45
:100D70009847072C00F3B180002800F0B080C4EB46
:100D8000C4035C4A02EB83039B691BB15A48E72109
:100D90005A4B984728465A4B98472846594B9847EC
:100DA000DFF844A127010AEB0703D3F8048040468B
:100DB00040F20221544B98475AF80770A7F5007784
:100DC0003846524B984738460121514B9847337B60
:100DD00023B9284649464F4A4F4B984728464FF07B
:100DE000FF314E4B9847707B4D4901EBC401002207
:100DF0004C4B98473368002B55D04FF0FF30002103
:100E0000494B9847C4EBC4033A4A02EB8303186189
:100E100020B939484FF49271384B9847D9F80030CF
:100E20004249A1FB033128468909414B984728468E
:100E3000404B9847DFF8BCA0E100C4EB01094FEA42
:100E400089090AEB09073368BB607368FB60091BFB
:100E50000AEB8101404608310022374B984733683E
:100E6000BB61BB684AF80930726813447B60737BCE
:100E700013F0020F0DD00120304B9847C4EBC40390
:100E80000AEB8303586120B91B484FF4A5711B4B33
:100E9000984728464FF48471294B984740460121D2
:100EA000284B984706E0C4EBC403124A02EB8303C5
:100EB00001229A610C4F24013B1993F90C00B1688F
:100EC000214B98473859E0211D4B984728461F4B26
:100ED000984728461E4B984702E0002500E0002571
:100EE000284602B0BDE8F087B4964000FD074000F8
:100EF0002D0840008009002074964000E13D40002C
:100F0000111740002117400099144000DD124000E5
:100F10005914400000002707B51640003117400063
:100F2000600A002061084000E52340001F85EB5166
:100F30002917400045174000751440004525400022
:100F40002D1740008D14400015094000091740007E
:100F5000191740002DE9F04184B005460F461646AA
:100F60000393174808212A46164B984780460728BE
:100F700021DC154C04EBC004204603A9134B984711
:100F80000346C8B90E4B03EB0818D8F804300A9A88
:100F90000092012201922046394632460C4EB0475B
:100FA000284610210B4B984720460A99039A0A4B72
:100FB0009847034600E0F82358B204B0BDE8F0813A
:100FC000B4964000FD074000600A0020050A40007A
:100FD000550A40002D174000D50A40002DE9F04F7A
:100FE00085B004460F46164601934B480821224619
:100FF0004A4B98470446C0EBC002494B03EB8203BF
:101000009B6923B947484FF40871474B9847C4EB95
:10101000C403434A02EB83039B69012B04D141487B
:1010200040F22221404B9847072C5CDC3C49C4EB42
:10103000C4039B00CA185268CB58D31AB34254D386
:1010400002A83A4B9847C4EBC403354A02EB83032A
:10105000586900284DD00021019A0B46344DA8470D
:10106000012844D102A801A9324B9847012840D158
:10107000C4EBC4042A4B03EB8403586900210A46DD
:101080000B462D4CA04732E0D8F810000021019A01
:101090000B46D847D9F80430196840467A19731BB3
:1010A000D0472D180AD0254B9847D8F80C301BB9DB
:1010B00020460121224B9847224B9847AE4205D942
:1010C00002A801A91B4B98470028DDD0C4EBC4043B
:1010D000134B03EB84046069C8B100210A460B4638
:1010E000154CA04713E0002511E000250FE0002576
:1010F0000DE00025C4EBC408094B03EB8808DFF8BA
:1011000030B0054B03EB0419DFF83CA0BCE72846E0
:1011100005B0BDE8F08F00BFB4964000FD07400069
:101120008009002074964000E13D400039344000C1
:10113000492640006934400015244000651F4000E6
:10114000010B4000851F40008109400008B50020C8
:10115000014B984708BD00BFF10B400008B50720C0
:10116000014B984708BD00BFF10B4000A8B92DE91D
:10117000F0410C469046002A0ADD8F18084E094DB2
:10118000306821462B6898470134BC42F8D101E011
:101190004FF000084046BDE8F0814FF0FF30704747
:1011A000184F0020104F00200138022818D82DE9D0
:1011B000F0410E46144682B10D46DFF838800C4FE0
:1011C000D8F8000015F8011B3B68984700280ADB97
:1011D000A81B013CF4D1BDE8F0810020BDE8F081FE
:1011E0004FF0FF3070474FF0FF30BDE8F08100BF97
:1011F000144F0020184F002038B54FF40044334BF3
:101200005C600B20324DA8470C20A847314B402290
:101210001A61C3F8A0201A6304225A61C3F8A020FF
:101220005A66C3F890205A655A62C3F880201A6F34
:1012300022F004021A675A6F22F004025A6702224F
:101240001A631A61C3F8A020234A4FF400511163B6
:101250001161C2F8A01014631461C2F8A0404FF0ED
:10126000C0511966C3F8901059655962C3F88010CF
:10127000186F08431867586F20F0C05058675960BE
:101280004FF480631366C2F8903053655362C2F81E
:101290008030116F21F480611167516F21F48061FA
:1012A000516753604FF400631366C2F89030536582
:1012B0005362C2F88030116F21F400611167516FE1
:1012C00021F400615167536038BD00BF50140E40D7
:1012D00071154000000E0E4000100E4008B5504B36
:1012E0001B78FF2B00D1FEE7EFF3108372B6BFF33C
:1012F0005F8F00214B4A117049490A7801320A7008
:101300002BB90122474B1A70BFF35F8F62B6464A72
:1013100090420DD10720454B98470720444B9847F2
:1013200007200021434B98470720434B984708BDAF
:10133000424A90420DD116203C4B984707203C4B27
:101340009847072000213B4B984707203A4B984786
:1013500008BD3B4A90420DD11520344B98470720D9
:10136000334B984707200021324B98470720324BD8
:10137000984708BD334A90420DD114202B4B984713
:1013800007202B4B9847072000212A4B984707201E
:10139000294B984708BD2C4A90420DD11320234B6E
:1013A00098470620224B984706200021214B98475A
:1013B0000620214B984708BD244A90420DD10E20AB
:1013C0001A4B984706201A4B984706200021194BC4
:1013D00098470620184B984708BD1D4A90420DD1EA
:1013E0000920124B98470620114B984706200021F0
:1013F000104B98470620104B984708BD154A90425D
:101400000CD10820094B98470620094B9847062025
:101410000021084B98470620074B984708BD00BF9E
:10142000084F0020000000200040034071154000DC
:1014300019164000C5154000091640000000044080
:101440000080004000C00140008001400040024098
:101450000000024000C00040016070470B4619B117
:10146000096881605B68C3601AB11368836153685F
:10147000C36170470B4619B1096801605B6843603E
:101480001AB11368036153684361704721F0FE018C
:10149000C905C90D0162704721F4FE7121F00101F7
:1014A0008905890D01627047184A136B23F0700398
:1014B00018431063936E13F0080F03D009E0013B4B
:1014C00003D11EE04FF4006310498A6E12F0080F3A
:1014D000F5D00E4A136B23F0030343F002031363AA
:1014E000906E10F0080004D000207047013B03D13B
:1014F00009E04FF4006305498A6E12F0080FF5D039
:101500007047012070470120704700BF00040E4063
:10151000012806D1054A936843F0254343F480131C
:101520009360034A014B1A60704700BF10140E40CD
:10153000080000A5054B5B6913F0800F1DBF044B2D
:10154000986EC0F3C0100020704700BF10140E400A
:1015500000040E400022014B9A62704700040E40C6
:10156000024B986E00F00200704700BF00040E406E
:1015700032281ED81F280CD8114B9A6901238340AA
:101580001A40934217D0012383400D4A1361002073
:1015900070470B4BD3F808212038012383401A40B1
:1015A00093420AD001238340054AC2F8003100204B
:1015B000704701207047002070470020704700BF2F
:1015C00000040E4041F004010E4B00F1100243F8FC
:1015D00022109B6E4FF48071814011EA030004D009
:1015E00000207047013B04D107E010B44FF40063C2
:1015F000044CA26E1142F5D000E001205DF8044BCE
:10160000704700BF00040E404FF480738340014ACE
:101610001360704700040E404FF480738340014A0A
:101620005360704700040E4010B40B0193420FD971
:101630001CE002F00702416841F40021416043EAE6
:101640000242026200201EE001201CE001201AE09C
:10165000D20002EB5302B2FBF3F2D3085C1E4FF64A
:10166000FE718C42F0D802F00702E8E7C900D20010
:1016700002EB5102B2FBF1F2D3085C1E4FF6FE7191
:101680008C42D6D9E2E75DF8044B7047084BC0F8AE
:10169000E430002343604362836288230360242391
:1016A00003604FF4807303604FF4002303607047BE
:1016B0000041535570B505460C4616460F4B9847EA
:1016C00000220F4B1A609CB12846216832460D4B10
:1016D0009847024670B9A1686368194323691943A2
:1016E000E3680B4306490B6069680B436B6002E0DB
:1016F000012200E00122104670BD00BF8D1640009F
:10170000A00A00202916400040230360704700BF54
:1017100080230360704700BF10230360704700BF41
:1017200020230360704700BF4162704781607047AB
:10173000C160704700697047406970474FF480731B
:10174000036070474FF4006303607047FEE700BF1B
:1017500008B52A4B2A4A9A4203D02A4B274A9A4272
:1017600004D3294B294A9A4210D31BE023490A1D6E
:10177000274B9B1A23F003030433214A134452F8E6
:10178000040B41F8040B9A42F9D1EAE7214B224AB3
:10179000D21A22F003021A44043B002143F8041B2E
:1017A0009342FBD11D4B23F07F011D4A9160EFF363
:1017B000108272B6BFF35F8F00201A4908701A4872
:1017C000016841F470010160BFF34F8FBFF36F8F69
:1017D0002AB90121134A1170BFF35F8F62B603F17A
:1017E0006043B3F5203F04D20D4A936843F00053A1
:1017F00093600E4B98470E4B9847FEE70000002081
:1018000064A2400098080020204F00209808002083
:101810009B0800209C080020234F0020000040006F
:1018200000ED00E00000002088ED00E0ED3F40000A
:10183000093E4000314B1B6B03F00303012B0FD01B
:1018400013B1022B29D042E02D4B5B6913F0800FBE
:1018500014BF4FF400424FF4FA422A4B1A6036E0AC
:10186000264B1B6A13F0807F03D0274A254B1A6052
:101870002DE0264A234B1A60204B1B6A03F07003AD
:10188000102B02D0202B04D021E0214A1D4B1A60DE
:101890001DE0204A1B4B1A6019E0194B5B6913F0DD
:1018A000800F14BF4FF400424FF4FA42154B1A60F8
:1018B000124B1B6B03F00303022B08D10F4B9B6AE7
:1018C0001049C3F30C420B6802FB03330B600B4B54
:1018D0001B6B03F07003702B07D10A4A13680E4983
:1018E000A1FB03135B0813607047044B1A6B054997
:1018F000C2F302120B68D3400B60704700040E4025
:1019000010140E4004000020001BB70000127A00E3
:101910000024F40000366E01ABAAAAAA124B98422A
:1019200004D84FF08062114B1A607047104B9842F8
:1019300003D8104A0D4B1A6070470F4B984203D8DA
:101940000E4A0A4B1A6070470D4B984203D80D4A55
:10195000064B1A6070470C4B984294BF4FF004221C
:101960000A4A024B1A607047FF2C3101000A0E40F0
:10197000FF59620200010004FF8693030002000485
:10198000FFB3C40400030004FFE0F50500050004F4
:10199000094B1B6813B9094A074B1A60064B1B68B1
:1019A0001A180749914204DB1046034A1060184692
:1019B00070474FF0FF307047A40A0020207F0020BE
:1019C000FC7F02204FF0FF30704700BF00207047BF
:1019D0002DE9F04F87B05F4B186018B95E4894212D
:1019E0005E4B98475E4B9847044602905D495022F3
:1019F0005D4B9847574B18680026009621464F22AA
:101A0000C8235A4DA847534D594FDFF8788108F144
:101A10000403039308F1080B28680DF11701012254
:101A20004FF0FF33B8470128F6D100230093286810
:101A30000DF117010122C823DFF830C1E0479DF8FE
:101A400017300D2B70D14B4B1A889B7802980146AA
:101A5000028083700023009328680222C823DFF8E5
:101A60000CC1E0471EB940464349444B9847DFF854
:101A700018A1DFF818914046029C21464FF4C87225
:101A8000D04706462046C8470246002300932868F0
:101A90002146C823354CA047002EECD1364841469C
:101AA000364B98470022C8F80020039B1A605B461B
:101AB00043F8042BCBF80420043343F8042B43F8F9
:101AC000042B43F8042B43F8042B43F8042B43F86E
:101AD000042B43F8042B43F8042B1A80284EDDF81E
:101AE00008E006F1300934460FCCCEF80000CEF8FD
:101AF0000410CEF80820CEF80C3026460EF1100E59
:101B00004C45F0D103CECEF80000CEF80410337867
:101B10008EF8083000260096286802993822C823DB
:101B2000DFF848C0E04777E70A2B3FF475AF082B92
:101B300008D1002E3FF470AF013EF6B2002308F842
:101B4000063069E7312E3FF667AF08F806300136F8
:101B5000F6B261E7440B00205C974000E13D400095
:101B6000C51D4000B0974000A1404000550F400007
:101B7000DD0F4000349D4000A80A002005444000CD
:101B800000984000DC0A0020CD1C4000C144400009
:101B90002DE9F0418EB086460F469046144C0AAEB1
:101BA00094E80F0086E80F0004AD10340FCC0FC589
:101BB00094E8030085E80300704604A932460D4B03
:101BC0009847044618B90C487B210C4B98470C4B9E
:101BD0009847CDF8008000230193029303930948AE
:101BE00009493A462346094CA0470EB0BDE8F081AA
:101BF00034974000490D40005C974000E13D4000B3
:101C0000693D4000D11940003C9840008D294000BA
:101C100030B583B0074B1D6855B10446064B984755
:101C200002460023009328462146C823034CA047C0
:101C300003B030BD440B0020C1444000550F4000AC
:101C400038B50A46084B1B6813B90849064B19609A
:101C5000054C25682B685968054B984768682060D3
:101C6000003018BF012038BDDC0C00200800002027
:101C70001146400038B5054618B90E4867210E4B8D
:101C8000984708200D4B9847044628B909486B210E
:101C9000094B9847002038BD094B98472560002321
:101CA0006360084B1A6854601C60074B984701201A
:101CB00038BD00BF54984000E13D4000D9204000AD
:101CC000651F400010000020851F40002DE9F04FE7
:101CD00083B0064601919246334B1A68002A47D1D9
:101CE000324C1C60DFF8D480DFF8D4B09946276806
:101CF0003D682846C0470246335633F0200324D1BE
:101D000030462946D84700BB397B11F0800F42D1BD
:101D10003278AAB1304600231C461D46012752B234
:101D2000202A04D124B90133DBB23C4600E02C4622
:101D300010F8012F002AF2D11CB1013BDBB200E008
:101D40000023194A126832B91EE06468C9F80040DD
:101D5000002CCCD118E049B25BB2994208D001986E
:101D600013495246134B984700230F4A136017E05C
:101D700013689B680198514632469847034678B9E4
:101D80000021094A11600BE001980B495246094BAA
:101D90009847002304E0044B1A68002AE8D1F3E7CF
:101DA000184603B0BDE8F08FD80C002008000020D2
:101DB0009898400011464000F0984000C14440000F
:101DC0007945400000487047480B0020002313600D
:101DD00011BB1846704710F8013F53B35BB2202B7C
:101DE000F9D110F8013F59B22029FAD0EBB10134F2
:101DF000AC4214D190F9003033F0200317D00146E3
:101E000013680133136011F9014F34F02004F7D146
:101E1000002B08BF00200EE030B40D4600240378EC
:101E20003BB15BB2202BD6D1DBE7002003E00020E2
:101E300001E00378DAE730BC704700BF00F1080327
:101E400043604FF0FF328260C36003610023036090
:101E5000704700BF00230361704700BF43685A68A2
:101E60004A6042688A605A689160596041600861BE
:101E7000036801330360704710B40C68B4F1FF3F8E
:101E800001D103690AE000F10803C26812689442B4
:101E900004D35B685A6812689442FAD25A684A605E
:101EA00091608B60596008610368013303605DF8DD
:101EB000044B7047436882689A60836842685A603E
:101EC00003695A68824204BF82685A600022026134
:101ED0001A68013A1A601868704700BF0348006822
:101EE000006880F3088862B600DF00BF08ED00E0FC
:101EF000DFF80C00016841F47001016070470000D8
:101F000088ED00E04FF0807340F8043C40F8081C76
:101F1000002340F80C3C40F8202C6FF0020340F8FE
:101F2000243C4438704700BF054B19680868B0E886
:101F3000F04F80F309884FF0000080F3118870475C
:101F40009C4D00204FF08052014B1A60704700BF3B
:101F500004ED00E0EFF311804FF0A00181F3118850
:101F60007047002008B5034B9847034A13680133B4
:101F7000136008BD551F40001400002080F3118835
:101F8000704700BF08B5044A1368013B136013B9DA
:101F90000020024B984708BD140000207D1F400020
:101FA000EFF30980114B1A681EF0100F08BF20EDE7
:101FB000108A20E9F04F10602DE908404FF0A00092
:101FC00080F3118801F00AF94FF0000080F31188C6
:101FD000BDE8084019680868B0E8F04F1EF0100F1F
:101FE00008BFB0EC108A80F3098870479C4D002030
:101FF00008B54FF08052054B1A60054B9847054BCA
:1020000098470020044B984708BD00BF04ED00E04E
:10201000551F4000052D40007D1F4000034A044B22
:102020001A600722043B1A60704700BFBBD401004E
:1020300014E000E010B50C4B1A6842F470021A600C
:102040001A6842F070421A60084B98470024084B07
:102050001C60084B9847084A136843F040431360DC
:10206000064B9847204610BD20ED00E01D204000A3
:1020700014000020F11E400034EF00E0DD1E40009F
:10208000134A00E01A4613688342FBD330B411466A
:1020900054681519854203D1686804445460104699
:1020A000426884189C420CD10A4B1B689C4206D0A3
:1020B00063681A4442600B681B68036002E00460B6
:1020C00000E00360814218BF086030BC704700BF69
:1020D000E44C0020E04C002038B504462B4B9847D8
:1020E0002B4B1B689BB92B4A2B4B13600021516073
:1020F00043F6F0729818264D286043F6F47559514E
:1021000099505A601860254A1368103B1360002CE0
:1021100037D004F1100212F0070F1CBF22F00702A3
:102120000832511E43F6FE73994227D819490C68AC
:1021300001E021461C4663689A4202D92368002BBD
:10214000F7D1134B1B689C4218D00D6810352368DB
:102150000B6063689B1A202B04D9A018436062604F
:102160000F4B98470D4A136861685B1A13600D4B5B
:1021700098474DB90C4B9847002505E0094B984707
:10218000F8E7084B9847F5E7284638BDB52C4000DE
:10219000E04C0020E44C0020E00C0020180000205F
:1021A00081204000312E4000C93D400080B110B573
:1021B0000446084B9847084A116854F80C3C0B44F5
:1021C0001360A4F11000054B9847054B984710BDCC
:1021D000704700BFB52C400018000020812040004F
:1021E000312E400010B50446036C3BB903681BBB9D
:1021F0004068134B9847002363601DE06AB980680C
:102200001A46104B9847A268236C1344A360626877
:10221000934211D32368A3600EE0C0681A46094BAD
:102220009847236C5B42E2681A44E26021688A4264
:1022300002D262681344E360A36B0133A36310BD51
:10224000C9354000A140400038B50346006858B188
:102250001A6CDC681444DC605D68AC4228BFD8604E
:102260000846D968014B984738BD00BFA1404000DF
:10227000F8B504461E4B9847A36C002B13DD636A28
:102280001BB910E0636A23B90DE004F12406194D6F
:10229000194F3046A84700B1B847A36C013BA3646F
:1022A000A36C002BEEDC4FF0FF33A364134B984775
:1022B0000F4B9847636C002B13DD23691BB910E0AB
:1022C000236923B90DE004F110060A4D0A4F304688
:1022D000A84700B1B847636C013B6364636C002B93
:1022E000EEDC4FF0FF336364044B9847F8BD00BF4A
:1022F000651F4000B1334000F5344000851F4000A9
:1023000038B50D46044620B9174840F21B11174B4B
:102310009847174B98472268216CE36B03FB01F346
:10232000D01860600020A063A2605B1A1344E360D1
:102330004FF0FF336364A36455B923697BB104F1A3
:1023400010000C4B9847012809D10B4B984706E029
:1023500004F11000094DA84704F12400A847084BD8
:102360009847012038BD00BF78994000E13D40000A
:10237000651F4000B1334000451F40003D1E400036
:10238000851F4000F8B5D0B10D46174606465020CF
:102390000F4B9847044690B105FB06F001300C4BFB
:1023A0009847206040B1E663256420460121094B2F
:1023B000984784F84D7008E02046074B9847074837
:1023C00040F27111064B984700242046F8BD00BF2B
:1023D000D920400001234000AD2140007899400001
:1023E000E13D400038B50D4600210222064B9847DA
:1023F000044608B1856304E004484FF40F71044BB0
:102400009847204638BD00BF85234000789940009A
:10241000E13D40002DE9F04F85B08B4601920093DD
:10242000044620B93A484FF412713A4B9847BBF131
:10243000000F06D1236C23B1354840F24921354BBA
:1024400098474FF00009344DDFF8F4A0334EA84709
:10245000A26BE36B9A4212D220465946009A304B47
:102460009847636A3BB104F124002E4B984701283A
:1024700001D12D4B9847294B9847012044E0019BFF
:102480001BB9264B984700203EE0B9F1000F03D15D
:1024900002A8D0474FF00109B047244B9847A847FE
:1024A000636CB3F1FF3F04BF00236364A36CB3F11B
:1024B000FF3F04BF0023A364B04702A801A91C4B3F
:1024C0009847D8B9A847D4F83880E76BB047B845E3
:1024D0000ED104F110000199164B98472046164B77
:1024E0009847164B98470028B1D10F4B9847AEE755
:1024F0002046114B9847114B9847A8E720460E4BB2
:1025000098470E4B9847002005B0BDE8F08F00BFFC
:1025100078994000E13D4000651F4000851F400064
:10252000E5214000B1334000451F4000B52C40007C
:1025300069344000C532400071224000312E400015
:102540003934400070B506465020134B9847044676
:10255000D8B10025456005608560C56085630123AD
:10256000C36305644FF0FF334364836480F84D60B8
:1025700010300A4EB04704F12400B04720462946E7
:102580002A462B46064DA84704E0064840F2AB1108
:10259000054B9847204670BDD92040003D1E4000A5
:1025A0001524400078994000E13D40002DE9F041BC
:1025B0000D4617469846044620B91D4840F28F3113
:1025C0001C4B984735B9236C23B119484FF46471FB
:1025D000184B9847184B98470646A26BE36B9A42F4
:1025E00018D2204629464246144B9847A36CB3F1B3
:1025F000FF3F0AD1636A7BB104F12400104B984776
:1026000060B16FB101243C600BE0A36C0133A364A3
:10261000012406E0002404E0012402E0012400E09B
:1026200001243046074B98472046BDE8F08100BFA3
:1026300078994000E13D4000551F4000E5214000F1
:10264000B13340007D1F40002DE9F04F85B0894631
:1026500001929A46044620B9454840F2CB31454B99
:102660009847B9F1000F06D1236C23B140484FF4CD
:102670007371404B984700273F4DDFF82C813F4E48
:10268000A847A36B43B3E568204649463C4B9847AF
:10269000BAF1000F12D1A36B013BA363236813B9F6
:1026A000384B98476060236993B104F11000364BB2
:1026B000984701280CD1354B984709E0E560636ADB
:1026C00033B104F12400304B984708B12F4B9847A1
:1026D0002A4B9847012048E0019B1BB9274B98479C
:1026E000002042E017B902A8C0470127B047284B95
:1026F0009847A847636CB3F1FF3F04BF00236364AE
:10270000A36CB3F1FF3F04BF0023A364B04702A84A
:1027100001A9204B984710BBA847D4F838B0B04760
:10272000BBF1000F15D1236823B9A84760681A4B85
:102730009847B04704F124000199184B9847204668
:10274000174B9847174B9847002899D10F4B98473C
:1027500096E72046124B9847124B984790E7204641
:102760000F4B98470F4B9847002005B0BDE8F08FFE
:1027700078994000E13D4000651F4000851F400002
:102780004922400001354000B1334000451F400060
:10279000B52C4000693440002D354000C532400062
:1027A00071224000312E40003934400038B50446D3
:1027B0000D460D4B9847636CB3F1FF3F04BF0023F8
:1027C0006364A36CB3F1FF3F04BF0023A364074B12
:1027D0009847A36B23B904F124002946044B98477A
:1027E0002046044B984738BD651F4000851F4000B8
:1027F000493340007122400010B504460E4B1B685F
:1028000058600E4B1B68984207D20D4B18680A4B54
:10281000196804310B4B984710BD0B4B1868064BD9
:1028200019680431074B9847084B1B689C423CBF12
:10283000064B1C6010BD00BF9C4D0020F44C0020D6
:102840005C4D0020791E4000744D00201C000020CB
:102850002DE9F04F87B005900D4693464B685B68B5
:102860004B6001F10807BB4204BF5B684B604B68DB
:10287000D3F80C90174EDFF864A0DFF864806B6823
:102880005B686B609F4204BFEB686B606B68DC68E1
:10289000226B1378A52B07D1002301339BB212F8CA
:1028A000011FA529F9D000E00023E16A226C009104
:1028B0009B08019302923046514604F134025B4674
:1028C000C04705983146044B98474C45D7D107B0CF
:1028D000BDE8F08F144E0020C5434000CC99400065
:1028E000794340002DE9F04F83B083460C461646ED
:1028F0004B685B684B6001F10807BB4204BF5B6833
:102900004B604B68D3F80C80DFF87890DFF878A044
:1029100063685B6863609F4204BFE36863606368E9
:10292000DD680EB3EB6C33B94846124905F1340249
:10293000114B984715E0EA6CB2FBF6F24AB1EB6C2A
:10294000009248460D4905F13402DFF82CC0E047FB
:1029500007E0EB6C48460A4905F13402DFF818C07D
:10296000E04758464946D0474545D1D103B0BDE878
:10297000F08F00BFE099400079434000F09940009B
:10298000009A4000A04D0020C54340002DE9F04FC3
:1029900083B08846154601930C9FDDF834900E9E57
:1029A000009020B95F4840F2EB115F4B9847042F2D
:1029B00004D95C484FF4F6715B4B984750205B4B51
:1029C00098470446002800F0A780002E40F0A18020
:1029D000A800564B9847206318B92046544B984797
:1029E0009AE0A521AA00534B984705F18045013D87
:1029F000236B03EB850525F0070504F13400414600
:102A00000A224D4B98474FF0000A84F83DA03E46FD
:102A1000042F28BF0426E662A66404F10408404699
:102A2000DFF864B1D84704F11800D8472461C6F133
:102A30000506A6616462C4F84CA028460099019A74
:102A40003E4B98472060B9F1000F01D0C9F8004013
:102A50003B4B98473B4A1368013313603A4B1B6862
:102A60000BBB394B1C601368012B26D1374D05F188
:102A70006409374E2846B04714354D45FAD1DFF882
:102A80000C914846324DA847324E3046A84732484E
:102A9000A8473248A8473248A847324BC3F80090AD
:102AA000314B1E6009E0314B1B6833B9264B1B6864
:102AB000DB6A9F4224BF244B1C60E06A2C4B1B68DE
:102AC000984284BF2A4B18602A4A13682364013352
:102AD000136029490A680123834013430B6000EB0C
:102AE00080001A4B03EB80004146244B9847244B4F
:102AF00098471E4B1B6843B1134B1B68DB6A9F4210
:102B000005D9204B9847012008E0012006E001206C
:102B100004E00663304664E74FF0FF3003B0BDE8E1
:102B2000F08F00BF109A4000E13D4000D9204000E6
:102B3000AD214000D541400011464000051F400036
:102B4000651F4000E84D00209C4D0020F84C0020FF
:102B50003D1E4000004E0020784D0020604D0020BA
:102B6000D44D0020744D00205C4D00208C4D002081
:102B7000484E0020984D0020EC4C00205D1E400087
:102B8000851F4000451F4000551E4000EC4D0020B1
:102B900070B504461C4B98471C4B1B689C4201D0E7
:102BA00025461CB9194B1C680025FFE7261D304639
:102BB000174B984768B9E26A02EB82039B001549FC
:102BC000CB5833B9144801680123934021EA030329
:102BD0000360A36A1BB104F118000D4B98470F481E
:102BE00031460F4B98470F4A1368013313600E4A62
:102BF0001368013313600D4B98470D4B1B6813B1DD
:102C00000DB90C4B984770BD651F40009C4D0020CE
:102C1000B51E4000F84C0020EC4C0020604D002018
:102C20005D1E4000F04C0020984D0020851F4000A4
:102C30008C4D0020451F400010B584B00023009348
:102C400001930293039310481049A022104CA0470F
:102C5000012810D10F4B984701280CD10E4B9847F3
:102C600001220E4B1A6000220D4B1A600D4B984743
:102C70000D4B984705E020B90C4840F213510C4B1E
:102C8000984704B010BD00BFA12F4000509A4000EB
:102C90008D294000E1364000551F40008C4D00203A
:102CA000F44C0020813F400035204000109A400045
:102CB000E13D4000024A136801331360704700BFD2
:102CC0003C4E002010B5044B9847044B1C68044B45
:102CD0009847204610BD00BF651F4000F44C0020FF
:102CE000851F400010B5044B9847044B1C68044BEB
:102CF0009847204610BD00BF551F4000F44C0020EF
:102D00007D1F40003D4B1B68002B6FD12DE9F0412A
:102D10003B4B1A6801321A601B680BBB394B1B68AE
:102D20001B6823B1384840F28C61384B9847354BCB
:102D30001968374A10681860116036490A6801320C
:102D40000A601B681B6823B94FF0FF32324B1A60D0
:102D500006E02C4B1B68DB68DB685A682E4B1A6058
:102D6000274B1A682C4B1B689A4244D3254B1B688F
:102D70001B686BB1234B1B68DB68DC686368204A07
:102D80001268934213D8254F254EDFF8A08012E039
:102D90004FF0FF32204B1A60BDE8F081194B1B68E1
:102DA000DB68DC686368164A1268934203D91A4AE2
:102DB0001360BDE8F081251D2846B847A36A13B10A
:102DC00004F11800B847E06A3268012383401343D6
:102DD000336000EB800008EB80002946114B9847D8
:102DE000084B1B681B68002BD8D1D1E70E4A13682B
:102DF000013313607047BDE8F08100BF3C4E0020F6
:102E0000F44C0020744D0020109A4000E13D400039
:102E10005C4D0020444E00201C000020B51E4000E8
:102E2000EC4C00205D1E4000404E0020F84C00207D
:102E30002DE9F843314B1B6823B9314840F24D511D
:102E4000304B9847304B98472C4B1A68013A1A6020
:102E50001B68002B4AD12D4B1B680BBB002448E09C
:102E6000F368DC6804F11800C847251D2846C847E8
:102E7000E06AD8F80020012383401343C8F80030EB
:102E800000EB8000224B03EB80002946214B984742
:102E9000214B1B68E26ADB6A9A4228BF012705E0E2
:102EA00000271E4EDFF88C90DFF88C803368002BF3
:102EB000D6D11B4B1B6863B1194B1B687BB1194DF5
:102EC000174CA8472368013B23602368002BF8D1E7
:102ED00005E0012F03D0144B1B68012B08D1002201
:102EE000114B1A60114B9847012402E0002400E0C6
:102EF00000240F4B98472046BDE8F8833C4E002045
:102F0000109A4000E13D4000651F4000E84D002060
:102F1000F84C00205D1E40009C4D0020784D0020A4
:102F2000404E0020052D4000944D0020451F4000DC
:102F3000851F4000B51E4000EC4C002010B5D8B1F4
:102F400004460F4B98470F4B1B681C440E4B1868E8
:102F500004300E4B984748B90B4B1B680C490A6864
:102F6000D86A0123834022EA03030B602046094B01
:102F70009847094B984708B9084B984710BD00BFC0
:102F8000B52C4000F44C00209C4D0020B51E4000A4
:102F9000EC4C0020F9274000312E4000451F400036
:102FA00080B5154D154EDFF87480154F19E0C047F8
:102FB0003468B847ACB1134B9847F368DC68201D00
:102FC000114B9847114A1368013B13602B68013B72
:102FD0002B600F4B9847206BDFF84490C847204682
:102FE000C8472B68002BE2D10A4B1B68012BF8D98C
:102FF000094B9847D7E700BFF04C0020604D0020F8
:10300000312E4000651F4000B51E4000E84D0020F5
:10301000851F4000F84C0020451F4000B52C4000A3
:10302000AD2140002DE9F8430646284B9847002380
:1030300033703046264B98473218264B19889B78B8
:1030400031529370244B1C68013404EB8405234BEC
:1030500003EB8505143D1F464FF05209DFF88480CD
:10306000013C04EB840357F823301BB1304629465A
:103070004A46C047143D002CF2D1194B1B681B680F
:103080002BB1174B196830464222164B9847164B06
:103090001B681B682BB1144B196830464222114B38
:1030A0009847124B1B6823B13046104944220D4B00
:1030B00098470F4B1B6823B130460D495322094BEB
:1030C00098470C4B9847BDE8F88300BFB52C4000EB
:1030D000C1444000349D4000484E0020F84C002080
:1030E000744D0020512840005C4D0020604D0020B0
:1030F000D44D0020312E40002DE9F84307462A4BDD
:1031000098472A4B98472A4EA6FB0036760900239B
:103110003B703846274B98473A18274B19889B78BD
:1031200039529370254B1C68013404EB8405244B01
:1031300003EB8505143D9846DFF88C90013C04EBC9
:10314000840358F823301BB1384629463246C84715
:10315000143D002CF2D11B4B1B681B682BB1194B83
:10316000196838463246184B9847184B1B681B683D
:103170002BB1164B196838463246134B9847144BFF
:103180001B6823B13846124932460F4B9847114B02
:103190001B6823B138460F4932460B4B98470E4BFC
:1031A0009847BDE8F88300BFB52C4000913F400030
:1031B0001F85EB51C1444000349D4000484E002023
:1031C000F84C0020744D0020E52840005C4D0020A4
:1031D000604D0020D44D0020312E400038B52D4BDD
:1031E0001B681BB101222C4B1A6038BD2B4B984732
:1031F0002B4A14682B49E36C0D685B1B0344E364A2
:103200000860116813680A681B6B9A4205D8244B42
:10321000186819683431244B9847214B1B68186B88
:1032200022491422224B984728B11D4B186819686F
:1032300034311D4B98471F4B1C68B4FA84F4E4B238
:10324000C4F11F0404EB84039B001B4AD35823B929
:103250001A4840F23E711A4B9847174BA2001119B9
:1032600003EB81014868406848600B460833984288
:1032700006D1416804EB84030F4A02EB83035960D3
:1032800004EB84040C4B03EB84046368DA68044B9E
:103290001A6038BD3C4E0020944D0020913F400004
:1032A0009C4D0020904D0020D53D4000B899400035
:1032B0003D404000EC4C0020F84C0020109A4000AB
:1032C000E13D400070B50D46064620B9144840F275
:1032D0004971144B9847144C216830461831134BF0
:1032E000984720680430124B984740B92368114929
:1032F0000A68D86A0123834022EA03030B60B5F110
:10330000FF3F06D1084B19680B4804310B4B984717
:1033100070BD0B4B186828440A4B984770BD00BF1E
:10332000109A4000E13D40009C4D0020791E400075
:10333000B51E4000EC4C0020D44D00205D1E400026
:10334000F44C0020F927400070B50D46064620B920
:103350000F4840F27F710F4B98470F4C2168304661
:1033600018310E4B9847206804300D4B984740B9F0
:1033700023680C490A68D86A0123834022EA0303C0
:103380000B60094B18682844084B984770BD00BF74
:10339000109A4000E13D40009C4D00205D1E400021
:1033A000B51E4000EC4C0020F44C0020F9274000F2
:1033B00038B5C368DC6824B9164840F2B571164BBD
:1033C000984704F118052846144B9847144B1B687E
:1033D0009BB9251D2846114B9847E06A11490A6898
:1033E0000123834013430B6000EB80000E4B03EB83
:1033F000800029460D4B984703E00D4829460B4BAA
:1034000098470C4B1B68E06ADB6A984234BF002087
:10341000012038BD109A4000E13D4000B51E40003B
:103420003C4E0020EC4C0020F84C00205D1E40007B
:10343000784D00209C4D002010B5044620B9064868
:1034400040F2D771054B9847054B1B682360054B2D
:103450001B68636010BD00BF109A4000E13D400052
:10346000444E0020F44C002038B50C46054620B9E7
:10347000194840F2E171194B984724B9164840F2B7
:10348000E271164B9847164B98472368B3F1FF3FFC
:1034900019D0144A12682968914204D0124A12685D
:1034A0006968914211D9104A12686968521A9342A8
:1034B0000DD90D4A1268511A5B1A236028460B4B2E
:1034C0009847002404E0002402E0012400E00124E5
:1034D000074B9847204638BD109A4000E13D400018
:1034E000651F4000444E0020F44C00203934400059
:1034F000851F40000122014B1A607047944D002047
:10350000014B1868704700BF9C4D0020054B1B689D
:1035100033B1054B1B68002B0CBF01200220704704
:10352000002070478C4D00203C4E0020002840D0E9
:1035300038B5C36A1F490968C96A8B4238D21D4928
:103540000968C96AC1F10501816103EB83031A4966
:1035500001EB83034169994226D10446051D2846A3
:10356000164B984768B9E26A02EB82039B00124946
:10357000CB5833B9124801680123934021EA030371
:1035800003600C4B1B68D86AE0620D490A6801238E
:10359000834013430B6000EB8000074B03EB80007C
:1035A0002946084B984738BD024B1B68DB6AC3624B
:1035B00038BD70479C4D0020F84C0020B51E4000DF
:1035C000EC4C00205D1E400000282CD038B5C16AAC
:1035D000826C914226D00446051D2846124B98471E
:1035E00068B9E26A02EB82039B001049CB5833B9F9
:1035F0000F4801680123934021EA03030360A36C91
:10360000E362C3F10502A2610948016801229A4000
:103610000A43026003EB8303044800EB830029465E
:10362000044B984738BD7047B51E4000F84C002049
:10363000EC4C00205D1E400010B504464160206146
:1036400091420AD8D21A83699A4211D20A4B186859
:10365000211D0A4B9847002010BD9A4201D2994281
:1036600008D2074B1868211D044B9847002010BD55
:10367000012010BD012010BD804E0020791E4000A9
:103680004C4E002070B50D4B98470D4B1B688BB905
:103690000C4D28460C4EB0470C4C2046B0470C4B06
:1036A0001D600C4B1C6005200C2100220A4B984722
:1036B000034B1860094B984770BD00BF651F400061
:1036C0007C4E0020504E00203D1E4000644E0020E5
:1036D0004C4E0020804E002085234000851F400076
:1036E00010B584B00D4B98470D4B1B686BB104238C
:1036F000009300230193029303930A480A494FF46D
:10370000A0720A4CA047034620B90948D721094BAB
:1037100098470023184604B010BD00BF853640000E
:103720007C4E0020A1384000589A40008D2940006E
:10373000609A4000E13D40002DE9F04129B90F4871
:10374000E4210F4B9847002414E0804616461D469E
:103750000F4628200B4B9847044658B10A4B984710
:10376000C4F80080A761E6612562069B6362201DA4
:10377000064B98472046BDE8F08100BF609A4000A4
:10378000E13D4000D920400085364000551E4000F4
:1037900030B585B00F4C2568C5B1019102920390F8
:1037A0006BB90D4B984701280A4B186801A907BF50
:1037B000089A002300221346084CA04707E0284639
:1037C00001A91A460023064CA04700E0002005B0DE
:1037D00030BD00BF7C4E00200D3540001524400058
:1037E000AD2540002DE9F04782B08146234B984734
:1037F0008046234B1B68984236D226E0DA68D2F81E
:1038000000A0DB68DC68251D2846B847636A2046AF
:103810009847E369012B1AD1A3695344534506D94C
:103820006360246130682946164B98470FE00023F7
:103830000093204619465246134CA04738B9134806
:1038400040F27221124B984701E0124E124F33683A
:103850001A68002AD2D1114A10680E490860136014
:103860000123C9F8003002E00023C9F80030044BFE
:10387000C3F80080404602B0BDE8F087C52C400088
:10388000784E0020791E400091374000609A400039
:10389000E13D40004C4E0020B51E4000804E00200F
:1038A0002DE9F04F87B0DFF86CA1DFF86CB14E4E18
:1038B000DFF86881DAF800301A68002A00F08B809F
:1038C000DB681D68D84703A8484B98470446039B0C
:1038D000002B31D1854225D8454B9847DAF8003086
:1038E000DB68DF68381DC047FB69012B15D1B9695A
:1038F0003846294422462B463E4CA04701280CD18D
:1039000000230093384619462A463B4CA04720B96D
:103910003A4840F24F113A4B98477B6A38469847ED
:103920000CE000253068291B364B9847304B9847F0
:1039300020B9354B984701E02D4B984702A82B4BF7
:1039400098470746314DDFF8AC903CE0059C1CB130
:1039500063690BB1201DC047039B022B21D0032BB1
:103960002ED0002B2FD1049BA169204619443A4642
:10397000C847012827D1636A20469847E369012B8D
:1039800021D1A2690023009320461946049C2244B9
:10399000194CA047B8B9194840F22621184B98474E
:1039A00011E0049BA36123B9144840F23321144B66
:1039B0009847A169204639443A463B46C84702E049
:1039C0002046134B9847306803A900221346A847A6
:1039D0000028BBD16EE7D84703A8044B984704469C
:1039E000039B002B9DD0A7E77C4E0020E5374000CD
:1039F000312E40003936400091374000609A400037
:103A0000E13D4000AD274000451F400049264000F1
:103A1000AD2140004C4E0020B52C4000B51E4000AA
:103A200010B5044620B90F4840F2B1110E4B98472B
:103A30000E4B186870B10E4B984700220B4B1A6062
:103A40000C4B07CB20606160A2601A889B78A28132
:103A5000A37304E0204608494422084B98470020FD
:103A600010BD00BFD09A4000E13D4000844E0020D0
:103A7000912B4000F49A4000049B4000A14040007C
:103A800030B587B01546044620B91D4840F2811173
:103A90001C4B98472846012105AA1B4B98471B4BF6
:103AA000984703461A4A12682AB1204619494C22FF
:103AB000194B984720E0002200921549019102928B
:103AC000039216481649A022164DA847012809D18D
:103AD000154B07CB20606160A2601A889B78A28199
:103AE000A37309E0114D0FCD20606160A260E36017
:103AF0002A88AB782282A374002007B030BD00BFB3
:103B0000D09A4000E13D4000CD1D4000E53F40001F
:103B1000844E0020489B4000A1404000253D4000CD
:103B2000949B40008D2940009C9B4000AC9B400032
:103B3000F0B583B00E461546044620B9204840F241
:103B40003F11204B9847204B196879B91F4D0FCD75
:103B500020606160A260E36028682061AA88AB7978
:103B6000A282A3750120184B186027E0284601AAFD
:103B7000174B98470746E8B1204600213246154BBF
:103B80009847114D204614492A68144B98472046FF
:103B90003946019A124B98472046124B98472218F3
:103BA000114B19889B78215293702B6801332B603D
:103BB000012003E000202070034B186003B0F0BD2B
:103BC000D09A4000E13D4000C84E0020C09B40001C
:103BD000CD1D4000D5414000D89B400079434000B6
:103BE0001D454000C1444000349D400070B582B086
:103BF0000D461646044618B92348FD21234B984725
:103C0000234B196879B9234D0FCD20606160A26004
:103C1000E36007CD20616161A2612B7823770120E9
:103C20001B4B18602DE0304601AA1B4B98470646F7
:103C300020B915484FF48B71144B9847204600214A
:103C40002A46164B9847124D204615492A68154BAF
:103C5000984720463146019A134B98472046134B0C
:103C600098472218124B19889B78215293702B6821
:103C7000032B02D10020286003E00133044A1360C3
:103C8000012002B070BD00BFD09A4000E13D40006D
:103C9000884E0020E09B4000CD1D4000D5414000F3
:103CA000D89B4000794340001D454000C14440007E
:103CB000349D400010B5044618B90748E221074B6F
:103CC0009847204606495122064B984704F1500078
:103CD000054B9847002010BDD09A4000E13D4000C0
:103CE000009C4000A1404000F930400010B504465F
:103CF00018B90748CA21074B9847204606495B2256
:103D0000064B984704F15A00054B9847002010BD18
:103D1000D09A4000E13D4000549C4000A14040004A
:103D20002530400038B50546094C204600213C228C
:103D3000084B9847204608492A46084B9847204692
:103D4000074B98474FF0FF35064C2846A047FCE745
:103D50008C4E0020D5414000B09C4000794340008B
:103D6000111C40003D2F400010B50748074CA047EC
:103D70000748A0470748A0470748A0470748A0476B
:103D80000748A04710BD00BF649F4000751C40005D
:103D9000C09A4000749F4000B09A4000A09A400032
:103DA000549F400008B50248024B984708BD00BF29
:103DB00030A14000111C400008B50020014B98477D
:103DC00008BD00BF513F400008B5014B9847FEE7D2
:103DD000551F400008B5014B9847FEE7551F4000AE
:103DE00000B583B0002301930091009B044B9847DA
:103DF000019B002BFCD0034B984703B05DF804FBFC
:103E0000651F4000851F400030B583B0274B9847A1
:103E1000274AD36823F4E0631B041B0C43F0BF6301
:103E200043F40033D360234B9847234B9847234BED
:103E300000932348C82101220023224CA04720B927
:103E4000214840F27B11214B9847214B0093214898
:103E500040F6B831012200231A4CA047054620B98C
:103E600019484FF4C271194B98471B4B98470246AB
:103E700000240094284621462346184DA847184898
:103E80004FF4A0710122174B984717484FF4A071C7
:103E900001222346154DA847154B1B6898682146FB
:103EA000144B9847144B9847FEE700BF9507400016
:103EB00000ED00E0F9114000313F4000B93D400005
:103EC000849F400039374000909F4000E13D400012
:103ED000A53D4000A09F4000C52C40009137400008
:103EE00000420340911B400000C60140AD06400067
:103EF0004804002071424000392C400088B908B5C0
:103F000039B1084B98474022074B5A63074B9847F3
:103F100008BD044B98474022034B1A63034B984754
:103F200008BD7047651F4000000E0E40851F400011
:103F300008B5054B40221A61C3F8A0201A6300207F
:103F40000146024B984708BD000E0E40FD3E400062
:103F500078B908B5074B9847074BDB6B13F0400F58
:103F60004FF04002044B14BF5A631A63034B984747
:103F700008BD7047651F4000000E0E40851F4000C1
:103F800042F6DF62014B1A60704700BFCC4E002042
:103F900038B50F4B1C680F4B984705460E4B98479A
:103FA0000E4B1B6813F0806F03D1C4F5EA33BB33AB
:103FB00005E00135064B1B68C3F5EA33BB3305EB5F
:103FC0008505074A1068B3FBF0F000EB450038BDEB
:103FD00018E000E0E52C4000551F400004ED00E033
:103FE000CC4E002000210A2200F0D4BB70B50F4E49
:103FF0000F4D761BB61018BF002405D0013455F8BC
:10400000043B9847A642F9D10A4E0B4D761B06F0A9
:1040100013F9B61018BF002406D0013455F8043B3C
:104020009847A642F9D170BD70BD00BF44A24000C0
:1040300044A240004CA2400044A24000032A70B4B5
:1040400026D940EA01039B0711D004780D78AC42D1
:1040500022D10244431C05E013F8014B11F8015F23
:10406000AC4219D19342F7D1002070BC70470C4686
:1040700003461E682568AE421846214603F1040334
:1040800004F1040404D1043A032A18462146F0D866
:10409000002ADAD11046E8E7601B70BC704700BF09
:1040A000844641EA000313F003036DD1403A41D343
:1040B00051F8043B40F8043B51F8043B40F8043B02
:1040C00051F8043B40F8043B51F8043B40F8043BF2
:1040D00051F8043B40F8043B51F8043B40F8043BE2
:1040E00051F8043B40F8043B51F8043B40F8043BD2
:1040F00051F8043B40F8043B51F8043B40F8043BC2
:1041000051F8043B40F8043B51F8043B40F8043BB1
:1041100051F8043B40F8043B51F8043B40F8043BA1
:1041200051F8043B40F8043B51F8043B40F8043B91
:10413000403ABDD2303211D351F8043B40F8043B31
:1041400051F8043B40F8043B51F8043B40F8043B71
:1041500051F8043B40F8043B103AEDD20C3205D341
:1041600051F8043B40F8043B043AF9D2043208D039
:10417000D2071CBF11F8013B00F8013B01D30B88AB
:1041800003806046704700BF082A13D38B078DD089
:1041900010F003038AD0C3F10403D21ADB071CBF5B
:1041A00011F8013B00F8013B80D331F8023B20F8C5
:1041B000023B7BE7043AD9D3013A11F8013B00F8FE
:1041C000013BF9D20B7803704B7843708B78837086
:1041D0006046704770B4840746D0541E002A41D010
:1041E000CDB2034602E0621EE4B3144603F8015B5D
:1041F0009A07F8D1032C2ED9CDB245EA05250F2C0C
:1042000045EA054519D903F110022646103E0F2E46
:1042100042F8105C42F80C5C42F8085C42F8045C1E
:1042200002F11002F2D8A4F1100222F00F0204F001
:104230000F041032032C13440DD91E462246043AB3
:10424000032A46F8045BFAD8221F22F00302043244
:10425000134404F003042CB1C9B21C4403F8011B3D
:10426000A342FBD170BC704714460346C2E700BFAF
:1042700000290CBF022200224FF4806300F000B836
:104280002DE9F0413A4C26680D46044690461F46FB
:1042900016B1B36B002B3CD0B8F1020F2FD8002F12
:1042A0002DDB2146304602F067FDA18900236360C3
:1042B000A3610B0627D421F0830189B2B8F1020F64
:1042C000A1812AD0002D36D0B8F1010F11D089B2CA
:1042D00001F00800274BF36380B225602561676118
:1042E00078B111F0030F18BF0027A7600020BDE8C8
:1042F000F08141F001017B42A181A361E7E74FF02A
:10430000FF30BDE8F0812169304602F037FEA18917
:10431000D1E7304602F0C4FDBEE7002004F14303BC
:1043200041F0020100250122A181A56023602361E3
:104330006261BDE8F081002F08BF4FF48067384606
:1043400002F022FF054628B1A18941F0800189B21F
:10435000A181B9E74FF4806002F016FF054618B955
:10436000A1894FF0FF30D9E74FF48067ECE700BF39
:1043700048040020A56D40000EB4F0B59CB021AB00
:104380000F4953F8042B019305466FF00044086869
:1043900002954FF402774FF6FF7602A90695ADF825
:1043A000147004940794ADF8166000F0FFF9029BB6
:1043B00000221A701CB0BDE8F04003B0704700BF87
:1043C00048040020830710B5044610D10268A2F10A
:1043D000013323EA020313F0803F08D150F8042F81
:1043E000A2F1013323EA020313F0803FF6D00378F1
:1043F0001BB110F8013F002BFBD100F003F8204661
:1044000010BD00BF80EA0102844612F0030F4FD1B5
:1044100011F0030F32D14DF8044D11F0040F51F893
:10442000043B0BD0A3F101329A4312F0803F04BF4A
:104430004CF8043B51F8043B16D100BF51F8044B33
:10444000A3F101329A4312F0803FA4F101320BD163
:104450004CF8043BA24312F0803F04BF51F8043BE8
:104460004CF8044BEAD023460CF8013B13F0FF0F45
:104470004FEA3323F8D15DF8044B704711F0010F78
:1044800006D011F8012B0CF8012B002A08BF704749
:1044900011F0020FBFD031F8022B12F0FF0F16BF40
:1044A0002CF8022B8CF8002012F47F4FB3D1704708
:1044B00011F8012B0CF8012B002AF9D1704700BF2D
:1044C00020F0030110F00300C0F1000051F8043B9C
:1044D00000F1040C4FEACC0C6FF000021CBF22FA72
:1044E0000CF213434FF0010C4CEA0C2C4CEA0C4C30
:1044F000A3EB0C0222EA030212EACC1204BF51F829
:10450000043B0430F4D0C2F1000102EA0102B2FA25
:1045100082F2C2F11F0200EBD2007047830730B471
:1045200025D10468A4F1013323EA040313F0803F8A
:10453000034608D153F8045FA5F1013424EA0504C9
:1045400014F0803FF6D01C781CB113F8014F002CFA
:10455000FBD19D1805E011F8014B03F8014B24B184
:104560003AB1AB4202F1FF32F5D130BC704703469D
:10457000E9E71A70F5E700BF002A3ED040EA0103E0
:1045800013F00303F0B425D1032A23D904680D687E
:10459000AC421FD1043A32D0A4F1013525EA04041B
:1045A00014F0803F2ED1071D0D1D0DE057F8043B80
:1045B0000E68A3F10134B34224EA03040AD1043A99
:1045C0001DD014F0803F20D1032A2946384605F13A
:1045D0000405EBD803780C78A34202F1FF3209D12D
:1045E0006AB17BB110F8013F11F8014FA34202F10B
:1045F000FF32F5D0181BF0BC7047104670471046CC
:10460000F0BC70471846F0BC70470020F3E700BFCD
:1046100040EA01039B0770B42BD1032A29D90C4629
:104620000346214654F8046BA6F1013525EA060538
:1046300015F0803F05D1043A032A43F8046B214664
:10464000EFD8A2B10C781C70013A013301313CB1B2
:104650006AB111F8014B03F8014B013A002CF7D174
:104660002AB11A44002103F8011B9342FBD170BC0C
:1046700070470346E5E700BF2DE9F04F444C834601
:104680000E46D4F800E000E02646344614F8015BFC
:104690000EEB0500407800F0080000F0FF0800284D
:1046A000F2D12D2D4BD02B2D04BF7578B41C1BB12E
:1046B000102B60D09A4603E0302D54D00A239A463E
:1046C000B8F1000F14BF4FF000406FF0004000271A
:1046D000B0FBFAF9BC460AFB19000CE0303DAB42D6
:1046E00019DD7E1C05D0CC4524D821D00AFB0C5CFA
:1046F000012714F8015B0EEB0506767816F0040F1F
:10470000ECD116F0030606D0012E0CBF3726572633
:10471000AD1BAB42E5DC7B1C16D0C8F100008CEA77
:10472000000040444AB107B1611E1160BDE8F08F3E
:104730008542DBDD4FF0FF37DBE7BDE8F08FB41CCF
:1047400075784FF00108B2E7B8F1000F4FF022037F
:1047500014BF4FF000406FF00040CBF80030002A4B
:10476000E2D1BDE8F08F237803F0DF03582B09D0A6
:1047700008239A46A4E7302D9CD1207800F0DF0072
:10478000582897D14FF0100A65785346023497E7BE
:104790004C04002030B4044C0D46134601462A4612
:1047A000206830BCFFF768BF480400202DE9F04FB7
:1047B000C1B089460A920E93089002F0E1FC0368AA
:1047C00017931846FFF77CFEB9F80C3018901A06BC
:1047D00004D5D9F81030002B01F08C80002330AFC5
:1047E000139325932493169319930B932397149360
:1047F00015933C464E460A9D2B78002B00F0A9806D
:10480000252B02D1A5E0252B03D015F8013F002B65
:10481000F9D10A9BEB1A73B1249A25990A98206062
:1048200001321944072A63602591249272DC08340E
:104830000B9A1A440B922B78002B00F0B5870023BB
:10484000691C6D788DF86F301A460C9307934FF002
:10485000FF3A4B1CA5F12001582900F2D983DFE86B
:1048600011F07002D703D7037403D703D703D7031C
:10487000D703D703D703F0020D02D703F4011102C7
:10488000D7037B03BA02BA02BA02BA02BA02BA0268
:10489000BA02BA02BA02D703D703D703D703D703A2
:1048A000D703D703D703D703D703C9028B03D70393
:1048B0008B03D703D703D703D7036D03D703D703DE
:1048C0000503D703D703D703D703D7032303D7039E
:1048D000D7033D03D703D703D703D703D703D703A2
:1048E000D703D703D703D70358032C028B038B03BB
:1048F0008B03FE022C02D703D703E602D7037E0206
:10490000FB01C0037702D7039202D7037A00D703D3
:10491000D7034A0208980793314623AA03F0EAFC1A
:1049200050B93C46079B83E70898314623AA03F019
:10493000E1FC002800F08581B146B9F80C3013F095
:10494000400F0B9B18BF4FF0FF33184641B0BDE836
:10495000F08F0A9D6FE70A93079B980640F1AD829E
:104960000E9B03F1070929F0070303F10802D3E9BD
:1049700000890E9201234FF0000C8DF86FC0CDF826
:1049800044A0BAF1000F03DB079A22F080020792DD
:1049900058EA090240F04C83BAF1000F00F051844C
:1049A000012B00F04F83022B00F0908439464FEA30
:1049B000D80242EA49724FEAD90008F0070381465B
:1049C0009046303358EA090201F8013DEFD1079AC9
:1049D0001091D20700F144857B1A0D930D9A9245F0
:1049E0005346B8BF1346099300231293BCF1000F3E
:1049F00002D0099B01330993079B13F002030F9325
:104A000002D0099B02330993079B13F0840940F0FD
:104A10000C830C9B099AC2EB0308B8F1000F40F31A
:104A20000483B8F1100F2599249ADFF844A529DDF5
:104A300053464FF0100BC246A8461D4606E0AAF1A9
:104A4000100ABAF1100F04F1080417DD0132103119
:104A5000072A2591249284E82008F0DD0898314641
:104A600023AA03F047FC00287FF466AFAAF1100ADE
:104A7000BAF1100F2599249A3C46E7DC2B464546AF
:104A8000D0469A46013208EB010B072ACDF894B0C4
:104A90002492C4F800A0C4F8048000F37B849DF83D
:104AA0006FC00834BCF1000F0FD0249B01330BF111
:104AB000010B0DF16F010122072BCDF894B0249367
:104AC00084E8060000F3DA8308340F9B73B1249B5B
:104AD00001330BF1020B1CA90222072BCDF894B075
:104AE000249384E8060000F3D5830834B9F1800FDD
:104AF00000F01183119B0D9AC2EB030ABAF1000F6B
:104B00003CDDBAF1100F249ADFF868942BDD49469A
:104B10005B46A9464FF01008DDF820B00D4606E0D0
:104B2000AAF1100ABAF1100F04F1080417DD0132DE
:104B30001033072A2593249284E82001F0DD58469B
:104B4000314623AA03F0D6FB00287FF4F5AEAAF184
:104B5000100ABAF1100F259B249A3C46E7DC9B46CD
:104B60002B464D4699460132D344072ACDF894B0DE
:104B7000249284E8000600F375830834079BD90566
:104B800000F16C82249B0D99109A226001338B44B2
:104B9000072BCDF894B06160249300F3468308346A
:104BA000079B5A0741D50C9B099A9D1A002D3CDDA5
:104BB000102D249BDFF8B8A323DD4FF010085A46D0
:104BC000DDF8209004E0103D102D04F1080417DDFD
:104BD00001331032072B25922493C4F800A0C4F8A7
:104BE0000480F0DD4846314623AA03F083FB002809
:104BF0007FF4A2AE103D102D259A249B3C46E7DCA5
:104C000093460133AB44072BCDF894B02493C4F8FA
:104C100000A0656009DD0898314623AA03F06AFB0D
:104C200000287FF489AEDDF894B00B9B099A0C99AB
:104C30008A42ACBF9B185B180B93BBF1000F7FF44B
:104C400073AE002324933C46D5E5194607981D789A
:104C500040F004000790FCE50A93079B13F0200343
:104C600000F00E810E9B03F1070929F0070303F101
:104C70000802D3E900890E9200237CE61D781946CC
:104C80002B22E6E51D782A2D03F1010100F0AD8706
:104C9000A5F1300009280B464FF0000A3FF6DAADC7
:104CA00013F8015B0AEB8A0A00EB4A0AA5F130000F
:104CB0000928F5D94AEAEA7ACCE50A93079B8DF8E8
:104CC0006F209B0640F1A1800E9B03F1070929F09C
:104CD0000709D9E9002309F108010E919046994688
:104CE000002A73F10003C0F20B849DF86FC0CDF869
:104CF00044A0012345E60A939B4B1693079B8DF82E
:104D00006F209B0640F1F3800E9B03F1070929F009
:104D10000703D3E9008903F108020E92079BD90724
:104D200040F1F58058EA090300F0F180079A8DF808
:104D30007150302342F002028DF870300792022346
:104D400019E61D781946002A7FF483AD202280E5FC
:104D5000079941F0200107911D78194679E50A93DA
:104D6000079B8DF86F209A0640F1A1840B990E9A4B
:104D70004FEAE179136808468846043249460E92A4
:104D8000C3E9000137E50E9A0A93136810934FF0B8
:104D9000000B8DF86FB002F10409002B00F03B8688
:104DA000BAF1000F1098C0F2E9855946524602F058
:104DB00085FC002800F06C86109BCDF844B0C31A27
:104DC0000D93CDF8389023EAE3730993CDF848B0FA
:104DD0009DF86FC00AE6A5F13000002113F8015BD1
:104DE00001EB810100EB4101A5F130000928F5D963
:104DF0000C912FE50A93079B8DF86F2043F0100369
:104E00000793079B9B063FF55FAF079BD80600F112
:104E10006883079B590640F164830E99B1F90080BD
:104E200004314FEAE87942464B460E9158E71D7827
:104E300007996C2D00F0CB8441F0100107911946C1
:104E400007E50E9D29680C9108460028294601F1C6
:104E50000401C0F2B5840E911D781946F9E4079952
:104E600041F0400107911D781946F2E40A93079B2F
:104E700043F010030793079B13F020037FF4F2AE77
:104E8000079A12F0100240F01983079B13F04003B9
:104E900000F014830E9913460A460432B1F80080DC
:104EA0000E924FF0000966E50A93079B43F010034A
:104EB0000793079B98063FF553AD079BD90600F172
:104EC0000683079B5A0640F102830E9AB2F80080CF
:104ED00004324FF0000901230E924CE50A93234B54
:104EE0001693079B8DF86F209B063FF50DAF079B30
:104EF000D80640F1CD830E9A13461B689846079B4F
:104F00000432D9070E924FF000093FF50BAF022390
:104F100031E50E990A930A688DF898200023012242
:104F200004319C4609920E918DF86F3026ABCDF876
:104F300044C0CDF848C00D9210935DE5079941F04B
:104F4000080107911D78194683E4079941F0010192
:104F500007911D7819467CE4079941F0800107917B
:104F60001D78194675E400BFF89F4000E49F40009B
:104F7000C49F4000B49F40000A930E9B8DF86F20A1
:104F800003F1070929F0070303F108020E921A68DA
:104F900014925B6815931599149803F02BF9012866
:104FA000D3461498159940F059830022002303F04A
:104FB0005FFF002840F064859DF86FC0079BBE4AE4
:104FC000DFF800E323F0800307931346032100205A
:104FD000472DD8BF73460991119010930D911290EF
:104FE00004E50E9807990A93302203688DF8702023
:104FF0000246782541F0020104329846AF4B1693E1
:1050000007910E924FF000098DF871500223B2E41F
:105010000A938DF86F20002D00F0C6830023012233
:105020009C4609928DF898507EE7DDF894B039E5FA
:10503000012B7FF4B8ACB9F1000F08BFB8F10A0F2B
:1050400080F01C820DF5807B08F130080BF8418D53
:10505000CBEB07030D93CDF840B0BFE4652D40F3D3
:10506000A080149815990022002303F0F7FE002871
:1050700000F04581249B924A226001330BF1010B21
:105080000122072BCDF894B02493626000F334839F
:1050900008341D9B139A934203DB079BDA077FF5C5
:1050A0007FAD249B1899179A226001338B44072BFC
:1050B000CDF894B06160249300F390830834139B7F
:1050C0005D1E002D7FF76CAD102D249BDFF8F8914D
:1050D00040F3BA814FF010085A46DDF820A004E0F2
:1050E0000834103D102D40F3AE8101331032072BF0
:1050F00025922493C4F80090C4F80480F0DD504653
:10510000314623AA03F0F6F800287FF415AC259A5F
:10511000249B3C46E5E70C9B099AC2EB030ABAF1D3
:10512000000F7FF7E7ACBAF1100F249ADFF89891DF
:105130002BDD49465B46A9464FF01008DDF820B04C
:105140000D4606E0AAF1100ABAF1100F04F10804A6
:1051500017DD01321033072A2593249284E82001B9
:10516000F0DD5846314623AA03F0C4F800287FF446
:10517000E3ABAAF1100ABAF1100F259B249A3C4622
:10518000E7DC9B462B464D4699460132D344072A1D
:10519000CDF894B0249284E8000600F352820834DB
:1051A000A8E4139B249D012B40F32082109B2360D5
:1051B00001350BF101030122072D2593249562602F
:1051C00000F32682083418996160013503EB010B66
:1051D000072D179BCDF894B02495236000F324820B
:1051E0000834002314981599002203F037FE139B0E
:1051F000002840F0DE80109A013B013501329B44CB
:10520000072D2495CDF894B02260636000F30E81E1
:105210000834199A6260013593441FAB072DCDF80D
:1052200094B0249523607FF7BAAC0898314623AA3E
:1052300003F060F800287FF47FABDDF894B03C46C3
:10524000AEE4002B32D1079BD8072FD50DF5807B1C
:1052500030230BF8413DCBEB07030D93CDF840B065
:10526000FFF7BCBB0898314623AA03F043F8002897
:105270007FF462ABDDF894B03C467FE40898314699
:1052800023AA03F037F800287FF456ABDDF894B07A
:105290003C461AE40898314623AA03F02BF800286C
:1052A0007FF44AABDDF894B03C461FE4CDF834A05F
:1052B0001097FFF793BB00BFD89F4000F89F4000B6
:1052C00014A04000D49F4000B49F40001698BB46F5
:1052D0004FEA181308F00F0143EA09734FEA191255
:1052E00098469146435C0BF8013D58EA0903EFD11B
:1052F0005B46CDF840B0FB1A0D93FFF76FBB1D9DC9
:10530000002D40F30582139A12998A421346A8BFD2
:105310000B461D461099002D01EB020A0BDD249B64
:1053200021600133AB44072BCDF894B06560249322
:1053300000F34D830834129B002DA8BF5B1B002B8C
:105340001D4640F3F580102D249BDFF8F49540F3C3
:10535000C6815A464FF01008DDF820B004E008344A
:10536000103D102D40F3BA8101331032072B2592E6
:105370002493C4F80090C4F80480F0DD5846314608
:1053800023AA02F0B7FF00287FF4D6AA259A249B0F
:105390003C46E5E70898314623AA02F0ABFF002817
:1053A0007FF4CAAA9DF86FC0DDF894B03C46FFF7C1
:1053B00079BB03F1FF38B8F1000F7FF72AAFB8F1DE
:1053C000100FDFF87C9525DD5B464FF0100ADDF805
:1053D00020B006E0A8F11008B8F1100F04F108049D
:1053E00017DD01351033072D2593249584E8000639
:1053F000F0DD5846314623AA02F07CFF00287FF4F6
:105400009BAAA8F11008B8F1100F259B249D3C46DB
:10541000E7DC9B460135C344072DCDF894B02495B5
:10542000C4F80090C4F804807FF7F2AE08983146C3
:1054300023AA02F05FFF00287FF47EAADDF894B073
:10544000249D3C46E5E693460133AB44072BCDF85B
:1054500094B02493C4F8009065607FF7A0ABE4E6B5
:10546000302B109B3FF447AF013B1A461093BA1AFA
:1054700030230D9201F8013CFFF7B0BABB46CDF8DE
:1054800024C0404649460A22002303F041FD303241
:10549000404649460BF8012D00230A2203F038FD4F
:1054A0008046894658EA0903EBD15B46FB1ADDF8D2
:1054B00024C0CDF840B00D93FFF790BA0E990A685A
:1054C00004310E9190464FF00009FFF754BA0E993F
:1054D0000A68043101230E9190464FF00009FFF74E
:1054E0004ABA0E9A136898464FEAE3791346043392
:1054F00042460E93002A4B4673F10003BFF6F5AB0C
:105500004FF02D0CD8F1000869EB49098DF86FC0F8
:10551000CDF844A00123FFF734BA0898314623AAF6
:1055200002F0E8FE00287FF407AADDF894B03C46BC
:10553000109A12991D9B0A449046139A934246DB97
:10554000079AD00743D4139AC8EB0A05D31A9D4291
:10555000A8BF1D46002D0CDD249AC4F8008001323E
:10556000AB44072ACDF894B06560249200F36782BB
:105570000834002DACBF5D1B1D46002D7FF710AB1E
:10558000102D249BDFF8B8937FF75EAF4FF0100823
:105590005A46DDF820A004E00834103D102D7FF7B6
:1055A00052AF01331032072B25922493C4F8009098
:1055B000C4F80480F0DD5046314623AA02F09AFE7A
:1055C00000287FF4B9A9259A249B3C46E5E7249A54
:1055D00018981799216001328344072ACDF894B0B6
:1055E0006060249200F30A820834ACE7079BD90775
:1055F0003FF5DCAD109B236001350BF1010B01235E
:10560000072DCDF894B0249563607FF701AE0DE7C8
:105610000898314623AA02F06DFE00287FF48CA979
:10562000259B249D3C46CEE50898314623AA02F0EE
:1056300061FE00287FF480A9DDF894B0249D3C46EB
:10564000CFE50898314623AA02F054FE00287FF4E3
:1056500073A9DDF894B03C46FFF74CBA02F0CAFDDE
:10566000002840F0C7808646B24AB34B1190079895
:105670009DF86FC0CDF848E0032120F08000472D51
:10568000D8BF1A460991079010920D91FFF7AEB955
:10569000079B0E9A13F0400F13463FF42EAC0433D1
:1056A000B2F800800E934FF00009FFF737BB079B5D
:1056B000DB060BD4079B5D0608D50E9A13680432EF
:1056C0000E92BDF82C201A80FFF795B80E9A136839
:1056D00004320E920B9A1A60FFF78DB8934601338D
:1056E000AB44072BCDF894B02493C4F800906560C8
:1056F0003FF713AF08341BE70898314623AA02F09E
:10570000F9FD00287FF418A9DDF894B03C46C0E408
:10571000249B8A4A226001330BF1010B0122072BE3
:10572000CDF894B02493626000F3F48008342DB96E
:10573000139B1BB9079BDB077FF532AA249B1898A4
:10574000179A226001330BEB0001072B2591606053
:10575000249300F3F38104F108026D42002D40F31D
:10576000FC80102DDFF8D89140F33D811024DDF846
:10577000208004E00832103D102D40F334810133C5
:105780001031072B25912493C2F800905460F1DD6D
:105790004046314623AA02F0ADFD00287FF4CCA894
:1057A0002599249B3A46E6E7259BB146002B3FF41A
:1057B000C4A80898314623AA02F09CFDFFF7BDB8A3
:1057C0000C980E9140420C901946FFF73FBA41F0F9
:1057D000200107915D78591CFFF73BB808983146C6
:1057E00023AA02F087FD00287FF4A6A8DDF894B074
:1057F0003C4664E425F02003BAF1FF3F0D9300F02E
:105800009680472B05D1BAF1000F14BFD3464FF055
:10581000010B079B43F480731193159BB3F1000AAE
:10582000149B0993BBBF534603F1004A00232D2369
:10583000662D0F9300F0AC80462D00F0A9800D9BE3
:10584000099A452B0CBF0BF10109D94602201DA96D
:105850008DE8010202911EA821A9039053460491EC
:10586000089800F095FA672D109002D0472D40F06F
:105870009F80079BDB0740F18981109B03EB0908A0
:10588000099851460022002303F0E8FA002840F06E
:10589000FD80219B984506D930215A1C2192197010
:1058A000219B9845F9D8109A9B1A13930D9B472B6F
:1058B0001D9B00F0DE80652D40F3F880662D12936D
:1058C00000F05781139B129A934200F34481079B87
:1058D000D90700F1738122EAE2730D920F9A002A30
:1058E00040F0BC800993119B079311929DF86FC003
:1058F000FFF77CB80898402101F04EFCC9F8000081
:10590000C9F81000002800F08C814023C9F8143039
:10591000FEF764BF0898314623AA02F0EBFC00288A
:105920007FF40AA81D9DDDF894B03C46FFE64FF0D9
:10593000060B6EE7E09F4000DC9F400014A0400093
:10594000B49F40000898314623AA02F0D3FC0028F7
:105950007EF4F2AF2599249B3A46139C54600133A0
:1059600001EB040B072B1099CDF894B02493116030
:105970003FF75BAC02F10804FFF712B9CDF844B071
:10598000FEF79EFDCDF838900D900346FFF71BBA49
:1059900003201DA98DE8010802911EA821A90390EA
:1059A000099A04915346089800F0F2F9D9461090EC
:1059B000109B03EB09080D9B462B7FF461AF109BF6
:1059C0001B78302B00F0E4801D9B984458E7089822
:1059D000314623AA02F08EFC00287EF4ADAFDDF83C
:1059E00094B03C46A7E401332944072B2591249326
:1059F000C2F800905560A5DC0832AEE70898314641
:105A000023AA02F077FC00287EF496AF1D9BDDF8F8
:105A100094B03C4697E55346062B28BF06230D93CA
:105A200023EAE373DDF840C00993834BCDF8389047
:105A3000CDF844C0CDF848C01093FEF7D7BF089802
:105A4000314623AA02F056FC00287EF475AF1D9B58
:105A5000139ADDF894B0D31A3C468AE50993119B5A
:105A600007934FF02D0C00238DF86FC01193FEF7B4
:105A7000C0BFDA1C19DB9B4517DB1293672521E7B2
:105A80004FF02D0C8DF86FC0FFF798BA43460AE728
:105A90002AEAEA731190CDF8389012909DF86FC001
:105AA0000993CDF834A0FEF7A1BF023D013B002BC6
:105AB0001D93BABF5B422D222B22092B8DF87C50FF
:105AC0008DF87D2072DD0DF18B0E70465B4A82FBF6
:105AD0000321DA17C2EBA10202EB8201A3EB41031F
