S01E00004F56373734305F4578616D706C655F44656661756C742E7372656340
S214400000103D0020E1104000DD104000DD104000B3
S214400010DD104000DD104000DD1040000000000014
S214400020000000000000000000000000DD1040005E
S214400030DD10400000000000DD10400011144000BC
S214400040DD104000DD104000DD104000DD104000B7
S214400050DD104000DD104000DD10400000000000D4
S214400060DD104000DD10400000000000290D40007B
S2144000703D0D4000510D4000DD104000DD104000B9
S2144000800000000000000000DD104000DD104000D1
S214400090DD104000DD104000DD104000DD10400067
S2144000A0DD104000DD104000DD104000DD10400057
S2144000B0DD104000DD104000DD104000DD10400047
S2144000C0DD104000DD104000DD10400010B5054C4E
S2144000D0237833B9044B13B10448AFF300800123AF
S2144000E0237010BD5408002000000000CC324000B1
S2144000F0084B10B51BB108480849AFF300800848C4
S214400100036803B910BD074B002BFBD0BDE8104079
S214400110184700BF00000000CC32400058080020BE
S214400120CC3240000000000010B50E480E4B9847F9
S21440013000203E210D4B98470D4CA0470028FCD090
S2144001400C4B98470C4A0D4BDA620D4CA0470028E2
S214400150FCD010200B4B98470B4B98470148024B5E
S214400160984710BD000E2707A5124000C90D400055
S2144001701D0E4000690E4000013F130000040E4073
S214400180750E4000650D40009111400070B54FF46B
S2144001900042674B5A604C204FF06051654CA04778
S2144001A002206549A04703204FF00061A047042085
S2144001B04FF00061A0472D204FF08051A0475F4D83
S2144001C040202946A04741202946A04742202946AC
S2144001D0A04743202946A04744202946A04745201B
S2144001E02946A04746202946A04747202946A047FB
S2144001F04B202946A04748202946A047504E162067
S2144002003146A04753202946A0474D204FF0405145
S214400210A04740202946A04741202946A0474220E3
S2144002202946A04743202946A04744202946A047C0
S21440023045202946A04746202946A047472029462C
S214400240A0474B202946A04748202946A0474E2095
S2144002502946A04749204FF04051A0475220294602
S214400260A04753202946A04754202946A04755205A
S2144002702946A04756202946A04757202946A0474A
S21440028058202946A04759202946A0475A202946A3
S214400290A0475B202946A0475C202946A0475D2012
S2144002A02946A0475E202946A0475F202946A0470A
S2144002B012203146A04713203146A047142031462D
S2144002C0A04700203146A04701203146A047502095
S2144002D02946A0474A204FF06051A0474F204FF094
S2144002E06051A04715204FF04051A0471020712183
S2144002F0A0470F207121A04705F100551820294638
S214400300A04719202946A0471A202946A0471B2067
S2144003102946A0471C202946A0471D202946A0471D
S2144003201E202946A0471F202946A04770BD00BF73
S21440033050140E402D0B40007900002801000008A4
S2144003400100001808B520B108461146034B9847EF
S21440035008BD08461146024B984708BDF5094000BF
S214400360F109400008B5014B984708BD5D0F4000B5
S21440037008B5014B984708BD3D1040002DE9F041B7
S21440038086B007464C1C0125124EDFF84C8013E021
S214400390FE2B03D14AF26A70C0470CE08DF8043059
S2144003A0029521238DF8143004950392384601A90E
S2144003B0B04708280AD00234224614F8013CFF2BE6
S2144003C0E6D12178FF29E9D1002000E0082006B0D8
S2144003D0BDE8F0817103400001000020F0B58DB00B
S2144003E0074600230093019321268DF818600A23C0
S2144003F08DF8083001240394CDF810D0059402A956
S2144004003A4DA8478DF82C600B238DF81C30089485
S21440041001AB09930A94384607A9A847019B009A5E
S21440042043EA0223C3F30723772B35D100230193F6
S21440043002931C238DF81C3008948DF82C6001AB79
S21440044009930A94384607A9A8471D238DF81C30FF
S21440045008948DF82C6002AB09930A94384607A995
S214400460A847019B7F2B3ED1029BA22B3BD115E098
S21440047001AB0993384607A91D4B9847CDF824D0C1
S214400480384607A9194B98470198009B181A18BF79
S214400490012029E0012027E0012025E000230093E9
S2144004A00193029301238DF81C30089321228DF886
S2144004B02C200A9301AB0993384607A90B4CA0475A
S2144004C00CABAD2243F8282D0993384607A9084BB4
S2144004D09847CDF824D0384607A9A047029B009AF3
S2144004E09A42D7D1C4E701200DB0F0BD6503400065
S2144004F07103400008B5082914D8DFE801F0150557
S2144005001707090B0D0F11000B4910E00B490EE0C1
S2144005100B490CE00B490AE00B4908E00B4906E0A2
S2144005200B4904E0012008BD0A4900E00A490B4B8C
S2144005309847002008BD00BFE02340008C294000BB
S214400540D024400098284000EC224000C4254000BB
S214400550FC214000A8274000B82640007D0340000C
S21440056070B483B0C0F11100102828BF10200028B6
S21440057008BF01200021104E4FF400551824756323
S2144005800194019B5A1E0192002BFAD135630194C7
S214400590019B5A1E0192002BFAD101318142EED3C3
S2144005A04FF400330193019B5A1E0192002BFAD15F
S2144005B003B070BC704700BF00120E4082B04FF4CC
S2144005C00052064B5A634FF400330193019B5A1E68
S2144005D00192002BFAD102B0704700BF00120E40C5
S2144005E0C0F30742034B1A70C0F307221A70C0B21A
S2144005F018707047020000624FF0C44300221A7021
S21440060018700A0A02331A70C9B21970704700BFD0
S21440061082B000230193019B984211D90021094AD8
S2144006200191019B934205D8019B01330193019BA5
S2144006309342F9D9019B01330193019B8342EFD347
S21440064002B070479F86010008B5072040F233117C
S214400650014B984708BD00BFF9054000044A131FE8
S21440066002F56F7243F8040F9342FBD1704700BF08
S214400670700800202DE9F0410F4615461C461FFA2B
S21440068080F850204146094EB047691E41445120EB
S21440069089B2B047BDB252202946B047611E2944B0
S2144006A0532089B2B047BDE8F08100BFF90540004D
S2144006B038B503460D4620201946034CA047212056
S2144006C02946A04738BD00BFF90540004FF0C44357
S2144006D000221A701A705F4A1178137843EA012391
S2144006E01BB25D4A934240F0B38070B50546072082
S2144006F033215A4CA04710200021A047002001215A
S214400700A04701204FF48071A04702204FF4E061DB
S214400710A04704200021A047082040F20721A04718
S21440072009200021A0470A200021A0470C200021D4
S214400730A0470D200021A0470F200021A0471020F1
S2144007400021A04711200021A04712200021A047E9
S21440075013200021A047C820414EB047102041F248
S2144007609021A047112040F22721A0473220B047D1
S21440077012201B21A0473220B04713204FF4885147
S214400780A04729201921A0472B200D21A047322021
S214400790B04730200021A04731204FF40171A047D8
S2144007A032204FF40071A04735200721A04736205D
S2144007B041F20441A047372040F20571A047382057
S2144007C040F20531A047392040F20771A0473C204F
S2144007D040F20171A0473D200E21A04703204DF274
S2144007E01001A04760204FF42741A0476120012117
S2144007F0A0476A200021A04780200021A0478120F2
S2144008000021A04782200021A04783200021A04746
S21440081084200021A04785200021A0479020102159
S214400820A04792204FF4C061A04795204FF48871AE
S214400830A047002001462A686B680A4CA047A86873
S214400840094B984700200146084B9847002070BD4A
S21440085001207047020000622593FFFFF905400023
S21440086011064000750640005D064000B106400097
S21440087070B5064600200146074B98474FF0C443E4
S21440088000221A7022221A704FF49634034D3046D6
S214400890A847013CFBD170BDB1064000E1054000D1
S2144008A0EF2813D8B1F5A07F12D210B580B289B226
S2144008B0084B98474FF0C44300241C7022221A70FD
S2144008C0054B1868054B9847204610BD01207047D9
S2144008D001207047B106400070080020E105400046
S2144008E070B505460C46064EB047A8B2A1B2054BB9
S2144008F098474FF0C44300221A7022221A7070BDE7
S21440090075064000B10640002DE9F04F85B00390D3
S21440091002921378002B46D08B460190DFF89090D9
S2144009200A2B04D10BF1100B039B019335E003EB2C
S21440093083031E4E06EB8303A3F27F26019A1346DB
S2144009400A3300939046072437460BEB040A3D468D
S21440095016F8013C234113F0010F03D04046C4EB88
S2144009600A01C847013CB4F1FF3FF0D107240BF120
S2144009700F072B78234113F0010F02D04046391B56
S214400980C847013C012CF4D1023608F10108009B0F
S2144009909845D8D1019B0C330193029A12F8013F37
S2144009A00292002BBCD105B0BDE8F08F7C2A4000F7
S2144009B0A108400009014250704700BF00EB0111FA
S2144009C04A60704700EB01118A60704700EB0111E6
S2144009D0CA607047C0F8841052004FF40043B3FB1F
S2144009E0F2F2013AC2F30D02C0F88C20704700BF05
S2144009F001637047416370474264B1F1C05F2FD0D6
S214400A0007D8B1F1006F14D0B1F1805F1ED039B96C
S214400A107047B1F1205F37D004D8B1F1005F29D0DC
S214400A2042607047B1F1405F2ED0B1F1605F2BD08D
S214400A30F6E710B4016F046FD343214019400167B5
S214400A40416F446F21400B4043671AE0036F1343E6
S214400A500367436F416F0B4023EA02034367DFE7B8
S214400A60036F016F0B4023EA02030367436F134390
S214400A704367D5E7036F13430367436F13434367E7
S214400A80CEE742605DF8044B704700BF416412F009
S214400A90010F14BF4166016612F00A0F14BF0162CF
S214400AA0416212F0020F02D0C0F8801004E012F04B
S214400AB0080F18BFC0F8841041610160704700BF3E
S214400AC010B44164019C0CB1416600E001660BB174
S214400AD0016500E041650AB1016300E041630161E0
S214400AE001605DF8044B704712F0100F10D0C0F84C
S214400AF0B01012F0200F14BFC0F8D410C0F8D010B9
S214400B0012F0400F14BFC0F8C010C0F8C4107047B1
S214400B10C0F8B410704700BFC36C0164704700BF94
S214400B2041647047C06C7047806C704770B582B047
S214400B300D46430903F5001303F207735C0201F008
S214400B40F043B3F1005F47D009D8B3F1805F21D0BE
S214400B50B3F1C05F2FD0B3F1006F6FD109E0B3F1AE
S214400B60405F55D0B3F1605F52D0B3F1205F44D0C0
S214400B7064E000F01F000126864020464FF00061EA
S214400B803246304B984715F0010F14BF666626660E
S214400B90012054E000F01F000126864020464FF01A
S214400BA080513246274B984715F0010F14BF6666B2
S214400BB02666012043E000F01F00012686402046BE
S214400BC04FF0C05132461F4B984715F0010F14BFE7
S214400BD066662666012032E000F01F000126864049
S214400BE020464FF000513246164B984715F0010FFD
S214400BF014BF66662666012021E000F01F0301262A
S214400C00204606FA03F12A460F4B9847304616E030
S214400C1000F01F03012605F0605205EA0601009128
S214400C20204606FA03F1B2F1605F14BF00220122AB
S214400C30C5F38003054CA047304600E0002002B0D4
S214400C4070BD00BFF90940008D0A4000C10A40004F
S214400C50D0F8503143F00103C0F850310122014B27
S214400C601A607047040D0020D0F8503123F001037D
S214400C70C0F850310022014B1A607047040D002026
S214400C802DE9F84381468846124B98470546484624
S214400C90114B9847054013D0104C04F1600623686A
S214400CA0434508D16168294205D0E36840469847E5
S214400CB0636825EA0305B44202D01034002DEED115
S214400CC0074B1B6823B1074B1B680BB14846984738
S214400CD0BDE8F883250B4000290B4000380C002067
S214400CE0040D0020340C0020F8B50C4C2468062C6B
S214400CF011D815460A4F2201BE18B9507560B36028
S214400D00069AF2600134054A146029461A46054B95
S214400D1098470020F8BD0120F8BD00BF300C0020E9
S214400D20380C0020E90A400008B502480B21024B67
S214400D30984708BD000E0E40810C400008B502489A
S214400D400C21024B984708BD00100E40810C400015
S214400D5008B502480D21024B984708BD00120E40C8
S214400D60810C4000174A136B23F07003184310633E
S214400D70936E13F0080F03D009E0013B03D11CE04B
S214400D804FF400630F498A6E12F0080FF5D00D4BF2
S214400D901A6B42F003021A63986E10F0080004D0F3
S214400DA000207047013B03D109E04FF4006305493A
S214400DB08A6E12F0080FF5D0704701207047012068
S214400DC0704700BF00040E4038B111490B6A114A03
S214400DD01A40114B13430B6270470D4A136A23F4B3
S214400DE05C1323F0030343F45C1343F0010309024E
S214400DF089B20B431362936E13F0010FFBD0044A83
S214400E00136A43F09B7343F480331362704700BF0A
S214400E1000040E40FCFFC8FE02003701024B986EED
S214400E2000F48030704700BF00040E4010B40C4CF5
S214400E304FF00053A3620B4B03EA004040F00050D3
S214400E40D2B20243090201F47C510A43A26222460E
S214400E50936E13F0020FFBD05DF8044B704700BF53
S214400E6000040E400000FF070022014BDA62704784
S214400E7000040E40024B986E00F00400704700BF1E
S214400E8000040E4022281ED81F280CD8114B9A6901
S214400E90012383401A40934217D0012383400D4AD2
S214400EA01361002070470B4BD3F8082120380123EC
S214400EB083401A4093420AD001238340054AC2F831
S214400EC00031002070470120704700207047002006
S214400ED0704700BF00040E400F4B994219D8490096
S214400EE0B2FBF1F2043AFF2A07D900230133520835
S214400EF0FF2A03D9072BF9D100E00023110289B25B
S214400F001B0403F4E0230B43D2B21A4302610020D1
S214400F1070470120704700BF801A060038B5044667
S214400F200D464FF0FF338362036A80230360036BF2
S214400F3008230360202303600423036049682A686B
S214400F40054B9847012814BF002001206B7A012BDF
S214400F5004BF4023236038BDD90E40002DE9F04140
S214400F60CA688D68002A48D0002646604B681B0237
S214400F7003F4407343F480540B7C1B0403F4FE03D9
S214400F8023434360C6604C685CB10B78012CC4BFF9
S214400F904E7846EA0323022C04DD897841EA03238F
S214400FA000E00023C360012A03D103230360012726
S214400FB02FE00123036000272BE02146036A13F449
S214400FC0807F1DD14C1EF1B1012A04D177BBC0F8F9
S214400FD0008067462AE013F0020F05D0036B2B70A3
S214400FE0013A0135314600E02146002AE6D1036A3F
S214400FF013F0010FFBD0036A1CE04FF0010E19E01E
S2144010004FF0050E16E04FF0090E13E04FF0050EB8
S21440101010E0036A13F4807EF8D143F6972443F633
S21440102098264FF002084FF0010CCDE713F0020F60
S214401030C3D0D3E77046BDE8F08100BF0346CA6818
S2144010408868002A40D070B400265E600C7C240479
S21440105004F4FE054C68240204F440742C435C609F
S214401060DE604D685DB10C78012DC4BF4E7846EA0F
S2144010700424022D04DD897841EA042400E000249B
S214401080DC600BE0196A11F4807F1FD111F0040F69
S214401090F8D010F8011B5963013A07D0196A11F4C9
S2144010A0807F15D111F0040FECD0F2E71A6A12F4E3
S2144010B080700FD112F0040FF8D002221A601A6A1C
S2144010C012F0010FFBD006E001207047052002E039
S2144010D0052000E0052070BC704700BFFEE700BF5B
S2144010E008B5204B204A9A4213D9204B1D4A9A42B3
S2144010F01FD21146043203339B1A23F003030433F2
S214401100194A134452F8040B41F8040B9A42F9D199
S2144011100FE0144B144A9A420BD2144B114A9A1AB7
S214401120134881182AB151F8042943F8042D814206
S214401130F9D100BF0F4B104A9A420BD2131D0F4AEB
S214401140D21A22F003021A44043B002143F8041B3F
S2144011509342FBD10A4B0B4A9A600B4B98470B4B7A
S2144011609847FEE700000020CC324000540800209C
S214401170C8324000100D002054080020130D0020F7
S21440118000ED00E0000040005D1B400049154000B7
S2144011903D4B1B6B03F00303032B5DD8DFE803F0E6
S2144011A0020E2B2B394B5B6913F0800F14BF4FF4A4
S2144011B000424FF4FA42364B1A604DE0324B1B6AFF
S2144011C013F0807F03D0334A314B1A6044E0324AF2
S2144011D02F4B1A602C4B1B6A03F07003102B02D067
S2144011E0202B04D038E02D4A294B1A6034E0294A97
S2144011F0274B1A6030E0244B1B6A13F0807F03D0E5
S214401200244A234B1A6012E0234A214B1A601E4B95
S2144012101B6A03F07003102B02D0202B04D006E08C
S2144012201E4A1B4B1A6002E01A4A194B1A60164BAC
S2144012301B6B03F00303022B134A07BF936A926AA1
S214401240D36AD26A1248C3F30A41036801FB0333E8
S214401250D2B2B3FBF2F303600B4B1B6B03F070038D
S214401260702B07D10A4A13680D49A1FB03135B088C
S21440127013607047044B1A6B0549C2F302120B68A1
S214401280D3400B60704700BF00040E4010140E4061
S2144012900C000020001BB70000093D0000127A0039
S2144012A0ABAAAAAA124B984204D84FF08062114BC0
S2144012B01A607047104B984203D8104A0D4B1A607C
S2144012C070470F4B984203D80E4A0A4B1A60704735
S2144012D00D4B984203D80D4A064B1A6070470C4B8C
S2144012E0984294BF4FF004220A4A024B1A60704755
S2144012F0FF2C3101000A0E40FF5962020001000433
S214401300FF86930300020004FFB3C40400030004F6
S214401310FFE0F50500050004094B1B6813B9094AB0
S214401320074B1A60064B1B681A180749914204DBA4
S2144013301046034A1060184670474FF0FF3070471B
S214401340A80C0020103D0020FCFF01200122014B8C
S2144013501A607047BC0C0020064B1B6833B1002255
S214401360044B1A600122044B1A6070470122014B5D
S2144013701A607047B00C0020C80C002010B584B02E
S2144013800A20174B9847174C204602214FF002324E
S214401390154B984720460221144A154B984720463D
S2144013A00221144A144B9847204602210322134B2D
S2144013B09847F02300934FF4A073019300230293C1
S2144013C06FF07F4303930E4B984768460D4B984704
S2144013D010200D4B98470D4B984704B010BD00BFEA
S2144013E0850E400000000E40B509400004040A0A7D
S2144013F0BD0940000A001600C5094000CD0940005E
S214401400BD054000CD06400061054000490640004D
S214401410024A136801331360704700BFCC0C0020AB
S2144014200022064B1A60064B06495960F0200649D2
S21440143081F823009A6007221A607047CC0C00207F
S21440144010E000E0BFD4010000ED00E02DE9F04FD1
S21440145087B000AFADF5487D0DF1FF333B60BB6014
S214401460374E3EE01EF8015F3B6913F8010F3B61C3
S2144014701BF8013F18F8014F717805EB4101014414
S214401480C91A19F8012FA1EB4202121B002AB8BF55
S21440149052421AF8011F03EB41032B441C1B1CF855
S2144014A0013FA4EB4304201A0028B8BF4042024440
S2144014B0FF2A03DC002A03DBD2B202E0FF2200E070
S2144014C000227B6903F8012F7B610136FB689E4250
S2144014D0C8D1BB685033BB607B681E46194B9E42E2
S2144014E021D0A6F5A17BA6F2411AA6F5A07EA6F1CC
S2144014F0020906F59F7806F23F1C06F5A0737B604E
S2144015003B6106F15003FB60BB687B61AAE712F8BB
S214401510011F03F8011B8342F9D104F5A07450362D
S214401520AC4203D107E0064C064D3E6804F150003D
S21440153032462346EBE71C37BD46BDE8F08F00BF7A
S214401540F8700060787D00602DE9804887B0834B56
S2144015509847834B9847072001210A46814B984776
S214401560814B98478148824B984700201421814AF6
S214401570814CA04700205021804AA0470A20804D39
S214401580A847804C204600217F4A804B98472046FB
S21440159000217F4A7F4B9847204600217E4A7F4B5A
S2144015A098472046002103227D4B98470B20A847AA
S2144015B004F56064204604210A227A4B98477A4B09
S2144015C0009320460B2104227923DFF84882C04747
S2144015D0764E4FF40067376020460421744B984798
S2144015E0744B009320460B214FF400420123C04722
S2144015F037600B20A847D4F8503123F00103C4F8D5
S2144016005031D4F8583143F00803C4F85831D4F870
S214401610503123F03003C4F85031D4F8503143F001
S2144016202003C4F85031D4F8503123F40073C4F882
S2144016305031D4F8503123F48063C4F85031D4F894
S214401640503143F48063C4F85031D4F8503123F419
S2144016500063C4F85031012057494FF48062574B1D
S2144016609847574B22221A644FF480721A609A6841
S21440167012F4807FFBD01320414B9847514B039385
S214401680514B0493514803A9514B9847474B4FF44D
S2144016900022C3F88020C3F88021002183F813136A
S2144016A01A604A4D4B4C2846A0470128FBD0474875
S2144016B00221494B98474948494B98472B482C4B61
S2144016C09847002014212B4A2B4CA047002050213D
S2144016D0444AA047444B9847DFF83C91434E444F1A
S2144016E0B046DFF838A1434DD9F80030002B00F063
S2144016F0E080414B1A68414B1A604FF0C042404B65
S2144017001A60F0223F4B1A8040464FF40041284B67
S21440171098473B68002BFCD040464FF400413A4B7C
S21440172098474046394B9847354B1968384B1A8886
S214401730344B1B8803FB02F39B10D6F86C21002A1F
S2144017406ED1D6F87C21002A6AD1C6F86811C6F850
S2144017506C310123C6F8883169E000BF290140009A
S2144017608D0140002D0E40007D134000D0E040002B
S21440177071084000FC31400009094000203240001A
S214401780850E400000000E4002000300B5094000F0
S21440179004050406BD09400006000700C5094000D0
S2144017A0CD094000D50940005913400000E100E053
S2144017B0190B40004D13400000120E4045034000F8
S2144017C000040E40000E2707801A060000800140E5
S2144017D01D0F4000DD034000F50440006E5E8801AA
S2144017E0010000204432400021144000000E0E400C
S2144017F0BC0C002002000062CC0C0020B80C00207C
S214401800080D002010000020210B4000510C400025
S21440181012000020E90C4000B00C00204763FF0097
S214401820D6F87C211AB9C6F87811C6F87C31D6F8B5
S214401830603113F0080FFAD04046274B98474FF0D8
S214401840000BC7F800B0254B1968254A1160196887
S214401850244A11601A68244B1A60244B9847244B3C
S2144018601C684FF0C44383F800B003221A70D0239C
S2144018702B7088232B7058465946F0224FF4A0739D
S214401880DFF888C0E0474FF496330393039B63B179
S21440189023782B7023782B7014F8013B2B70039B16
S2144018A0013B0393039B002BF2D10C4B1A68114B60
S2144018B01A60114B1B68002B3FF416AF0F4B98472E
S2144018C050460F4B9847002050210E4A0E4B9847E3
S2144018D00022094B1A6006E7690C4000CC0C002039
S2144018E0C40C0020C00C0020B40C00204D14400056
S2144018F0080D0020AC0C0020C80C00207D134000D2
S214401900710840007832400009094000E108400074
S214401910F8B5234F0C46064600F0E2FBBB685D6810
S21440192025F00305291B01F6EF7121F47F6121F0B4
S2144019300F01A1F58054B4F5805F07DB30460021E7
S21440194000F0D2FBBB682B44984204D0304600F0EF
S214401950C9FB0020F8BD3046614200F0C5FB0130AF
S2144019600DD0104BBA6819682D1B45F0010530465E
S214401970091B5560196000F0B5FB0120F8BD3046E4
S214401980002100F0B1FBBA68831A0F2BDEDD064C4F
S2144019900449246843F00103001B53600860D5E700
S2144019A044040020DC0C00205008002000294ED0C3
S2144019B02DE9F0410C46804600F092FB54F8047C3A
S2144019C0624927F00102A4F10805AB188E685868F2
S2144019D09E4220F003005AD0FE0758600BD454F8BD
S2144019E0087CED1B01F1080EAC6874453A4467D09C
S2144019F0EF68E760BC601C186468E4070CD4544F7A
S214401A009C68BC4202447CD0D868E06042F0010347
S214401A1084606B60AA5003E042F001036B60AA50FA
S214401A20B2F5007F14D2D20801EBC20348689F6823
S214401A30AF609210012404FA02F21043EB60486053
S214401A409D60FD604046BDE8F04100F04BBB7047EE
S214401A50530A042B47D8930903F13804600001EB7E
S214401A6080003A498368834243D0596821F0030195
S214401A70914202D99B689842F7D1DA68EA60AB6037
S214401A8040469560DD60BDE8F04100F02BBBFF07A7
S214401A90024407D454F8083CED1A1A44A868EB6888
S214401AA0C36098602B4B1B6842F001009A42686006
S214401AB08D60C7D3284B40461968FFF729FFC1E71A
S214401AC019184968C90709D4D9689B68024442F086
S214401AD00100D9608B606860AA50B3E742F001030A
S214401AE06B60AA50AEE7142B14D803F15B04600079
S214401AF0B5E74A68A4100120A04002434A601A464F
S214401B00BCE742F001034D610D61EC60AC606B6078
S214401B10AA5097E7542B04D8130B03F16E046000C9
S214401B209DE7B3F5AA7F04D8D30B03F17704600092
S214401B3095E740F25450834204D8930C03F17C045A
S214401B4060008CE7FC207E2489E700BF4404002028
S214401B504C0400204C080020D80C002070B50F4ED6
S214401B600F4D761BB61018BF002405D0013455F82B
S214401B70043B9847A642F9D10A4E0B4D761B01F01E
S214401B8093FBB61018BF002406D0013455F8043B2A
S214401B909847A642F9D170BD70BD00BFB432400030
S214401BA0B4324000BC324000B4324000024B0146E2
S214401BB0186800F003B800BF400400202DE9F04F3D
S214401BC001F10B05162D83B0064627D935F00705DB
S214401BD000F1B680A94200F2B38000F081FAB5F574
S214401BE0FC7F22D2C24FE80807EBC003DC689C4269
S214401BF000F0C8816368E168A56823F003032344C6
S214401C0030465A68E96042F001028D605A6000F042
S214401C1069FA0834204603B0BDE8F08F102900F278
S214401C208F8000F05DFA1025DCE7680A00F08F80B0
S214401C30042800F25481A80938304100AC4F07EB25
S214401C408101CC68A14206D10CE0002A80F2828055
S214401C50E468A14206D0636823F003035A1B0F2AA8
S214401C60F3DD01380130A2493C6901F1080E7445A4
S214401C7000F07D81636823F003035A1B0F2A00F3AC
S214401C806381002AC1F814E0C1F810E073DAB3F5B6
S214401C90007F80F03981DB0801EBC3084FEAA30CD4
S214401CA04A68D8F80890C4F80890012303FA0CF361
S214401CB01343C4F80C804B60C8F80840C9F80C4081
S214401CC08210012494409C4262D8234206D120F0E0
S214401CD003006400234200F10400FAD007EBC0087A
S214401CE0C4468146DCF80C309C4507D141E10029CA
S214401CF080F25181DB689C4500F03B815A6822F0B7
S214401D000302511B0F29F2DD1C46D3F80CC054F8D1
S214401D10088F5A1945F0010941F00105C3F80490AF
S214401D203046C8F80CC0CCF808807A613A61C2F8F0
S214401D300CE0C2F808E05560515000F0D3F969E76E
S214401D4000240C232046336003B0BDE8F08F7E218C
S214401D503F2073E72344E1685A68A56842F00102D1
S214401D60E96030468D605A6000F0BCF90834204681
S214401D7003B0BDE8F08F234430465A6842F0010273
S214401D805A6000F0AFF90834204603B0BDE8F08F43
S214401D90BC68636823F00308454504D8C5EB0803D0
S214401DA00F2B00F38C80534BDFF858A11A68DAF8F3
S214401DB0003001332A4404EB080B00F0508102F552
S214401DC080520F3222F47F6222F00F0211463046D4
S214401DD0019200F089F9B0F1FF3F8146019A00F088
S214401DE04781834500F2EE80434B1968CB4511444A
S214401DF0196000F04281DAF80000DFF808E10130AF
S214401E001BBFCBEB090B5944CEF80090196019F074
S214401E10070100F00781C1F10800C1F580518144F7
S214401E2008314A44C2F30B02C2EB010A514630461F
S214401E30019300F059F9431C019B00F02C81C9EB3B
S214401E400002524442F001021968C7F80890514413
S214401E50BC42C9F804201960DFF89CA016D0B8F13F
S214401E600F0F40F2EE806268A8F10C0323F00703E0
S214401E70E01802F001024FF0050E1A430F2B626085
S214401E80C0F804E0C0F808E000F209811B4BBC68CB
S214401E901A68914288BF1960194B1A689142626865
S214401EA088BF196022F003029542A2EB050301D8D1
S214401EB00F2B04DC304600F015F90024AAE6621920
S214401EC043F0010345F0010565603046BA60536053
S214401ED000F008F90834204603B0BDE8F08F142817
S214401EE068D9542800F29780280B6E304100A5E64A
S214401EF044040020D80C0020DC0C0020D40C002029
S214401F00D00C0020500800205A0A042A55D9142A1A
S214401F1000F2A7805B324FEA420C07EB8C0CDFF8EE
S214401F20BC81DCF8081061457FD04A6822F0030285
S214401F30934202D289688C45F7D1CA687B68E260D2
S214401F40A1609460CC60BBE6631942F0010745F09F
S214401F500105656030464B610B61C3F80CE0C3F881
S214401F6008E05F609A50083400F0BCF852E64B68D0
S214401F70A6E609F1010919F0030F0CF1080C7FF4ED
S214401F80B1AE2CE004F108036469A34208BF0230F6
S214401F903FF469AE2EE61A441C465168DB6854F896
S214401FA0085F41F0010151603046EB609D6000F0F3
S214401FB099F82FE65B30410040E69A0938324FEAFE
S214401FC0420CAAE7BC42454B3FF40EAF9C686268A1
S214401FD022F0030268E7D8F8008098457CD110F0DC
S214401FE0030FA8F1080300F1FF30F4D17B6823EA21
S214401FF004037B6064009C423FF6CAAE002C3FF46C
S214402000C7AE234248467FF469AE6400234200F1DF
S2144020100400FAD062E6B0F5AA7F18D8E80B77300D
S21440202041000BE64FF48051FBE6D8F8043092109E
S2144020304FF0010C0CFA02F21343C8F804300A467B
S2144020407DE70123C9F804304C4600222CE740F2D5
S214402050545398421CD8A80C7C304100EEE5103210
S214402060B4E6542A23D81A0B6E324FEA420C54E791
S214402070BC68626822F0030216E7CBF30B00002828
S2144020807FF4B9AE4244BB6842F001025A60FDE6B6
S214402090FC217E20D2E501224FF0000AD4E604F16E
S2144020A008013046FFF782FCDAF80010EEE6B2F59B
S2144020B0AA7F04D8DA0B77324FEA420C2DE740F27B
S2144020C054518A4204D89A0C7C324FEA420C24E798
S2144020D04FF0FC0C7E2220E77B688BE74404002010
S2144020E0704700BF704700BF38B5074C0023054611
S2144020F008462360FFF710F9431C00D038BD23681C
S214402100002BFBD02B6038BD0C0D0020024B13B1CA
S214402110024800F005B87047000000002D2140003E
S214402120014600200246034600F016B838B5084B74
S214402130084DED1AAC1018BFED1805D0013C55F807
S214402140043D9847002CF9D1BDE8384001F0B6B8B8
S214402150C8324000CC3240002DE9F047254C256877
S214402160D5F848410646884692469946CCB36068BC
S2144021701F2818DC431C7EB104EB80050121C5F8FE
S21440218088A0D4F8887101FA00F21743022EC4F8EA
S2144021908871C5F808911ED00230636044F82080EC
S2144021A00020BDE8F087144B03B34FF4C870FFF728
S2144021B0FDFC0446D0B1D5F84831002780E88800B9
S2144021C0C5F8484138460123C4F88871C4F88C7174
S2144021D0002EE1D0D0E7D4F88C110A43C4F88C2105
S2144021E0DAE705F5A674C5F84841C0E74FF0FF307A
S2144021F0BDE8F087A4324000AD1B40000E001280C0
S214402200FE05130011021200D5100CD40D34160131
S214402210172518A019031AF01B89220329182BF832
S2144022202C0131A032F033C43AB4363F04602780E4
S2144022303D0F3E803F40407F416A422944E545414C
S214402240470249644AA14B704C1A4D504E136400E5
S2144022506788681A1438243C253026725097517E79
S21440226052005300200021233814E900565557FFEA
S21440227058FF59FF5F04EC0013FF807F813F823296
S21440228083013811850086038701880589308D30A3
S2144022908F859330958599309B859C089D129E230B
S2144022A09F45A055A164A272A37FA48BA595A6A71F
S2144022B0A7B5A8CBA9DDAAECAB1ACE78CF6ED00ACC
S2144022C0D10CD284D390D41E5A245B1F5C885D60A8
S2144022D0AC6EBEFFBF0031A032F0823F1200363FE8
S2144022E0530033C41B8922032802FFFF0E001280CE
S2144022F0130011011200D5100C120D34172518A02A
S21440230019031AF01B89220329182BF82C0131A037
S21440231032F033C43AB4363F046027803D0F3E80E7
S2144023203F40407F416A422944E54541470249646F
S2144023304AA14B704C1A4D504E1364006788681A79
S2144023401438243C253026725097517E5200530054
S214402350200021233814E900565557FF58FF59FFEF
S2144023605F04EC0013FF807F813F82328301381187
S2144023708470850086038701880589308D308F8577
S2144023809330958599309B859C089D129E239F454A
S214402390A055A164A272A37FA48BA595A6A7A7B5B6
S2144023A0A8CBA9DDAAECAB1ACE78CF6ED00AD10C5A
S2144023B0D284D390D41E5A245B1F5C885D60AC6E7A
S2144023C0BEFFBF003128323C823F1201362F8304C5
S2144023D0530033F41B8A2203840084002802FFFF44
S2144023E00E001280FE05130011031200D5100CD407
S2144023F00D341601172518A019031AF01B8922035D
S21440240029182BF82C0131A032F033C43AB4363FA9
S214402410046027803D0F3E803F40407F416A42290E
S21440242044E54541470249644AA14B704C1A4D5019
S2144024304E1364006788681A1438243C2530267288
S2144024405097517E52005300200021233814E90053
S214402450565557FF58FF59FF5F04EC0013FF807F27
S214402460813F8232830138118500860387018805C3
S21440247089308D308F859330958599309B859C0823
S2144024809D129E239F45A055A164A272A37FA48B54
S214402490A595A6A7A7B5A8CBA9DDAAECAB1ACE787A
S2144024A0CF6ED00AD10CD284D390D41E5A245B1F50
S2144024B05C885D60AC6EBEFFBF0031503278823FB4
S2144024C01200363F530033C41B8922032802FFFF05
S2144024D00E001280130011011200D5100C120D349C
S2144024E0172518A019031AF01B89220329182BF860
S2144024F02C0131A032F033C43AB4363F0460278012
S2144025003D0F3E803F40407F416A422944E5454179
S214402510470249644AA14B704C1A4D504E13640012
S2144025206788681A1438243C253026725097517EA6
S21440253052005300200021233814E900565557FF17
S21440254058FF59FF5F04EC0013FF807F813F8232C3
S2144025508301381184708500860387018805893099
S2144025608D308F859330958599309B859C089D123C
S2144025709E239F45A055A164A272A37FA48BA595D8
S214402580A6A7A7B5A8CBA9DDAAECAB1ACE78CF6E86
S214402590D00AD10CD284D390D41E5A245B1F5C88B8
S2144025A05D60AC6EBEFFBF0031503278823F120194
S2144025B0362F8304530033F41B8A2203840084009E
S2144025C02802FFFF0E001280FE05130011021200C3
S2144025D0D5100CD40D341601172518A019031AF07F
S2144025E01B89220329182BF82C0131A032F033C462
S2144025F03AB4363F046027803D0F3E803F40407FE0
S214402600416A422944E54541470249644AA14B7024
S2144026104C1A4D504E1364006788681A1438243C90
S214402620253026725097517E5200530020002123B9
S214402630380784023814E900565557FF58FF59FFAB
S2144026405F04EC0013FF807F813F823283013811A4
S214402650850086038701880589308D308F859330C5
S214402660958599309B859C089D129E239F45A05535
S214402670A164A272A37FA48BA595A6A7A7B5A8CB55
S214402680A9DDAAECAB1ACE78CF6ED00AD10CD28494
S214402690D390D41E5A245B1F5C885D60AC6EBEFF30
S2144026A0BF0031503278823F1200363F530033C469
S2144026B01B8922032802FFFF0E001280FE0513002E
S2144026C011021200D5100CD40D341601172518A08F
S2144026D019031AF01B89220329182BF82C0131A064
S2144026E032F033C43AB4363F046027803D0F3E8014
S2144026F03F40407F416A422944E54541470249649C
S2144027004AA14B704C1A4D504E1364006788681AA5
S2144027101438243C253026725097517E5200530080
S214402720200021233814E900565557FF58FF59FF1B
S2144027305F04EC0013FF807F813F823283013811B3
S214402740850086038701880589308D308F859330D4
S214402750958599309B859C089D129E239F45A05544
S214402760A164A272A37FA48BA595A6A7A7B5A8CB64
S214402770A9DDAAECAB1ACE78CF6ED00AD10CD284A3
S214402780D390D41E5A245B1F5C885D60AC6EBEFF3F
S214402790BF0031503278823F1200363F530033C478
S2144027A01B8922032802FFFF0E001280FE0513003D
S2144027B011051200D5100CD40D341601172518A09B
S2144027C019031AF01B89220329182BF82C0131A073
S2144027D032F033C43AB4363F046027803D0F3E8023
S2144027E03F40407F416A422944E5454147024964AB
S2144027F04AA14B704C1A4D504E1364006788681AB5
S2144028001438243C253026725097517E520053008F
S214402810200021233814E900565557FF58FF59FF2A
S2144028205F04EC0013FF807F813F823283013811C2
S214402830850086038701880589308D308F859330E3
S214402840958599309B859C089D129E239F45A05553
S214402850A164A272A37FA48BA595A6A7A7B5A8CB73
S214402860A9DDAAECAB1ACE78CF6ED00AD10CD284B2
S214402870D390D41E5A245B1F5C885D60AC6EBEFF4E
S214402880BF0031503278823F1200363F530033C487
S2144028901B8922032802FFFF0E001280130011013D
S2144028A01200D5100C540D341601172518A0190324
S2144028B01AF01B89220329182BF82C0131A032F07C
S2144028C033C43AB4363F046027803D0F3E803F40D5
S2144028D0407F416A422944E54541470249644AA14E
S2144028E04B704C1A4D504E1364006788681A143863
S2144028F0243C253026725097517E520053002000CB
S21440290021233814E900565557FF58FF59FF5F04F6
S214402910EC0013FF807F813F823283013811847040
S214402920850086038701880589308D308F859330F2
S214402930958599309B859C089D129E239F45A05562
S214402940A164A272A37FA48BA595A6A7A7B5A8CB82
S214402950A9DDAAECAB1ACE78CF6ED00AD10CD284C1
S214402960D390D41E5A245B1F5C885D60AC6EBEFF5D
S214402970BF003128323C3400823F1200363F5300BD
S21440298033001B8922032802D900FFFF0E00128065
S214402990FE05130011011200D5100CD40D3416019B
S2144029A0172518A019031AF01B89220329182BF89B
S2144029B02C0131A032F033C43AB4363F046027804D
S2144029C03D0F3E803F40407F416A422944E54541B5
S2144029D0470249644AA14B704C1A4D504E1364004E
S2144029E06788681A1438243C253026725097517EE2
S2144029F052005300200021233814E900565557FF53
S214402A0058FF59FF5F04EC0013FF807F813F8232FE
S214402A1083013811850086038701880589308D300B
S214402A208F859330958599309B859C089D129E2373
S214402A309F45A055A164A272A37FA48BA595A6A787
S214402A40A7B5A8CBA9DDAAECAB1ACE78CF6ED00A34
S214402A50D10CD284D390D41E5A245B1F5C885D6010
S214402A60AC6EBEFFBF0031503278823F1200363F18
S214402A70530033C41B8922032802FFFF00000000D6
S214402A800000000000000000000000000000000001
S214402A900000000000000000FFCCFFCC000000005B
S214402AA00000000000000000F000F0000000000001
S214402AB0F000F000000000000CC00CC0FFFCFFFC63
S214402AC00CC00CC0FFFCFFFC0CC00CC00C601E70A1
S214402AD03F303330FFFCFFFC333033F039E018C072
S214402AE06000F00CF03C60F003C00F003C18F03C77
S214402AF0C03C00183CF07FF8C31CC78CCFCCDCEC45
S214402B007878303000FC00CC000000000000440024
S214402B10EC00F8007000000000000000000000001C
S214402B200FC03FF078786018C00CC00C0000000062
S214402B3000000000C00CC00C601878783FF00FC052
S214402B40000000000C600EE007C003803FF83FF82E
S214402B50038007C00EE00C60030003000300030080
S214402B603FF03FF00300030003000300004400EC86
S214402B7000F80070000000000000000000000000A8
S214402B8003000300030003000300030003000300E8
S214402B90030003000018003C003C00180000000042
S214402BA000000000000000000000000C003C00F0A8
S214402BB003C00F003C00F000C00000003FF07FF86C
S214402BC0E0FCC1CCC38CC70CCE0CFC1C7FF83FF09D
S214402BD000000000300C700CFFFCFFFC000C000CEA
S214402BE000000000300C701CE03CC07CC0ECC1CC47
S214402BF0C38CE70C7E0C3C0C30307038E01CC00CAC
S214402C00C00CC30CC30CE31C7FF83CF003C007C0E9
S214402C100EC01CC038C070C0FFFCFFFC00C000C027
S214402C20FC30FC38CC1CCC0CCC0CCC0CCC0CCE1CCD
S214402C30C7F8C3F03FF07FF8E31CC30CC30CC30CCB
S214402C40C30CE39C71F830F0C000C000C000C00068
S214402C50C3FCC7FCCE00DC00F800F0003CF07FF878
S214402C60E79CC30CC30CC30CC30CE79C7FF83CF03A
S214402C703C007E00E70CC30CC31CC338C370E7E0BF
S214402C807FC03F8000000000000018603CF03CF031
S214402C90186000000000000000000000000018441B
S214402CA03CEC3CF8187000000000000000000300F8
S214402CB007800FC01CE038707038E01CC00C000065
S214402CC00CC00CC00CC00CC00CC00CC00CC00CC05F
S214402CD00CC00CC00000C00CE01C703838701CE003
S214402CE00FC007800300000030007000E000C00006
S214402CF0C1ECC3ECC300E6007E003C0030F071F847
S214402D00E39CC30CC3FCC3FCC00CE01C7FF83FF044
S214402D103FFC7FFCE0C0C0C0C0C0C0C0C0C0E0C078
S214402D207FFC3FFCFFFCFFFCC30CC30CC30CC30C76
S214402D30C30CE79C7FF83CF03FF07FF8E01CC00CEB
S214402D40C00CC00CC00CE01C70383030FFFCFFFCE0
S214402D50C00CC00CC00CC00CC00CE01C7FF83FF090
S214402D60FFFCFFFCC30CC30CC30CC30CC30CC30C4E
S214402D70C00CC00CFFFCFFFCC300C300C300C30074
S214402D80C300C300C000C0003FF07FF8E01CC00C8A
S214402D90C00CC30CC30CE31C73F833F0FFFCFFFC01
S214402DA0030003000300030003000300FFFCFFFCD6
S214402DB000000000C00CC00CFFFCFFFCC00CC00CA8
S214402DC00000000000300038C01CC00CC00CC01C06
S214402DD0FFF8FFF0C000C000FFFCFFFC0780078044
S214402DE00FC01CE038707038E01CC00CFFFCFFFCC5
S214402DF0000C000C000C000C000C000C000C000C2E
S214402E00FFFCFFFC700038001F001F0038007000F9
S214402E10FFFCFFFCFFFCFFFC1C000E0007000380CD
S214402E2001C000E0FFFCFFFC3FF07FF8E01CC00C58
S214402E30C00CC00CC00CE01C7FF83FF0FFFCFFFC51
S214402E40C300C300C300C300C300E7007E003C00CD
S214402E503FF07FF8E01CC00CC0CCC0ECC07CE03833
S214402E607FFC3FECFFFCFFFCC300C380C380C3C0B5
S214402E70C3C0E7707E3C3C1C3C187E1CE70CC30C71
S214402E80C30CC30CC30CC39CE1F860F0C000C00088
S214402E90C000C000FFFCFFFCC000C000C000C00077
S214402EA0FFF0FFF8001C000C000C000C000C001C8F
S214402EB0FFF8FFF0FFC0FFE000700038001C001C69
S214402EC000380070FFE0FFC0FFF0FFF8001C003C39
S214402ED000F800F8003C001CFFF8FFF0F03CF87CDF
S214402EE01CE00FC0078007800FC01CE0F87CF03C59
S214402EF0FC00FE000700038001FC01FC0380070085
S214402F00FE00FC00C03CC07CC0ECC1CCC38CC70CEF
S214402F10CE0CDC0CF80CF00C00000000FFFCFFFCB4
S214402F20C00CC00CC00C0000000000003000300098
S214402F300C000C000300030000C000C0003000304E
S214402F4000000000C00CC00CC00CFFFCFFFC0000E2
S214402F50000000000C001C0038007000E000E0009C
S214402F60700038001C000C00000C000C000C000C1C
S214402F70000C000C000C000C000C000C00000000C4
S214402F80C000E0007000380018000000000000009C
S214402F90003006780EFC0CCC0CCC0CCC0CCC0ECCFA
S214402FA007FC03F8FFFCFFFC030C030C030C030CAC
S214402FB0030C039C01F800F003F007F80E1C0C0C01
S214402FC00C0C0C0C0C0C0E1C0738033000F001F8EF
S214402FD0039C030C030C030C030C030CFFFCFFFCCC
S214402FE003F007F80EDC0CCC0CCC0CCC0CCC0EDC76
S214402FF007D80390000003003FFC7FFCE300E3009B
S21440300070003000000000000318079C0FCC0CCC6A
S2144030100CCC0CCC0CCC0CDC0FF807F0FFFCFFFC07
S2144030200300030003000300038001FC00FC0000D3
S21440303000000000000000001BFC1BFC000000001D
S21440304000000000000000300038001C000C000C9F
S214403050001CCFF8CFF000000000FFFCFFFC00E0B3
S21440306001E003F007380E1C0C0C000000000000C6
S214403070C00CC00CFFFCFFFC000C000C0000000065
S2144030800FFC0FFC0E00070003C003C007000E0035
S2144030900FFC0FFC0FFC0FFC030007000E000C009B
S2144030A00C000E0007FC03FC03F007F80E1C0C0C8B
S2144030B00C0C0C0C0C0C0E1C07F803F00FFC0FFC51
S2144030C00CC00CC00CC00CC00CC00FC00780030066
S2144030D0030007800FC00CC00CC00CC00CC00CC056
S2144030E00FFC0FFC0FFC0FFC038007000E000C00CB
S2144030F00C000E00070003000318079C0FCC0CCCF6
S2144031000CCC0CCC0CCC0CFC0E78063000000C0022
S2144031100C00FFF0FFF80C1C0C1C0C380C300000A8
S2144031200FF00FF8001C000C000C000C000C001CEC
S2144031300FF80FF00FC00FE000700038001C001CA6
S214403140003800700FE00FC00FF00FF8001C001C96
S21440315000F800F8001C001C0FF80FF00C0C0E1CBA
S214403160073803F001E001E003F007380E1C0C0CB2
S2144031700C000E00070C039C01F801F003800700CA
S2144031800E000C000C0C0C1C0C3C0C7C0CEC0DCCFF
S2144031900F8C0F0C0E0C0C0C0000030007803FF049
S2144031A07CF8E01CC00CC00CC00C0000030C030CE8
S2144031B03FFC7FFCE30CC30CC00CE00C700C300CE6
S2144031C00000C00CC00CC00CE01C7CF83FF0078030
S2144031D003000000C000C000C000C000C000C00027
S2144031E0C000C000C000C000FFFCFFFCFFFCFFFCAE
S2144031F0FFFCFFFCFFFCFFFCFFFCFFFC4F56373795
S214403200343020696D6167652073656E736F720A2E
S21440321063617074757265206578616D706C650069
S214403220506C656173652057616974206475726976
S2144032306E67200A696E697469616C697A6174693F
S2144032406F6E0000506C65617365205072657373D5
S21440325020627574746F6E0A746F20737461727432
S2144032602070726F63657373696E670A206261725D
S214403270636F6465730000005072657373206275F7
S21440328074746F6E0A746F20737461727420646510
S214403290636F64696E67200A62726168210000008D
S2144032A04300000018000020F8B500BFF8BC08BC7A
S2144032B09E4670470D214000F1004000F8B500BF23
S2104032C0F8BC08BC9E467047CD0040009D
S2144032CCBFF35F8F0138FBD1704700BF00093D004C
S2144032DCF000400100000000000000000403002045
S2144032EC6C030020D4030020000000000000000007
S2144032FC000000000000000000000000000000007D
S21440330C000000000000000000000000A03240005A
S21440331C000000000000000000000000000000005C
S21440332C000000000000000000000000000000004C
S21440333C000000000000000000000000000000003C
S21440334C000000000000000000000000000000002C
S21440335C000000000000000000000000000000001C
S21440336C000000000000000000000000000000000C
S21440337C00000000000000000000000000000000FC
S21440338C01000000000000000E33CDAB34126DE699
S21440339CECDE05000B000000000000000000000002
S2144033AC00000000000000000000000000000000CC
S2144033BC00000000000000000000000000000000BC
S2144033CC00000000000000000000000000000000AC
S2144033DC000000000000000000000000000000009C
S21440370C18000020000000000000000044040020C8
S21440371C440400204C0400204C0400205404002098
S21440372C540400205C0400205C0400206404002048
S21440373C640400206C0400206C04002074040020F8
S21440374C740400207C0400207C04002084040020A8
S21440375C840400208C0400208C0400209404002058
S21440376C940400209C0400209C040020A404002008
S21440377CA4040020AC040020AC040020B4040020B8
S21440378CB4040020BC040020BC040020C404002068
S21440379CC4040020CC040020CC040020D404002018
S2144037ACD4040020DC040020DC040020E4040020C8
S2144037BCE4040020EC040020EC040020F404002078
S2144037CCF4040020FC040020FC0400200405002027
S2144037DC040500200C0500200C05002014050020D4
S2144037EC140500201C0500201C0500202405002084
S2144037FC240500202C0500202C0500203405002034
S21440380C340500203C0500203C05002044050020E3
S21440381C440500204C0500204C0500205405002093
S21440382C540500205C0500205C0500206405002043
S21440383C640500206C0500206C05002074050020F3
S21440384C740500207C0500207C05002084050020A3
S21440385C840500208C0500208C0500209405002053
S21440386C940500209C0500209C050020A405002003
S21440387CA4050020AC050020AC050020B4050020B3
S21440388CB4050020BC050020BC050020C405002063
S21440389CC4050020CC050020CC050020D405002013
S2144038ACD4050020DC050020DC050020E4050020C3
S2144038BCE4050020EC050020EC050020F405002073
S2144038CCF4050020FC050020FC0500200406002022
S2144038DC040600200C0600200C06002014060020CF
S2144038EC140600201C0600201C060020240600207F
S2144038FC240600202C0600202C060020340600202F
S21440390C340600203C0600203C06002044060020DE
S21440391C440600204C0600204C060020540600208E
S21440392C540600205C0600205C060020640600203E
S21440393C640600206C0600206C06002074060020EE
S21440394C740600207C0600207C060020840600209E
S21440395C840600208C0600208C060020940600204E
S21440396C940600209C0600209C060020A4060020FE
S21440397CA4060020AC060020AC060020B4060020AE
S21440398CB4060020BC060020BC060020C40600205E
S21440399CC4060020CC060020CC060020D40600200E
S2144039ACD4060020DC060020DC060020E4060020BE
S2144039BCE4060020EC060020EC060020F40600206E
S2144039CCF4060020FC060020FC060020040700201D
S2144039DC040700200C0700200C07002014070020CA
S2144039EC140700201C0700201C070020240700207A
S2144039FC240700202C0700202C070020340700202A
S214403A0C340700203C0700203C07002044070020D9
S214403A1C440700204C0700204C0700205407002089
S214403A2C540700205C0700205C0700206407002039
S214403A3C640700206C0700206C07002074070020E9
S214403A4C740700207C0700207C0700208407002099
S214403A5C840700208C0700208C0700209407002049
S214403A6C940700209C0700209C070020A4070020F9
S214403A7CA4070020AC070020AC070020B4070020A9
S214403A8CB4070020BC070020BC070020C407002059
S214403A9CC4070020CC070020CC070020D407002009
S214403AACD4070020DC070020DC070020E4070020B9
S214403ABCE4070020EC070020EC070020F407002069
S214403ACCF4070020FC070020FC0700200408002018
S214403ADC040800200C0800200C08002014080020C5
S214403AEC140800201C0800201C0800202408002075
S214403AFC240800202C0800202C0800203408002025
S214403B0C340800203C0800203C080020000002003E
S208403B1CFFFFFFFF64
S8044010E1CA
