:020000040040BA
:10000000783D00206D1140006911400069114000E9
:1000100069114000691140006911400000000000B2
:100020000000000000000000000000006911400016
:10003000691140000000000069114000D15C4000DF
:1000400069114000691140006911400069114000C8
:100050006911400069114000691140000000000072
:10006000691140006911400000000000B50D40001A
:10007000C90D4000DD0D40006911400069114000CC
:1000800000000000000000006911400069114000FC
:100090006911400069114000691140006911400078
:1000A0006911400069114000691140006911400068
:1000B0006911400069114000691140006911400058
:1000C00069114000691140006911400010B5054CEC
:1000D000237833B9044B13B10448AFF300800123F4
:1000E000237010BDB408002000000000340141005E
:1000F000084B10B51BB108480849AFF30080084809
:10010000036803B910BD074B002BFBD0BDE81040BE
:10011000184700BF0000000034014100B80800206B
:10012000340141000000000010B50E480E4B984706
:1001300000203E210D4B98470D4CA0470028FCD0D5
:100140000C4B98470C4A0D4BDA620D4CA047002827
:10015000FCD010200B4B98470B4B98470148024BA3
:10016000984710BD000E270731134000550E400080
:10017000A90E4000F50E4000013F130000040E40A0
:10018000010F4000F10D40001D124000A8B92DE9FB
:10019000F0410C469046002A0ADD8F18084E094DA2
:1001A000306821462B6898470134BC42F8D101E001
:1001B0004FF000084046BDE8F0814FF0FF30704737
:1001C000680D0020600D00200138022818D82DE9A4
:1001D000F0410E46144682B10D46DFF838800C4FD0
:1001E000D8F8000015F8011B3B68984700280ADB87
:1001F000A81B013CF4D1BDE8F0810020BDE8F081EE
:100200004FF0FF3070474FF0FF30BDE8F08100BF86
:10021000640D0020680D002070B54FF40042674B5C
:100220005A604C204FF06051654CA0470220654950
:10023000A04703204FF00061A04704204FF0006169
:10024000A0472D204FF08051A0475F4D4020294608
:10025000A04741202946A04742202946A0474320E5
:100260002946A04744202946A04745202946A047C3
:1002700046202946A04747202946A0474B2029462B
:10028000A04748202946A047504E16203146A04797
:1002900053202946A0474D204FF04051A047402011
:1002A0002946A04741202946A04742202946A04789
:1002B00043202946A04744202946A04745202946F7
:1002C000A04746202946A04747202946A0474B2063
:1002D0002946A04748202946A0474E202946A04746
:1002E00049204FF04051A04752202946A0475320B3
:1002F0002946A04754202946A04755202946A04713
:1003000056202946A04757202946A047582029466D
:10031000A04759202946A0475A202946A0475B20DC
:100320002946A0475C202946A0475D202946A047D2
:100330005E202946A0475F202946A047122031466B
:10034000A04713203146A04714203146A047002083
:100350003146A04701203146A04750202946A047FA
:100360004A204FF06051A0474F204FF06051A04706
:1003700015204FF04051A04710207121A0470F20B9
:100380007121A04705F1005518202946A0471920E2
:100390002946A0471A202946A0471B202946A047E6
:1003A0001C202946A0471D202946A0471E2029467B
:1003B000A0471F202946A04770BD00BF50140E4023
:1003C000B90B400079000028010000080100001866
:1003D00008B520B108461146034B984708BD0846AA
:1003E0001146024B984708BD810A40007D0A400033
:1003F00008B5014B984708BDE90F400008B5014B0F
:10040000984708BDC91040002DE9F04186B0074665
:100410004C1C0125124EDFF84C8013E0FE2B03D15B
:100420004AF26A70C0470CE08DF80430029521232F
:100430008DF8143004950392384601A9B047082876
:100440000AD00234224614F8013CFF2BE6D1217871
:10045000FF29E9D1002000E0082006B0BDE8F081C6
:10046000FD03400001000020F0B58DB007460023D9
:100470000093019321268DF818600A238DF8083027
:1004800001240394CDF810D0059402A93A4DA84751
:100490008DF82C600B238DF81C30089401AB099368
:1004A0000A94384607A9A847019B009A43EA022309
:1004B000C3F30723772B35D10023019302931C2329
:1004C0008DF81C3008948DF82C6001AB09930A94C8
:1004D000384607A9A8471D238DF81C3008948DF8CD
:1004E0002C6002AB09930A94384607A9A847019BE0
:1004F0007F2B3ED1029BA22B3BD115E001AB099390
:10050000384607A91D4B9847CDF824D0384607A98F
:10051000194B98470198009B181A18BF012029E031
:10052000012027E0012025E000230093019302939E
:1005300001238DF81C30089321228DF82C200A937A
:1005400001AB0993384607A90B4CA0470CABAD2271
:1005500043F8282D0993384607A9084B9847CDF84A
:1005600024D0384607A9A047029B009A9A42D7D1C7
:10057000C4E701200DB0F0BDF1034000FD034000D1
:1005800008B5082914D8DFE801F015051707090B8D
:100590000D0F11000B4910E00B490EE00B490CE068
:1005A0000B490AE00B4908E00B4906E00B4904E05F
:1005B000012008BD0A4900E00A490B4B984700207A
:1005C00008BD00BF14DF4000C0E4400004E040006C
:1005D000CCE3400020DE4000F8E0400030DD400089
:1005E000DCE24000ECE140000904400070B483B05C
:1005F000C0F11100102828BF1020002808BF0120DA
:100600000021104E4FF40055182475630194019B8E
:100610005A1E0192002BFAD135630194019B5A1E98
:100620000192002BFAD101318142EED34FF4003315
:100630000193019B5A1E0192002BFAD103B070BCAA
:10064000704700BF00120E4082B04FF40052064BBC
:100650005A634FF400330193019B5A1E0192002B01
:10066000FAD102B0704700BF00120E40C0F307423B
:10067000034B1A70C0F307221A70C0B2187070478B
:10068000020000624FF0C44300221A7018700A0A78
:1006900002331A70C9B21970704700BF82B00023CC
:1006A0000193019B984211D90021094A0191019BB4
:1006B000934205D8019B01330193019B9342F9D9E1
:1006C000019B01330193019B8342EFD302B070473A
:1006D0009F86010008B5072040F23311014B98476F
:1006E00008BD00BF85064000044A131F02F56F7263
:1006F00043F8040F9342FBD1704700BFD00800209D
:100700002DE9F0410F4615461C461FFA80F850208F
:100710004146094EB047691E4144512089B2B04755
:10072000BDB252202946B047611E2944532089B2E8
:10073000B047BDE8F08100BF8506400038B50346EC
:100740000D4620201946034CA04721202946A047EA
:1007500038BD00BF850640004FF0C44300221A7028
:100760001A705F4A1178137843EA01231BB25D4A7D
:10077000934240F0B38070B50546072033215A4CB0
:10078000A04710200021A04700200121A047012000
:100790004FF48071A04702204FF4E061A04704208D
:1007A0000021A047082040F20721A047092000218E
:1007B000A0470A200021A0470C200021A0470D20BF
:1007C0000021A0470F200021A04710200021A047B2
:1007D00011200021A04712200021A0471320002152
:1007E000A047C820414EB047102041F29021A047B9
:1007F000112040F22721A0473220B04712201B21B0
:10080000A0473220B04713204FF48851A047292039
:100810001921A0472B200D21A0473220B0473020BE
:100820000021A04731204FF40171A04732204FF43E
:100830000071A04735200721A047362041F204412E
:10084000A047372040F20571A047382040F205311B
:10085000A047392040F20771A0473C2040F20171C7
:10086000A0473D200E21A04703204DF21001A047D4
:1008700060204FF42741A04761200121A0476A2052
:100880000021A04780200021A04781200021A0470F
:1008900082200021A04783200021A047842000213E
:1008A000A04785200021A04790201021A04792203A
:1008B0004FF4C061A04795204FF48871A0470020F5
:1008C00001462A686B680A4CA047A868094B9847FC
:1008D00000200146084B9847002070BD012070475A
:1008E000020000622593FFFF850640009D06400040
:1008F00001074000E90640003D07400070B506468C
:1009000000200146074B98474FF0C44300221A705D
:1009100022221A704FF49634034D3046A847013C0A
:10092000FBD170BD3D0740006D064000EF2813D895
:10093000B1F5A07F12D210B580B289B2084B9847AA
:100940004FF0C44300241C7022221A70054B186813
:10095000054B9847204610BD012070470120704785
:100960003D074000D00800206D06400070B50546E8
:100970000C46064EB047A8B2A1B2054B98474FF0BF
:10098000C44300221A7022221A7070BD0107400071
:100990003D0740002DE9F04F85B003900292137897
:1009A000002B46D08B460190DFF890900A2B04D1A3
:1009B0000BF1100B039B019335E003EB83031E4EF9
:1009C00006EB8303A3F27F26019A13460A330093B2
:1009D0009046072437460BEB040A3D4616F8013CC7
:1009E000234113F0010F03D04046C4EB0A01C8476E
:1009F000013CB4F1FF3FF0D107240BF10F072B7836
:100A0000234113F0010F02D04046391BC847013C77
:100A1000012CF4D1023608F10108009B9845D8D189
:100A2000019B0C330193029A12F8013F0292002BB2
:100A3000BCD105B0BDE8F08FB0E540002D09400005
:100A400009014250704700BF00EB01114A60704736
:100A500000EB01118A60704700EB0111CA6070471A
:100A6000C0F8841052004FF40043B3FBF2F2013A95
:100A7000C2F30D02C0F88C20704700BF01637047BD
:100A8000416370474264B1F1C05F2FD007D8B1F124
:100A9000006F14D0B1F1805F1ED039B97047B1F149
:100AA000205F37D004D8B1F1005F29D04260704791
:100AB000B1F1405F2ED0B1F1605F2BD0F6E710B4FA
:100AC000016F046FD343214019400167416F446FA8
:100AD00021400B4043671AE0036F13430367436FE2
:100AE000416F0B4023EA02034367DFE7036F016FA7
:100AF0000B4023EA02030367436F13434367D5E7C1
:100B0000036F13430367436F13434367CEE74260AA
:100B10005DF8044B704700BF416412F0010F14BF31
:100B20004166016612F00A0F14BF0162416212F0C1
:100B3000020F02D0C0F8801004E012F0080F18BFB6
:100B4000C0F8841041610160704700BF10B4416477
:100B5000019C0CB1416600E001660BB1016500E04B
:100B600041650AB1016300E04163016101605DF824
:100B7000044B704712F0100F10D0C0F8B01012F0F4
:100B8000200F14BFC0F8D410C0F8D01012F0400FDE
:100B900014BFC0F8C010C0F8C4107047C0F8B4103B
:100BA000704700BFC36C0164704700BF4164704769
:100BB000C06C7047806C704770B582B00D464309B9
:100BC00003F5001303F207735C0201F0F043B3F185
:100BD000005F47D009D8B3F1805F21D0B3F1C05F87
:100BE0002FD0B3F1006F6FD109E0B3F1405F55D062
:100BF000B3F1605F52D0B3F1205F44D064E000F005
:100C00001F000126864020464FF000613246304BDF
:100C1000984715F0010F14BF66662666012054E060
:100C200000F01F000126864020464FF080513246DA
:100C3000274B984715F0010F14BF66662666012002
:100C400043E000F01F000126864020464FF0C051CF
:100C500032461F4B984715F0010F14BF6666266693
:100C6000012032E000F01F000126864020464FF0B0
:100C700000513246164B984715F0010F14BF6666B7
:100C80002666012021E000F01F030126204606FA17
:100C900003F12A460F4B9847304616E000F01F0339
:100CA000012605F0605205EA06010091204606FA89
:100CB00003F1B2F1605F14BF00220122C5F380038B
:100CC000054CA047304600E0002002B070BD00BFD8
:100CD000850A4000190B40004D0B4000D0F8503100
:100CE00043F00103C0F850310122014B1A607047F4
:100CF0006C0D0020D0F8503123F00103C0F85031C2
:100D00000022014B1A6070476C0D00202DE9F8435A
:100D100081468846124B984705464846114B9847EE
:100D2000054013D0104C04F160062368434508D1F8
:100D30006168294205D0E36840469847636825EA20
:100D40000305B44202D01034002DEED1074B1B68CE
:100D500023B1074B1B680BB148469847BDE8F883A1
:100D6000B10B4000B50B4000980C00206C0D00202A
:100D7000940C0020F8B50C4C2468062C11D81546AC
:100D80000A4F2201BE18B9507560B360069AF2602E
:100D90000134054A146029461A46054B984700203D
:100DA000F8BD0120F8BD00BF900C0020980C002079
:100DB000750B400008B502480B21024B984708BD4F
:100DC000000E0E400D0D400008B502480C21024BEC
:100DD000984708BD00100E400D0D400008B50248B0
:100DE0000D21024B984708BD00120E400D0D40002A
:100DF000174A136B23F0700318431063936E13F0BC
:100E0000080F03D009E0013B03D11CE04FF400635D
:100E10000F498A6E12F0080FF5D00D4B1A6B42F095
:100E200003021A63986E10F0080004D00020704787
:100E3000013B03D109E04FF4006305498A6E12F0CB
:100E4000080FF5D07047012070470120704700BFA0
:100E500000040E4038B111490B6A114A1A40114B77
:100E600013430B6270470D4A136A23F45C1323F09B
:100E7000030343F45C1343F00103090289B20B43FB
:100E80001362936E13F0010FFBD0044A136A43F010
:100E90009B7343F480331362704700BF00040E401D
:100EA000FCFFC8FE02003701024B986E00F4803050
:100EB000704700BF00040E4010B40C4C4FF00053BC
:100EC000A3620B4B03EA004040F00050D2B2024351
:100ED000090201F47C510A43A2622246936E13F088
:100EE000020FFBD05DF8044B704700BF00040E40BA
:100EF0000000FF070022014BDA62704700040E4039
:100F0000024B986E00F00400704700BF00040E40D2
:100F100022281ED81F280CD8114B9A690123834020
:100F20001A40934217D0012383400D4A13610020D9
:100F300070470B4BD3F808212038012383401A4017
:100F400093420AD001238340054AC2F800310020B1
:100F5000704701207047002070470020704700BF95
:100F600000040E400F4B994219D84900B2FBF1F230
:100F7000043AFF2A07D9002301335208FF2A03D974
:100F8000072BF9D100E00023110289B21B0403F4FE
:100F9000E0230B43D2B21A430261002070470120C4
:100FA000704700BF801A060038B504460D464FF062
:100FB000FF338362036A80230360036B08230360AB
:100FC000202303600423036049682A68054B98477F
:100FD000012814BF002001206B7A012B04BF40239D
:100FE000236038BD650F40002DE9F041CA688D6867
:100FF000002A48D0002646604B681B0203F4407369
:1010000043F480540B7C1B0403F4FE03234343602E
:10101000C6604C685CB10B78012CC4BF4E7846EAC0
:101020000323022C04DD897841EA032300E0002336
:10103000C360012A03D10323036001272FE00123AA
:10104000036000272BE02146036A13F4807F1DD143
:101050004C1EF1B1012A04D177BBC0F8008067466D
:101060002AE013F0020F05D0036B2B70013A013513
:10107000314600E02146002AE6D1036A13F0010F51
:10108000FBD0036A1CE04FF0010E19E04FF0050E93
:1010900016E04FF0090E13E04FF0050E10E0036A62
:1010A00013F4807EF8D143F6972443F698264FF048
:1010B00002084FF0010CCDE713F0020FC3D0D3E7C5
:1010C0007046BDE8F08100BF0346CA688868002A00
:1010D00040D070B400265E600C7C240404F4FE054D
:1010E0004C68240204F440742C435C60DE604D685C
:1010F0005DB10C78012DC4BF4E7846EA0424022D60
:1011000004DD897841EA042400E00024DC600BE07F
:10111000196A11F4807F1FD111F0040FF8D010F874
:10112000011B5963013A07D0196A11F4807F15D168
:1011300011F0040FECD0F2E71A6A12F480700FD1AC
:1011400012F0040FF8D002221A601A6A12F0010F8E
:10115000FBD006E001207047052002E0052000E0FA
:10116000052070BC704700BFFEE700BF08B5204BEC
:10117000204A9A4213D9204B1D4A9A421FD2114647
:10118000043203339B1A23F003030433194A134434
:1011900052F8040B41F8040B9A42F9D10FE0144BBA
:1011A000144A9A420BD2144B114A9A1A13488118C6
:1011B0002AB151F8042943F8042D8142F9D100BF26
:1011C0000F4B104A9A420BD2131D0F4AD21A22F02B
:1011D00003021A44043B002143F8041B9342FBD151
:1011E0000A4B0B4A9A600B4B98470B4B9847FEE70C
:1011F0000000002034014100B4080020300141000B
:10120000780D0020B40800207B0D002000ED00E0E8
:1012100000004000656D40000D5D40003D4B1B6BC4
:1012200003F00303032B5DD8DFE803F0020E2B2B42
:10123000394B5B6913F0800F14BF4FF400424FF439
:10124000FA42364B1A604DE0324B1B6A13F0807F36
:1012500003D0334A314B1A6044E0324A2F4B1A60B4
:101260002C4B1B6A03F07003102B02D0202B04D0F0
:1012700038E02D4A294B1A6034E0294A274B1A607E
:1012800030E0244B1B6A13F0807F03D0244A234BA9
:101290001A6012E0234A214B1A601E4B1B6A03F0AE
:1012A0007003102B02D0202B04D006E01E4A1B4BEB
:1012B0001A6002E01A4A194B1A60164B1B6B03F0B6
:1012C0000303022B134A07BF936A926AD36AD26A56
:1012D0001248C3F30A41036801FB0333D2B2B3FBE4
:1012E000F2F303600B4B1B6B03F07003702B07D101
:1012F0000A4A13680D49A1FB03135B08136070478A
:10130000044B1A6B0549C2F302120B68D3400B6001
:10131000704700BF00040E4010140E400C00002067
:10132000001BB70000093D0000127A00ABAAAAAA70
:10133000124B984204D84FF08062114B1A607047EC
:10134000104B984203D8104A0D4B1A6070470F4B50
:10135000984203D80E4A0A4B1A6070470D4B9842C8
:1013600003D80D4A064B1A6070470C4B984294BF45
:101370004FF004220A4A024B1A607047FF2C3101D9
:10138000000A0E40FF59620200010004FF86930329
:1013900000020004FFB3C40400030004FFE0F505ED
:1013A00000050004094B1B6813B9094A074B1A6072
:1013B000064B1B681A180749914204DB1046034A82
:1013C0001060184670474FF0FF307047080D00203E
:1013D000783D0020FCFF01204FF0FF30704700BF38
:1013E0004FF400534B600020704700BF012070474E
:1013F0000020704708B501460148024B9847FEE7B8
:1014000030ED4000B56D4000704700BF4FF0FF3039
:10141000704700BF2DE9F04F8DB0017801F00F0546
:1014200000EB85056A68D0F808311A448B1F03F079
:101430000F0300EB83035B68D21AC0F80821B0F8F1
:10144000043143F30B13002B02DA01F0010316E021
:1014500090F80441C4F34203013303F0070363F33C
:10146000430480F80441062B08D1E3B203F00103E2
:1014700001F001041B1B18BF012300E00123002B16
:1014800040F04087044690F804316FF3430380F83E
:101490000431042A40F2B18711F0010F58D04B1EDD
:1014A00003F00F0300EB830358686B68C51816231D
:1014B00003FB05F30133B3FBF2F3033BC3F3470331
:1014C000072B88BF4FF0FF338D1E05F00F0504EB8F
:1014D00085056E683044162505FB00F00130B0FB31
:1014E000F2F00338C0F34700072888BF4FF0FF3001
:1014F000000240EA0333C81E00F00F0004EB800036
:1015000040688519162606FB05F50135B5FBF2F591
:10151000033DC5F34705072D88BF4FF0FF3543EA6C
:101520000515043901F00F0104EB810149680844F5
:10153000314601FB00F10131B1FBF2F10339C1F396
:101540004701072988BF4FF0FF3145EA01035BE0FF
:101550000B1F03F00F0300EB830358684B1F03F0CE
:101560000F0304EB83035B68C518162303FB05F325
:101570000133B3FBF2F3033BC3F34703072B88BFED
:101580004FF0FF33CD1E05F00F0504EB85056E68A7
:101590003044162505FB00F00130B0FBF2F00338B3
:1015A000C0F34700072888BF4FF0FF30000240EA31
:1015B00003308B1E03F00F0304EB83035D682E449E
:1015C000162303FB06F30133B3FBF2F3033BC3F330
:1015D0004703072B88BF4FF0FF3340EA031301395D
:1015E00001F00F0104EB810149680D44162101FB54
:1015F00005F10131B1FBF2F10339C1F347010729CC
:1016000088BF4FF0FF310B43002BC0F2F68644F247
:1016100044410B4276D013F4884F14BF01200020C0
:10162000002800F07D861D1105F0F005C3F303319D
:101630000D43190101F4706129431B039BB20B4355
:1016400040F241318B423ED014DC342B33D004DCE9
:10165000142B46D0252B49D000E140F243118B4298
:101660002DD040F243218B422BD0B3F59A7F40F02E
:10167000F58022E041F234118B422CD00DDC41F296
:1016800024018B4223D041F214118B4221D040F22D
:1016900052318B4240F0E28017E041F243218B420D
:1016A0001DD041F241418B4224D041F242218B4274
:1016B00040F0D48011E0022316E0032314E0042359
:1016C00012E0052310E006230EE007230CE00823B8
:1016D0000AE0092308E00A2306E00B2304E00C23B8
:1016E00002E0002300E0002308B906E001230E33E6
:1016F000DBB202E00D2300E00D23B5490B4493F863
:1017000051104CE0D81000F00600C3F3400108432C
:10171000591101F018010143D81100F0600041EAAD
:101720000007AC49CD5D13F0010F14BF05F00F05A4
:101730002D090F2D00F05686C3F3402646EAE32616
:10174000F1B2072911D9A44A1268D068A34A0092BD
:10175000A34A01920293039704950591A149A24AD5
:101760008623A24DA84700F03DBEA148405C054439
:10177000EDB2502D11D9984A1268D068974A00925C
:101780009C4A019202930397049105959A49964ABF
:101790008A23964DA84700F025BE8D4B595D4BB26C
:1017A000B3F1FF3F00F02986237813F0010F13D027
:1017B000981E00F00F0004EB80001D1F05F00F05C0
:1017C00004EB850546686868304403F00F0304EBBA
:1017D00083035B68184413E0DD1E05F00F0504EB7E
:1017E0008505581E00F00F0004EB80006D6840680E
:1017F0002844053B03F00F0304EB83035B681844A4
:101800002C2303FB00F3B3FBF2F211F0800F16D090
:1018100001F07F033C2B06D82F2B12D8172B0CBFBF
:10182000202310230EE04F2B04D84D2B0CBF202378
:10183000102307E0672B34BF2023102302E0182376
:1018400000E020235BB2D81F8242C0F0D685073368
:101850009A4200F2D28501F07F0602E0FF2600E006
:10186000FF26B4F8043143F30B139DB21BB2002BD7
:1018700035DAF2B2A2F16703DBB2042B00F2448541
:1018800073B26A2B00F042852378063B03F00F0306
:1018900004EB83035B683BB1D4F8081101EB410111
:1018A000B3EB910FC0F03485B4F80431012161F33A
:1018B0000F13A4F8043171B26B2994F804310CBFF2
:1018C00043F00F036FF3000384F8043184F806211A
:1018D000D4F80831C4F80C31002000F0F0BD16F047
:1018E000800F1DD12DB20135202D40F28E85636D04
:1018F0009D42C0F08A85B5F5807F11D810339D4296
:1019000005D2B3F5807F28BF4FF480731D46E06D8C
:1019100029463A4B984718B1E065656500F075BDFA
:10192000B4F8043143F30B13012B17DDB4F8463040
:10193000802B10D0284A1268D068314A0092314A70
:1019400001920293802303932F49304A40F20713F8
:10195000264DA84702E00023A4F84630B4F804312D
:101960004FF0FF3262F30F13A4F80431002000F0AF
:10197000A6BD991A00E0D11AB3EB810F48D2B4F892
:10198000043143F30B13012B17DDB4F84630802BE1
:1019900010D0114A1268D068194A0092194A01926F
:1019A0000293802303931849184A40F207130F4DFE
:1019B000A84702E00023A4F84630B4F804314FF001
:1019C000FF3262F30F13A4F80431002000F077BD5A
:1019D000A0F2400070ED4000400400200CF34000F5
:1019E00084EE40000CEE40005CEE40005D6740007D
:1019F00098F24000E0EE400090EE40009977400001
:101A0000F0ED400058EF4000ECEE400028EF4000C1
:101A1000C4F80C21676DB4F8045145F30B152BB2D3
:101A20009F421BD8AC4B1B68D3F80C80E06D394645
:101A3000AA4B9847AA4B0093AA4B019302972DB249
:101A4000039571B2049105904046A749A74A4FF407
:101A50000473A74CA047002000F031BDB4F8043156
:101A600023F00F039BB2102B0BD1B4F84630002BA0
:101A700040F0D4848023A4F84630E36D94F8062126
:101A80001A70E06DB4F8043143F30B12C2F30B018A
:101A9000013161F30F13A4F80431F3B212B283548D
:101AA000B4F8041141F30B110AB2022A40F3328454
:101AB00094F8042112F0010206D0673BDBB2022B3E
:101AC00008D9002000F0FBBC76B26A2E05D00020B9
:101AD00000F0F5BC0BB2013B00E00023E06DC65CFA
:101AE000662E40F2A584673E0FFA81FCBCF1030725
:101AF0005CD0662E20D902E0662E23D900E00025B6
:101B0000754B1B68D3F80C9094F8048108F0010819
:101B100009B2724B9847774B0093774B0193CDF8FE
:101B200008800397049605950690484673496F4AC6
:101B3000FF236F4DA8479BE30BB2013BDB1B013F2B
:101B4000002501E0013F013307F10108002A14BF1D
:101B50009E46C64610F80EE07544662D1FD9673DB7
:101B6000662D1CD95C4B1B68D3F80C9094F804715B
:101B700007F0010709B2594B98475E4B0093604B41
:101B800001930297CDF80C8004960595069048467F
:101B90005A49564A4FF48373554DA84768E32E447B
:101BA000662E40F24D84673E002FA5D112B9ACF1EC
:101BB000020C01E04FF0010C10F80C30B34240F081
:101BC0006C840023A36494F8042102F001056B00E7
:101BD000C3F10103E36412F0010F3ED0B4F8043105
:101BE00043F30B1399B21BB203EBD3735B0815D00D
:101BF00000220BB2013B9B1AE16D885CCD5C8D54D9
:101C0000E16DC8540132B4F8043143F30B1399B2B7
:101C10001BB203EBD373B2EB630FEAD3E06D00FAB0
:101C200081F313F8013C6B2B36D02B4B1B68DE681D
:101C300094F8045105F0010509B2284B9847314B3F
:101C40000093314B01930295039030462F49274A68
:101C500040F25B13264DA8470AE3E06DB4F8041187
:101C600041F30B1100FA81F313F8013C6A2B13D0F6
:101C7000194B1B68DE6809B2184B9847214B00933B
:101C8000234B01930295039030462049174A4FF4A5
:101C9000B073174DA847EBE2E06D03780A93A3F108
:101CA00067095FFA89F9B9F1020F37D90A4B1B6846
:101CB000DD68B4F8041141F30B11084B9847114B40
:101CC0000093144B0193029028461349074A4FF49E
:101CD000B273074DA847CBE240040020AD3040006E
:101CE00080F24000B4EF40006CEF40005CEE40003A
:101CF0005D6740004CED400028F04000DCEF400004
:101D000034F0400000EE400078F0400040F0400029
:101D1000A8F0400008F14000D8F040000A9B692B71
:101D200014BF002301230993B4F8043143F30B13C8
:101D300099B21BB2023B012B40F2968190F80180D0
:101D400018F0800F0AD14FF0000B012725E0E06D5D
:101D500010F8078018F0800F1FD002E04FF0000B42
:101D60000127934B1B68DE6809B2924B9847924B50
:101D70000093924B01930297CDF80CB0CDF81080F0
:101D8000CDF81490099B0693079030468C498D4AF4
:101D900040F26F138C4DA8476AE219F0020F00F071
:101DA0005483B8F1630F40F2538153E308F12003E9
:101DB000DBB2B9F1000F00F05783B9F1810F03D105
:101DC0005BE3A8F14003DBB20BF1010200F80B303A
:101DD00019F0800F00F03B8109F07F09934637E14D
:101DE000099BDBB9724B1B68DD6809B2714B9847E0
:101DF000714B0093754B01930297CDF80CB0CDF861
:101E00001080CDF8149000230693079028466C4963
:101E10006C4A4FF4C3736C4DA84729E2099BC3EB8E
:101E2000070A0AFA81F5202D15D9666DB54212D33D
:101E3000B5F5807F0FD81036B54205D2B6F5807F54
:101E400028BF4FF4807600E02E463146604B98471D
:101E500008B1E0656665E16DB4F8042142F30B1248
:101E6000C819099E3144921B5A4B9847B4F8043163
:101E700065F30F13A4F80431BAF1000F6DD05D467D
:101E80000026E26DD3199B5D4FF030015155312B87
:101E900005D9323BDBB2E16D4A5D05324A551D2B57
:101EA00005D91E3BDBB2E16D4A5D03324A55132B67
:101EB00005D9143BDBB2E16D4A5D02324A55092B6C
:101EC00040F2DF820A3BDBB2E16D4A5D01324A55E6
:101ED000E06D425D392A1BD9354B1B68DB680B93DB
:101EE000B4F8041141F30B11324B98473A4B00936D
:101EF0003A4B0193099A029203970496059506902E
:101F00000B9837492F4A4FF49F732F4DA84724E071
:101F1000092B1BD9264B1B68DB680B93B4F8041103
:101F200041F30B11234B98472B4B00932D4B0193FF
:101F3000099A029203970496059506900B982849F2
:101F4000204A40F24113204DA84706E02844303390
:101F5000437001360235564593D157440BEB4A0B7B
:101F600000230993B8F1620F03D86AD149F08009C0
:101F700067E0B8F1660F37D1012F04D1A36C43F0AD
:101F80000103A3645DE0022F04D1A36C43F00203BC
:101F9000A36456E0B4F8043143F30B13033B9F42B0
:101FA0004FD2E36D1D2203F80B200BF1010B48E02B
:101FB00040040020AD30400000EE400084F14000BD
:101FC0002CF140005CEE40005D67400094F1400061
:101FD000997740002D76400060ED4000E8F1400028
:101FE0009CF1400000F24000B8F1660F00F2408121
:101FF000C8F16503DBB2A8F16302D2B2022A1FD98D
:10200000AA4B1B68DD68B4F80411E06D41F30B11B5
:10201000A74B9847A74B0093A74B01930297CDF886
:102020000CB0CDF81080CDF81490099B0693079062
:102030002846A249A24A4FF4D573A24DA84717E1FA
:10204000994619F0020F03D07B1C099300E09346D8
:102050000137B4F8043143F30B1399B21BB2023BBE
:102060009F42FFF474AE02E04FF0000B012719F01D
:10207000020F00F0C580099BE3B98C4B1B68DD683B
:10208000E06D09B28A4B98478A4B00938E4B0193BF
:102090000297CDF80CB00A9B0493CDF8149000235E
:1020A0000693079028468549854A40F2B913854D25
:1020B000A847DDE0099BFE1A06FA81F8B8F1200F67
:1020C00017D9636D984514D3B8F5807F11D81033B4
:1020D000984506D2B3F5807F28BF4FF480731D4624
:1020E00000E04546E06D2946784B984708B1E06529
:1020F0006565E16DB4F8042142F30B12C819099D1E
:102100002944521B724B9847B4F8043168F30F13FB
:10211000A4F80431002E71D05D464FF00008302144
:10212000E26DD31913F808305155312B05D9323BE4
:10213000DBB2E06D425D053242551D2B05D91E3BD9
:10214000DBB2E06D425D03324255132B05D9143BDF
:10215000DBB2E06D425D02324255092B40F29781BD
:102160000A3BDBB2E06D425D01324255E06D425DFB
:10217000392A1CD94D4B1B68D3F80C90B4F80411C4
:1021800041F30B114A4B9847524B0093524B01932A
:10219000099B02930397CDF8108005950690484659
:1021A0004E49474A4FF49F73464DA84726E0092BF6
:1021B0001CD93E4B1B68D3F80C90B4F8041141F3C2
:1021C0000B113B4B9847434B0093454B0193099BA5
:1021D00002930397CDF810800595069048463F4935
:1021E000374A40F24113374DA84707E028443033BF
:1021F000437008F101080235B04591D10BEB460B55
:10220000636D5B4518D8294B1B68DD68B4F8041171
:10221000E06D41F30B11264B9847264B0093314B51
:102220000193CDF808B0039028462F49244A40F284
:10223000BD13244DA8471BE0C4F858B0E36D00223D
:1022400003F80B20B4F804316BF30F13A4F8043136
:1022500043F30B13D4F814219342C0F21E81D4F837
:102260001821002A40F32281934200F316811DE1D8
:10227000B4F804314FF0FF3262F30F13A4F80431C5
:10228000B4F84630802B39D0084A126817490091BB
:1022900017490191029380230393D0681549164A88
:1022A00040F20713074CA047002008E1400400203B
:1022B000AD30400000EE40000CF240002CF1400038
:1022C0005CEE40005D67400094F14000997740006B
:1022D0002D76400060ED4000E8F140009CF14000A8
:1022E00000F2400068F2400030F24000F0ED4000A3
:1022F00058EF4000ECEE400028EF40000020A4F82A
:102300004600DCE00020DAE00020D8E00020D6E043
:102310000020D4E00020D2E00020D0E00020CEE079
:1023200040F241318B424BD016DC342B54D006DCCA
:10233000142B3FF4D8A9252B51D0FFF791BA40F2C6
:1023400043118B4242D040F243218B423BD0B3F544
:102350009A7F7FF485AA3CE041F234118B4223D06E
:102360000DDC41F224018B4224D041F214118B4246
:102370001DD040F252318B427FF472AA1DE041F22F
:1023800043218B420AD041F241418B423FF4B4A930
:1023900041F242218B427FF463AA02E00C23FFF753
:1023A000A3B90B23FFF7A0B90A23FFF79DB90923AF
:1023B000FFF79AB90823FFF797B90723FFF794B9F6
:1023C0000623FFF791B90523FFF78EB90423FFF722
:1023D0008BB90323FFF788B90223FFF785B90123DF
:1023E000FFF782B9B4F8043143F30B139DB21BB26B
:1023F000002B91DBFF26FFF772BAB4F8043143F3E8
:102400000B13002BBFF68CAA88E7D4F80C31D4F854
:10241000082193423FF6ADAAFFF7ADBAB4F80431F4
:102420004FF0FF3262F30F13A4F80431002046E0AE
:102430000FFA81FCBCF103077FF47EABFFF7B6BB5C
:10244000002F7FF47FABFFF7B1BBB8F15F0F7FF6D2
:10245000ADAC87E5B8F15F0F7FF6A8ACC0E400F83B
:102460000B300BF1010BF3E55F2B3FF6AAACF6E75F
:102470000BF1010200F80B30AEE45F2B3FF6A1AC8C
:10248000F6E7E06D425D392A7FF660AD24E5E06D48
:10249000425D392A7FF6AAAE6CE6B4F804314FF0FB
:1024A000FF3262F30F13A4F80431E9E6B4F8043103
:1024B0004FF0FF3262F30F13A4F8043180200DB007
:1024C000BDE8F08FF0B587B004460778384607F0CE
:1024D0000F0304EB83035D68D4F8F0202A44A7F1CE
:1024E000090303F00F0304EB83035B68D21AC4F8FB
:1024F000F020D4F8EC3043F34B1E0FFA8EF3002B90
:1025000080F2E28017F0010F00F06D83082A40F29C
:102510006E8300263146BB1B03F00F0304EB8303DD
:102520005B6803EBC3031B010133B3FBF2F3033B13
:10253000C3F34703442B00F25A83DBB2122B00F2A1
:10254000BB804900C9B2062B88BF41F00101FF29B9
:1025500000F04D83751CEDB20136052EDBD11F292D
:102560000ED9B44B1B68B4480090B4480190029156
:102570000392D868B249B34AA023B34CA04736E3CC
:10258000B24B5E5CFF2E00F03283082D22D8431B35
:1025900003F00F0304EB83035B6803EBC3031B012E
:1025A0000133B3FBF2F3033BC3F34703442B00F2C5
:1025B0001E83DBB2122B00F281804900C9B2062BC8
:1025C00088BF41F00101FF2900F011830135EDB210
:1025D000092DDCD106F0C003802B05D106F03F06A3
:1025E000C1F3C0031E440DE0C02B05D106F03F0629
:1025F000C1F380031E4405E023B106F03F06C1F39A
:1026000081031E442B2E0FD98A4B1B688A480090E9
:102610008F480190029603910492D8688D49894AA7
:10262000B423894CA047E2E2334606EB46068A48CB
:10263000805D884240F0DB82C4F8F42094F8EC20FE
:1026400012F0010F04D03346834A13445B7804E050
:1026500003EB4303804A13449B785AB2192A01D0F2
:102660002B2A2DD15BB294F8EC20C2F30001192B78
:1026700014BF0B4681F0010363F3000284F8EC20E1
:102680002378093B03F00F0304EB83035B6823B15A
:10269000D4F8F020B3EB520F14D394F8EC300922A5
:1026A00062F3440384F8EC30D4F8EC306FF3501349
:1026B000C4F8EC300120DCE20020DAE20020D8E2AD
:1026C0000020D6E20020D4E294F8EC10C1F34303DA
:1026D000013303F00F0363F3440184F8EC10082B7B
:1026E00040F38382CEB206F01E03142B40F0048127
:1026F000D4F8EC20594B1340002B00F08382E36D9B
:1027000003FA8EF313F8013C2B2B40F082820EF675
:10271000FF7343F30B039BB263F35012C4F8EC2036
:102720002DB1D4F8F420B5EB520FC0F062821BB289
:10273000D4F8FC209342C0F25C82D4F80021002A35
:1027400002DD934200F3558294F8EC2002F001037D
:102750005B00C3F10103E36412F0010F1DD0D4F854
:10276000EC3043F34B139AB21BB2012B15DD002161
:1027700013B2013B5B1AE26D505CD55C5554E26DBF
:10278000D0540131D4F8EC3043F34B139AB21BB25E
:1027900003EBD373B1EB630FEADBD4F8EC3043F314
:1027A0004B1399B21BB2002B14DD00253F262C4899
:1027B000E36D5A195B5D2A2B94BFC35C33461370DB
:1027C0000135D4F8EC3043F34B1399B21BB29D4260
:1027D000EEDB00E00025636D9D421BD3154B1B68AB
:1027E000DE68E06D09B21F4B98471F4B00931F4BEB
:1027F00001930295039030461D49124AEC23124D75
:10280000A847D4F8EC304FF0FF3262F35013C4F80D
:10281000EC302FE0A565E26D00235355A364D4F896
:10282000EC304FF0FF3262F35013C4F8EC30272045
:102830001FE200BF4004002074F54000E8F34000B0
:1028400088F34000C4F340005D67400068F3400037
:1028500038F44000F4F34000DCF44000E0FF0100F5
:1028600018F34000AD30400054F340007CF44000C9
:1028700044F44000B4F84630272B11D0B14A126816
:10288000D068B14A0092B14A019202932723039380
:10289000AF49B04A40F20713AF4CA0470020E8E12F
:1028A0000020A4F84600E4E1B4F84630272B10D00D
:1028B000A44A1268D068A44A0092A44A01920293E2
:1028C00027230393A249A34A40F20713A24DA84726
:1028D00002E00023A4F84630D4F8EC304FF0FF3289
:1028E00062F35013C4F8EC3094F8EC306FF3440307
:1028F00084F8EC300020BCE1D4F8F4309D00910065
:10290000C3EB050E7145C0F08B812B44994240F218
:102910008F8185E1B4F84630272B10D0894A1268A0
:10292000D068894A0092894A01920293272303932F
:102930008749884A40F20713874DA84702E00023E1
:10294000A4F84630D4F8EC304FF0FF3262F3501365
:10295000C4F8EC3000208CE14FF0000E7546CEEB51
:10296000070303F00F0304EB83035B6803EBC3036C
:102970001B010133B3FBF2F3033BC3F34703442BC7
:1029800000F25981DBB2122B00F26B816D00EDB2C7
:10299000062B88BF45F00105FF2D00F04C810EF19C
:1029A0000101C9B20EF1010EBEF1050FD7D18E465D
:1029B0001F2D0ED9634B1B68D868684B0093684B7A
:1029C0000193029503926749674AA023624DA84785
:1029D00031E1664B5F5DFF2F00F02D81082922D881
:1029E000431A03F00F0304EB83035B6803EBC30399
:1029F0001B010133B3FBF2F3033BC3F34703442B47
:102A000000F21981DBB2122B00F22B816D00EDB2C6
:102A1000062B88BF45F00105FF2D00F00C81013128
:102A2000C9B20929DCD107F0C003802B05D107F01A
:102A30003F07C5F3C0031F440DE0C02B05D107F0CD
:102A40003F07C5F380031F4405E023B107F03F07AC
:102A5000C5F381031F442B2F0FD93A4B1B683F4905
:102A6000009143490191029703950492D868414926
:102A70003D4AB423384DA847DDE03B4607EB470706
:102A80003D49C95DA94240F0D680C4F8F42016F053
:102A9000010F04D03B46384A13445E7804E003EB50
:102AA0004303354A13449E78D4F8EC20334B13404B
:102AB0007BB902E0FF2600E0FF26B4F84630002B89
:102AC00040F0C1802723A4F8463016F0800F03D0D1
:102AD00058E016F0800F1FD1D4F8EC5045F34B1599
:102AE0000135202D40F2B980636DAB4200F2B58014
:102AF000B5F5807F10D810339D4205D2B3F5807FA5
:102B000028BF4FF480731D46E06D29461C4B984743
:102B100010B1E0656565A0E0B4F84630272B31D0F0
:102B2000084A1268D068084A0092084A0192029343
:102B3000272303930649074A40F20713064DA84787
:102B400023E000BF4004002044F3400058EF400061
:102B5000ECEE400028EF40005D67400074F5400057
:102B6000E8F3400088F34000C4F3400068F34000FD
:102B700038F44000F4F34000DCF44000E0FF0100D2
:102B8000997740000023A4F84630D4F8EC304FF099
:102B9000FF3262F35013C4F8EC30002069E0364B8A
:102BA0001B68D868354B0093354B019376B202967B
:102BB000D4F8F03003933349334A40F25113334C85
:102BC000A047002055E0E06DD4F8EC3043F34B1201
:102BD000C2F30B01013161F35013C4F8EC3012B2AF
:102BE0008654002045E0002043E0002041E0002022
:102BF0003FE0D4F8EC304FF0FF3262F35013C4F8EA
:102C0000EC3037E6D4F8F430B5EB530F3FF664AE52
:102C10006AE6D4F8F430B5EB530F3FF645AE63E601
:102C2000D4F8EC201A4B1340002B3FF48BAE71E626
:102C3000082A3FF691AED4F8EC20154B1340002B38
:102C40003FF438AF68E7D4F8EC304FF0FF3262F36E
:102C50005013C4F8EC3001200BE073B22B2BB2DD23
:102C60009DE7D4F8EC200A4B1340002B3FF424AF2F
:102C700052E707B0F0BD00BF4004002060F54000FF
:102C8000D0F4400094F44000C4F340005D6740007D
:102C9000E0FF010010B50446C06D08B1024B984733
:102CA0002046014B984710BDCD6E400010B504463C
:102CB000002154221A4B9847FF2384F8783084F877
:102CC000683084F8983084F888300023C4F8B03035
:102CD000A4F8AA30A4F8A83094F8EC2002F0FE0280
:102CE00063F3440284F8EC20D4F8EC204FF0FF3179
:102CF00061F35012C4F8EC20C4F8F03094F80421C9
:102D000002F0FE0263F3430284F80421B4F80421C4
:102D100061F30F12A4F80421C4F8083110BD00BFFC
:102D2000F576400010B501204FF48E71114B984795
:102D3000044620206065104B9847E065012384F825
:102D4000CA300522C4F8CC20C4F8D0200422C4F82C
:102D5000D420C4F8D820C4F8DC20C4F8E020C4F89B
:102D6000F830C4F8FC30C4F810312046034B9847C3
:102D7000204610BDB1634000BD6E4000AD2C400048
:102D800010B504460430002140221A4B9847002316
:102D9000A4F8463023702365FF2284F8782084F855
:102DA000682084F8982084F88820C4F8B03094F81B
:102DB000EC2002F0FE0263F3440284F8EC20D4F825
:102DC000EC204FF0FF3161F35012C4F8EC20C4F84E
:102DD000F03094F8042102F0FE0263F3430284F819
:102DE0000421B4F8042161F30F12A4F80421C4F8FB
:102DF000083110BDF5764000C06D7047806D70479A
:102E0000C06C70470346406E596670470166704754
:102E1000006E7047B0F84400704700BF806C704788
:102E200070B584B00446037803F00F0200EB820211
:102E300051605A1E02F00F0200EB82025168026DCF
:102E40000A44073B03F00F0300EB83035B68D21ACD
:102E5000026590F9CA301BB1214B9847054600E046
:102E60000025D4F8F83013F0010F05D020461D4B93
:102E70009847012888BF0546D4F8103113F0010F98
:102E800005D02046184B9847012888BF054623786F
:102E900001332370A4F84450FDB1B4F84630C3B1F7
:102EA000012D16D9402D14D09D420FD00F4A126823
:102EB000D0680F4A00920F4A0192029303950E497F
:102EC0000E4A40F207130E4EB04702E00023A4F86A
:102ED0004630636E0BB120469847284604B070BD5B
:102EE00059314000C5244000151440004004002022
:102EF00084F5400058EF4000ECEE400028EF400021
:102F00005D6740000A2924D00AD8052919D002D8C3
:102F1000022914D026E0082915D0092917D021E06C
:102F20000E2918D004D80C290FD00D2905D019E08E
:102F3000272912D0802912D014E0CC3013E0E830D9
:102F400011E0E4300FE0D0300DE0D4300BE0D830A9
:102F500009E0DC3007E0E03005E0F83003E000F5A0
:102F6000887000E0002008B10068704700207047BA
:102F7000F8B579B91E46154607460D214A4C384624
:102F80002A463346FFF7F4FF34F8021F0029F6D132
:102F90000020F8BD0C46032A64D80A292AD00AD892
:102FA00005291BD002D8022915D070E0082918D0B5
:102FB00009291CD06BE00E291FD004D80C2913D08E
:102FC0000D2905D063E027291AD080291BD05EE0A7
:102FD00000F1CC0165E000F1E80162E000F1E401FC
:102FE0005FE000F1D0015CE000F1D40159E000F1B4
:102FF000D80156E000F1DC0153E000F1E00150E0BF
:1030000000F1F8014DE000F588714AE03BB9012379
:1030100003FA02F20B6823EA02030B6005E0012BBE
:1030200037D193400A6813430B60D0F8E820D0F8FA
:10303000CC301A43D0F8E4301A43D0F8D0301A43D9
:10304000D0F8D4301A43D0F8D8301A43D0F8DC3056
:103050001A43D0F8E030134303F0010380F8CA307C
:103060000020F8BDA2F1200189B2012913D8272C34
:1030700002D0802C05D010E000EB8202D367002044
:10308000F8BD00EB8202C2F894300020F8BD0120A8
:10309000F8BD0120F8BD0120F8BD0120F8BD0120D8
:1030A000F8BD0029B2D1FAE794F540002DE9F047C8
:1030B00082B006460F4601EB41040C341D4B1868E4
:1030C00028B11D4B1B689C4208D91C4B98472046D1
:1030D0001B4B9847174B1860174B1C60154B1D680E
:1030E00028460C21174A4FF6FF73BB4228BF3B46C8
:1030F000154CA0470544C7B1013E0024134BDFF82F
:103100005090DFF84480DFF84CA003E00F4B002C18
:1031100018BF534616F8012F0092284604214A464C
:10312000C04705440134BC42F0D1024B186802B0DC
:10313000BDE8F087100D00200C0D0020CD6E400082
:10314000BD6E4000BCF54000B97B400080F94000F6
:10315000C8F54000B8F540002DE9F04F91B0814628
:10316000037803F003020A9203F00F0200EB8202DD
:103170005168D0F8B0200A44043B03F00F0300EB81
:1031800083035B68D21AC0F8B02082464FF0000873
:10319000C346CDF8248054469AF8682012F0800F78
:1031A00005D05FFA88F30A998B4240F0C087D2B20B
:1031B000511CC9B2CEB284F8686001F03F0599F89D
:1031C000003013F0010C40F08B8211F0400F00F042
:1031D000B980092D02D0212D40F0A98003F00F0005
:1031E00009EB800040680B90581EA3F1050E0027E4
:1031F00000F00F0609EB8606766837440138704503
:10320000F6D10B9828B107EB4707B0EB970FC0F04A
:103210008480092D1FD1D9F8E80010F0010F00F0CB
:10322000868094F8716094F87200C0F3001E06F076
:103230001007FFB206F00F0606EB860600F00F003F
:1032400000EB4600C0434EEAE70700F00300874268
:103250006DD1022064E0D9F8E40010F0010F59D0DC
:1032600094F871E094F87200074694F873600B9636
:1032700094F87460304694F875600C960D9707F0DA
:103280001006F6B237460B9E06F01006F6B2B610E0
:1032900046EA67060EF010073E430E9000F0100756
:1032A000FFB246EAE7060C98C0F300173E430EF063
:1032B0000F0E0D9800F00F0000EB400070440B9FC4
:1032C00007F00F0738440E9F07F00F0707EB47077B
:1032D00007440C9800F00F00384400EB4000C34F47
:1032E00087FB007EC717C7EBAE0707EB8707A0EB8E
:1032F0004700C0B27708DFF8F8E21EF8077016F052
:10330000010F18BF3F0907F00F07B84214BF60460E
:10331000052000E0604680B210B9212D07D10020C1
:103320000023C9F8AC30FF2384F8683066E301F06D
:103330000701012940F0D481033284F86820023566
:10334000EDB2CDE101F0010EA5F11002D2B2012AD9
:1033500000F2B780D9F8D02012F0010F00F0B18050
:103360000EF10402D2B20EF10800C0B200210B949B
:103370001C460F46511CC9B20C949A1A02F00F0257
:1033800009EB8202526817440A468142F2D10D9736
:103390000B9C03F00F0209EB82025268BEF1000F92
:1033A0000AD19AB107EB4701B2EB910F40F2898045
:1033B00003220E9201200CE08EF001000EF10302B8
:1033C00011460E9242B28A4203DB34E003220E928F
:1033D000012000270F960B9301460C9E0D9B0C9429
:1033E0000E9CCAB2511CC9B2701A00F00F0009EB52
:1033F0008000B21A02F00F0209EB820240685268A4
:103400000244C2EBC20252000132B2FBF3F2033AB1
:10341000C2F34702032A4FD8BF0007F0FC07174347
:1034200017F0800F4BD1C9B24AB2A242D9DB0F9E2E
:103430000B9B0C9C00E00027002F42D194F87150A8
:1034400094F8721094F8730094F8747001F01003FB
:10345000DAB205F01003DBB25B1043EAA20300F01E
:103460001002D2B243EAE203C7F30012134301D0C1
:103470000F2B1CD1B3FA83F35B0973450BD166F0B4
:103480007F0684F8686084F8717084F8745084F85A
:10349000720084F87310002B94F968304FEAD373EC
:1034A000C9F8AC3041F2080008BF082000E0002055
:1034B000FF2384F86830A1E20B9B0C9C01E00B9B7E
:1034C0000C9CA5F11802D2B2012A00F209810EF17A
:1034D0000402D2B20EF10800C0B200261F46511CF1
:1034E000C9B23D469A1A02F00F0209EB82025268F5
:1034F00016440A468142F2D103F00F0309EB83031D
:103500005B68BEF1000F09D183B106EB4602B3EB55
:10351000920F40F2DE800327012109E08EF00101C5
:103520000EF103074BB2BB4202DB2EE00327012161
:1035300000200A46D3B25A1CD2B2C2EB050C0CF0E2
:103540000F0C09EB8C0CE91A01F00F0109EB81015A
:10355000DCF804C04B686344C3EBC3035B00013376
:10356000B3FBF6F3033BC3F34703032B00F2F785EA
:10357000800000F0FC00184310F0800F40F0AB809A
:10358000D2B253B2BB42D5DB00E00020002840F0AD
:10359000E68594F87530FF2B00F0E185BEF1000F51
:1035A00028D094F8711001F01001C9B294F873207A
:1035B00002F01002D2B2521042EA410194F8722095
:1035C00002F010020A4394F8741001F01001C9B21D
:1035D00042EAA10203F01003DBB242EAE30394F8EB
:1035E0007620C2F30012134327E000BF67666666C9
:1035F000D8F5400094F87120C2F3001294F87210CC
:1036000001F01001C9B242EAE10203F010031343D2
:1036100094F8732002F01002D2B243EAA20394F8A5
:10362000742002F01002D2B243EA620394F87620CA
:1036300002F01002D2B243EA42035A08CA498A5C35
:1036400013F0010F18BF120984F8702094F870204D
:1036500002F00F0284F870200F2A00F08085B3FA80
:1036600083F2520972451DD194F8681061F07F0110
:1036700084F8681094F8711094F8760084F871005A
:1036800084F8761094F8721094F8750084F872003B
:1036900084F8751094F8731094F8740084F873002B
:1036A00084F87410D9F8CC1011F0010F08D0002A5A
:1036B00040F0468513F0200F40F0458500F0BEBD78
:1036C000002B00F04C8513F0200F00F03E8500F039
:1036D00046BD002000E00020FF2384F868308DE123
:1036E00094F8681011F0400F18BF6D0815F0030F23
:1036F00040F01D85142D00F21A85E66ED9F8B02031
:10370000002A00F01485002940F08480581F00F042
:103710000F0009EB80004768981F00F00F0009EBCD
:1037200080004568E819052A40F22485C0EBC000F6
:1037300040000130B0FBF2F00338C0F3470003282B
:1037400062D8002840F01685181F00F00F0009EB22
:10375000800040683844C0EBC00040000130B0FB3E
:10376000F2F00338C0F34700032800F26A85C0B2C4
:10377000BCF1000F18D000E0FF20DD1F05F00F05A1
:1037800009EB85056D682DB102EB4207B5EB970F8C
:1037900040F2F084002800F0E584012808BF4021B1
:1037A00000F0E08400F0E6BC002840F0E384D81F7D
:1037B00000F00F0009EB80004768A3F1080000F05B
:1037C0000F0009EB8000406838443D44C5EBC50557
:1037D0006D000135B5FBF2F5033DC5F34705032D3B
:1037E00012D8002D40F0C684C0EBC000400001306C
:1037F000B0FBF2F00338C0F34700032804D80028D8
:1038000000F0B08400F0B6BCFF2384F86830E266B4
:1038100000F08DBCF100D0008F1BB842C0F0C08416
:103820003144884240F2AB8400F0BABC0025BCF1C0
:10383000000F0DD0591E01F00F0109EB810103F0BB
:103840000F0009EB80004E68416806EB010E0DE0A9
:10385000D81E00F00F0009EB8000991E01F00F0147
:1038600009EB81014068496800EB010E591E01F027
:103870000F0109EB81014F68991E01F00F0109EB5F
:10388000810149680B91C8190C90052A40F288847F
:10389000CEEBCE0149000131B1FBF2F10339C1F3A6
:1038A0004701032988BF4FF0FF31C0EBC000400043
:1038B0000130B0FBF2F00338C0F34700032861D8B1
:1038C00040EA8101C9B211F0800F40F0698448B22A
:1038D00006464FF4CC60304110F0010F00F05B84DD
:1038E000BCF1000F08D003F00F0309EB83035B6802
:1038F0000B981844074606E0033B03F00F0309EB5F
:1039000083035B681F44C7EBC7074FF484633341ED
:1039100003F00103002B14BF0323042302FB03F372
:103920009F4240F23884C1F3410141F0100111F08F
:10393000800F00F0388426E00C4B1B68D8680C4BD5
:1039400000930C4B019349B20291CDF80CE00C9B13
:1039500004930592CDF818C00749084A40F20113B4
:10396000074EB04700F01CBCD8F5400040040020D2
:10397000D0F5400084F640000CF6400060F64000B0
:103980005D674000FF21102D22D194F8683013F0BC
:10399000400F21D099F80030581F00F00F0009EBBC
:1039A00080001A1F02F00F0209EB82024068536880
:1039B0000344C3EBC3035B000133D9F8B020B3FB6E
:1039C000F2F3033BC3F34703032B01D85BB21BB1F4
:1039D000FF2384F86830AAE311F0800F03D0FF239F
:1039E00084F87530A3E3099B09EB031303EB9505FA
:1039F000C9B2BF4B5B5C85F8713098E3002800F0DA
:103A00009683B9F8A83013B1C2B29A4205D1B9F879
:103A1000AA303BB1C2B29A4204D00023A9F8AA301E
:103A2000A9F8A830D9F8A83063B1D9F8B430D900D2
:103A3000E26ED200CD1AAA42C0F0BA830B449A4279
:103A400000F2B68300F480539BB293B3C0B2451E1C
:103A5000EDB2420802F0FF0322B3AD1A099A09EB56
:103A600002160027D9B24A19D2B246FA83F393F864
:103A7000703003F00F03B9F8AAE0BEF1000F09D0CF
:103A800049FA82FE9EF9B8E09E451CBFA9F8AA70CB
:103A9000A9F8A87049FA82F282F8B8304B1E13F0E8
:103AA000FF03DFD1A9F8AA00B9F8A8B000EA0B0B10
:103AB000BDE00D2800F08283082829D17EE3CBB237
:103AC000EA1AD2B2FB1A46FA83F393F8703003F085
:103AD0000F03B9F8A8C0BCF1000F09D049FA82FC65
:103AE0009CF9B8C09C451CBFA9F8AAE0A9F8A8E0B9
:103AF00049FA82F282F8B83001316B1A13F0800F64
:103B0000DDD0A9F8A800B9F8AAB000EA0B0B8EE046
:103B1000092817D0C3B25AB2002A10DD099A09EB5E
:103B200002155AB209EB02012A4492F8702002F001
:103B30000F0281F8B720013B13F0FF03F1D1A9F880
:103B4000A80045E394F8703089F8C43094F87630D2
:103B500003F00F03002289F8B82089F8B92094F8FF
:103B6000712002F00F0289F8BA2094F8722002F056
:103B70000F0289F8BB20022B02D8D9B2032204E03D
:103B800094F8731001F00F01042289F8BC10032B84
:103B900009D9099909EB0111114491F8701001F04C
:103BA0000F01013200E0002189F8BD10042B09D972
:103BB000099909EB0111114491F8701001F00F01FE
:103BC000013200E0002189F8BE10002189F8BF1001
:103BD00089F8C010022B09D8099909EB0111114489
:103BE00091F8701001F00F01013200E0002189F816
:103BF000C110032B09D8099909EB0111114491F85F
:103C0000701001F00F01013200E0002189F8C210AC
:103C1000042B08D8099B09EB0313134493F8703065
:103C200003F00F0300E0DBB289F8C330D0E2E36EAB
:103C3000C9F8B430BBF1000F00F071812BF0040320
:103C40009BB2092B40F0D682C7E209EB030292F83F
:103C5000B860092E1BD902E02E4600252F46254BC1
:103C60001B68DC6809F1B8001221234B9847234BED
:103C70000093234B019302970396049505902046E9
:103C80002049214A40F20A23204CA047E1E0354474
:103C9000EDB213F0010F07D005EB460505F0FF0567
:103CA000132D84BF143DEDB2092D84BF0A3DEDB242
:103CB0000133DBB21F460B2BC7DD092D2CD90D4B71
:103CC0001B68DC6809F1B80012210B4B98470B4BBD
:103CD00000930F4B019302950C230393049020460D
:103CE0000C49094A40F21523084CA047B1E000BF37
:103CF000F8F5400040040020AD304000C4F740001B
:103D0000D4F6400090F6400060F640005D67400049
:103D100018F74000DCF6400015B1C5F10A05EDB218
:103D200099F8C460092E18D9AF4B1B68DC6809F1FB
:103D3000B8001221AD4B9847AD4B0093AD4B0193AA
:103D40000C2302930396049505902046AA49AB4A9A
:103D500040F21A23AA4CA0477BE0AE4200F08082DA
:103D600077E009EB030292F8B850092D1CD901E065
:103D7000002426469C4B1B68DF6809F1B80012211D
:103D80009A4B98479A4B00939A4B0193029603954E
:103D90000494059038469B49984A40F20A23984C6F
:103DA000A04756E000231C462C44E4B213F0010F58
:103DB00006D104EB4504E4B2132C84BF143CE4B2F6
:103DC000092C84BF0A3CE4B20133DBB21E46062B49
:103DD000C7DD092C17D9844B1B68DD6809F1B800D1
:103DE0001221824B9847824B0093874B0193029498
:103DF00007230393049028468449804A40F2152300
:103E00007F4CA04725E014B1C4F10A04E4B299F84C
:103E1000BF50092D18D9744B1B68DE6809F1B80032
:103E20001221724B9847724B0093724B01930723F8
:103E3000029303950494059030466F496F4A40F20F
:103E40001A236F4CA04704E0A54208BF4FF0080BAF
:103E500067D0B9F8AA30002B00F0D1814FF0000BE9
:103E6000A9F8A8B05DE0BBF10D0F27D199F9B830E2
:103E70002BB9D9F8D43013F0010F40F0C381B9F950
:103E8000B82040F209739A424FD199F8BA305AB229
:103E9000082A06D1D9F8DC3013F0010F40F0B581C3
:103EA00003E0083BDBB2012B3FD8D9F8E03003F048
:103EB0000103002B18BF4FF00E0B36E0BBF1090FCA
:103EC0002FD1D9F8D83013F0010F19D0002389F879
:103ED000B93089F8B8300AF1700109F1B90209F175
:103EE000BF0011F8013F03F00F0302F8013F8242C7
:103EF000F7D194F8703003F00F0389F8C03014E064
:103F0000D9F8D43013F0010F40F08281D9F8CC30C9
:103F100013F0010F40F07F814FF0000B07E14FF0ED
:103F2000010BBBF1000F00F00281FF2389F878300C
:103F300089F8683089F8983089F88830BBF1010F2A
:103F400040F2F580B9F84630002B40F0EE80A9F839
:103F500046B0BBF10C0F33D0BBF1090F23D0BBF13E
:103F60000E0F39D0BBF10A0F40F0588157E0ABF18A
:103F700002030C2B4CD8DFE803F0074B4B0C4B4BE8
:103F800011191E4B252A3100D9F8E8105B46002292
:103F90005EE1D9F8E4105B46002259E1D9F8D0106F
:103FA0005B46002254E10122082301E05B46002227
:103FB000D9F8D8102FE0D9F8DC105B46002247E191
:103FC000012200E00022D9F8D4100C2340E1D9F8F6
:103FD000CC105B4600223BE10D2300E05B46D9F8A4
:103FE000E010002217E000BF40040020AD30400088
:103FF000C4F74000D4F6400024F7400060F64000CB
:104000005D67400090F6400018F74000DCF6400085
:104010005B460022114611F0040F04D101E05B461B
:104020000322013B9BB21C46002B69DD09EB020316
:1040300093F8B83013F0800F64D1B83209EB020066
:104040000022D9F85C1030338B540132944206D0F0
:1040500010F8013F13F0800FF3D0134600E0134631
:10406000BBF10A0F51D1092B4FD1D9F8DC2012F046
:10407000040F49D0D9F85C7099F8BB40092C40F284
:10408000D48005E01E4612F8014F092C1CD901E02E
:1040900000250A26774B1B68DB68099309F1B800F5
:1040A0001221754B9847754B0093754B01930296FF
:1040B00003940495059009987249734A40F22A23A3
:1040C000724CA0473F2318E004FB0355013B8A4292
:1040D000D8D16F4BA3FB0523DB0803EB830203EB73
:1040E0004203EB1A06D0C3F10B03092B04D830337B
:1040F000DBB202E0302300E058237B720A2204E0A6
:10410000002202E0002200E01A46C9F85820D9F83F
:104110005C3000219954D9F8AC305B00C3F1010345
:10412000C9F84C30C9F8481001E04FF0010B08F114
:1041300001080AF1100AB8F1040F7FF42AA894E0EC
:1041400041F20D0004E00D2002E0092000E009200A
:1041500094F96830DB0FC9F8AC30FFF7BDBA002026
:10416000FFF7BABA84F86810E266002E7FF45EABFF
:10417000002515E0FF2384F86830E266D7E702EBFC
:10418000420131448908E166FFF751BB002D3FF43D
:104190002AACFFF7FABB4BB2132BF7DDFFF7CCBB12
:1041A000FF21FFF7F0BB002D3FF41DACFFF7EDBB87
:1041B0000023A9F8AA30A9F8A83043E4451E47080F
:1041C0000021C5F34705099B09EB03168E4676E4EB
:1041D000E36EC9F8B430834630E599F8B850092D3C
:1041E0003FF63AAD002363E599F8B850092D7FF604
:1041F000D9ADBDE5BBF1080F7FF435AEF4E74FF064
:10420000000B8EE64FF00C0B8FE64FF00A0B8CE69E
:104210004FF00C0B89E64FF00D0B86E6BBF1050F56
:104220003FF6A5AE5B460022FDE604EB8404650084
:1042300009F1BB0209F1C301092323E7002B86D151
:104240008DE7BCF1000F95D0FFF796BA1C46EDE65E
:1042500011F0040F3FF4E5AEF8E799F8B850A1E586
:10426000BBF1080F7FF4FFADF7E7584611B0BDE88A
:10427000F08F00BF40040020AD304000ACF740009C
:10428000D4F6400068F7400060F640005D674000EB
:10429000A38B2EBA10B5012044210A4B984704463F
:1042A000094B9847E36A0133E362002B05DA0748BC
:1042B0005721074A074B084CA0474FF0FF33636371
:1042C000204610BDB16340003D564000E8F7400075
:1042D000D8F7400014F840007563400000282CD047
:1042E00038B50446036BC3B1C36A2BB913489A218E
:1042F000134A144B144CA047144B984705462146CB
:104300004422134B9847AB6A284698470023A36280
:1043100023634FF0FF3363630CE0836A53B1C068DB
:1043200040B10C4A934203D0A2622046984701E074
:10433000094B98470023E36038BD70471CF84000E4
:10434000B0F8400040F840007563400095424000DE
:10435000F9744000DD424000CD6E400001607047BE
:10436000002383614361C1614160026282607047E2
:104370002DE9F041884617461E46044630B3036BCC
:10438000BBB1C36A2BB914489A21144A144B154C7B
:10439000A047154B9847054621464422134B9847A2
:1043A000AB6A28469847002323634FF0FF336363CB
:1043B0000CE0836A53B1C06840B10D4A934203D008
:1043C000A2622046984701E00A4B9847C4F80C8047
:1043D0002761A662BDE8F0811CF84000B0F84000FB
:1043E00040F840007563400095424000F974400079
:1043F000DD424000CD6E4000036C0BB19868704701
:1044000000207047002972D02DE9F84307460C467A
:104410000026DFF80491B046E56AA36AA3B1013B28
:10442000A362002B05DA32485721324A324B334C13
:10443000A0474BB1E3682BB931488521314A324B53
:104440002E4CA047E66249E0E268002A4BD1666143
:104450002661216BE1B10B68013B0B60002B05DA93
:1044600023485721234A244B244CA0472BB12448EE
:104470009221244A254B214CA047236B384699684A
:10448000FFF7C0FF236B9E60206B214B984726638C
:10449000E2682AB919E0590032FA01F102D105E0C7
:1044A0000123F8E70133052BF5D101E0052B0DD1F0
:1044B000606928B912489C21124A164B0F4CA0473C
:1044C000C8476661E660434600E0334607EBC30336
:1044D0001A6B01321A635A6BE2625C632C46002D40
:1044E0009AD1BDE8F883216B0029B4D1D8E7704791
:1044F000E8F74000ACFB400014F840007563400052
:10450000E4F84000BCFB400010F94000B4FD40005E
:10451000A95B400020F94000CD6E40002DE9F84F26
:1045200007460D46836D002B00F0BE8000F15C064F
:10453000DFF81CA24FF00009DFF818821FE0228884
:104540002B889A4209D122692B699A4205D1606968
:104550006969D047002800F08D806B6B626B9B1AF5
:10456000B3F57A6F09D9D4F82CB0C4F82C9038463A
:104570003168C047C6F800B001E004F12C06346889
:10458000002CDCD1B1E0012302E0022300E0032390
:10459000002B26DD07EBC302546B07EBC30264B1AB
:1045A00002E0083A546B44B107EB8301D1F8D820FC
:1045B0000132C1F8D8201CB913E0013BF1D110E061
:1045C000E26A07EBC3035A630022E2621A6B2AB95C
:1045D0005248E821524A534B534CA047013A1A63C0
:1045E00009E001204021514B98470446D7F8D430C8
:1045F0000133C7F8D430A4F800800123E36300231B
:10460000E361FF2284F82420A3633B696363236B87
:104610002BB14248F721424A454B434CA047002E5C
:104620000EDD731E2361E3689E4211D9606908B1F3
:10463000404B9847E66030463F4B9847606107E043
:10464000606908B13B4B984700236361E3602361D5
:104650006B686360AB68A360606969692A69374BFE
:1046600098476B6BA3F5FA6363630023A363FB6D49
:10467000E362FC656A6B636BD31A6263A26B002A08
:1046800045DAB3F57A7F08D328882D4B98471C303C
:1046900057F820305B42A36301E00132A263A26BB2
:1046A000AA63FB6A2AB902E000238B63C36ADA6853
:1046B0001AB99A68EA629D6003E0D26AEA62DA682F
:1046C000D562AA6B1AB95A6801325A6002E0DA68F8
:1046D00002B9DD60AB6A0133AB62002B1BDA19480B
:1046E0005721194A194B104CA047B5F800802E6984
:1046F0000136012E7FF775AF042E7FF744AF102EE1
:104700007FF743AF402E7FF742AF042342E7B3F574
:10471000FA6FB9D2C1E7BDE8F88F00BFE4F84000F6
:104720008CFB40002CF9400075634000B1634000F1
:1047300044F94000CD6E4000BD6E4000F974400069
:10474000615A4000E8F74000ACFB400014F840001C
:1047500095744000054440002DE9F04F87B0804635
:104760007A4B984707464046794B9847054640287C
:1047700006D178484FF4CC71774A784B784CA047F3
:104780003B6E13F0010F14D03868764B9847014602
:104790007C6A3E6A38680022734B984706FB0049E2
:1047A000BB6913B1D7F828A006E0CA46D7F828900D
:1047B00002E04FF0000AD146012D0FD86B4B1B6869
:1047C000FF2B40F349816A4B1B68D868CDF800A0E5
:1047D0006849614A4B46684CA0473DE14046674BFB
:1047E000984705904046664B98470646FB6A9C688A
:1047F000002C43D0DFF8B0B12388AB423BD1236912
:10480000B34238D1606905993246D847002832D181
:10481000E36B0133E363554B1B68DF2B10DD544B17
:104820001B68DE682846574B9847CDF800A00190DA
:10483000059B029330465449474A4B464E4DA84784
:104840003B6E13F0010F00F00781E5696B1CE3611B
:10485000A1698B4206D30131A161206AC9004B4B8B
:1048600098472062236A43F83590236A03EBC50317
:10487000C3F804A0F0E0E46A002CBDD10136012E9B
:1048800036DD042E06DD102E06DD402ED8BF0323B4
:1048900003DD05E0012300E00223002B01DC27E01B
:1048A000042307EBC302546B07EBC30264B102E0BD
:1048B000083A546B44B107EB8301D1F8D820013298
:1048C000C1F8D8201CB913E0013BF1D110E0E26A35
:1048D00007EBC3035A630022E2621A6B2AB91D4830
:1048E000E8212B4A2B4B1E4CA047013A1A6309E0E2
:1048F00001204021284B98470446D7F8D430013393
:10490000C7F8D43025800123E3630023E361FF224D
:1049100084F82420A3633B696363236B2BB10D48A8
:10492000F7211B4A1D4B0E4CA047002E3EDD731E87
:104930002361E3689E4241D9606908B1184B9847EA
:10494000E6603046174B9847606137E0112E400013
:10495000152E4000E4F84000C8F8400050F940002F
:1049600075634000995640009D564000140D00208C
:104970004004002064F940005D674000F92D4000CC
:10498000FD2D40003D59400084F9400099774000DA
:104990008CFB40002CF94000B163400044F940001A
:1049A000CD6E4000BD6E400095744000606908B156
:1049B0002B4B984700236361E360236140462946FF
:1049C000284B984760604046274B9847A060606935
:1049D00005993246254B98473B6E13F0010F29D0BD
:1049E000234B1B68BF2B10DD224B1B68DE6828465B
:1049F000214B9847CDF800A00190059B02933046CB
:104A00001E491F4A4B461F4DA847E5696A1CE261D3
:104A1000A3699A4206D3591CA161206AC9001A4BA6
:104A200098472062236A43F83590236A03EBC50355
:104A3000C3F804A04046154B984748B13B6A434031
:104A400003F00203FA69002A18BF013384F8243006
:104A5000384621460E4B984707B0BDE8F08F00BF9F
:104A6000CD6E4000052F40001D2E4000F97440001F
:104A7000140D0020400400203D594000ACF94000D6
:104A8000C8F840005D67400099774000012E400063
:104A90001D4540002DE9F04383B007463E4B1B689F
:104AA000002B32DD3D4B1B68D8683D493D4AD7F8A5
:104AB000C0303D4CA047384B1B68002B25DD374BE1
:104AC0001B68D868D7F8C83000933849354AD7F8FA
:104AD000C430A047304B1B68002B16DD2F4B1B68E2
:104AE000D868D7F8D030009331492E4AD7F8CC3067
:104AF000A047294B1B68002B07DD284B1B68D86893
:104B00002C49284AD7F8D430A04707F1D80500240B
:104B1000214EDFF88890DFF8B8803368002B0ADD7B
:104B2000D9F80030D8682B68009341461D4A2346C7
:104B3000DFF874C0E04701340435052CEDD1F86A84
:104B400050B1036823B14FF0FF311B4B984701E090
:104B50001A4B98470023FB62386808B1184B9847F6
:104B600000233B60786808B1164B984700237B60B0
:104B70003E4607F12808144D706B20B1C46AA8475F
:104B80002046002CFAD108364645F5D138460F4B61
:104B9000984703B0BDE8F083140D002040040020C6
:104BA000D0F94000D8F840005D674000F4F94000BB
:104BB0002CFA400064FA4000F15A4000A95B400022
:104BC00041564000952C4000715B4000CD6E400086
:104BD00088FA400070B50120EC21284B9847002846
:104BE00049D00446264B98476060264B9847206082
:104BF000636803B120B92046234B9847002070BD5D
:104C000018462146214B984760682149214B984717
:104C10000123A366E366236E43F00103236604F1D8
:104C20006C0304F1BC01022243F8042F8B42FBD138
:104C30004020194DA8471C30002644F820608020F1
:104C4000A8471C3044F820605D20A8471C3044F879
:104C500020602720A8471C3044F820602620A84761
:104C60001C30012344F820300F20A8471C3044F8A2
:104C70002060204670BD002070BD00BFB1634000C1
:104C8000252D400075564000954A40000D2E4000ED
:104C900059474000052E4000615A400070B5064655
:104CA0001D460B4611B10F2906D162E022B9291C1D
:104CB00018BF0121416601E03F2A05D870681946F6
:104CC0002B462D4CA04770BD7F2A21D8402A42D8C0
:104CD000A2F14004012B0CD91846284B984704EB4D
:104CE000840200EB820000F11C0246F822500020F2
:104CF00070BD04EB8402120102F16C03334402F133
:104D0000BC00304443F8045F8342FBD1002070BDF7
:104D1000012B22D8A2F580739BB2012B04D8E63A6E
:104D200046F82250002070BD802A18D8803A92B2EE
:104D300045B9012303FA02F2336E23EA0203336614
:104D4000002070BD012D0CD101239340326E13431E
:104D50003366002070BD012070BD012070BD0120B0
:104D600070BD012070BD003518BF0125756600209B
:104D700070BD002AF7D09FE7712F4000615A4000B4
:104D80002DE9F04F93B003680293002303610B6891
:104D90008A4A934203D08A4A934240F0FD830691A7
:104DA0008346CBF81410C46AD4B12368C3B1013B65
:104DB0002360002B05DA83485721834A834B844CB8
:104DC000A047002B40F0EB83A168824B984700235B
:104DD000E360A3606360DBF8C8300133CBF8C83010
:104DE00006990B6C1A460F9300230B6432B31368B9
:104DF000013B1360002B05DA72485721724A734B4E
:104E0000734CA047002B40F0D28358460F9CA168FA
:104E1000704B98470023E3602046A3606360DBF893
:104E2000D0300133CBF8D030DBF82C3013B16A4BE3
:104E3000984703E00F9BCBF82C3011E0DBF82C30C7
:104E40000F936BB9654B98470F90CBF82C00DBF8AC
:104E5000C0300133CBF8C0300121614B984703E0EB
:104E60000F9802215E4B9847069A13460F991164DA
:104E700056689468D2695B6902EB030A564506D20C
:104E8000584840F2AB21584A584B514CA04706991C
:104E90000A6A8B69D31808939C4206D2514840F2A3
:104EA000AD21514A524B4A4CA047069DEB680393F3
:104EB0000298504B9847DBF86C20002A40F314818D
:104EC000286A411EB1FBF2F302FB1313591C400880
:104ED0004908AB69814294BF5B181B1807939C4239
:104EE00006D2404840F2BF213F4A434B384CA047CE
:104EF0000021CBF81C1006994C6906FB034103986E
:104F000041181091CBF828300898984240F2EC8074
:104F100006FB02F1481E0990481C0B90500006FB4E
:104F200000F50C95D11801FB06F504950D9005913F
:104F300006FB03F35B1B0A930E90304F1196564607
:104F4000DDF84090069BD3F814802D4B1B687F2B17
:104F50000BDD2C4B1B68D868079B0093CDF80490A1
:104F60002949214A2346294DA8470123CBF820305F
:104F7000CBF81830CBF824802546A6420ED94C46F3
:104F8000C9EB050A029814F8011BB84704EB0A03A1
:104F90009E42F7D83446751BA9443546049B0A9AAD
:104FA00013441D44039B1D444D4533D00D4840F22E
:104FB000D1210D4A164B064CA04700BF593830305E
:104FC00047524559E8F74000ACFB400014F8400058
:104FD0007563400005444000A95B4000B95A400099
:104FE000F15A4000E4F840007CFB4000B0FA400079
:104FF000BCFA40001D574000C8FA4000B1574000BD
:10500000140D002040040020D4FA40005D674000E9
:10501000F0FA4000DBF800904846DFF8DCA2D04709
:105020004846D0474846A84B9847013C059B1A463E
:1050300009990D44CBF828300899994252D9A34BCD
:105040001B687F2B0ADDA24B1B68D8680092019574
:10505000A049A14A2346DFF8A4C2E0474FF0FF333E
:10506000CBF82030CBF81830CBF82460A04508DC12
:10507000A94619F80119013C4D460298B847A045C8
:10508000F7DD049B04EB0309039B9944A94506D073
:10509000924840F2E321904A914B924CA047DBF8B2
:1050A00000502846DFF85082C0472846C0472846AF
:1050B000854B98470134079B0E9A134407930B9A2C
:1050C0009144CBF82830049A0C990A440492059A2A
:1050D0000D990A440592089A9A423FF633AFB246B8
:1050E000119E01E0B246119E0023CBF81830DBF888
:1050F00068300C931C46002B40F3CF80069DEA6974
:105100000793511EB1FBF3F304FB13130133510852
:105110005B086A698B4294BFD318531805939E426B
:1051200006D26E4840F2F7216B4A6F4B6D4CA04798
:10513000069A946906FB0439039A9144CBF8283007
:105140009A4540F2AA800C9A51000A91D318049310
:105150000B91664FCDF824A0089D069BD3F81880CC
:105160005A4B1B687F2B0BDD594B1B68D86800948A
:10517000CDF804905E49584A059BDFF880C1E047AE
:105180000123CBF82030CBF81C30CBF824800894D6
:10519000A5420DD9CA469AF800100134B2440298CB
:1051A000B847A542F7D82C46089BEB1A06FB039993
:1051B000059B089306FB043A039B9A44CA4506D014
:1051C000464840F20731444A454B464CA047DBF87D
:1051D000003005931846DFF82091C8470598C84766
:1051E0000598394B984704980346013C07998A1B58
:1051F0009244CBF82800099981424ED9334A12686B
:105200007F2A0ADD324A1268D0680094CDF804A0E3
:105210003849314ADFF8E4C0E0474FF0FF33CBF8BC
:105220002030CBF81C30CBF82450A04508DC9AF88D
:105230000010013CC6EB0A0A0298B847A045F6DD0B
:10524000049B06FB0439039B03EB0908D04506D0F9
:10525000224840F21931204A214B224CA047DBF86A
:1052600000904846DFF890A0D0474846D0474846CF
:10527000154B9847089B0B9A134405930134079AE2
:1052800002EB0609C144CBF82830049A0A990A4473
:105290000492099A9A423FF660AF0023CBF81C3083
:1052A000CBF81430DBF858305BB90C9B012B27D0BE
:1052B000DBF86C30012B14BF4FF000094FF00109EF
:1052C00020E04FF000091DE01D574000140D0020A4
:1052D0004004002010FB40007CFB4000E4F840004C
:1052E000F0FA4000756340002CFB4000B1574000CD
:1052F00038FB400054FB4000C15640005D67400051
:105300004FF001090F9B5B68002B00F042810F9B5F
:10531000083304931E46002303930293DFF8E8A2A8
:105320005EE0A36B002B59DC23889A1E92B20C2AF4
:1053300007D9A3F1220292B2012A05D9262B4DD119
:105340006BE1262B00F0398119F0FF0F39D0E26BA9
:10535000032A36DCDBF858303BB30BF15C0720E066
:105360002A8823889A420AD12A6923699A4206D157
:1053700068696169954B9847002800F02381636B49
:105380006A6B9B1AB3F57A6F09D9D5F82C80002384
:10539000EB6258463968D047C7F8008001E005F154
:1053A0002C073D68002DDBD130E1E36A33600F9AB2
:1053B0005368013B53600023E36258462146D047BF
:1053C0000EE00E2B0AD80A2B08D0052B03D9029B1E
:1053D0000133029302E0039B0133039304F12C0693
:1053E0003468002C9DD1029B012B40F0C880039BA8
:1053F000012B40F0C480DBF86430B3B9BFE01A88F9
:10540000023A92B20C2A0DD8DA6A02606268013A56
:105410006260D9621A88052A88BF1D46052A98BF8E
:105420001E4607E003F12C0004E000263546314615
:1054300004980F9C0368002BE1D135B9644840F211
:105440006731644A644B654CA04736B960484FF4F5
:105450005A71604A624B614CA0472F6933693B44E3
:105460005F1C012F36DD042F06DD102F06DD402FD7
:10547000D8BF032303DD05E0012300E00223002B56
:1054800028DD00E004230BEBC302546B0BEBC302DB
:1054900064B102E0083A546B44B10BEB8301D1F8DC
:1054A000D8200132C1F8D8201CB913E0013BF1D15A
:1054B00010E0E26A0BEBC3035A630022E2621A6B4C
:1054C0002AB94348E821474A474B444CA047013A90
:1054D0001A6309E001204021444B98470446DBF859
:1054E000D4300133CBF8D4300F2323800123E3637E
:1054F0000023E361FF2284F82420A363DBF810304B
:105500006363236B2BB13248F721364A384B334C57
:10551000A047002F0EDD7B1E2361E3689F4211D957
:10552000606908B1334B9847E7603846324B98477B
:10553000606107E0606908B12E4B98470023636102
:10554000E360236195F8243084F824302B4B98478E
:105550002063606969692A69294FB84760692B69C6
:105560003269184471690132B847236B9D60EE625D
:10557000236B02225A6058462146224B98470F9BC4
:105580005B6833B1DBF80C301BB10698DBF8081010
:1055900098470F9B586845E04FF0FF3042E0D0F845
:1055A000C4300133C0F8C4300023C36218E4DBF810
:1055B000CC300133CBF8CC3040E4E36B032B7FF7E6
:1055C000C9AE0BE7AB6B013BAB63EEE695744000F5
:1055D000E4F840007CFB400070FB40007563400035
:1055E00074FB40008CFB40002CF94000B16340008C
:1055F00044F94000CD6E4000BD6E4000B95A4000F5
:10560000F97440001D45400005444000074840F241
:105610003F31074A074B084CA047E36B032B7FF74A
:1056200099AEDBE613B0BDE8F08F00BFE4F84000B0
:105630007CFB4000B4FD400075634000704700BF34
:1056400008B5014B984708BDCD6E400010B5044623
:10565000083000212822054B9847636823622068A0
:1056600008B1034B9847002010BD00BFF5764000FD
:10567000AD2C400038B505463020054B9847044610
:10568000056004234360034B9847204638BD00BFA4
:10569000BD6E40004D564000C06A7047806A303889
:1056A000411AC2F10502002A02DD21FA02F0704718
:1056B0001AB1524201FA02F070470846704700BF23
:1056C00038B5C36923B3044685686D011035426A55
:1056D000AA4201D1002B12DDA36A03B9A262636A58
:1056E000A16A591AE162A362206810B10A4B984777
:1056F00000E001206562E3695B42E36138BD00239D
:10570000C362C361006828B11946034B984738BD8E
:10571000002038BD012038BD212E40002DE9F8437E
:1057200004464FF000094FF001081E4E4F4626E098
:10573000A5686D011035626A954201D1002B11DD1B
:10574000A36A03B9A262636AA16A591AE162A362F9
:10575000206808B1B04700E040466562E3695B42FB
:10576000E36107E0E762E761206810B13946B047BE
:1057700000E04046484538BF48461FFA80F9E369D3
:10578000002BD5D104F1080000212822064B9847B0
:1057900063682362206808B1044B98474846BDE817
:1057A000F88300BF212E4000F5764000812D400097
:1057B0002DE9F84305468668731E03F0030300EBEA
:1057C0008303DA6866B1891A01EB810101EB81017B
:1057D00002EB611106F0030300EB8303D96004E0E0
:1057E000816141610161C1600A46B31E03F0030398
:1057F00005EB8303DC68F31E03F0030305EB83036F
:10580000D868131B271A83EAE37CACEBE37C87EAB6
:10581000E77EAEEBE77EF44509DA4FEAD37E6FEA26
:10582000070C4FEADC7CE64508BF1F4600E01F4638
:10583000A1EB42011B1B03EB00090C1909D0002C42
:1058400004DDB9F1000F04DB002070E0B9F1000FB6
:105850005FDD286A6968884215D9D5F82CE0BEF169
:10586000000F10D0AB6AAA68C3EB421200FB02F231
:10587000B2FBFEF3DB08984202D9C31A994201D366
:10588000296200E0194687EAE778A8EBE7788845BF
:1058900041D3E969002901DDFA0F03E0002FD4BFED
:1058A00000220122002A38D019B930236B62AB6282
:1058B00003E0AB6A0BB96B6AAB626B6AA96A591AEF
:1058C000E962AB62286880B31B4B984700E0002078
:1058D000EF61C8EBC8035B0010335B092B626A6899
:1058E000934238BF2A62B4EB090302D110236B62E2
:1058F0000AE014B920236B6206E06101013191FBDB
:10590000F3F3C3F120036B626B6A03EB46136B6224
:105910000DE000200BE0002009E081EAE173A3EB39
:10592000E1739845D3DC002001E00120D0E7013687
:10593000AE60BDE8F88300BF212E4000C0B202383F
:105940007E2863D8DFE800F064626240626242440D
:105950004662484A4C4E62626262626262626250B1
:10596000626262626262626252546262565862624B
:105970006262626262626262626262626262625E0B
:1059800062626262626260626262626262626262F9
:1059900062626262626262626262626262626262E7
:1059A0006262625A626262626262626262626262DF
:1059B00062626262626262626262626262626262C7
:1059C0006262626262625C0012487047124870470D
:1059D0001248704712487047124870471248704783
:1059E0001248704712487047124870471248704773
:1059F0001248704712487047124870471248704763
:105A00001248704712487047124870471248704752
:105A10001248704718FC400020FC400028FC400061
:105A200030FC400038FC400040FC400048FC400096
:105A300050FC40005CFC400064FC40006CFC4000FA
:105A400078FC400080FC400088FC400090FC400056
:105A50009CFC4000A4FC4000ACFC400010FC40005A
:105A600010B50B4A00F01F03D1566FEA101000F07A
:105A70001F001356002901DB002B05DA05486F21B2
:105A8000054A064B064CA047C81800F01F0010BD81
:105A9000F0FB400040FD40003CFE400064FD400043
:105AA00075634000008870474069704708B1C06A5C
:105AB00070470020704700BF10B501201021074B30
:105AC0009847036801330360002B05DA0448572127
:105AD000044A054B054CA04710BD00BFB163400010
