S02100005374616E646172645F4F56373734305F73616D3473777069722E73726563F3
S214400000F0D9002055264000512640005126400099
S2144000105126400051264000512640000000000076
S214400020000000000000000000000000F901400051
S214400030512640000000000075024000B10240001A
S214400040512640005126400051264000512640008F
S2144000505126400051264000512640000000000036
S2144000605126400051264000000000009D224000DE
S214400070B1224000C5224000512640005126400093
S21440008000000000000000005126400051264000BD
S214400090512640005126400051264000512640003F
S2144000A0512640005126400051264000512640002F
S2144000B0512640005126400051264000512640001F
S2144000C051264000512640005126400010B5054CB0
S2144000D0237833B9044B13B10448AFF300800123AF
S2144000E0237010BD48040020000000006840400017
S2144000F0084B10B51BB108480849AFF300800848C4
S214400100036803B910BD074B002BFBD0BDE8104079
S214400110184700BF00000000684040004C04002024
S214400120684040000000000000F1080343604FF0C4
S214400130FF328260C360036100230360704700BFE4
S21440014000230361704700BF43685A684A604268AC
S2144001508A605A689160596041600861036801335B
S2144001600360704710B40C68B4F1FF3F01D10369D7
S2144001700AE000F10803C2681268944204D35B6840
S2144001805A6812689442FAD25A684A6091608B6004
S214400190596008610368013303605DF8044B70479B
S2144001A0436882689A60836842685A6003695A68FE
S2144001B0824204BF82685A60002202611A68013A8D
S2144001C01A601868704700BF03480068006880F3EC
S2144001D0088862B600DF00BF08ED00E04FF080738D
S2144001E040F8043C40F8081C002340F80C3C40F81B
S2144001F0202C4038704700BF064B19680868B0E8A6
S214400200F00F80F309884FF0000080F311884EF01D
S2144002100D0E704740A500204FF08052014B1A60EB
S214400220704700BF04ED00E0EFF311804FF0A001EF
S21440023081F311887047002008B5034B9847034A5E
S21440024013680133136008BD290240000C000020EB
S21440025080F31188704700BF08B5044A1368013B15
S214400260136013B90020024B984708BD0C000020CD
S21440027051024000EFF309800C4B1A6820E9F00F5A
S21440028010602DE908404FF0A00080F3118800F080
S21440029095FE4FF0000080F31188BDE808401968CD
S2144002A00868B0E8F00F80F30988704740A5002042
S2144002B008B54FF08052054B1A60054B9847054BE2
S2144002C098470020044B984708BD00BF04ED00E067
S2144002D029024000CD0C400051024000034A044B26
S2144002E01A600722043B1A60704700BFBFD4010063
S2144002F014E000E010B5094B1A6842F470021A6028
S2144003001A6842F070421A60054B98470024054B25
S2144003101C60054B9847204610BD00BF20ED00E00E
S214400320DD0240000C000020C9014000134A00E0F6
S2144003301A4613688342FBD330B4114654681519E5
S214400340854203D168680444546010464268841865
S2144003509C420CD10A4B1B689C4206D063681A44E8
S21440036042600B681B68036002E0046000E00360C4
S214400370814218BF086030BC704700BF6CA40020A4
S21440038068A4002038B504462B4B98472B4B1B6877
S2144003909BB92B4A2B4B13600021516049F6F072F3
S2144003A09818264D286049F6F475595199505A6068
S2144003B01860254A1368103B1360002C37D004F1B0
S2144003C0100212F0070F1CBF22F007020832511E1F
S2144003D049F6FE73994227D819490C6801E0214630
S2144003E01C4663689A4202D92368002BF7D1134B08
S2144003F01B689C4218D00D68103523680B606368F4
S2144004009B1A202B04D9A018436062600F4B984774
S2144004100D4A136861685B1A13600D4B98474DB9D7
S2144004200C4B9847002505E0094B9847F8E7084BE2
S2144004309847F5E7284638BD9D0C400068A4002044
S2144004406CA4002068040020100000202D0340000B
S214400450ED0D40000129400080B110B50446084B20
S2144004609847084A116854F80C3C0B441360A4F1B2
S2144004701000054B9847054B984710BD704700BF86
S2144004809D0C4000100000202D034000ED0D400064
S21440049010B50446036C3BB903681BBB4068134B5E
S2144004A09847002363601DE06AB980681A46104B7F
S2144004B09847A268236C1344A3606268934211D3A2
S2144004C02368A3600EE0C0681A46094B9847236C21
S2144004D05B42E2681A44E26021688A4202D262685D
S2144004E01344E360A36B0133A36310BDED124000D9
S2144004F0552C400038B50346006858B11A6CDC6885
S2144005001444DC605D68AC4228BFD8600846D968B1
S214400510014B984738BD00BF552C4000F8B50446FF
S2144005201E4B9847A36C002B13DD636A1BB910E083
S214400530636A23B90DE004F12406194D194F30467D
S214400540A84700B1B847A36C013BA364A36C002B3B
S214400550EEDC4FF0FF33A364134B98470F4B98479E
S214400560636C002B13DD23691BB910E0236923B9A4
S2144005700DE004F110060A4D0A4F3046A84700B178
S214400580B847636C013B6364636C002BEEDC4FF052
S214400590FF336364044B9847F8BD00BF3902400000
S2144005A005114000351240005902400038B518B9D0
S2144005B0174B984700BFFDE70D460446154B984736
S2144005C02268216CE36B03FB01F3D01860600020C7
S2144005D0A063A2605B1A1344E3604FF0FF3363648A
S2144005E0A36455B923697BB104F110000A4B9847C0
S2144005F0012809D1094B984706E004F11000084D40
S214400600A84704F12400A847064B9847012038BD68
S21440061029024000390240000511400019024000FE
S2144006202901400059024000F8B5A0B10D461746D2
S214400630064650200E4B9847044660B105FB06F030
S21440064001300B4B9847206040B92046094B9847ED
S21440065001E000BFFDE7084B9847FAE7E6632564EC
S21440066020460121054B984784F84D702046F8BD3A
S214400670850340005904400029024000AD05400073
S2144006802DE9F04F85B00192009318B9384B984742
S21440069000BFFDE78A46044629B9036C2BB1344BAC
S2144006A0984700BFFDE7002700E00027314EDFF8FF
S2144006B0ECB0314DB047A26BE36B9A4212D2204663
S2144006C05146009A2D4B9847636A3BB104F124008B
S2144006D02B4B9847012801D12A4B9847264B9847E1
S2144006E0012042E0019B1BB9234B984700203CE089
S2144006F017B902A8D8470127A847234B9847B047C1
S214400700636CB3F1FF3F04BF00236364A36CB3F193
S214400710FF3F04BF0023A364A84702A801A91B4BC0
S2144007209847E0B9B047D4F83890D4F83C80A8470A
S214400730C1450ED104F110000199154B984720464B
S214400740144B9847144B98470028B3D10D4B984705
S214400750B0E720460F4B98470F4B9847AAE72046EE
S2144007600C4B98470C4B9847002005B0BDE8F08FDF
S21440077029024000390240005902400091044000DE
S21440078005114000190240009D0C4000B111400088
S214400790611040001D054000ED0D400089114000ED
S2144007A02DE9F04118B91E4B984700BFFDE70E46AD
S2144007B015469846044629B9036C1BB1184B984712
S2144007C000BFFDE7164B98470746A26BE36B9A427D
S2144007D018D2204631464246124B9847A36CB3F196
S2144007E0FF3F0AD1636A7BB104F124000E4B984761
S2144007F060B16DB101242C600BE0A36C0133A3649F
S214400800012406E0002404E0012402E0012400E084
S21440081001243846054B98472046BDE8F08100BF86
S214400820290240009104400005114000510240005A
S2144008302DE9F04F85B0019218B9464B984700BF56
S214400840FDE789469A46044629B9036C2BB1414BCD
S214400850984700BFFDE7002700E000273E4EDFF840
S21440086028B13E4DB047A36B43B3E56820464946A2
S2144008703B4B9847BAF1000F12D1A36B013BA363E1
S214400880236813B9374B98476060236993B104F1E6
S2144008901000354B984701280CD1344B984709E057
S2144008A0E560636A33B104F124002F4B984708B1E2
S2144008B02E4B9847294B9847012048E0019B1BB98F
S2144008C0264B9847002042E017B902A8D847012790
S2144008D0A847274B9847B047636CB3F1FF3F04BF28
S2144008E000236364A36CB3F1FF3F04BF0023A364FB
S2144008F0A84702A801A91F4B984710BBB047D4F899
S2144009003880A847B8F1000F15D1236823B9B047FF
S2144009106068194B9847A84704F124000199174B83
S21440092098472046164B9847164B9847002899D12B
S2144009300E4B984796E72046114B9847114B9847E1
S21440094090E720460E4B98470E4B9847002005B040
S214400950BDE8F08F290240003902400059024000AD
S214400960F5044000411240000511400019024000C5
S2144009709D0C4000B11140006D12400061104000D7
S2144009801D054000ED0D40008911400038B5044675
S2144009900D460D4B9847636CB3F1FF3F04BF0023F1
S2144009A06364A36CB3F1FF3F04BF0023A364074B0B
S2144009B09847A36B23B904F124002946044B984773
S2144009C02046044B984738BD390240005902400043
S2144009D0C11040001D05400010B504460E4B1B6874
S2144009E058600E4B1B68984207D20D4B18680A4B4E
S2144009F0196804310B4B984710BD0B4B1868064BD3
S214400A0019680431074B9847084B1B689C423CBF0B
S214400A10064B1C6010BD00BF40A500205CA5002012
S214400A2060A50020650140008CA400201400002032
S214400A302DE9F04F83B00C9FDDF834800E9E019078
S214400A4018B9624B984700BFFDE7894615469B4656
S214400A50042F03D95D4B984700BFFDE74C205C4B05
S214400A6098470446002800F0AB80002E40F0A58052
S214400A70A800574B9847206318B92046554B9847CF
S214400A809EE0A521AA00544B984705F18045013DBC
S214400A90236B03EB850323F0070504F13400494636
S214400AA00A224E4B9847002384F83D303E46042F9A
S214400AB028BF0426E662A66404F104094846DFF827
S214400AC06CA1D04704F11800D0472461C6F1050652
S214400AD0A6616462284601995A46414B9847206071
S214400AE010F0070F03D0394B984700BFFDE7B8F129
S214400AF0000F01D0C8F800403A4B98473A4A13686E
S214400B0001331360394B1B680BBB384B1C601368B2
S214400B10012B26D1364D05F16408364E2846B0479F
S214400B2014354545FAD1DFF808814046314DA8478F
S214400B30314E3046A8473148A8473148A847314843
S214400B40A847314BC3F80080304B1E6009E0304B5D
S214400B501B6833B9254B1B68DB6A9F4224BF234B77
S214400B601C60E06A2B4B1B68984284BF294B186078
S214400B70294A1368236401331360284B1B68984244
S214400B8084BF264B186000EB8000194B03EB8000B7
S214400B904946234B9847234B98471D4B1B6843B108
S214400BA0124B1B68DB6A9F4205D91F4B98470120B2
S214400BB008E0012006E0012004E00663304660E7D6
S214400BC04FF0FF3003B0BDE8F08F00BF2902400071
S214400BD08503400059044000892D4000252E4000E2
S214400BE0DD0140003902400068A5002040A50020F5
S214400BF0C4A4002029014000ACA4002044A5002045
S214400C0028A5002078A400208CA4002060A5002001
S214400C1090A4002070A5002064A50020C0A4002059
S214400C20490140005902400019024000410140007D
S214400C3098A4002010B584B000230093019302933B
S214400C4003930E480E4982220E4CA04701280ED12F
S214400C500D4B984701280AD10C4B984701220C4B64
S214400C601A6000220B4B1A600B4B984704E018B9E9
S214400C70064B984700BFFDE704B010BD390F400053
S214400C80902F4000310A4000E51340002902400002
S214400C9090A400205CA50020F5024000024A13689C
S214400CA001331360704700BF58A5002010B5044BB1
S214400CB09847044B1C68044B9847204610BD00BF1D
S214400CC0390240005CA50020590240002DE9F04161
S214400CD03A4B1B68002B6BD1394B1A6801321A60AD
S214400CE01B6803BB374B1B681B681BB1364B9847CA
S214400CF000BFFDE7334B1968344A1068186011602E
S214400D0033490A6801320A601B681B6823B94FF0F2
S214400D10FF32304B1A6006E02A4B1B68DB68DB6804
S214400D205A682C4B1A60264B1A682A4B1B689A4204
S214400D3042D3244B1B681B686BB1224B1B68DB6895
S214400D40DC6863681E4A1268934213D8224E234FCB
S214400D50DFF8948012E04FF0FF321E4B1A60BDE879
S214400D60F081184B1B68DB68DC686368144A1268BD
S214400D70934203D9174A1360BDE8F081251D2846E3
S214400D80B047A36A13B104F11800B047E06A3B6865
S214400D90984288BF386000EB800008EB8000294608
S214400DA00F4B9847074B1B681B68002BD9D1D2E7DF
S214400DB00C4A136801331360BDE8F08158A5002043
S214400DC05CA500208CA400202902400060A50020DD
S214400DD03CA5002014000020A1014000C0A4002033
S214400DE04901400074A40020C4A400202DE9F84323
S214400DF0304B1B681BB9304B984700BFFDE72F4B65
S214400E0098472C4B1A68013A1A601B68002B49D148
S214400E102B4B1B6803BB002447E0D8F80C30DC683B
S214400E2004F11800B84704F104094846B847E06A98
S214400E303368984288BF306000EB8000214B03EB5C
S214400E4080004946204B9847204B1B68E26ADB6A85
S214400E509A4228BF012504E00025DFF890801C4F09
S214400E601C4ED8F80030002BD7D11B4B1B6863B103
S214400E70194B1B687BB1194D174CA8472368013B9B
S214400E8023602368002BF8D105E0012D03D0144BD6
S214400E901B68012B08D10022114B1A60114B984752
S214400EA0012402E0002400E000240F4B984720462F
S214400EB0BDE8F88358A500202902400039024000CA
S214400EC068A50020C4A400204901400040A5002099
S214400ED0A1014000C0A4002074A40020CD0C400016
S214400EE06CA50020190240005902400044A500208D
S214400EF010B580B10446094B9847094B1B681C4403
S214400F00084B18680430084B98472046074B9847CC
S214400F10074B984708B9074B984710BD9D0C4000B3
S214400F205CA5002040A50020A1014000D909400052
S214400F30ED0D40001902400080B5154D154EDFF806
S214400F407480154F19E0C0473468B847ACB1134BAE
S214400F509847F368DC68201D114B9847114A136880
S214400F60013B13602B68013B2B600F4B9847206B6F
S214400F70DFF84490C8472046C8472B68002BE2D18C
S214400F800A4B1B68012BF8D9094B9847D7E700BF97
S214400F9094A4002028A50020ED0D40003902400012
S214400FA0A101400068A5002059024000C4A40020CA
S214400FB0190240009D0C40005904400010B5224BD9
S214400FC01B686BB9214B1B6803EB83039B00204ACD
S214400FD0D358CBB91D4B1B6843B11C4A1C4909E08A
S214400FE001221C4B1A6010BD13681BB91A4B984758
S214400FF000BFFDE71368013B1360136803EB8303F0
S21440100051F82330002BEFD0104B1B68104A990044
S214401010C81802EB800044686468446002460832A0
S214401020944206D1606803EB8301094A02EB8102D1
S214401030506003EB8303064A02EB83035B68DA687F
S214401040064B1A6010BD00BF58A50020C0A4002063
S214401050C4A400206CA500202902400040A5002022
S21440106038B518B90E4B984700BFFDE70C460D4DF6
S214401070296818310C4B9847286804300B4B984722
S214401080B4F1FF3F05D1296809480431094B984718
S21440109038BD094B18682044084B984738BD00BFF8
S2144010A02902400040A5002065014000A101400003
S2144010B078A40020490140005CA50020D9094000E2
S2144010C038B518B9094B984700BFFDE70D46084CA0
S2144010D021681831074B984720680430064B9847DC
S2144010E0064B18682844064B984738BD29024000EE
S2144010F040A5002049014000A10140005CA5002019
S214401100D909400038B5C368DC681CB9164B984707
S21440111000BFFDE704F118052846144B9847144BCA
S2144011201B689BB9251D2846104B9847E06A114B13
S2144011301B68984284BF0F4B186000EB80000E4B34
S21440114003EB800029460D4B984703E00C482946A0
S2144011500A4B98470B4B1B68E06ADB6A984234BFE1
S2144011600020012038BD00BF29024000A1014000F8
S21440117058A50020C0A40020C4A400204901400077
S21440118044A5002040A5002008B518B9054B98474F
S21440119000BFFDE7044A12680260044A12684260D3
S2144011A008BD00BF290240003CA500205CA50020E9
S2144011B038B518B9194B984700BFFDE70D460446A9
S2144011C019B9164B984700BFFDE7154B98472B6853
S2144011D0B3F1FF3F18D0134A12682168914204D0F9
S2144011E0114A12686168914210D90F4A11686068C6
S2144011F0091A8B420CD91268121A9B1A2B60204689
S2144012000A4B9847002404E0002402E0012400E052
S2144012100124074B9847204638BD00BF29024000AE
S214401220390240003CA500205CA500208911400002
S214401230590240000122014B1A6070476CA50020FD
S214401240014B1868704700BF40A50020054B1B683F
S21440125033B1054B1B68002B0CBF012002207047A2
S2144012600020704790A4002058A50020002831D0C8
S21440127038B5C36A18490968C96A8B4229D21649E3
S2144012800968C96AC1F10501816103EB830313490B
S21440129001EB83034169994217D10546041D204658
S2144012A00F4B98470C4B1B68D86AE8620D4B1B687F
S2144012B0984284BF0B4B186000EB8000074B03EB53
S2144012C080002146084B984738BD034B1B68DB6AB5
S2144012D0C36238BD704700BF40A50020C4A40020AC
S2144012E0A1014000C0A4002049014000E8B138B543
S2144012F0C16A826C914217D00446051D28460B4BA6
S2144013009847A06CE062C0F10503A361084B1B68D8
S214401310984284BF064B186000EB8000054B03EBF9
S21440132080002946044B984738BD7047A1014000CD
S214401330C0A40020C4A400204901400010B50446C3
S2144013404160206191420AD8D21A83699A4211D2EA
S2144013500A4B1868211D0A4B9847002010BD9A4238
S21440136001D2994208D2074B1868211D044B984772
S214401370002010BD012010BD012010BDA8A50020F2
S2144013806501400074A5002070B50D4B98470D4B85
S2144013901B688BB90C4D28460C4EB0470C4C20466B
S2144013A0B0470C4B1D600C4B1C6005200C210022E6
S2144013B00A4B9847034B1860094B984770BD00BFCF
S2144013C039024000A4A5002078A50020290140004D
S2144013D08CA5002074A50020A8A500202906400062
S2144013E05902400010B584B00B4B98470B4B1B6816
S2144013F063B10423009300230193029303930848A8
S21440140008494FF48272084CA04718B9074B9847D2
S21440141000BFFDE704B010BD89134000A4A500201E
S214401420391540009C2F4000310A400029024000F8
S21440143030B585B00F4C2568C5B101910292039036
S2144014406BB90D4B984701280A4B186801A907BF8E
S214401450089A002300221346084CA04707E0284677
S21440146001A91A460023064CA04700E0002005B01C
S21440147030BD00BFA4A500204D12400081064000AC
S214401480A10740002DE9F04782B08146224B98479D
S2144014908046224B1B68984234D224E0DA68D2F861
S2144014A000A0DB68DC68251D2846B847636A2046EE
S2144014B09847E369012B18D1A3695344534506D98D
S2144014C06360246130682946154B98470DE0002339
S2144014D00093204619465246124CA04728B9124B54
S2144014E0984700BFFDE7114E114F33681A68002A2F
S2144014F0D4D1104A10680D49086013600123C9F81A
S214401500003002E00023C9F80030044BC3F80080E6
S214401510404602B0BDE8F087AD0C4000A0A50020D4
S21440152065014000311440002902400074A50020A7
S214401530A1014000A8A500202DE9F04387B04D4DFD
S214401540DFF860814C4B1B681A68002A00F08780E1
S214401550DB681E68494B984703A8494B984707469F
S214401560039B002B30D1864224D8464B9847424BAB
S2144015701B68DB68DC68201DC047E369012B14D17B
S214401580A169204631443A4633463F4FB847012882
S2144015900BD1002300932046194632463B4EB047B7
S2144015A018B93B4B984700BFFDE7636A204698470B
S2144015B00CE000262868F11B364B9847314B98477D
S2144015C020B9354B984701E02E4B984702A82C4B44
S2144015D098470746314EDFF8B09038E0059C1CB17E
S2144015E063690BB1201DC047039B022B1FD0032B02
S2144015F02AD0002B2BD1049BA169204619443A4699
S214401600C847012823D1636A20469847E369012BDF
S2144016101DD1A2690023009320461946049C22440B
S2144016201A4CA04798B91A4B984700BFFDE7049953
S214401630A16119B9164B984700BFFDE720463944CB
S2144016403A463B46C84702E02046154B984728682E
S21440165003A900221346B0470028BFD172E7074BC4
S214401660984703A8064B98470746039B002BA0D0F5
S214401670AAE700BFA4A5002074A500209D0C40004A
S21440168085144000ED0D40003D13400031144000ED
S214401690290240008D0940001902400031084000F0
S2144016A059044000A101400010B50E480E4B984723
S2144016B000203E210D4B98470D4CA0470028FCD0FB
S2144016C00C4B98470C4A0D4BDA620D4CA04700284D
S2144016D0FCD010200B4B98470B4B98470148024BC9
S2144016E0984710BD000E2707192840003D234000AC
S2144016F091234000DD234000013F130000040E40CC
S214401700E9234000D92240000527400070B54FF439
S2144017100042674B5A604C204FF06051654CA047E2
S21440172002206549A04703204FF00061A0470420EF
S2144017304FF00061A0472D204FF08051A0475F4DED
S21440174040202946A04741202946A0474220294616
S214401750A04743202946A04744202946A047452085
S2144017602946A04746202946A04747202946A04765
S2144017704B202946A04748202946A047504E1620D1
S2144017803146A04753202946A0474D204FF04051B0
S214401790A04740202946A04741202946A04742204E
S2144017A02946A04743202946A04744202946A0472B
S2144017B045202946A04746202946A0474720294697
S2144017C0A0474B202946A04748202946A0474E2000
S2144017D02946A04749204FF04051A047522029466D
S2144017E0A04753202946A04754202946A0475520C5
S2144017F02946A04756202946A04757202946A047B5
S21440180058202946A04759202946A0475A2029460D
S214401810A0475B202946A0475C202946A0475D207C
S2144018202946A0475E202946A0475F202946A04774
S21440183012203146A04713203146A0471420314697
S214401840A04700203146A04701203146A0475020FF
S2144018502946A0474A204FF06051A0474F204FF0FE
S2144018606051A04715204FF04051A04710207121ED
S214401870A0470F207121A04705F1005518202946A2
S214401880A04719202946A0471A202946A0471B20D2
S2144018902946A0471C202946A0471D202946A04788
S2144018A01E202946A0471F202946A04770BD00BFDE
S2144018B050140E40D1204000790000280100000856
S2144018C00100001808B520B108461146034B98475A
S2144018D008BD08461146024B984708BD4D1F4000BC
S2144018E0491F400008B5014B984708BDD124400029
S2144018F008B5014B984708BDB12540002DE9F04199
S21440190086B007464C1C0125124EDFF84C8013E08B
S214401910FE2B03D14AF26A70C0470CE08DF80430C3
S214401920029521238DF8143004950392384601A978
S214401930B04708280AD00234224614F8013CFF2B50
S214401940E6D12178FF29E9D1002000E0082006B042
S214401950BDE8F081F118400001000020F0B58DB0E0
S214401960074600230093019321268DF818600A232A
S2144019708DF8083001240394CDF810D0059402A9C0
S2144019803A4DA8478DF82C600B238DF81C300894F0
S21440199001AB09930A94384607A9A847019B009AC9
S2144019A043EA0223C3F30723772B35D10023019361
S2144019B002931C238DF81C3008948DF82C6001ABE4
S2144019C009930A94384607A9A8471D238DF81C306A
S2144019D008948DF82C6002AB09930A94384607A900
S2144019E0A847019B7F2B3ED1029BA22B3BD115E003
S2144019F001AB0993384607A91D4B9847CDF824D02C
S214401A00384607A9194B98470198009B181A18BFE3
S214401A10012029E0012027E0012025E00023009353
S214401A200193029301238DF81C30089321228DF8F0
S214401A302C200A9301AB0993384607A90B4CA047C4
S214401A400CABAD2243F8282D0993384607A9084B1E
S214401A509847CDF824D0384607A9A047029B009A5D
S214401A609A42D7D1C4E701200DB0F0BDE51840003A
S214401A70F118400008B5082914D8DFE801F015052C
S214401A801707090B0D0F11000B4910E00B490EE02C
S214401A900B490CE00B490AE00B4908E00B4906E00D
S214401AA00B4904E0012008BD0A4900E00A490B4BF7
S214401AB09847002008BD00BF8831400034374000BA
S214401AC07832400040364000943040006C3340004E
S214401AD0A42F40005035400060344000FD184000C0
S214401AE070B483B0C0F11100102828BF1020002821
S214401AF008BF01200021104E4FF40055182475638E
S214401B000194019B5A1E0192002BFAD13563019431
S214401B10019B5A1E0192002BFAD101318142EED32D
S214401B204FF400330193019B5A1E0192002BFAD1C9
S214401B3003B070BC704700BF00120E4082B04FF436
S214401B400052064B5A634FF400330193019B5A1ED2
S214401B500192002BFAD102B0704700BF00120E402F
S214401B60C0F30742034B1A70C0F307221A70C0B284
S214401B7018707047020000624FF0C44300221A708B
S214401B8018700A0A02331A70C9B21970704700BF3B
S214401B9082B000230193019B984211D90021094A43
S214401BA00191019B934205D8019B01330193019B10
S214401BB09342F9D9019B01330193019B8342EFD3B2
S214401BC002B070479F86010008B5072040F23311E7
S214401BD0014B984708BD00BF791B4000044A131FBD
S214401BE002F56F7243F8040F9342FBD1704700BF73
S214401BF0ACA500202DE9F0410F4615461C461FFABD
S214401C0080F850204146094EB047691E4144512055
S214401C1089B2B047BDB252202946B047611E29441A
S214401C20532089B2B047BDE8F08100BF791B400021
S214401C3038B503460D4620201946034CA0472120C0
S214401C402946A04738BD00BF791B40004FF0C4432B
S214401C5000221A701A705F4A1178137843EA0123FB
S214401C601BB25D4A934240F0B38070B505460720EC
S214401C7033215A4CA04710200021A04700200121C4
S214401C80A04701204FF48071A04702204FF4E06146
S214401C90A04704200021A047082040F20721A04783
S214401CA009200021A0470A200021A0470C2000213F
S214401CB0A0470D200021A0470F200021A04710205C
S214401CC00021A04711200021A04712200021A04754
S214401CD013200021A047C820414EB047102041F2B3
S214401CE09021A047112040F22721A0473220B0473C
S214401CF012201B21A0473220B04713204FF48851B2
S214401D00A04729201921A0472B200D21A04732208B
S214401D10B04730200021A04731204FF40171A04742
S214401D2032204FF40071A04735200721A0473620C7
S214401D3041F20441A047372040F20571A0473820C1
S214401D4040F20531A047392040F20771A0473C20B9
S214401D5040F20171A0473D200E21A04703204DF2DE
S214401D601001A04760204FF42741A0476120012181
S214401D70A0476A200021A04780200021A04781205C
S214401D800021A04782200021A04783200021A047B1
S214401D9084200021A04785200021A04790201021C4
S214401DA0A04792204FF4C061A04795204FF4887119
S214401DB0A047002001462A686B680A4CA047A868DE
S214401DC0094B984700200146084B9847002070BDB5
S214401DD001207047020000622593FFFF791B4000F8
S214401DE0911B4000F51B4000DD1B4000311C4000AD
S214401DF070B5064600200146074B98474FF0C4434F
S214401E0000221A7022221A704FF49634034D304640
S214401E10A847013CFBD170BD311C4000611B40000F
S214401E20EF2813D8B1F5A07F12D210B580B289B290
S214401E30084B98474FF0C44300241C7022221A7067
S214401E40054B1868054B9847204610BD0120704743
S214401E5001207047311C4000ACA50020611B4000AB
S214401E602DE9F04F85B0039002921378002B46D0B0
S214401E708B460190DFF890900A2B04D10BF1100BA3
S214401E80039B019335E003EB83031E4E06EB83036F
S214401E90A3F27F26019A13460A33009390460724FE
S214401EA037460BEB040A3D4616F8013C234113F037
S214401EB0010F03D04046C4EB0A01C847013CB4F1C9
S214401EC0FF3FF0D107240BF10F072B78234113F087
S214401ED0010F02D04046391BC847013C012CF4D1C3
S214401EE0023608F10108009B9845D8D1019B0C3377
S214401EF00193029A12F8013F0292002BBCD105B022
S214401F00BDE8F08F24384000211E400009014250B1
S214401F10704700BF00EB01114A60704700EB0111AB
S214401F208A60704700EB0111CA607047C0F88410A1
S214401F3052004FF40043B3FBF2F2013AC2F30D02F3
S214401F40C0F88C20704700BF0163704741637047FC
S214401F504264B1F1C05F2FD007D8B1F1006F14D002
S214401F60B1F1805F1ED039B97047B1F1205F37D0EC
S214401F7004D8B1F1005F29D042607047B1F1405FAC
S214401F802ED0B1F1605F2BD0F6E710B4016F046F2E
S214401F90D343214019400167416F446F21400B40B5
S214401FA043671AE0036F13430367436F416F0B4069
S214401FB023EA02034367DFE7036F016F0B4023EA20
S214401FC002030367436F13434367D5E7036F134327
S214401FD00367436F13434367CEE742605DF8044BA5
S214401FE0704700BF416412F0010F14BF416601669E
S214401FF012F00A0F14BF0162416212F0020F02D0C3
S214402000C0F8801004E012F0080F18BFC0F8841023
S21440201041610160704700BF10B44164019C0CB13F
S214402020416600E001660BB1016500E041650AB11A
S214402030016300E04163016101605DF8044B704755
S21440204012F0100F10D0C0F8B01012F0200F14BFCE
S214402050C0F8D410C0F8D01012F0400F14BFC0F82B
S214402060C010C0F8C4107047C0F8B410704700BF26
S214402070C36C0164704700BFC06C7047806C70478B
S214402080430903F5001303F207735B0200F01F00D9
S214402090012282401A637047430903F5001303F296
S2144020A007735B0200F01F00012282405A637047AC
S2144020B0430903F5001303F207735B02996B00F0C4
S2144020C01F00012282400A4214BF5A631A637047B7
S2144020D070B582B00D46430903F5001303F207734B
S2144020E05C0201F0F043B3F1005F47D009D8B3F18A
S2144020F0805F21D0B3F1C05F2FD0B3F1006F6FD1B6
S21440210009E0B3F1405F55D0B3F1605F52D0B3F110
S214402110205F44D064E000F01F0001268640204641
S2144021204FF000613246304B984715F0010F14BF10
S21440213066662666012054E000F01F0001268640B1
S21440214020464FF080513246274B984715F0010FF6
S21440215014BF66662666012043E000F01F00012695
S214402160864020464FF0C05132461F4B984715F0E8
S214402170010F14BF66662666012032E000F01F009D
S2144021800126864020464FF000513246164B98476F
S21440219015F0010F14BF66662666012021E000F0A8
S2144021A01F030126204606FA03F12A460F4B98479E
S2144021B0304616E000F01F03012605F0605205EA9F
S2144021C006010091204606FA03F1B2F1605F14BFA3
S2144021D000220122C5F38003054CA047304600E0AC
S2144021E0002002B070BD00BF511F4000E51F4000F8
S2144021F0192040002DE9F84381468846124B9847FF
S21440220005464846114B9847054013D0104C04F1FC
S21440221060062368434508D16168294205D0E368D3
S21440222040469847636825EA0305B44202D0103416
S214402230002DEED1074B1B6823B1074B1B680BB133
S21440224048469847BDE8F883792040007D20400006
S21440225074A90020ECA9002070A90020F8B50C4C09
S2144022602468062C11D815460A4F2201BE18B950CC
S2144022707560B360069AF2600134054A14602946D8
S2144022801A46054B98470020F8BD0120F8BD00BF10
S2144022906CA9002074A900204120400008B50248DF
S2144022A00B21024B984708BD000E0E40F52140001A
S2144022B008B502480C21024B984708BD00100E4056
S2144022C0F521400008B502480D21024B984708BD4D
S2144022D000120E40F5214000174A136B23F070039E
S2144022E018431063936E13F0080F03D009E0013BC8
S2144022F003D11CE04FF400630F498A6E12F0080FBA
S214402300F5D00D4B1A6B42F003021A63986E10F02C
S214402310080004D000207047013B03D109E04FF489
S214402320006305498A6E12F0080FF5D07047012009
S21440233070470120704700BF00040E4038B1114975
S2144023400B6A114A1A40114B13430B6270470D4AF1
S214402350136A23F45C1323F0030343F45C1343F043
S2144023600103090289B20B431362936E13F0010F07
S214402370FBD0044A136A43F09B7343F480331362E2
S214402380704700BF00040E40FCFFC8FE0200370145
S214402390024B986E00F48030704700BF00040E4039
S2144023A010B40C4C4FF00053A3620B4B03EA0040B2
S2144023B040F00050D2B20243090201F47C510A4375
S2144023C0A2622246936E13F0020FFBD05DF8044BD8
S2144023D0704700BF00040E400000FF070022014B7C
S2144023E0DA62704700040E40024B986E00F004001C
S2144023F0704700BF00040E4022281ED81F280CD865
S214402400114B9A69012383401A40934217D0012307
S21440241083400D4A1361002070470B4BD3F80821C8
S2144024202038012383401A4093420AD00123834038
S214402430054AC2F80031002070470120704700204E
S21440244070470020704700BF00040E400F4B994273
S21440245019D84900B2FBF1F2043AFF2A07D9002303
S21440246001335208FF2A03D9072BF9D100E0002395
S214402470110289B21B0403F4E0230B43D2B21A4381
S2144024800261002070470120704700BF801A060096
S21440249038B504460D464FF0FF338362036A802307
S2144024A00360036B08230360202303600423036058
S2144024B049682A68054B9847012814BF0020012028
S2144024C06B7A012B04BF4023236038BD4D24400067
S2144024D02DE9F041CA688D68002A48D0002646603B
S2144024E04B681B0203F4407343F480540B7C1B047C
S2144024F003F4FE0323434360C6604C685CB10B782C
S214402500012CC4BF4E7846EA0323022C04DD8978AA
S21440251041EA032300E00023C360012A03D10323DA
S214402520036001272FE00123036000272BE02146AC
S214402530036A13F4807F1DD14C1EF1B1012A04D1E9
S21440254077BBC0F8008067462AE013F0020F05D03C
S214402550036B2B70013A0135314600E02146002AD4
S214402560E6D1036A13F0010FFBD0036A1CE04FF07C
S214402570010E19E04FF0050E16E04FF0090E13E07D
S2144025804FF0050E10E0036A13F4807EF8D143F650
S214402590972443F698264FF002084FF0010CCDE7FB
S2144025A013F0020FC3D0D3E77046BDE8F08100BFFA
S2144025B00346CA688868002A40D070B400265E6029
S2144025C00C7C240404F4FE054C68240204F4407495
S2144025D02C435C60DE604D685DB10C78012DC4BF55
S2144025E04E7846EA0424022D04DD897841EA042424
S2144025F000E00024DC600BE0196A11F4807F1FD1F4
S21440260011F0040FF8D010F8011B5963013A07D0B7
S214402610196A11F4807F15D111F0040FECD0F2E75F
S2144026201A6A12F480700FD112F0040FF8D002220A
S2144026301A601A6A12F0010FFBD006E001207047BC
S214402640052002E0052000E0052070BC704700BF72
S214402650FEE700BF08B5204B204A9A4213D9204BCC
S2144026601D4A9A421FD21146043203339B1A23F066
S21440267003030433194A134452F8040B41F8040B7D
S2144026809A42F9D10FE0144B144A9A420BD2144B9B
S214402690114A9A1A134881182AB151F8042943F866
S2144026A0042D8142F9D100BF0F4B104A9A420BD2FB
S2144026B0131D0F4AD21A22F003021A44043B00218B
S2144026C043F8041B9342FBD10A4B0B4A9A600B4BD0
S2144026D098470B4B9847FEE70000002068404000B4
S2144026E04804002064404000F0A900204804002030
S2144026F0F3A9002000ED00E000004000052C40005B
S214402700052940003D4B1B6B03F00303032B5DD8AC
S214402710DFE803F0020E2B2B394B5B6913F0800F7A
S21440272014BF4FF400424FF4FA42364B1A604DE065
S214402730324B1B6A13F0807F03D0334A314B1A600A
S21440274044E0324A2F4B1A602C4B1B6A03F070034E
S214402750102B02D0202B04D038E02D4A294B1A608B
S21440276034E0294A274B1A6030E0244B1B6A13F0AA
S214402770807F03D0244A234B1A6012E0234A214B21
S2144027801A601E4B1B6A03F07003102B02D0202BDE
S21440279004D006E01E4A1B4B1A6002E01A4A194B48
S2144027A01A60164B1B6B03F00303022B134A07BF3A
S2144027B0936A926AD36AD26A1248C3F30A4103689C
S2144027C001FB0333D2B2B3FBF2F303600B4B1B6B3C
S2144027D003F07003702B07D10A4A13680D49A1FB1A
S2144027E003135B0813607047044B1A6B0549C2F32A
S2144027F002120B68D3400B60704700BF00040E40C7
S21440280010140E4018000020001BB70000093D00C1
S21440281000127A00ABAAAAAA124B984204D84FF0EC
S2144028208062114B1A607047104B984203D8104A8A
S2144028300D4B1A6070470F4B984203D80E4A0A4B0E
S2144028401A6070470D4B984203D80D4A064B1A60E3
S21440285070470C4B984294BF4FF004220A4A024BF2
S2144028601A607047FF2C3101000A0E40FF59620281
S21440287000010004FF86930300020004FFB3C40473
S21440288000030004FFE0F505000500040122014BAB
S2144028901A607047E8A900200122014B1A60704771
S2144028A0E4A9002080B5094F094E0A4D3846B04786
S2144028B0002014212A46084CA04700205021074AF1
S2144028C0A0474FF4FA60064B9847EFE7EE82EE00DB
S2144028D0F11D4000A43F4000611E4000B03F400054
S2144028E0F10E400008B54C26034D044C3046A84730
S2144028F04FF47A70A047F9E7B1204000F10E40004F
S214402900FEE700BF2DE9F04F89B08A4B98478A4AC8
S214402910D36823F4E0631B041B0C43F0BF6343F40B
S2144029200033D360854B9847072001210A46844BE5
S21440293098470A20834EB047834C204602214FF0EA
S2144029400232DFF8B0A2D047204602217F4ADFF8A5
S214402950A892C847204602217D4ADFF8A082C04799
S2144029602046022103227B4FB847F02304934FF4BE
S214402970A0730593002506956FF07F430793764B2B
S214402980984704A8754B98471020754B9847754B49
S21440299098477548754B984728461421744ADFF87F
S2144029A024B2D84728465021724AD8470A20B04712
S2144029B020462946704AD047204629466F4AC8478F
S2144029C0204629466E4AC047204629460322B84735
S2144029D00B20B04704F56064204604210A22694B68
S2144029E09847694B009320460B2104227923DFF851
S2144029F01082C047654D4FF400672F602046042183
S214402A00634B9847634B009320460B214FF400429C
S214402A100123C0472F600B20B047D4F8503123F035
S214402A200103C4F85031D4F8583143F00803C4F8D1
S214402A305831D4F8503123F03003C4F85031D4F82C
S214402A40503143F02003C4F85031D4F8503123F4C9
S214402A500073C4F85031D4F8503123F48063C4F87E
S214402A60503101204C494FF480624C4B98474C4BB8
S214402A7022221A644FF480721A601A46936813F43E
S214402A80807FFBD013202F4B9847464B0493464BF2
S214402A900593464804A9464B98473C4B4FF40022C2
S214402AA0C3F88020C3F88021002183F813131A60EE
S214402AB03E4D404C2846A0470128FBD03B480221CB
S214402AC03D4B98473D483E4CA0472748274B9847A4
S214402AD000201421264A3B4DA847002050213A4A60
S214402AE0A8474C20394DA8473948A0474C20394B79
S214402AF098473948A0474C20A847002400940194A2
S214402B0002940394354836494FF480722346354D37
S214402B10A8470094019402940394334833494FF4F1
S214402B2080722346A847324B9847204609B0BDE8F6
S214402B30F08F00BFA916400000ED00E00D174000E2
S214402B40A1234000F923400000000E4004040A0A76
S214402B500A001600251F40003D1B40004D1C40004B
S214402B60E11A4000C91B4000D0E04000F11D400083
S214402B70B83F4000DC3F4000020003000405040666
S214402B80060007002D1F40009928400000E100E0A5
S214402B90712040008D28400000120E40C5184000AD
S214402BA000040E40000E2707801A060000800140F1
S214402BB0912440005D194000751A40006E5E880101
S214402BC001000020611E4000004040009920400067
S214402BD04A9405018120400025CA8200E52840002D
S214402BE034404000310A4000A528400038404000AC
S214402BF0350C40000D1F4000151F40001D1F4000B3
S214402C005D22400070B50F4E0F4D761BB61018BFB4
S214402C10002405D0013455F8043B9847A642F9D124
S214402C200A4E0B4D761B01F00DFAB61018BF002465
S214402C3006D0013455F8043B9847A642F9D170BDFA
S214402C4070BD00BF504040005040400058404000DB
S214402C5050404000844641EA000313F003036DD120
S214402C60403A41D351F8043B40F8043B51F8043B0A
S214402C7040F8043B51F8043B40F8043B51F8043B11
S214402C8040F8043B51F8043B40F8043B51F8043B01
S214402C9040F8043B51F8043B40F8043B51F8043BF1
S214402CA040F8043B51F8043B40F8043B51F8043BE1
S214402CB040F8043B51F8043B40F8043B51F8043BD1
S214402CC040F8043B51F8043B40F8043B51F8043BC1
S214402CD040F8043B51F8043B40F8043B51F8043BB1
S214402CE040F8043B403ABDD2303211D351F8043B51
S214402CF040F8043B51F8043B40F8043B51F8043B91
S214402D0040F8043B51F8043B40F8043B103AEDD2FF
S214402D100C3205D351F8043B40F8043B043AF9D250
S214402D20043208D0D2071CBF11F8013B00F8013B23
S214402D3001D30B8803806046704700BF082A13D330
S214402D408B078DD010F003038AD0C3F10403D21A48
S214402D50DB071CBF11F8013B00F8013B80D331F87C
S214402D60023B20F8023B7BE7043AD9D3013A11F8FC
S214402D70013B00F8013BF9D20B7803704B78437067
S214402D808B7883706046704770B4840746D0541E74
S214402D90002A41D0CDB2034602E0621EE4B3144698
S214402DA003F8015B9A07F8D1032C2ED9CDB245EA39
S214402DB005250F2C45EA054519D903F1100226468C
S214402DC0103E0F2E42F8105C42F80C5C42F8085C4D
S214402DD042F8045C02F11002F2D8A4F1100222F08C
S214402DE00F0204F00F041032032C13440DD91E4674
S214402DF02246043A032A46F8045BFAD8221F22F0F9
S214402E0003020432134404F003042CB1C9B21C4438
S214402E1003F8011BA342FBD170BC7047144603461F
S214402E20C2E700BF40EA01039B0770B42BD1032AD8
S214402E3029D90C460346214654F8046BA6F10135C1
S214402E4025EA060515F0803F05D1043A032A43F8E3
S214402E50046B2146EFD8A2B10C781C70013A0133BE
S214402E6001313CB16AB111F8014B03F8014B013A0C
S214402E70002CF7D12AB11A44002103F8011B9342D3
S214402E80FBD170BC70470346E5E700BF024B13B169
S214402E90024800F005B8704700000000AD2E400024
S214402EA0014600200246034600F016B838B5084BE7
S214402EB0084DED1AAC1018BFED1805D0013C55F87A
S214402EC0043D9847002CF9D1BDE8384001F0C4B81D
S214402ED064404000684040002DE9F047254C256896
S214402EE0D5F848410646884692469946CCB360682F
S214402EF01F2818DC431C7EB104EB80050121C5F871
S214402F0088A0D4F8887101FA00F21743022EC4F85C
S214402F108871C5F808911ED00230636044F820805E
S214402F200020BDE8F087144B03B34FF4C870AFF3EE
S214402F3000800446D0B1D5F84831002780E88800A4
S214402F40C5F8484138460123C4F88871C4F88C71E6
S214402F50002EE1D0D0E7D4F88C110A43C4F88C2177
S214402F60DAE705F5A674C5F84841C0E74FF0FF30EC
S214402F70BDE8F08740404000000000002573090986
S214402F8025630925750925750925750D0A00000074
S214402F9049444C45000000000D0A0000546D722064
S214402FA0537663000E001280FE05130011021200D5
S214402FB0D5100CD40D341601172518A019031AF095
S214402FC01B89220329182BF82C0131A032F033C478
S214402FD03AB4363F046027803D0F3E803F40407FF6
S214402FE0416A422944E54541470249644AA14B703B
S214402FF04C1A4D504E1364006788681A1438243CA7
S214403000253026725097517E5200530020002123CF
S2144030103814E900565557FF58FF59FF5F04EC0037
S21440302013FF807F813F82328301381185008603FB
S2144030308701880589308D308F8593309585993006
S2144030409B859C089D129E239F45A055A164A27215
S214403050A37FA48BA595A6A7A7B5A8CBA9DDAAEC68
S214403060AB1ACE78CF6ED00AD10CD284D390D41E71
S2144030705A245B1F5C885D60AC6EBEFFBF0031A00B
S21440308032F0823F1200363F530033C41B8922037E
S2144030902802FFFF0E001280130011011200D51007
S2144030A00C120D34172518A019031AF01B89220399
S2144030B029182BF82C0131A032F033C43AB4363FED
S2144030C0046027803D0F3E803F40407F416A422952
S2144030D044E54541470249644AA14B704C1A4D505D
S2144030E04E1364006788681A1438243C25302672CC
S2144030F05097517E52005300200021233814E90097
S214403100565557FF58FF59FF5F04EC0013FF807F6A
S214403110813F82328301381184708500860387019F
S214403120880589308D308F859330958599309B857D
S2144031309C089D129E239F45A055A164A272A37F22
S214403140A48BA595A6A7A7B5A8CBA9DDAAECAB1AD4
S214403150CE78CF6ED00AD10CD284D390D41E5A24C7
S2144031605B1F5C885D60AC6EBEFFBF003128323CA2
S214403170823F1201362F8304530033F41B8A220306
S214403180840084002802FFFF0E001280FE05130014
S21440319011031200D5100CD40D341601172518A0B3
S2144031A019031AF01B89220329182BF82C0131A089
S2144031B032F033C43AB4363F046027803D0F3E8039
S2144031C03F40407F416A422944E5454147024964C1
S2144031D04AA14B704C1A4D504E1364006788681ACB
S2144031E01438243C253026725097517E52005300A6
S2144031F0200021233814E900565557FF58FF59FF41
S2144032005F04EC0013FF807F813F823283013811D8
S214403210850086038701880589308D308F859330F9
S214403220958599309B859C089D129E239F45A05569
S214403230A164A272A37FA48BA595A6A7A7B5A8CB89
S214403240A9DDAAECAB1ACE78CF6ED00AD10CD284C8
S214403250D390D41E5A245B1F5C885D60AC6EBEFF64
S214403260BF0031503278823F1200363F530033C49D
S2144032701B8922032802FFFF0E0012801300110153
S2144032801200D5100C120D34172518A019031AF089
S2144032901B89220329182BF82C0131A032F033C4A5
S2144032A03AB4363F046027803D0F3E803F40407F23
S2144032B0416A422944E54541470249644AA14B7068
S2144032C04C1A4D504E1364006788681A1438243CD4
S2144032D0253026725097517E5200530020002123FD
S2144032E03814E900565557FF58FF59FF5F04EC0065
S2144032F013FF807F813F82328301381184708500BE
S21440330086038701880589308D308F859330958573
S21440331099309B859C089D129E239F45A055A1648D
S214403320A272A37FA48BA595A6A7A7B5A8CBA9DD17
S214403330AAECAB1ACE78CF6ED00AD10CD284D390FA
S214403340D41E5A245B1F5C885D60AC6EBEFFBF0017
S21440335031503278823F1201362F8304530033F4C3
S2144033601B8A2203840084002802FFFF0E0012807E
S214403370FE05130011021200D5100CD40D341601B0
S214403380172518A019031AF01B89220329182BF8B1
S2144033902C0131A032F033C43AB4363F0460278063
S2144033A03D0F3E803F40407F416A422944E54541CB
S2144033B0470249644AA14B704C1A4D504E13640064
S2144033C06788681A1438243C253026725097517EF8
S2144033D05200530020002123380784023814E900A5
S2144033E0565557FF58FF59FF5F04EC0013FF807F88
S2144033F0813F823283013811850086038701880524
S21440340089308D308F859330958599309B859C0883
S2144034109D129E239F45A055A164A272A37FA48BB4
S214403420A595A6A7A7B5A8CBA9DDAAECAB1ACE78DA
S214403430CF6ED00AD10CD284D390D41E5A245B1FB0
S2144034405C885D60AC6EBEFFBF0031503278823F14
S2144034501200363F530033C41B8922032802FFFF65
S2144034600E001280FE05130011021200D5100CD477
S2144034700D341601172518A019031AF01B892203CC
S21440348029182BF82C0131A032F033C43AB4363F19
S214403490046027803D0F3E803F40407F416A42297E
S2144034A044E54541470249644AA14B704C1A4D5089
S2144034B04E1364006788681A1438243C25302672F8
S2144034C05097517E52005300200021233814E900C3
S2144034D0565557FF58FF59FF5F04EC0013FF807F97
S2144034E0813F823283013811850086038701880533
S2144034F089308D308F859330958599309B859C0893
S2144035009D129E239F45A055A164A272A37FA48BC3
S214403510A595A6A7A7B5A8CBA9DDAAECAB1ACE78E9
S214403520CF6ED00AD10CD284D390D41E5A245B1FBF
S2144035305C885D60AC6EBEFFBF0031503278823F23
S2144035401200363F530033C41B8922032802FFFF74
S2144035500E001280FE05130011051200D5100CD483
S2144035600D341601172518A019031AF01B892203DB
S21440357029182BF82C0131A032F033C43AB4363F28
S214403580046027803D0F3E803F40407F416A42298D
S21440359044E54541470249644AA14B704C1A4D5098
S2144035A04E1364006788681A1438243C2530267207
S2144035B05097517E52005300200021233814E900D2
S2144035C0565557FF58FF59FF5F04EC0013FF807FA6
S2144035D0813F823283013811850086038701880542
S2144035E089308D308F859330958599309B859C08A2
S2144035F09D129E239F45A055A164A272A37FA48BD3
S214403600A595A6A7A7B5A8CBA9DDAAECAB1ACE78F8
S214403610CF6ED00AD10CD284D390D41E5A245B1FCE
S2144036205C885D60AC6EBEFFBF0031503278823F32
S2144036301200363F530033C41B8922032802FFFF83
S2144036400E001280130011011200D5100C540D34D8
S2144036501601172518A019031AF01B8922032918EA
S2144036602BF82C0131A032F033C43AB4363F046014
S21440367027803D0F3E803F40407F416A422944E5D7
S2144036804541470249644AA14B704C1A4D504E136F
S21440369064006788681A1438243C25302672509790
S2144036A0517E52005300200021233814E90056551D
S2144036B057FF58FF59FF5F04EC0013FF807F813FA0
S2144036C0823283013811847085008603870188051D
S2144036D089308D308F859330958599309B859C08B1
S2144036E09D129E239F45A055A164A272A37FA48BE2
S2144036F0A595A6A7A7B5A8CBA9DDAAECAB1ACE7808
S214403700CF6ED00AD10CD284D390D41E5A245B1FDD
S2144037105C885D60AC6EBEFFBF003128323C340032
S214403720823F1200363F530033001B892203280293
S214403730D900FFFF0E001280FE0513001101120093
S214403740D5100CD40D341601172518A019031AF0FD
S2144037501B89220329182BF82C0131A032F033C4E0
S2144037603AB4363F046027803D0F3E803F40407F5E
S214403770416A422944E54541470249644AA14B70A3
S2144037804C1A4D504E1364006788681A1438243C0F
S214403790253026725097517E520053002000212338
S2144037A03814E900565557FF58FF59FF5F04EC00A0
S2144037B013FF807F813F8232830138118500860364
S2144037C08701880589308D308F859330958599306F
S2144037D09B859C089D129E239F45A055A164A2727E
S2144037E0A37FA48BA595A6A7A7B5A8CBA9DDAAECD1
S2144037F0AB1ACE78CF6ED00AD10CD284D390D41EDA
S2144038005A245B1F5C885D60AC6EBEFFBF003150C3
S2144038103278823F1200363F530033C41B8922035E
S2144038202802FFFF0000000000000000000000002B
S2144038300000000000000000000000000000000043
S214403840FFCCFFCC0000000000000000000000009D
S214403850F000F00000000000F000F0000000000063
S2144038600CC00CC0FFFCFFFC0CC00CC0FFFCFFFCF7
S2144038700CC00CC00C601E703F303330FFFCFFFCA9
S214403880333033F039E018C06000F00CF03C60F0A4
S21440389003C00F003C18F03CC03C00183CF07FF8DA
S2144038A0C31CC78CCFCCDCEC7878303000FC00CC26
S2144038B00000000000004400EC00F800700000002B
S2144038C000000000000000000FC03FF0787860184D
S2144038D0C00CC00C0000000000000000C00CC00C73
S2144038E0601878783FF00FC0000000000C600EE0D3
S2144038F007C003803FF83FF8038007C00EE00C6027
S21440390003000300030003003FF03FF00300030002
S21440391003000300004400EC00F8007000000000C4
S2144039200000000000000000030003000300030046
S2144039300300030003000300030003000018003CDC
S214403940003C0018000000000000000000000000DE
S2144039500000000C003C00F003C00F003C00F000EC
S214403960C00000003FF07FF8E0FCC1CCC38CC70C21
S214403970CE0CFC1C7FF83FF000000000300C700CB2
S214403980FFFCFFFC000C000C00000000300C701C1C
S214403990E03CC07CC0ECC1CCC38CE70C7E0C3C0C3D
S2144039A030307038E01CC00CC00CC30CC30CE31C99
S2144039B07FF83CF003C007C00EC01CC038C070C0C3
S2144039C0FFFCFFFC00C000C0FC30FC38CC1CCC0C1C
S2144039D0CC0CCC0CCC0CCE1CC7F8C3F03FF07FF818
S2144039E0E31CC30CC30CC30CC30CE39C71F830F04F
S2144039F0C000C000C000C000C3FCC7FCCE00DC0056
S214403A00F800F0003CF07FF8E79CC30CC30CC30CF6
S214403A10C30CE79C7FF83CF03C007E00E70CC30CF0
S214403A20C31CC338C370E7E07FC03F80000000007F
S214403A30000018603CF03CF01860000000000000F9
S214403A4000000000000018443CEC3CF818700000F1
S214403A50000000000000030007800FC01CE0387024
S214403A607038E01CC00C00000CC00CC00CC00CC071
S214403A700CC00CC00CC00CC00CC00CC00000C00C6D
S214403A80E01C703838701CE00FC007800300000050
S214403A9030007000E000C000C1ECC3ECC300E6009C
S214403AA07E003C0030F071F8E39CC30CC3FCC3FCC2
S214403AB0C00CE01C7FF83FF03FFC7FFCE0C0C0C07D
S214403AC0C0C0C0C0C0C0E0C07FFC3FFCFFFCFFFCE5
S214403AD0C30CC30CC30CC30CC30CE79C7FF83CF070
S214403AE03FF07FF8E01CC00CC00CC00CC00CE01CC3
S214403AF070383030FFFCFFFCC00CC00CC00CC00C53
S214403B00C00CE01C7FF83FF0FFFCFFFCC30CC30C6E
S214403B10C30CC30CC30CC30CC00CC00CFFFCFFFC96
S214403B20C300C300C300C300C300C300C000C0003E
S214403B303FF07FF8E01CC00CC00CC30CC30CE31C69
S214403B4073F833F0FFFCFFFC0300030003000300A0
S214403B5003000300FFFCFFFC00000000C00CC00C8C
S214403B60FFFCFFFCC00CC00C00000000003000381A
S214403B70C01CC00CC00CC01CFFF8FFF0C000C0004A
S214403B80FFFCFFFC078007800FC01CE038707038D1
S214403B90E01CC00CFFFCFFFC000C000C000C000CF2
S214403BA0000C000C000C000CFFFCFFFC7000380002
S214403BB01F001F0038007000FFFCFFFCFFFCFFFCEE
S214403BC01C000E000700038001C000E0FFFCFFFC65
S214403BD03FF07FF8E01CC00CC00CC00CC00CE01CD2
S214403BE07FF83FF0FFFCFFFCC300C300C300C300E8
S214403BF0C300E7007E003C003FF07FF8E01CC00CAE
S214403C00C0CCC0ECC07CE0387FFC3FECFFFCFFFC47
S214403C10C300C380C380C3C0C3C0E7707E3C3C1CA7
S214403C203C187E1CE70CC30CC30CC30CC30CC39CD3
S214403C30E1F860F0C000C000C000C000FFFCFFFC20
S214403C40C000C000C000C000FFF0FFF8001C000C21
S214403C50000C000C000C001CFFF8FFF0FFC0FFE05B
S214403C6000700038001C001C00380070FFE0FFC0E9
S214403C70FFF0FFF8001C003C00F800F8003C001C79
S214403C80FFF8FFF0F03CF87C1CE00FC00780078090
S214403C900FC01CE0F87CF03CFC00FE0007000380F0
S214403CA001FC01FC03800700FE00FC00C03CC07C19
S214403CB0C0ECC1CCC38CC70CCE0CDC0CF80CF00CA2
S214403CC000000000FFFCFFFCC00CC00CC00C000055
S214403CD000000000300030000C000C000300030021
S214403CE000C000C00030003000000000C00CC00C17
S214403CF0C00CFFFCFFFC0000000000000C001C0095
S214403D0038007000E000E000700038001C000C0036
S214403D10000C000C000C000C000C000C000C000CFE
S214403D20000C000C00000000C000E00070003800EE
S214403D301800000000000000003006780EFC0CCC96
S214403D400CCC0CCC0CCC0ECC07FC03F8FFFCFFFCD8
S214403D50030C030C030C030C030C039C01F800F04B
S214403D6003F007F80E1C0C0C0C0C0C0C0C0C0E1C68
S214403D700738033000F001F8039C030C030C030CD7
S214403D80030C030CFFFCFFFC03F007F80EDC0CCC26
S214403D900CCC0CCC0CCC0EDC07D8039000000300F7
S214403DA03FFC7FFCE300E3007000300000000000B2
S214403DB00318079C0FCC0CCC0CCC0CCC0CCC0CDCDD
S214403DC00FF807F0FFFCFFFC0300030003000300AE
S214403DD0038001FC00FC0000000000000000000022
S214403DE01BFC1BFC00000000000000000000003030
S214403DF00038001C000C000C001CCFF8CFF0000070
S214403E000000FFFCFFFC00E001E003F007380E1C5A
S214403E100C0C000000000000C00CC00CFFFCFFFCB7
S214403E20000C000C000000000FFC0FFC0E0007000A
S214403E3003C003C007000E000FFC0FFC0FFC0FFC76
S214403E40030007000E000C000C000E0007FC03FCED
S214403E5003F007F80E1C0C0C0C0C0C0C0C0C0E1C77
S214403E6007F803F00FFC0FFC0CC00CC00CC00CC0D5
S214403E700CC00FC007800300030007800FC00CC0B3
S214403E800CC00CC00CC00CC00FFC0FFC0FFC0FFC91
S214403E90038007000E000C000C000E000700030015
S214403EA00318079C0FCC0CCC0CCC0CCC0CCC0CFCCC
S214403EB00E78063000000C000C00FFF0FFF80C1CDB
S214403EC00C1C0C380C3000000FF00FF8001C000CD7
S214403ED0000C000C000C001C0FF80FF00FC00FE099
S214403EE000700038001C001C003800700FE00FC047
S214403EF00FF00FF8001C001C00F800F8001C001C17
S214403F000FF80FF00C0C0E1C073803F001E001E030
S214403F1003F007380E1C0C0C0C000E00070C039C1C
S214403F2001F801F0038007000E000C000C0C0C1C7E
S214403F300C3C0C7C0CEC0DCC0F8C0F0C0E0C0C0CB3
S214403F400000030007803FF07CF8E01CC00CC00C6B
S214403F50C00C0000030C030C3FFC7FFCE30CC30CBE
S214403F60C00CE00C700C300C0000C00CC00CC00C38
S214403F70E01C7CF83FF0078003000000C000C00053
S214403F80C000C000C000C000C000C000C000C000EC
S214403F90FFFCFFFCFFFCFFFCFFFCFFFCFFFCFFFC04
S214403FA0FFFCFFFC4672656552544F53000000000C
S214403FB044454D4F000000004F5637373430206997
S214403FC06D6167652073656E736F720A63617074A6
S214403FD0757265206578616D706C6500506C6561C2
S214403FE07365205761697420647572696E67200A2C
S214403FF0696E697469616C697A6174696F6E000094
S214404000506C656173652050726573732062757479
S214404010746F6E0A746F2074616B6520616E6420E5
S214404020646973706C61790A612070696374757233
S214404030650000004C6564004C43440043000000AB
S21440404020000020F8B500BFF8BC08BC9E4670476C
S2144040508D2E4000F1004000F8B500BFF8BC08BC0B
S20C4040609E467047CD0040006B
S214404068BFF35F8F0138FBD1704700BFAAAAAAAA40
S21440407800A00000FFFFFFFF00093D000000000011
S214404088000000000C03002074030020DC0300201E
S21440409800000000000000000000000000000000D3
S2144040A800000000000000000000000000000000C3
S2144040B8000000003C4040000000000000000000F7
S2144040C800000000000000000000000000000000A3
S2144040D80000000000000000000000000000000093
S2144040E80000000000000000000000000000000083
S2144040F80000000000000000000000000000000073
S2144041080000000000000000000000000000000062
S2144041180000000000000000000000000000000052
S2144041280000000000000000010000000000000041
S2144041380E33CDAB34126DE6ECDE05000B00000006
S2144041480000000000000000000000000000000022
S2144041580000000000000000000000000000000012
S2144041680000000000000000000000000000000002
S21440417800000000000000000000000000000000F2
S80440265540
