S02100005374616E646172645F4F56373734305F73616D3473777069722E73726563F3
S21440000010DA0020311140002D1140002D11400023
S2144000102D1140002D1140002D1140000000000021
S21440002000000000000000000000000039144000FE
S2144000302D114000000000001115400055154000ED
S2144000402D1140002D1140002D1140002D11400073
S2144000502D1140002D1140002D11400000000000E1
S2144000602D1140002D11400000000000790D400089
S2144000708D0D4000A10D40002D1140002D11400077
S21440008000000000000000002D1140002D1140002F
S2144000902D1140002D1140002D1140002D11400023
S2144000A02D1140002D1140002D1140002D11400013
S2144000B02D1140002D1140002D1140002D11400003
S2144000C02D1140002D1140002D11400010B5054C5B
S2144000D0237833B9044B13B10448AFF300800123AF
S2144000E0237010BD4004002000000000404940003E
S2144000F0084B10B51BB108480849AFF300800848C4
S214400100036803B910BD074B002BFBD0BDE8104079
S214400110184700BF0000000040494000440400204B
S214400120404940000000000010B50E480E4B98476E
S21440013000203E210D4B98470D4CA0470028FCD090
S2144001400C4B98470C4A0D4BDA620D4CA0470028E2
S214400150FCD010200B4B98470B4B98470148024B5E
S214400160984710BD000E2707F5124000190E4000B4
S2144001706D0E4000B90E4000013F130000040E40D3
S214400180C50E4000B50D4000E111400070B54FF47B
S2144001900042674B5A604C204FF06051654CA04778
S2144001A002206549A04703204FF00061A047042085
S2144001B04FF00061A0472D204FF08051A0475F4D83
S2144001C040202946A04741202946A04742202946AC
S2144001D0A04743202946A04744202946A04745201B
S2144001E02946A04746202946A04747202946A047FB
S2144001F04B202946A04748202946A047504E162067
S2144002003146A04753202946A0474D204FF0405145
S214400210A04740202946A04741202946A0474220E3
S2144002202946A04743202946A04744202946A047C0
S21440023045202946A04746202946A047472029462C
S214400240A0474B202946A04748202946A0474E2095
S2144002502946A04749204FF04051A0475220294602
S214400260A04753202946A04754202946A04755205A
S2144002702946A04756202946A04757202946A0474A
S21440028058202946A04759202946A0475A202946A3
S214400290A0475B202946A0475C202946A0475D2012
S2144002A02946A0475E202946A0475F202946A0470A
S2144002B012203146A04713203146A047142031462D
S2144002C0A04700203146A04701203146A047502095
S2144002D02946A0474A204FF06051A0474F204FF094
S2144002E06051A04715204FF04051A0471020712183
S2144002F0A0470F207121A04705F100551820294638
S214400300A04719202946A0471A202946A0471B2067
S2144003102946A0471C202946A0471D202946A0471D
S2144003201E202946A0471F202946A04770BD00BF73
S21440033050140E407D0B4000790000280100000854
S2144003400100001808B520B108461146034B9847EF
S21440035008BD08461146024B984708BDF5094000BF
S214400360F109400008B5014B984708BDAD0F400065
S21440037008B5014B984708BD8D1040002DE9F04167
S21440038086B007464C1C0125124EDFF84C8013E021
S214400390FE2B03D14AF26A70C0470CE08DF8043059
S2144003A0029521238DF8143004950392384601A90E
S2144003B0B04708280AD00234224614F8013CFF2BE6
S2144003C0E6D12178FF29E9D1002000E0082006B0D8
S2144003D0BDE8F0817103400001000020F0B58DB00B
S2144003E0074600230093019321268DF818600A23C0
S2144003F08DF8083001240394CDF810D0059402A956
S2144004003A4DA8478DF82C600B238DF81C30089485
S21440041001AB09930A94384607A9A847019B009A5E
S21440042043EA0223C3F30723772B35D100230193F6
S21440043002931C238DF81C3008948DF82C6001AB79
S21440044009930A94384607A9A8471D238DF81C30FF
S21440045008948DF82C6002AB09930A94384607A995
S214400460A847019B7F2B3ED1029BA22B3BD115E098
S21440047001AB0993384607A91D4B9847CDF824D0C1
S214400480384607A9194B98470198009B181A18BF79
S214400490012029E0012027E0012025E000230093E9
S2144004A00193029301238DF81C30089321228DF886
S2144004B02C200A9301AB0993384607A90B4CA0475A
S2144004C00CABAD2243F8282D0993384607A9084BB4
S2144004D09847CDF824D0384607A9A047029B009AF3
S2144004E09A42D7D1C4E701200DB0F0BD6503400065
S2144004F07103400008B5082914D8DFE801F0150557
S2144005001707090B0D0F11000B4910E00B490EE0C1
S2144005100B490CE00B490AE00B4908E00B4906E0A2
S2144005200B4904E0012008BD0A4900E00A490B4B8C
S2144005309847002008BD00BF0C3A4000B83F400036
S214400540FC3A4000C43E400018394000F03B4000B2
S21440055028384000D43D4000E43C40007D03400045
S21440056070B483B0C0F11100102828BF10200028B6
S21440057008BF01200021104E4FF400551824756323
S2144005800194019B5A1E0192002BFAD135630194C7
S214400590019B5A1E0192002BFAD101318142EED3C3
S2144005A04FF400330193019B5A1E0192002BFAD15F
S2144005B003B070BC704700BF00120E4082B04FF4CC
S2144005C00052064B5A634FF400330193019B5A1E68
S2144005D00192002BFAD102B0704700BF00120E40C5
S2144005E0C0F30742034B1A70C0F307221A70C0B21A
S2144005F018707047020000624FF0C44300221A7021
S21440060018700A0A02331A70C9B21970704700BFD0
S21440061082B000230193019B984211D90021094AD8
S2144006200191019B934205D8019B01330193019BA5
S2144006309342F9D9019B01330193019B8342EFD347
S21440064002B070479F86010008B5072040F233117C
S214400650014B984708BD00BFF9054000044A131FE8
S21440066002F56F7243F8040F9342FBD1704700BF08
S2144006705C0400202DE9F0410F4615461C461FFA43
S21440068080F850204146094EB047691E41445120EB
S21440069089B2B047BDB252202946B047611E2944B0
S2144006A0532089B2B047BDE8F08100BFF90540004D
S2144006B038B503460D4620201946034CA047212056
S2144006C02946A04738BD00BFF90540004FF0C44357
S2144006D000221A701A705F4A1178137843EA012391
S2144006E01BB25D4A934240F0B38070B50546072082
S2144006F033215A4CA04710200021A047002001215A
S214400700A04701204FF48071A04702204FF4E061DB
S214400710A04704200021A047082040F20721A04718
S21440072009200021A0470A200021A0470C200021D4
S214400730A0470D200021A0470F200021A0471020F1
S2144007400021A04711200021A04712200021A047E9
S21440075013200021A047C820414EB047102041F248
S2144007609021A047112040F22721A0473220B047D1
S21440077012201B21A0473220B04713204FF4885147
S214400780A04729201921A0472B200D21A047322021
S214400790B04730200021A04731204FF40171A047D8
S2144007A032204FF40071A04735200721A04736205D
S2144007B041F20441A047372040F20571A047382057
S2144007C040F20531A047392040F20771A0473C204F
S2144007D040F20171A0473D200E21A04703204DF274
S2144007E01001A04760204FF42741A0476120012117
S2144007F0A0476A200021A04780200021A0478120F2
S2144008000021A04782200021A04783200021A04746
S21440081084200021A04785200021A0479020102159
S214400820A04792204FF4C061A04795204FF48871AE
S214400830A047002001462A686B680A4CA047A86873
S214400840094B984700200146084B9847002070BD4A
S21440085001207047020000622593FFFFF905400023
S21440086011064000750640005D064000B106400097
S21440087070B5064600200146074B98474FF0C443E4
S21440088000221A7022221A704FF49634034D3046D6
S214400890A847013CFBD170BDB1064000E1054000D1
S2144008A0EF2813D8B1F5A07F12D210B580B289B226
S2144008B0084B98474FF0C44300241C7022221A70FD
S2144008C0054B1868054B9847204610BD01207047D9
S2144008D001207047B10640005C040020E10540005E
S2144008E070B505460C46064EB047A8B2A1B2054BB9
S2144008F098474FF0C44300221A7022221A7070BDE7
S21440090075064000B10640002DE9F04F85B00390D3
S21440091002921378002B46D08B460190DFF89090D9
S2144009200A2B04D10BF1100B039B019335E003EB2C
S21440093083031E4E06EB8303A3F27F26019A1346DB
S2144009400A3300939046072437460BEB040A3D468D
S21440095016F8013C234113F0010F03D04046C4EB88
S2144009600A01C847013CB4F1FF3FF0D107240BF120
S2144009700F072B78234113F0010F02D04046391B56
S214400980C847013C012CF4D1023608F10108009B0F
S2144009909845D8D1019B0C330193029A12F8013F37
S2144009A00292002BBCD105B0BDE8F08FA8404000B5
S2144009B0A108400009014250704700BF00EB0111FA
S2144009C04A60704700EB01118A60704700EB0111E6
S2144009D0CA607047C0F8841052004FF40043B3FB1F
S2144009E0F2F2013AC2F30D02C0F88C20704700BF05
S2144009F001637047416370474264B1F1C05F2FD0D6
S214400A0007D8B1F1006F14D0B1F1805F1ED039B96C
S214400A107047B1F1205F37D004D8B1F1005F29D0DC
S214400A2042607047B1F1405F2ED0B1F1605F2BD08D
S214400A30F6E710B4016F046FD343214019400167B5
S214400A40416F446F21400B4043671AE0036F1343E6
S214400A500367436F416F0B4023EA02034367DFE7B8
S214400A60036F016F0B4023EA02030367436F134390
S214400A704367D5E7036F13430367436F13434367E7
S214400A80CEE742605DF8044B704700BF416412F009
S214400A90010F14BF4166016612F00A0F14BF0162CF
S214400AA0416212F0020F02D0C0F8801004E012F04B
S214400AB0080F18BFC0F8841041610160704700BF3E
S214400AC010B44164019C0CB1416600E001660BB174
S214400AD0016500E041650AB1016300E041630161E0
S214400AE001605DF8044B704712F0100F10D0C0F84C
S214400AF0B01012F0200F14BFC0F8D410C0F8D010B9
S214400B0012F0400F14BFC0F8C010C0F8C4107047B1
S214400B10C0F8B410704700BFC36C0164704700BF94
S214400B2041647047C06C7047806C7047430903F55A
S214400B30001303F207735B0200F01F00012282409D
S214400B401A637047430903F5001303F207735B0209
S214400B5000F01F00012282405A637047430903F5A4
S214400B60001303F207735B02996B00F01F0001222B
S214400B7082400A4214BF5A631A63704770B582B007
S214400B800D46430903F5001303F207735C0201F0B8
S214400B90F043B3F1005F47D009D8B3F1805F21D06E
S214400BA0B3F1C05F2FD0B3F1006F6FD109E0B3F15E
S214400BB0405F55D0B3F1605F52D0B3F1205F44D070
S214400BC064E000F01F000126864020464FF000619A
S214400BD03246304B984715F0010F14BF66662666BE
S214400BE0012054E000F01F000126864020464FF0CA
S214400BF080513246274B984715F0010F14BF666662
S214400C002666012043E000F01F000126864020466D
S214400C104FF0C05132461F4B984715F0010F14BF96
S214400C2066662666012032E000F01F0001268640F8
S214400C3020464FF000513246164B984715F0010FAC
S214400C4014BF66662666012021E000F01F030126D9
S214400C50204606FA03F12A460F4B9847304616E0E0
S214400C6000F01F03012605F0605205EA06010091D8
S214400C70204606FA03F1B2F1605F14BF002201225B
S214400C80C5F38003054CA047304600E0002002B084
S214400C9070BD00BFF90940008D0A4000C10A4000FF
S214400CA0D0F8503143F00103C0F850310122014BD7
S214400CB01A60704704AA0020D0F8503123F0010390
S214400CC0C0F850310022014B1A60704704AA002039
S214400CD02DE9F84381468846124B984705464846D4
S214400CE0114B9847054013D0104C04F1600623681A
S214400CF0434508D16168294205D0E3684046984795
S214400D00636825EA0305B44202D01034002DEED1C4
S214400D10074B1B6823B1074B1B680BB148469847E7
S214400D20BDE8F883250B4000290B4000240800202E
S214400D3004AA002020080020F8B50C4C2468062C95
S214400D4011D815460A4F2201BE18B9507560B360D7
S214400D50069AF2600134054A146029461A46054B45
S214400D6098470020F8BD0120F8BD00BF1C080020B1
S214400D7024080020E90A400008B502480B21024B2F
S214400D80984708BD000E0E40D10C400008B50248FA
S214400D900C21024B984708BD00100E40D10C400075
S214400DA008B502480D21024B984708BD00120E4078
S214400DB0D10C4000174A136B23F07003184310639E
S214400DC0936E13F0080F03D009E0013B03D11CE0FB
S214400DD04FF400630F498A6E12F0080FF5D00D4BA2
S214400DE01A6B42F003021A63986E10F0080004D0A3
S214400DF000207047013B03D109E04FF400630549EA
S214400E008A6E12F0080FF5D0704701207047012017
S214400E10704700BF00040E4038B111490B6A114AB2
S214400E201A40114B13430B6270470D4A136A23F462
S214400E305C1323F0030343F45C1343F001030902FD
S214400E4089B20B431362936E13F0010FFBD0044A32
S214400E50136A43F09B7343F480331362704700BFBA
S214400E6000040E40FCFFC8FE02003701024B986E9D
S214400E7000F48030704700BF00040E4010B40C4CA5
S214400E804FF00053A3620B4B03EA004040F0005083
S214400E90D2B20243090201F47C510A43A2622246BE
S214400EA0936E13F0020FFBD05DF8044B704700BF03
S214400EB000040E400000FF070022014BDA62704734
S214400EC000040E40024B986E00F00400704700BFCE
S214400ED000040E4022281ED81F280CD8114B9A69B1
S214400EE0012383401A40934217D0012383400D4A82
S214400EF01361002070470B4BD3F80821203801239C
S214400F0083401A4093420AD001238340054AC2F8E0
S214400F1000310020704701207047002070470020B5
S214400F20704700BF00040E400F4B994219D8490045
S214400F30B2FBF1F2043AFF2A07D9002301335208E4
S214400F40FF2A03D9072BF9D100E00023110289B20A
S214400F501B0403F4E0230B43D2B21A430261002081
S214400F6070470120704700BF801A060038B5044617
S214400F700D464FF0FF338362036A80230360036BA2
S214400F8008230360202303600423036049682A681B
S214400F90054B9847012814BF002001206B7A012B8F
S214400FA004BF4023236038BD290F40002DE9F0419F
S214400FB0CA688D68002A48D0002646604B681B02E7
S214400FC003F4407343F480540B7C1B0403F4FE0389
S214400FD023434360C6604C685CB10B78012CC4BFA9
S214400FE04E7846EA0323022C04DD897841EA03233F
S214400FF000E00023C360012A03D1032303600127D6
S2144010002FE00123036000272BE02146036A13F4F8
S214401010807F1DD14C1EF1B1012A04D177BBC0F8A8
S214401020008067462AE013F0020F05D0036B2B7052
S214401030013A0135314600E02146002AE6D1036AEE
S21440104013F0010FFBD0036A1CE04FF0010E19E0CD
S2144010504FF0050E16E04FF0090E13E04FF0050E68
S21440106010E0036A13F4807EF8D143F6972443F6E3
S21440107098264FF002084FF0010CCDE713F0020F10
S214401080C3D0D3E77046BDE8F08100BF0346CA68C8
S2144010908868002A40D070B400265E600C7C240429
S2144010A004F4FE054C68240204F440742C435C604F
S2144010B0DE604D685DB10C78012DC4BF4E7846EABF
S2144010C00424022D04DD897841EA042400E000244B
S2144010D0DC600BE0196A11F4807F1FD111F0040F19
S2144010E0F8D010F8011B5963013A07D0196A11F479
S2144010F0807F15D111F0040FECD0F2E71A6A12F493
S21440110080700FD112F0040FF8D002221A601A6ACB
S21440111012F0010FFBD006E001207047052002E0E8
S214401120052000E0052070BC704700BFFEE700BF0A
S21440113008B5204B204A9A4213D9204B1D4A9A4262
S2144011401FD21146043203339B1A23F003030433A1
S214401150194A134452F8040B41F8040B9A42F9D149
S2144011600FE0144B144A9A420BD2144B114A9A1A67
S214401170134881182AB151F8042943F8042D8142B6
S214401180F9D100BF0F4B104A9A420BD2131D0F4A9B
S214401190D21A22F003021A44043B002143F8041BEF
S2144011A09342FBD10A4B0B4A9A600B4B98470B4B2A
S2144011B09847FEE7000000204049400040040020D9
S2144011C03C4940000CAA0020400400200FAA002002
S2144011D000ED00E00000400019354000D5314000E9
S2144011E03D4B1B6B03F00303032B5DD8DFE803F096
S2144011F0020E2B2B394B5B6913F0800F14BF4FF454
S21440120000424FF4FA42364B1A604DE0324B1B6AAE
S21440121013F0807F03D0334A314B1A6044E0324AA1
S2144012202F4B1A602C4B1B6A03F07003102B02D016
S214401230202B04D038E02D4A294B1A6034E0294A46
S214401240274B1A6030E0244B1B6A13F0807F03D094
S214401250244A234B1A6012E0234A214B1A601E4B45
S2144012601B6A03F07003102B02D0202B04D006E03C
S2144012701E4A1B4B1A6002E01A4A194B1A60164B5C
S2144012801B6B03F00303022B134A07BF936A926A51
S214401290D36AD26A1248C3F30A41036801FB033398
S2144012A0D2B2B3FBF2F303600B4B1B6B03F070033D
S2144012B0702B07D10A4A13680D49A1FB03135B083C
S2144012C013607047044B1A6B0549C2F302120B6851
S2144012D0D3400B60704700BF00040E4010140E4011
S2144012E00C000020001BB70000093D0000127A00E9
S2144012F0ABAAAAAA124B984204D84FF08062114B70
S2144013001A607047104B984203D8104A0D4B1A602B
S21440131070470F4B984203D80E4A0A4B1A607047E4
S2144013200D4B984203D80D4A064B1A6070470C4B3B
S214401330984294BF4FF004220A4A024B1A60704704
S214401340FF2C3101000A0E40FF59620200010004E2
S214401350FF86930300020004FFB3C40400030004A6
S214401360FFE0F5050005000400F1080343604FF078
S214401370FF328260C360036100230360704700BF92
S21440138000230361704700BF43684B609A688A60D9
S2144013909A6851609960086103680133036070473A
S2144013A030B40D68B5F1FF3F01D1026907E000F1A6
S2144013B0080200E01A4653681C68A542FAD25368F1
S2144013C04B6099608A60516008610368013303602E
S2144013D030BC7047036942688168916082684168A2
S2144013E051605A68824204BF92685A600022026185
S2144013F0186801381860704706480068006880F32F
S214401400088862B661B6BFF34F8FBFF36F8F00DFB9
S21440141000BF000008ED00E04FF0807340F8043C49
S21440142040F8081C034B40F80C3C40F8202C403851
S214401430704700BF85144000074B19680868B0E83D
S214401440F00F80F30988BFF36F8F4FF0000080F3F2
S21440145011884EF00D0E704754A900204FF0805270
S214401460034B1A60BFF34F8FBFF36F8F704700BFB9
S21440147004ED00E0EFF311804FF0A00181F31188F6
S2144014807047002008B5054B1B68B3F1FF3F02D0FC
S214401490034B9847FEE7024B9847FEE710000020B4
S2144014A07514400008B50A4B98470A4A136801333A
S2144014B01360BFF34F8FBFF36F8F012B07D1064BDF
S2144014C01B6813F0FF0F02D0014B9847FEE708BD9C
S2144014D0751440001000002004ED00E080F31188F1
S2144014E0704700BF08B5074B1B6813B9064B9847B3
S2144014F0FEE7013B034A136013B90020034B9847AD
S21440150008BD00BF1000002075144000DD144000E8
S214401510EFF30980BFF36F8F0D4B1A6820E9F00F89
S21440152010602DE908404FF0A00080F3118801F0CC
S21440153081F84FF0000080F31188BDE80840196834
S2144015400868B0E8F00F80F30988BFF36F8F7047E4
S21440155054A9002008B5064B9847064B984718B143
S2144015604FF08052044B1A600020044B984708BD49
S21440157075144000F522400004ED00E0DD14400004
S214401580064B1B68064AA2FB03239B09013B054A00
S21440159013600722044B1A60704700BF0C000020FF
S2144015A0D34D621014E000E010E000E000B583B0D8
S2144015B0224B1A78D2B20192FF221A701B78DBB205
S2144015C08DF803309DF8033003F0A0031C4A1370D7
S2144015D007221C4B1A609DF8033013F0800F10D082
S2144015E0062200E00A469DF803305B00DBB28DF829
S2144015F003309DF80330511E13F0800FF2D1114B8B
S2144016001A60104A13681B0203F4E0631360019BE0
S214401610DBB20A4A13700C4B1A6842F470021A6026
S2144016201A6842F070421A60084B98470022084BEE
S2144016301A60084B9847084B984700BF00E400E004
S214401640940800209808002020ED00E08115400016
S21440165010000020F91340008514400008B5EFF351
S21440166005830F2B09D90B4A9B5CDBB20A4A1278DA
S2144016709A4202D9094B9847FEE7094B1B6803F488
S214401680E063084A1268934202D9044B9847FEE743
S21440169008BD00BFF0E300E0940800207514400049
S2144016A00CED00E098080020134A00E01A46136844
S2144016B08342FBD330B4114654681519854203D192
S2144016C06868044454601046426884189C420CD1B2
S2144016D00A4B1B689C4206D063681A4442600B68FB
S2144016E01B68036002E0046000E00360814218BFAC
S2144016F0086030BC704700BFA4080020A008002047
S214401700F8B50446414B9847414B1B6823BB414ABA
S21440171012F0070F07D0D11D21F0070102F5204334
S2144017205B1A0A4601E04FF420433B480260002122
S21440173041601344083B23F0070335480360596073
S2144017401960991A51601360344B1960344B196014
S2144017504FF00042334B1A60324B1E6834424CD135
S214401760002C4DD004F1080313F0070F1CBF23F0E4
S21440177007030833002B40D0294A1768BB423CD8A1
S214401780254A146801E022460C4661688B4202D91D
S21440179021680029F7D11E4909688C422DD015686A
S2144017A00835216811606268D21A102A0AD9E018F2
S2144017B010F0070F02D01C4B9847FEE7426063606C
S2144017C01A4B98476268BB1A15490B60134909685B
S2144017D08B423CBF11490B60164366600023236072
S2144017E0134B98471DB9134B984700250BE015F04F
S2144017F0070F08D00C4B9847FEE70D4B9847F2E78B
S2144018000B4B9847EFE72846F8BD00BFD92240006B
S214401810A0080020AC080020A4080020B0A80020A3
S2144018209C080020ACA8002075144000A916400073
S21440183031244000B931400018B310B5044650F882
S214401840043C104A12681A4202D10F4B9847FEE7F2
S21440185050F8081C11B10C4B9847FEE723EA0203E8
S21440186040F8043C094B9847094A116854F8043C30
S2144018700B441360A4F10800064B9847064B984764
S21440188010BD7047ACA8002075144000D922400017
S2144018909C080020A91640003124400038B5044674
S2144018A01546026C4AB903680020002B30D16068A8
S2144018B0194B9847002363602AE06DB98068174B40
S2144018C09847A268236C1344A360626893421AD375
S2144018D02368A36000201BE0C068104B9847236C29
S2144018E05B42E2681A44E26021688A4202D2626839
S2144018F01344E360022D08D1A36B43B1A36B013BB5
S214401900A363002004E0002002E0002000E0002066
S214401910A36B0133A36338BDD92940006935400025
S21440192030B583B00190C46C14B9144B9847FEE7A9
S2144019300A46A16BE36B994202D3104B9847FEE7E9
S214401940A16B8B4216D9204601A90D4B98470546F8
S214401950A36CB3F1FF3F09D1636A63B104F124007D
S214401960084B9847002818BF012504E0A36C0133B4
S214401970A36400E00025284603B030BD751440003F
S2144019809D184000E1274000026C72B110B5C36854
S2144019901344C3604468A34224BF0368C36003463D
S2144019A00846D968014B984710BD704769354000D6
S2144019B0F8B50446204B9847A36C002B18DD1F4D06
S2144019C01F4F204EE36C33B120460021A847012824
S2144019D008D1B84706E0636A53B104F12400B04723
S2144019E000B1B847A36C013BA364A36C002BE9DCB1
S2144019F04FF0FF33A364144B98470F4B9847636CE4
S214401A00002B13DD23691BB910E0236923B90DE0D1
S214401A1004F110060B4D0A4F3046A84700B1B847B0
S214401A20636C013B6364636C002BEEDC4FF0FF336A
S214401A306364054B9847F8BDA51440002119400043
S214401A4005294000E1274000E514400038B510B9AC
S214401A50174B9847FEE70D460446164B98472268B4
S214401A60216CE36B03FB01F3D01860600020A06399
S214401A70A2605B1A1344E3604FF0FF336364A364D1
S214401A8055B923697BB104F110000B4B98470128E8
S214401A9009D10A4B984706E004F11000084DA847C4
S214401AA004F12400A847074B9847012038BD00BFE3
S214401AB075144000A5144000E12740005D14400026
S214401AC069134000E514400070B510B9134B9847B1
S214401AD0FEE70D46064681B101FB00F05130104B43
S214401AE09847044610B905E024600DE000F1500325
S214401AF0036009E0094B9847FEE75020084B98479B
S214401B0004460028F0D1F5E7E66325642046012127
S214401B10044B98470023E364204670BD751440008C
S214401B20011740004D1A40002DE9F04F85B0009156
S214401B30019210B94B4B9847FEE71D460446009B62
S214401B4023B9036C13B1474B9847FEE7022D05D1E6
S214401B50E36B012B02D0434B9847FEE7424B984736
S214401B6020B9019B2BB13F4B9847FEE74FF000084A
S214401B7001E04FF000083D4FDFF81C913C4EB8475F
S214401B80A26BE36B9A4201D3022D21D120460099E5
S214401B902A46384B9847E36C43B120462946364B95
S214401BA09847012810D1354B98470DE0636A43B1FA
S214401BB004F12400324B9847012805D12F4B984713
S214401BC002E008B12D4B9847294B9847012045E045
S214401BD0019B1BB9264B984700203FE0B8F1000F09
S214401BE003D102A8C8474FF00108B047254B984795
S214401BF0B847636CB3F1FF3F04BF00236364A36C34
S214401C00B3F1FF3F04BF0023A364B04702A801A975
S214401C101D4B9847E0B9B847D4F838B0D4F83CA044
S214401C20B047D3450ED104F110000199174B9847A1
S214401C302046174B9847174B984700289FD10F4B85
S214401C4098479CE72046124B9847124B984796E792
S214401C5020460F4B98470F4B9847002005B0BDE8ED
S214401C60F08F00BF7514400011294000A5144000B5
S214401C70E51440009D184000211940005D144000C6
S214401C80E1274000D92240008D284000F52640003C
S214401C90B119400031244000692840002DE9F04148
S214401CA010B92D4B9847FEE7884615461E46044613
S214401CB021B9036C13B1284B9847FEE7022E3BD15F
S214401CC0E36B012B31D0244B9847FEE72046414634
S214401CD03246224B9847A36CB3F1FF3F16D1E36CD4
S214401CE04BB1204631461E4B9847012813D1A5B12B
S214401CF001242C602AE0636A8BB104F12400194B5E
S214401D00984770B17DB101242C601FE0A36C01336D
S214401D10A36401241AE0012418E0012416E00124FB
S214401D2014E0012412E0012410E00F4B98470A4BC0
S214401D3098470746A36BC9E70B4B9847064B98470F
S214401D400746A26BE36B9A42C0D300243846074B43
S214401D5098472046BDE8F081751440009D18400025
S214401D6021194000E12740005D164000DD14400088
S214401D7070B510B9264B9847FEE70D460446036CEF
S214401D8013B1234B9847FEE7036823B9436813B162
S214401D901F4B9847FEE71F4B98471D4B98470646F4
S214401DA0A26BE36B9A4222D2A36B0133A363A36C6C
S214401DB0B3F1FF3F16D1E36C4BB120460021164BE2
S214401DC09847012815D1B5B101242C601AE0636A02
S214401DD09BB104F12400114B984780B18DB101248A
S214401DE02C600FE0A36C0133A36401240AE00024B6
S214401DF008E0012406E0012404E0012402E0012476
S214401E0000E001243046064B9847204670BD00BF90
S214401E10751440005D16400021194000E12740003F
S214401E20DD1440002DE9F04F85B0019210B9494BC2
S214401E309847FEE788469946044621B9036C13B195
S214401E40444B9847FEE7444B984720B9019B23B143
S214401E50404B9847FEE7002700E000273F4EDFF85C
S214401E602CA13F4DB047A36B43B3E568204641469F
S214401E703C4B9847B9F1000F12D1A36B013BA363CB
S214401E80236813B9384B98476060236993B104F1CF
S214401E901000364B984701280CD1354B984709E03F
S214401EA0E560636A33B104F12400304B984708B1CB
S214401EB02F4B98472A4B9847012048E0019B1BB977
S214401EC0274B9847002042E017B902A8D047012781
S214401ED0A847284B9847B047636CB3F1FF3F04BF11
S214401EE000236364A36CB3F1FF3F04BF0023A364E5
S214401EF0A84702A801A9204B984710BBB047D4F882
S214401F0038B0A847BBF1000F15D1236823B9B047B6
S214401F1060681A4B9847A84704F124000199184B6B
S214401F2098472046174B9847174B9847002899D113
S214401F300F4B984796E72046124B9847124B9847C8
S214401F4090E720460F4B98470F4B9847002005B028
S214401F50BDE8F08F7514400011294000A5144000DC
S214401F60E5144000891940007D2A4000E1274000E2
S214401F705D144000D92240008D28400031294000A1
S214401F80F5264000B1194000312440006928400041
S214401F9070B504460E4615460D4B9847636CB3F134
S214401FA0FF3F04BF00236364A36CB3F1FF3F04BF4D
S214401FB00023A364074B9847A36B2BB904F1240076
S214401FC031462A46044B98472046044B984770BDF6
S214401FD0A5144000E51440006D274000B1194000AC
S214401FE0084B1B681B6823B94FF0FF32064B1A603C
S214401FF07047044B1B68DB68DB685A68024B1A6004
S214402000704700BFB8A8002058A9002010B5044665
S2144020100E4B1B6858600E4B1B68984207D20D4B00
S21440202018680A4B196804310B4B984710BD0B4B88
S2144020301868064B19680431074B9847084B1B68CD
S2144020409C423CBF064B1C6010BD00BF54A90020FC
S21440205060A9002064A90020A1134000B8A8002071
S21440206058A900202DE9F04F83B001930C9FDDF86E
S21440207034A00E9D009010B9624B9847FEE70E467E
S2144020809046042F02D95F4B9847FEE735B990003B
S2144020905D4B98470546002800F0AE8050205A4BCE
S2144020A098470446A8B105632846A5214FEA88020A
S2144020B0564B984708F1804808F1FF38236B03EBEE
S2144020C0880828F00705337884F83430337823B905
S2144020D00FE028464E4B98478EE0334604F13402D4
S2144020E0093613F8011F02F8011F197809B1B342E7
S2144020F0F7D14FF0000884F83D803E46042F28BFB5
S2144021000426E6622664C4F8448004F1040948467E
S214402110DFF848B1D84704F11800D8472461C6F123
S2144021200506A6616462C4F8488084F84C80284658
S2144021300099019A374B98472060BAF1000F01D0BA
S214402140CAF80040344B9847344A1368013313604A
S214402150334B1B680BBB324B1C601368012B26D1DC
S214402160304D05F16408304E2846B0471435454595
S214402170FAD1DFF8EC8040462B4DA8472B4E304630
S214402180A8472B48A8472B48A8472B48A8472B4B7F
S214402190C3F800802A4B1E6009E02A4B1B6833B9FF
S2144021A01F4B1B68DB6A9F4224BF1D4B1C60264AA0
S2144021B0136801331360E06A24490B6801228240A9
S2144021C013430B6000EB8000164B03EB8000494640
S2144021D01F4B98471F4B98471A4B1B6843B1104BF1
S2144021E01B68DB6A9F4205D91B4B9847012005E0D8
S2144021F0012003E0012001E04FF0FF3003B0BDE8CE
S214402200F08F00BF75144000011740009D36400017
S2144022103918400019144000A514400080A9002039
S21440222054A90020DCA800206913400084A900209F
S21440223068A9002040A9002098A90020B8A800203E
S21440224064A90020BCA800207CA90020ACA90020DE
S21440225089134000E51440005D144000811340009F
S214402260C4A8002010B584B00023009301930293C5
S2144022700393104810498222104CA047012812D1DF
S2144022800F4B984701280ED10E4B98474FF0FF3220
S2144022900D4B1A6001220D4B1A6000220C4B1A603F
S2144022A00C4B984703E010B9064B9847FEE704B03E
S2144022B010BD00BFA92540002848400065204000CA
S2144022C04D2B40007514400058A90020BCA80020A3
S2144022D060A90020AD154000024A13680133136020
S2144022E0704700BF5CA90020014B1868704700BFCC
S2144022F060A900202DE9F0473D4B1B68002B67D1B5
S2144023003C4B1A6801321A601E6896B93A4B1B68F5
S2144023101B6813B1394B9847FEE7374A1168384B6C
S214402320186810601960374A136801331360364BDB
S2144023309847364B1B689E4201D2002437E0002463
S214402340DFF8B490DFF8E480314FD9F800301B68EE
S21440235023B94FF0FF322D4B1A6028E0D9F80030F1
S214402360DB68DD686B689E4202D2284A13601EE036
S21440237005F1040A5046C047AB6A13B105F1180090
S214402380C047E86A3B680122824013433B6000EB4B
S2144023908000204B03EB800051461F4B98471F4B55
S2144023A01B68EA6ADB6A9A4228BF0124CDE71B4BCA
S2144023B01B68DB6A03EB8303164A52F82330022B72
S2144023C028BF0124164B1B684BB9164B984706E0AE
S2144023D0134A136801331360124B98470024124B7C
S2144023E01B68002B0CBF20460120BDE8F08700BFCD
S2144023F05CA9002060A90020B8A800207514400001
S21440240064A90020B4A80020E11F400058A900207D
S214402410ACA90020DCA800208913400054A9002065
S214402420D8A80020D1314000B0A90020D5134000E4
S2144024302DE9F8432F4B1B6813B92F4B9847FEE7FF
S2144024402E4B98472B4B1A68013A1A601B68002B94
S21440245047D12B4B1B680BBB002445E0FB68DC6870
S21440246004F11800B04704F104084046B047E06A5B
S2144024702B680122824013432B6000EB800009EB5F
S214402480800041461F4B98471F4B1B68E26ADB6A39
S2144024909A4208D301221D4B1A6004E01C4F1D4E81
S2144024A01D4DDFF888903B68002BD7D11B4B1B682F
S2144024B07BB11A4B1B6863B1194E144D174CB0478D
S2144024C008B101232B602368013B23602368002B5F
S2144024D0F5D10E4B1B68012B05D1124B98470124B2
S2144024E002E0002400E000240F4B98472046BDE859
S2144024F0F88300BF5CA9002075144000A514400076
S21440250080A900208913400054A90020B0A90020CB
S21440251068A90020D5134000ACA90020D8A8002008
S214402520F52240005D144000E5144000DCA8002081
S21440253010B508B30446124B1B6813B1114B9847AD
S214402540FEE7114B9847114B1B681C44104B18680C
S2144025500430104B984748B90D4B1A680E490B6823
S214402560D06A0122824023EA02030B6020460B4BCE
S21440257098470B4B984708B90A4B984710BD00BF81
S2144025805CA9002075144000D922400060A90020B4
S21440259054A90020D5134000ACA900200D204000CF
S2144025A0312440005D14400080B5164DDFF87C8035
S2144025B0154E164F19E0C0473468B847ACB1144BB7
S2144025C09847F368DC68201D124B9847124A1368F8
S2144025D0013B13602B68013B2B60104B9847206BE8
S2144025E0DFF84C90C8472046C8472B68002BE2D1FE
S2144025F00B4B1B68012B01D90A4B98470A4B98474F
S214402600F3E700BFC0A8002040A9002031244000C6
S214402610A5144000D513400080A90020E5144000D2
S214402620DCA800205D144000CD314000D922400097
S21440263039184000284B1B681BB10122274B1A60F3
S214402640704710B50022254B1A60254B1B681B6B44
S2144026501A68B2F1A53F0BD15A68B2F1A53F07D12F
S2144026609A68B2F1A53F03D1DB68B3F1A53F05D028
S2144026701B4B1868196834311A4B98471A4B1B681D
S214402680B3FA83F3DBB2C3F11F0303EB8301174AAC
S21440269052F8212012B9164B9847FEE7134A990084
S2144026A0C81802EB800044686468446002460832FA
S2144026B0944206D1606803EB83010C4A02EB810228
S2144026C0506003EB8303094A02EB83035B68DA68D6
S2144026D0034B1A6010BD00BF5CA90020B0A90020C3
S2144026E054A90020BD314000ACA90020DCA8002041
S2144026F07514400038B510B9134B9847FEE70C46A2
S214402700124D29681831124B984728680430114BEF
S214402710984740B92A6810490B68D06A012282401F
S21440272023EA02030B60B4F1FF3F06D1074B19685A
S2144027300A4804310A4B984738BD0A4B186820446B
S214402740094B984738BD00BF7514400054A9002077
S214402750A1134000D5134000ACA9002098A9002042
S2144027608913400060A900200D20400070B510B9C4
S214402770134B9847FEE70D461646124C2168183113
S214402780114B984720680430104B984740B9226850
S2144027900F490B68D06A0122824023EA02030B608D
S2144027A0012E06D1074B19680A480431064B984754
S2144027B070BD094B18682844084B984770BD00BF49
S2144027C07514400054A9002089134000D5134000DA
S2144027D0ACA9002098A9002060A900200D20400048
S2144027E038B5C368DC6814B9164B9847FEE704F161
S2144027F018052846144B9847144B1B689BB9251D53
S2144028002846114B9847E06A11490B6801228240DE
S21440281013430B6000EB80000E4B03EB8000294611
S2144028200D4B984703E00D4829460B4B98470C4BF9
S2144028301B68E26ADB6A9A4283BF0120094B186034
S214402840002038BD75144000D51340005CA9002018
S214402850ACA90020DCA800208913400068A900200D
S21440286054A90020B0A9002008B510B9044B9847D9
S214402870FEE7044A12680260034A1268426008BDD6
S21440288075144000B4A8002060A9002038B510B9DF
S214402890164B9847FEE70D46044611B9134B98472A
S2144028A0FEE7134B9847134B19682B68B3F1FF3F6D
S2144028B013D0114A12682068904202D06268914252
S2144028C00DD26268881A83420BD9521A13442B6081
S2144028D020460A4B9847002404E0002402E00124E6
S2144028E000E00124064B9847204638BD751440004A
S2144028F0A514400060A90020B4A800206928400024
S214402900E51440000122014B1A607047B0A9002030
S214402910054B1B6833B1054B1B68002B0CBF0220D0
S2144029200020704701207047BCA800205CA900200A
S214402930002845D038B50346C26A22490968C96AA4
S2144029408A423CD28169002905DB1E490968C96A6A
S214402950C1F10501816102EB82021B4901EB820253
S2144029605969914227D11C461D1D2846174B98474A
S21440297070B9E36A03EB8301134A52F821203AB94F
S21440298013480268012101FA03F322EA03030360B5
S2144029900C4B1B68D86AE0620D490A6801238340E5
S2144029A013430B6000EB8000074B03EB8000294687
S2144029B0084B984738BD034A1268D26ADA6238BD77
S2144029C0704700BF54A90020DCA80020D513400063
S2144029D0ACA900208913400000283DD038B50446F5
S2144029E0204B1B68984202D01F4B9847FEE7436C2B
S2144029F013B91D4B9847FEE7013B4364C16A026C1E
S214402A0091422BD063BB051D2846184B984768B9A2
S214402A10E16A01EB8102164B53F8223033B9154870
S214402A20036801228A4023EA02030360206CE062C6
S214402A30C0F10503A3610F4A1368012404FA00F1AC
S214402A400B43136000EB8000094B03EB80002946E4
S214402A50094B9847204638BD00207047002038BDB7
S214402A60002038BD54A9002075144000D5134000FE
S214402A70DCA80020ACA9002089134000054B1B6849
S214402A8023B1044B1A68536C01335364014B1868E6
S214402A90704700BF54A9002010B50446416020612D
S214402AA091420AD8D21A83699A4211D20A4B1868C0
S214402AB0211D0A4B9847002010BD9A4201D29942E8
S214402AC008D2074B1868211D044B9847002010BDBC
S214402AD0012010BD012010BDE4A90020A113400034
S214402AE0B4A9002070B50F4B98470F4B1B68ABB985
S214402AF00E4D28460E4EB0470E4C2046B0470E4B65
S214402B001D600E4B1C600520102100220C4B984780
S214402B10054B186010B90B4B9847FEE70A4B984791
S214402B2070BD00BFA5144000E0A90020B8A9002051
S214402B3069134000CCA90020B4A90020E4A90020D5
S214402B40C91A400075144000E514400010B584B022
S214402B500B4B98470B4B1B6863B102230093002333
S214402B60019302930393084808494FF48272084C35
S214402B70A04710B9074B9847FEE704B010BD00BF0A
S214402B80E52A4000E0A90020A92C4000304840003B
S214402B90652040007514400010B584B010B9114B44
S214402BA09847FEE7044610480068C0B1009101927D
S214402BB0029405290DDC0D4B984702280A4B1868ED
S214402BC0694607BF069A002300221346084CA047D2
S214402BD006E069461A460023064CA04700E000205F
S214402BE004B010BD75144000E0A900201129400033
S214402BF0291B40009D1C40002DE9F04782B08046CE
S214402C00214B98470746214B1B68984233D223E016
S214402C10DB68D3F800A0DC6804F104094846B047F6
S214402C20636A20469847E369012B17D1A36953444A
S214402C30534506D96360246128684946144B984733
S214402C400CE000230093204619465246114CA047FC
S214402C5020B9114B9847FEE7104D114E2B681A6865
S214402C60002AD5D10F4A10680C490860136001232A
S214402C70C8F8003002E00023C8F80030034B1F605D
S214402C80384602B0BDE8F087E9224000E8A90020B7
S214402C90A1134000992B400075144000B4A90020B1
S214402CA0D5134000E4A900202DE9F04389B0594FE0
S214402CB0594C5A4D3B681A685AB1DB68D3F80080C5
S214402CC0574B984704A8574B98470646049B4BB12A
S214402CD049E0534B984704A8524B98470646049BF6
S214402CE063B340E0804588BF002230D84E4B9847BB
S214402CF03B68DB68D3F80C9009F104004B4B9847CF
S214402D00D9F81C30012B14D1D9F818104846414444
S214402D1032464346464EB04701280AD10023009328
S214402D20484619464246434EB04710B9424B98472C
S214402D30FEE7D9F824304846984762E03F4B1B6888
S214402D401A68B2FA82F252094FF00008FFE720688C
S214402D50C6EB08013A4B9847334B9847002850D16A
S214402D60384B98474DE0304B98474AE0049B002B41
S214402D7006DA06980799059B9847049B002B40DB8C
S214402D80069E736913B1301D284B984703A8254B00
S214402D9098478646049A092A33D8DFE802F00505A4
S214402DA00532222F05053222059BB169304619446B
S214402DB07246DFF87CC0E047012822D1736A30466D
S214402DC09847F369012B1CD1B26900230093304623
S214402DD01946059E3244174EB04790B9164B984751
S214402DE0FEE70599B16111B9134B9847FEE73046A7
S214402DF07144724673460E4EB04702E03046124B60
S214402E009847206804A900221346A8470028ADD159
S214402E1050E700BFB4A90020E0A90020251E4000CE
S214402E20D9224000F92B400031244000D513400001
S214402E30992A4000992B400075144000E4A90020D0
S214402E40911F40005D1440003918400080B5094F7E
S214402E50094E0A4D3846B047002014212A46084CF1
S214402E60A04700205021074AA04741F28830064B31
S214402E709847EFE7EE82EE00710840003848400081
S214402E800909400044484000312540002DE9884863
S214402E90012000210322764B9847764B18604FF06E
S214402EA0C042754B1A60F022744B1A80DFF8FCA1C2
S214402EB0704B1868002800F0D78000214FF0FF3292
S214402EC00B466F4CA047012840F0CE806D484FF42B
S214402ED000416D4B98476B486C4B9847664B19685A
S214402EE06B4B1A88654B1B8803FB02F39B10654AA5
S214402EF0D2F86C2162B9634AD2F87C2142B9614A61
S214402F00C2F86811C2F86C310123C2F8883108E073
S214402F105C4AD2F87C2122B95A4AC2F87811C2F8E3
S214402F207C31584BD3F8603113F0080FF9D0554830
S214402F30584B98474FF47F00574B98470020142132
S214402F40564A574B98474C4B1D684FF0C443002198
S214402F50197003221A70D0238AF8003088238AF822
S214402F6000300846F0224FF4A0734E4CA0472C1D6C
S214402F7005F5163E0EF1040E6FF063096FF0CF08AC
S214402F8040F2991C4FF49576FF25A34614F8041C8E
S214402F9014F8013C803B14F8032C803A03EBC31032
S214402FA08000803008FB02F709FB037380330CFB7C
S214402FB002F202F18007103906FB01F142181212A4
S214402FC0FF2A03DC002A03DBD2B202E02A4600E0F6
S214402FD000228AF800205A181212FF2A03DC002A20
S214402FE003DBD2B202E02A4600E000228AF8002044
S214402FF039440912FF2903DC002903DBC9B202E089
S214403000294600E000218AF800101BF8022C103AEE
S21440301006FB02F210440012FF2803DC002803DB04
S214403020C0B202E0284600E000208AF800001344C0
S2144030301B12FF2B03DC002B03DBDBB202E02B462C
S21440304000E000238AF800303A441212FF2A03DCDC
S214403050002A03DBD2B202E02A4600E000228AF8C9
S21440306000200434744590D10A200F4B98471FE740
S214403070C91A4000FCA9002008AA0020140000201D
S214403080251E4000000E0E40210B4000A10C4000C3
S21440309016000020B90C4000710840004C48400023
S2144030A009094000E1084000312540000200006266
S2144030B080B5012000210322124B9847124B18601E
S2144030C01C46124D124F2068B8B100214FF0FF3217
S2144030D00B46A847012810D1FF200E4B98470020EA
S2144030E014210D4A0D4EB047002050210C4AB047DF
S2144030F038464FF400410B4B98470A200A4B9847F6
S214403100E1E700BFC91A400000AA0020251E400083
S214403110000E0E40710840005C484000090940001F
S2144031206C484000190B40003125400008B54C263D
S214403130034D044C3046A8474FF47A70A047F9E751
S2144031405D0B40003125400010B50121074B19604A
S214403150074C00232360074B1868074B98472368A3
S2144031601BB14FF08052054B1A6010BDECA90020F1
S214403170F8A9002000AA0020711D400004ED00E0E0
S21440318010B50121074B1960074C00232360074BFD
S2144031901868074B984723681BB14FF08052054B81
S2144031A01A6010BDF4A90020F0A90020FCA9002058
S2144031B0711D400004ED00E0FEE700BF08B54C205E
S2144031C0014B9847FEE700BF450B4000704700BFE5
S2144031D0704700BF2DE9F04F89B0964B9847964A06
S2144031E0D36823F4E0631B041B0C43F0BF6343F433
S2144031F00033D360914B9847072001210A46904BF5
S21440320098470A208F4EB0478F4802214FF002322F
S214403210DFF8F4A2D0478C4802218C4ADFF8EC92C3
S214403220C847894802218A4ADFF8E482C047864870
S21440323002210322874CA047F02704974FF4A0733F
S2144032400593002506956FF07F430793824B98477A
S21440325004A8824B98471020814B9847814B98474B
S2144032608148824B984728461421814ADFF858B255
S214403270D847284650217F4AD8470A20B047724848
S21440328029467D4AD047704829467C4AC8476E48FA
S21440329029467B4AC0476C4829460322A0470B2054
S2144032A0B047784C204604210A22774B9847774B04
S2144032B0009320460B2104227923DFF85892C84712
S2144032C0734D85F80B734FF40068C5F800802046B0
S2144032D00421704B9847704B009320460B214FF4C7
S2144032E000420123C84785F80B73C5F800800B20C1
S2144032F0B047D4F8503123F00103C4F85031D4F825
S214403300583143F00803C4F85831D4F8503123F00C
S2144033103003C4F85031D4F8503143F02003C4F899
S2144033205031D4F8503123F40073C4F85031D4F8F7
S214403330503123F48063C4F85031012057494FF48C
S2144033408062574B9847574B22221A644FF480723C
S2144033501A601A46936813F4807FFBD01320394BCB
S2144033609847514B0493514B0593514804A9514BF0
S2144033709847474B4FF40022C3F88020C3F880217B
S214403380002183F813131A60494D4B4C2846A0473A
S2144033900128FBD046480221484B98474848494CAC
S2144033A0A0473148314B984700201421304A464DBB
S2144033B0A84700205021454AA8474C20444DA847DE
S2144033C04448A0474C20444B98474448A0474C208C
S2144033D0A84700240094019402940394404841492D
S2144033E04FF480722346404DA847009401940294BF
S2144033F003943E483E494FF480722346A8470094C3
S2144034000194029403943B483B494FF48072234610
S214403410A8470094019402940394384838494FF4DE
S21440342080722346A847374B9847204609B0BDE8E8
S214403430F08F00BF2901400000ED00E08D01400004
S2144034407D0E4000D50E400000000E4004040A0ADF
S2144034500A001600CD094000BD054000CD064000DC
S2144034606105400049064000D0E040007108400039
S21440347080484000A44840000200030004050406BB
S21440348006000700000E0E40D509400049314000B6
S21440349000E100E0190B40008131400000120E4070
S2144034A04503400000040E40000E2707801A060021
S2144034B0008001406D0F4000DD034000F5044000F1
S2144034C06E5E88010100002009094000C84840009F
S2144034D0450B40004A9405012D0B400025CA82004A
S2144034E02D314000FC484000652040004D2E4000F5
S2144034F000494000B1304000044940008D2E400055
S2144035000C49400065224000B5094000BD09400016
S214403510C5094000390D400070B50F4E0F4D761B63
S214403520B61018BF002405D0013455F8043B984720
S214403530A642F9D10A4E0B4D761B01F0EFF9B610B4
S21440354018BF002406D0013455F8043B9847A642DD
S214403550F9D170BD70BD00BF2849400028494000E1
S2144035603049400028494000844641EA000313F0B1
S21440357003036DD1403A41D351F8043B40F8043B35
S21440358051F8043B40F8043B51F8043B40F8043BF8
S21440359051F8043B40F8043B51F8043B40F8043BE8
S2144035A051F8043B40F8043B51F8043B40F8043BD8
S2144035B051F8043B40F8043B51F8043B40F8043BC8
S2144035C051F8043B40F8043B51F8043B40F8043BB8
S2144035D051F8043B40F8043B51F8043B40F8043BA8
S2144035E051F8043B40F8043B51F8043B40F8043B98
S2144035F051F8043B40F8043B403ABDD2303211D338
S21440360051F8043B40F8043B51F8043B40F8043B77
S21440361051F8043B40F8043B51F8043B40F8043B67
S214403620103AEDD20C3205D351F8043B40F8043B37
S214403630043AF9D2043208D0D2071CBF11F8013B35
S21440364000F8013B01D30B8803806046704700BFFB
S214403650082A13D38B078DD010F003038AD0C3F10A
S2144036600403D21ADB071CBF11F8013B00F8013BEC
S21440367080D331F8023B20F8023B7BE7043AD9D3AB
S214403680013A11F8013B00F8013BF9D20B78037080
S2144036904B7843708B7883706046704770B484076D
S2144036A046D0541E002A41D0CDB2034602E0621EE8
S2144036B0E4B3144603F8015B9A07F8D1032C2ED9DD
S2144036C0CDB245EA05250F2C45EA054519D903F143
S2144036D010022646103E0F2E42F8105C42F80C5C54
S2144036E042F8085C42F8045C02F11002F2D8A4F1F9
S2144036F0100222F00F0204F00F041032032C134481
S2144037000DD91E462246043A032A46F8045BFAD8E8
S214403710221F22F003020432134404F003042CB1A7
S214403720C9B21C4403F8011BA342FBD170BC7047CE
S21440373014460346C2E700BF024B13B1024800F0EE
S21440374005B8704700000000593740000146002089
S2144037500246034600F016B838B5084B084DED1A39
S214403760AC1018BFED1805D0013C55F8043D9847FD
S214403770002CF9D1BDE8384001F0DAB83C494000A9
S214403780404940002DE9F047254C2568D5F848418A
S2144037900646884692469946CCB360681F2818DC91
S2144037A0431C7EB104EB80050121C5F888A0D4F8FF
S2144037B0887101FA00F21743022EC4F88871C5F8E2
S2144037C008911ED00230636044F820800020BDE897
S2144037D0F087144B03B34FF4C870AFF30080044631
S2144037E0D0B1D5F84831002780E88800C5F8484170
S2144037F038460123C4F88871C4F88C71002EE1D095
S214403800D0E7D4F88C110A43C4F88C21DAE705F5E2
S214403810A674C5F84841C0E74FF0FF30BDE8F087D2
S21440382018494000000000000E001280FE051300FC
S21440383011021200D5100CD40D341601172518A00D
S21440384019031AF01B89220329182BF82C0131A0E2
S21440385032F033C43AB4363F046027803D0F3E8092
S2144038603F40407F416A422944E54541470249641A
S2144038704AA14B704C1A4D504E1364006788681A24
S2144038801438243C253026725097517E52005300FF
S214403890200021233814E900565557FF58FF59FF9A
S2144038A05F04EC0013FF807F813F82328301381132
S2144038B0850086038701880589308D308F85933053
S2144038C0958599309B859C089D129E239F45A055C3
S2144038D0A164A272A37FA48BA595A6A7A7B5A8CBE3
S2144038E0A9DDAAECAB1ACE78CF6ED00AD10CD28422
S2144038F0D390D41E5A245B1F5C885D60AC6EBEFFBE
S214403900BF0031A032F0823F1200363F530033C42E
S2144039101B8922032802FFFF0E00128013001101AC
S2144039201200D5100C120D34172518A019031AF0E2
S2144039301B89220329182BF82C0131A032F033C4FE
S2144039403AB4363F046027803D0F3E803F40407F7C
S214403950416A422944E54541470249644AA14B70C1
S2144039604C1A4D504E1364006788681A1438243C2D
S214403970253026725097517E520053002000212356
S2144039803814E900565557FF58FF59FF5F04EC00BE
S21440399013FF807F813F8232830138118470850017
S2144039A086038701880589308D308F8593309585CD
S2144039B099309B859C089D129E239F45A055A164E7
S2144039C0A272A37FA48BA595A6A7A7B5A8CBA9DD71
S2144039D0AAECAB1ACE78CF6ED00AD10CD284D39054
S2144039E0D41E5A245B1F5C885D60AC6EBEFFBF0071
S2144039F03128323C823F1201362F8304530033F481
S214403A001B8A2203840084002802FFFF0E001280D7
S214403A10FE05130011031200D5100CD40D34160108
S214403A20172518A019031AF01B89220329182BF80A
S214403A302C0131A032F033C43AB4363F04602780BC
S214403A403D0F3E803F40407F416A422944E5454124
S214403A50470249644AA14B704C1A4D504E136400BD
S214403A606788681A1438243C253026725097517E51
S214403A7052005300200021233814E900565557FFC2
S214403A8058FF59FF5F04EC0013FF807F813F82326E
S214403A9083013811850086038701880589308D307B
S214403AA08F859330958599309B859C089D129E23E3
S214403AB09F45A055A164A272A37FA48BA595A6A7F7
S214403AC0A7B5A8CBA9DDAAECAB1ACE78CF6ED00AA4
S214403AD0D10CD284D390D41E5A245B1F5C885D6080
S214403AE0AC6EBEFFBF0031503278823F1200363F88
S214403AF0530033C41B8922032802FFFF0E001280A6
S214403B00130011011200D5100C120D34172518A001
S214403B1019031AF01B89220329182BF82C0131A00F
S214403B2032F033C43AB4363F046027803D0F3E80BF
S214403B303F40407F416A422944E545414702496447
S214403B404AA14B704C1A4D504E1364006788681A51
S214403B501438243C253026725097517E520053002C
S214403B60200021233814E900565557FF58FF59FFC7
S214403B705F04EC0013FF807F813F8232830138115F
S214403B808470850086038701880589308D308F854F
S214403B909330958599309B859C089D129E239F4522
S214403BA0A055A164A272A37FA48BA595A6A7A7B58E
S214403BB0A8CBA9DDAAECAB1ACE78CF6ED00AD10C32
S214403BC0D284D390D41E5A245B1F5C885D60AC6E52
S214403BD0BEFFBF0031503278823F1201362F830439
S214403BE0530033F41B8A2203840084002802FFFF1C
S214403BF00E001280FE05130011021200D5100CD4E0
S214403C000D341601172518A019031AF01B89220334
S214403C1029182BF82C0131A032F033C43AB4363F81
S214403C20046027803D0F3E803F40407F416A4229E6
S214403C3044E54541470249644AA14B704C1A4D50F1
S214403C404E1364006788681A1438243C2530267260
S214403C505097517E5200530020002123380784029B
S214403C603814E900565557FF58FF59FF5F04EC00DB
S214403C7013FF807F813F823283013811850086039F
S214403C808701880589308D308F85933095859930AA
S214403C909B859C089D129E239F45A055A164A272B9
S214403CA0A37FA48BA595A6A7A7B5A8CBA9DDAAEC0C
S214403CB0AB1ACE78CF6ED00AD10CD284D390D41E15
S214403CC05A245B1F5C885D60AC6EBEFFBF003150FF
S214403CD03278823F1200363F530033C41B8922039A
S214403CE02802FFFF0E001280FE051300110212008C
S214403CF0D5100CD40D341601172518A019031AF048
S214403D001B89220329182BF82C0131A032F033C42A
S214403D103AB4363F046027803D0F3E803F40407FA8
S214403D20416A422944E54541470249644AA14B70ED
S214403D304C1A4D504E1364006788681A1438243C59
S214403D40253026725097517E520053002000212382
S214403D503814E900565557FF58FF59FF5F04EC00EA
S214403D6013FF807F813F82328301381185008603AE
S214403D708701880589308D308F85933095859930B9
S214403D809B859C089D129E239F45A055A164A272C8
S214403D90A37FA48BA595A6A7A7B5A8CBA9DDAAEC1B
S214403DA0AB1ACE78CF6ED00AD10CD284D390D41E24
S214403DB05A245B1F5C885D60AC6EBEFFBF0031500E
S214403DC03278823F1200363F530033C41B892203A9
S214403DD02802FFFF0E001280FE0513001105120098
S214403DE0D5100CD40D341601172518A019031AF057
S214403DF01B89220329182BF82C0131A032F033C43A
S214403E003AB4363F046027803D0F3E803F40407FB7
S214403E10416A422944E54541470249644AA14B70FC
S214403E204C1A4D504E1364006788681A1438243C68
S214403E30253026725097517E520053002000212391
S214403E403814E900565557FF58FF59FF5F04EC00F9
S214403E5013FF807F813F82328301381185008603BD
S214403E608701880589308D308F85933095859930C8
S214403E709B859C089D129E239F45A055A164A272D7
S214403E80A37FA48BA595A6A7A7B5A8CBA9DDAAEC2A
S214403E90AB1ACE78CF6ED00AD10CD284D390D41E33
S214403EA05A245B1F5C885D60AC6EBEFFBF0031501D
S214403EB03278823F1200363F530033C41B892203B8
S214403EC02802FFFF0E001280130011011200D510C9
S214403ED00C540D341601172518A019031AF01B8927
S214403EE0220329182BF82C0131A032F033C43AB4FF
S214403EF0363F046027803D0F3E803F40407F416A0A
S214403F00422944E54541470249644AA14B704C1A50
S214403F104D504E1364006788681A1438243C253088
S214403F2026725097517E52005300200021233814A9
S214403F30E900565557FF58FF59FF5F04EC0013FF42
S214403F40807F813F823283013811847085008603EA
S214403F508701880589308D308F85933095859930D7
S214403F609B859C089D129E239F45A055A164A272E6
S214403F70A37FA48BA595A6A7A7B5A8CBA9DDAAEC39
S214403F80AB1ACE78CF6ED00AD10CD284D390D41E42
S214403F905A245B1F5C885D60AC6EBEFFBF00312854
S214403FA0323C3400823F1200363F530033001B89B8
S214403FB022032802D900FFFF0E001280FE051300E0
S214403FC011011200D5100CD40D341601172518A077
S214403FD019031AF01B89220329182BF82C0131A04B
S214403FE032F033C43AB4363F046027803D0F3E80FB
S214403FF03F40407F416A422944E545414702496483
S2144040004AA14B704C1A4D504E1364006788681A8C
S2144040101438243C253026725097517E5200530067
S214404020200021233814E900565557FF58FF59FF02
S2144040305F04EC0013FF807F813F8232830138119A
S214404040850086038701880589308D308F859330BB
S214404050958599309B859C089D129E239F45A0552B
S214404060A164A272A37FA48BA595A6A7A7B5A8CB4B
S214404070A9DDAAECAB1ACE78CF6ED00AD10CD2848A
S214404080D390D41E5A245B1F5C885D60AC6EBEFF26
S214404090BF0031503278823F1200363F530033C45F
S2144040A01B8922032802FFFF0000000000000000DA
S2144040B000000000000000000000000000000000BB
S2144040C000000000FFCCFFCC000000000000000015
S2144040D000000000F000F00000000000F000F000DB
S2144040E0000000000CC00CC0FFFCFFFC0CC00CC065
S2144040F0FFFCFFFC0CC00CC00C601E703F30333021
S214404100FFFCFFFC333033F039E018C06000F00CA1
S214404110F03C60F003C00F003C18F03CC03C001878
S2144041203CF07FF8C31CC78CCFCCDCEC78783030C2
S21440413000FC00CC0000000000004400EC00F8004A
S2144041407000000000000000000000000FC03FF0BC
S21440415078786018C00CC00C00000000000000001A
S214404160C00CC00C601878783FF00FC0000000000C
S2144041700C600EE007C003803FF83FF8038007C09E
S2144041800EE00C6003000300030003003FF03FF026
S2144041900300030003000300004400EC00F8007036
S2144041A000000000000000000000000003000300C4
S2144041B003000300030003000300030003000300A2
S2144041C00018003C003C0018000000000000000002
S2144041D0000000000000000C003C00F003C00F0090
S2144041E03C00F000C00000003FF07FF8E0FCC1CC8F
S2144041F0C38CC70CCE0CFC1C7FF83FF000000000C0
S214404200300C700CFFFCFFFC000C000C00000000A3
S214404210300C701CE03CC07CC0ECC1CCC38CE70CBE
S2144042207E0C3C0C30307038E01CC00CC00CC30C0C
S214404230C30CE31C7FF83CF003C007C00EC01CC094
S21440424038C070C0FFFCFFFC00C000C0FC30FC382B
S214404250CC1CCC0CCC0CCC0CCC0CCE1CC7F8C3F075
S2144042603FF07FF8E31CC30CC30CC30CC30CE39CA9
S21440427071F830F0C000C000C000C000C3FCC7FCEE
S214404280CE00DC00F800F0003CF07FF8E79CC30C62
S214404290C30CC30CC30CE79C7FF83CF03C007E008C
S2144042A0E70CC30CC31CC338C370E7E07FC03F8035
S2144042B000000000000018603CF03CF01860000071
S2144042C00000000000000000000018443CEC3CF8F1
S2144042D018700000000000000000030007800FC0B8
S2144042E01CE038707038E01CC00C00000CC00CC0DD
S2144042F00CC00CC00CC00CC00CC00CC00CC00CC019
S2144043000000C00CE01C703838701CE00FC00780FE
S2144043100300000030007000E000C000C1ECC3ECB9
S214404320C300E6007E003C0030F071F8E39CC30C0E
S214404330C3FCC3FCC00CE01C7FF83FF03FFC7FFC96
S214404340E0C0C0C0C0C0C0C0C0C0E0C07FFC3FFC32
S214404350FFFCFFFCC30CC30CC30CC30CC30CE79C94
S2144043607FF83CF03FF07FF8E01CC00CC00CC00C5F
S214404370C00CE01C70383030FFFCFFFCC00CC00C9A
S214404380C00CC00CC00CE01C7FF83FF0FFFCFFFCEC
S214404390C30CC30CC30CC30CC30CC30CC00CC00C66
S2144043A0FFFCFFFCC300C300C300C300C300C30040
S2144043B0C000C0003FF07FF8E01CC00CC00CC30C2F
S2144043C0C30CE31C73F833F0FFFCFFFC0300030050
S2144043D00300030003000300FFFCFFFC0000000096
S2144043E0C00CC00CFFFCFFFCC00CC00C0000000062
S2144043F000300038C01CC00CC00CC01CFFF8FFF0DA
S214404400C000C000FFFCFFFC078007800FC01CE018
S21440441038707038E01CC00CFFFCFFFC000C000C31
S214404420000C000C000C000C000C000CFFFCFFFC09
S214404430700038001F001F0038007000FFFCFFFCB3
S214404440FFFCFFFC1C000E000700038001C000E0DC
S214404450FFFCFFFC3FF07FF8E01CC00CC00CC00C1B
S214404460C00CE01C7FF83FF0FFFCFFFCC300C3001D
S214404470C300C300C300E7007E003C003FF07FF867
S214404480E01CC00CC0CCC0ECC07CE0387FFC3FECED
S214404490FFFCFFFCC300C380C380C3C0C3C0E7703B
S2144044A07E3C3C1C3C187E1CE70CC30CC30CC30C67
S2144044B0C30CC39CE1F860F0C000C000C000C00060
S2144044C0FFFCFFFCC000C000C000C000FFF0FFF8CB
S2144044D0001C000C000C000C000C001CFFF8FFF049
S2144044E0FFC0FFE000700038001C001C0038007061
S2144044F0FFE0FFC0FFF0FFF8001C003C00F800F8AB
S214404500003C001CFFF8FFF0F03CF87C1CE00FC0BD
S214404510078007800FC01CE0F87CF03CFC00FE00E3
S2144045200700038001FC01FC03800700FE00FC003E
S214404530C03CC07CC0ECC1CCC38CC70CCE0CDC0CE1
S214404540F80CF00C00000000FFFCFFFCC00CC00C98
S214404550C00C000000000000300030000C000C00D2
S2144045600300030000C000C0003000300000000020
S214404570C00CC00CC00CFFFCFFFC0000000000009C
S2144045800C001C0038007000E000E00070003800AE
S2144045901C000C00000C000C000C000C000C000C66
S2144045A0000C000C000C000C00000000C000E000F6
S2144045B07000380018000000000000000030067848
S2144045C00EFC0CCC0CCC0CCC0CCC0ECC07FC03F864
S2144045D0FFFCFFFC030C030C030C030C030C039CB6
S2144045E001F800F003F007F80E1C0C0C0C0C0C0C39
S2144045F00C0C0E1C0738033000F001F8039C030C2B
S214404600030C030C030C030CFFFCFFFC03F007F841
S2144046100EDC0CCC0CCC0CCC0CCC0EDC07D80390AF
S214404620000003003FFC7FFCE300E3007000300026
S214404630000000000318079C0FCC0CCC0CCC0CCC14
S2144046400CCC0CDC0FF807F0FFFCFFFC030003006B
S21440465003000300038001FC00FC00000000000093
S214404660000000001BFC1BFC0000000000000000D7
S214404670000000300038001C000C000C001CCFF876
S214404680CFF000000000FFFCFFFC00E001E003F07C
S21440469007380E1C0C0C000000000000C00CC00CBC
S2144046A0FFFCFFFC000C000C000000000FFC0FFCA1
S2144046B00E00070003C003C007000E000FFC0FFCEF
S2144046C00FFC0FFC030007000E000C000C000E0051
S2144046D007FC03FC03F007F80E1C0C0C0C0C0C0C2F
S2144046E00C0C0E1C07F803F00FFC0FFC0CC00CC0A3
S2144046F00CC00CC00CC00FC007800300030007802E
S2144047000FC00CC00CC00CC00CC00CC00FFC0FFC83
S2144047100FFC0FFC038007000E000C000C000E0080
S214404720070003000318079C0FCC0CCC0CCC0CCC19
S2144047300CCC0CFC0E78063000000C000C00FFF091
S214404740FFF80C1C0C1C0C380C3000000FF00FF857
S214404750001C000C000C000C000C001C0FF80FF0A6
S2144047600FC00FE000700038001C001C00380070BE
S2144047700FE00FC00FF00FF8001C001C00F800F808
S214404780001C001C0FF80FF00C0C0E1C073803F032
S21440479001E001E003F007380E1C0C0C0C000E0084
S2144047A0070C039C01F801F0038007000E000C0084
S2144047B00C0C0C1C0C3C0C7C0CEC0DCC0F8C0F0C1D
S2144047C00E0C0C0C0000030007803FF07CF8E01C49
S2144047D0C00CC00CC00C0000030C030C3FFC7FFC5C
S2144047E0E30CC30CC00CE00C700C300C0000C00C8A
S2144047F0C00CC00CE01C7CF83FF0078003000000B3
S214404800C000C000C000C000C000C000C000C00063
S214404810C000C000FFFCFFFCFFFCFFFCFFFCFFFCF1
S214404820FFFCFFFCFFFCFFFC49444C450000000039
S214404830546D7220537663004672656552544F53EA
S2144048400000000044454D4F00000000506963746E
S2144048507572652073617665640000007461736BE1
S2144048605F646973706C617900000000696E6974FA
S21440487069616C697A696E672063616D6572610013
S2144048804F563737343020696D6167652073656EE3
S214404890736F720A63617074757265206578616DB6
S2144048A0706C6500506C6561736520576169742053
S2144048B0647572696E67200A696E697469616C69AD
S2144048C07A6174696F6E0000506C65617365205044
S2144048D07265737320627574746F6E0A746F207499
S2144048E0616B6520616E6420646973706C61790ADF
S2144048F06120706963747572650000004C656400E1
S2144049004C434400446973706C61790043616D6543
S214404910726100004300000018000020F8B500BF98
S214404920F8BC08BC9E46704739374000F10040004E
S214404930F8B500BFF8BC08BC9E467047CD004000A6
S214404940BFF35F8F0138FBD1704700BF00093D00C1
S214404950AAAAAAAAF00080020000000004030020D1
S2144049606C030020D403002000000000000000007C
S21440497000000000000000000000000000000000F2
S2144049800000000000000000000000001449400045
S21440499000000000000000000000000000000000D2
S2144049A000000000000000000000000000000000C2
S2144049B000000000000000000000000000000000B2
S2144049C000000000000000000000000000000000A2
S2144049D00000000000000000000000000000000092
S2144049E00000000000000000000000000000000082
S2144049F00000000000000000000000000000000072
S214404A0001000000000000000E33CDAB34126DE60E
S214404A10ECDE05000B000000000000000000000077
S214404A200000000000000000000000000000000041
S214404A300000000000000000000000000000000031
S214404A400000000000000000000000000000000021
S214404A500000000000000000000000000000000011
S80440113179
