S02100005374616E646172645F4F56373734305F73616D3473777069722E73726563F3
S214400000E0DE0020BD114000B9114000B9114000AB
S214400010B9114000B9114000B9114000000000007D
S2144000200000000000000000000000003515400001
S214400030B9114000000000000D1640005116400067
S214400040B9114000B9114000B9114000B911400043
S214400050B9114000B9114000B9114000000000003D
S214400060B9114000B911400000000000050E4000E4
S214400070190E40002D0E4000B9114000B911400045
S2144000800000000000000000B9114000B911400017
S214400090B9114000B9114000B9114000B9114000F3
S2144000A0B9114000B9114000B9114000B9114000E3
S2144000B0B9114000B9114000B9114000B9114000D3
S2144000C0B9114000B9114000B911400010B5054CB7
S2144000D0237833B9044B13B10448AFF300800123AF
S2144000E0237010BDB408002000000000CC1D410065
S2144000F0084B10B51BB108480849AFF300800848C4
S214400100036803B910BD074B002BFBD0BDE8104079
S214400110184700BF00000000CC1D4100B808002072
S214400120CC1D41000000000010B50E480E4B98470D
S21440013000203E210D4B98470D4CA0470028FCD090
S2144001400C4B98470C4A0D4BDA620D4CA0470028E2
S214400150FCD010200B4B98470B4B98470148024B5E
S214400160984710BD000E270781134000A50E40009B
S214400170F90E4000450F4000013F130000040E40BA
S214400180510F4000410E40006D124000A8B92DE9C5
S214400190F0410C469046002A0ADD8F18084E094D5D
S2144001A0306821462B6898470134BC42F8D101E0BC
S2144001B04FF000084046BDE8F0814FF0FF307047F2
S2144001C0C4AE0020BCAE00200138022818D82DE965
S2144001D0F0410E46144682B10D46DFF838800C4F8B
S2144001E0D8F8000015F8011B3B68984700280ADB42
S2144001F0A81B013CF4D1BDE8F0810020BDE8F081A9
S2144002004FF0FF3070474FF0FF30BDE8F08100BF41
S214400210C0AE0020C4AE002070B54FF40042674B1D
S2144002205A604C204FF06051654CA047022065490B
S214400230A04703204FF00061A04704204FF0006124
S214400240A0472D204FF08051A0475F4D40202946C3
S214400250A04741202946A04742202946A0474320A0
S2144002602946A04744202946A04745202946A0477E
S21440027046202946A04747202946A0474B202946E6
S214400280A04748202946A047504E16203146A04752
S21440029053202946A0474D204FF04051A0474020CC
S2144002A02946A04741202946A04742202946A04744
S2144002B043202946A04744202946A04745202946B2
S2144002C0A04746202946A04747202946A0474B201E
S2144002D02946A04748202946A0474E202946A04701
S2144002E049204FF04051A04752202946A04753206E
S2144002F02946A04754202946A04755202946A047CE
S21440030056202946A04757202946A0475820294628
S214400310A04759202946A0475A202946A0475B2097
S2144003202946A0475C202946A0475D202946A0478D
S2144003305E202946A0475F202946A0471220314626
S214400340A04713203146A04714203146A04700203E
S2144003503146A04701203146A04750202946A047B5
S2144003604A204FF06051A0474F204FF06051A047C1
S21440037015204FF04051A04710207121A0470F2074
S2144003807121A04705F1005518202946A04719209D
S2144003902946A0471A202946A0471B202946A047A1
S2144003A01C202946A0471D202946A0471E20294636
S2144003B0A0471F202946A04770BD00BF50140E40DE
S2144003C0090C4000790000280100000801000018D0
S2144003D008B520B108461146034B984708BD084665
S2144003E01146024B984708BD810A40007D0A4000EE
S2144003F008B5014B984708BD3910400008B5014B79
S214400400984708BD191140002DE9F04186B00746CF
S2144004104C1C0125124EDFF84C8013E0FE2B03D116
S2144004204AF26A70C0470CE08DF8043002952123EA
S2144004308DF8143004950392384601A9B047082831
S2144004400AD00234224614F8013CFF2BE6D121782C
S214400450FF29E9D1002000E0082006B0BDE8F08181
S214400460FD03400001000020F0B58DB00746002394
S2144004700093019321268DF818600A238DF80830E2
S21440048001240394CDF810D0059402A93A4DA8470C
S2144004908DF82C600B238DF81C30089401AB099323
S2144004A00A94384607A9A847019B009A43EA0223C4
S2144004B0C3F30723772B35D10023019302931C23E4
S2144004C08DF81C3008948DF82C6001AB09930A9483
S2144004D0384607A9A8471D238DF81C3008948DF888
S2144004E02C6002AB09930A94384607A9A847019B9B
S2144004F07F2B3ED1029BA22B3BD115E001AB09934B
S214400500384607A91D4B9847CDF824D0384607A94A
S214400510194B98470198009B181A18BF012029E0EC
S214400520012027E0012025E0002300930193029359
S21440053001238DF81C30089321228DF82C200A9335
S21440054001AB0993384607A90B4CA0470CABAD222C
S21440055043F8282D0993384607A9084B9847CDF805
S21440056024D0384607A9A047029B009A9A42D7D182
S214400570C4E701200DB0F0BDF1034000FD0340008C
S21440058008B5082914D8DFE801F015051707090B48
S2144005900D0F11000B4910E00B490EE00B490CE023
S2144005A00B490AE00B4908E00B4906E00B4904E01A
S2144005B0012008BD0A4900E00A490B4B9847002035
S2144005C008BD00BF54FB40000001410044FC400011
S2144005D00C00410060FA400038FD400070F94000D1
S2144005E01CFF40002CFE40000904400070B483B05D
S2144005F0C0F11100102828BF1020002808BF012095
S2144006000021104E4FF40055182475630194019B49
S2144006105A1E0192002BFAD135630194019B5A1E53
S2144006200192002BFAD101318142EED34FF40033D0
S2144006300193019B5A1E0192002BFAD103B070BC65
S214400640704700BF00120E4082B04FF40052064B77
S2144006505A634FF400330193019B5A1E0192002BBC
S214400660FAD102B0704700BF00120E40C0F30742F6
S214400670034B1A70C0F307221A70C0B21870704746
S214400680020000624FF0C44300221A7018700A0A33
S21440069002331A70C9B21970704700BF82B0002387
S2144006A00193019B984211D90021094A0191019B6F
S2144006B0934205D8019B01330193019B9342F9D99C
S2144006C0019B01330193019B8342EFD302B07047F5
S2144006D09F86010008B5072040F23311014B98472A
S2144006E008BD00BF85064000044A131F02F56F721E
S2144006F043F8040F9342FBD1704700BFD008002058
S2144007002DE9F0410F4615461C461FFA80F850204A
S2144007104146094EB047691E4144512089B2B04710
S214400720BDB252202946B047611E2944532089B2A3
S214400730B047BDE8F08100BF8506400038B50346A7
S2144007400D4620201946034CA04721202946A047A5
S21440075038BD00BF850640004FF0C44300221A70E3
S2144007601A705F4A1178137843EA01231BB25D4A38
S214400770934240F0B38070B50546072033215A4C6B
S214400780A04710200021A04700200121A0470120BB
S2144007904FF48071A04702204FF4E061A047042048
S2144007A00021A047082040F20721A0470920002149
S2144007B0A0470A200021A0470C200021A0470D207A
S2144007C00021A0470F200021A04710200021A0476D
S2144007D011200021A04712200021A047132000210D
S2144007E0A047C820414EB047102041F29021A04774
S2144007F0112040F22721A0473220B04712201B216B
S214400800A0473220B04713204FF48851A0472920F4
S2144008101921A0472B200D21A0473220B047302079
S2144008200021A04731204FF40171A04732204FF4F9
S2144008300071A04735200721A047362041F20441E9
S214400840A047372040F20571A047382040F20531D6
S214400850A047392040F20771A0473C2040F2017182
S214400860A0473D200E21A04703204DF21001A0478F
S21440087060204FF42741A04761200121A0476A200D
S2144008800021A04780200021A04781200021A047CA
S21440089082200021A04783200021A04784200021F9
S2144008A0A04785200021A04790201021A0479220F5
S2144008B04FF4C061A04795204FF48871A0470020B0
S2144008C001462A686B680A4CA047A868094B9847B7
S2144008D000200146084B9847002070BD0120704715
S2144008E0020000622593FFFF850640009D064000FB
S2144008F001074000E90640003D07400070B5064647
S21440090000200146074B98474FF0C44300221A7018
S21440091022221A704FF49634034D3046A847013CC5
S214400920FBD170BD3D0740006D064000EF2813D850
S214400930B1F5A07F12D210B580B289B2084B984765
S2144009404FF0C44300241C7022221A70054B1868CE
S214400950054B9847204610BD012070470120704740
S2144009603D074000D00800206D06400070B50546A3
S2144009700C46064EB047A8B2A1B2054B98474FF07A
S214400980C44300221A7022221A7070BD010740002C
S2144009903D0740002DE9F04F85B003900292137852
S2144009A0002B46D08B460190DFF890900A2B04D15E
S2144009B00BF1100B039B019335E003EB83031E4EB4
S2144009C006EB8303A3F27F26019A13460A3300936D
S2144009D09046072437460BEB040A3D4616F8013C82
S2144009E0234113F0010F03D04046C4EB0A01C84729
S2144009F0013CB4F1FF3FF0D107240BF10F072B78F1
S214400A00234113F0010F02D04046391BC847013C32
S214400A10012CF4D1023608F10108009B9845D8D144
S214400A20019B0C330193029A12F8013F0292002B6D
S214400A30BCD105B0BDE8F08FF00141002D09400063
S214400A4009014250704700BF00EB01114A607047F1
S214400A5000EB01118A60704700EB0111CA607047D5
S214400A60C0F8841052004FF40043B3FBF2F2013A50
S214400A70C2F30D02C0F88C20704700BF0163704778
S214400A80416370474264B1F1C05F2FD007D8B1F1DF
S214400A90006F14D0B1F1805F1ED039B97047B1F104
S214400AA0205F37D004D8B1F1005F29D0426070474C
S214400AB0B1F1405F2ED0B1F1605F2BD0F6E710B4B5
S214400AC0016F046FD343214019400167416F446F63
S214400AD021400B4043671AE0036F13430367436F9D
S214400AE0416F0B4023EA02034367DFE7036F016F62
S214400AF00B4023EA02030367436F13434367D5E77C
S214400B00036F13430367436F13434367CEE7426065
S214400B105DF8044B704700BF416412F0010F14BFEC
S214400B204166016612F00A0F14BF0162416212F07C
S214400B30020F02D0C0F8801004E012F0080F18BF71
S214400B40C0F8841041610160704700BF10B4416432
S214400B50019C0CB1416600E001660BB1016500E006
S214400B6041650AB1016300E04163016101605DF8DF
S214400B70044B704712F0100F10D0C0F8B01012F0AF
S214400B80200F14BFC0F8D410C0F8D01012F0400F99
S214400B9014BFC0F8C010C0F8C4107047C0F8B410F6
S214400BA0704700BFC36C0164704700BF4164704724
S214400BB0C06C7047806C7047430903F5001303F21E
S214400BC007735B0200F01F00012282401A637047E1
S214400BD0430903F5001303F207735B0200F01F009E
S214400BE0012282405A637047430903F5001303F21B
S214400BF007735B02996B00F01F00012282400A4295
S214400C0014BF5A631A63704770B582B00D464309E5
S214400C1003F5001303F207735C0201F0F043B3F1EF
S214400C20005F47D009D8B3F1805F21D0B3F1C05FF1
S214400C302FD0B3F1006F6FD109E0B3F1405F55D0CC
S214400C40B3F1605F52D0B3F1205F44D064E000F06F
S214400C501F000126864020464FF000613246304B4A
S214400C60984715F0010F14BF66662666012054E0CB
S214400C7000F01F000126864020464FF08051324645
S214400C80274B984715F0010F14BF6666266601206D
S214400C9043E000F01F000126864020464FF0C0513A
S214400CA032461F4B984715F0010F14BF66662666FE
S214400CB0012032E000F01F000126864020464FF01B
S214400CC000513246164B984715F0010F14BF666622
S214400CD02666012021E000F01F030126204606FA82
S214400CE003F12A460F4B9847304616E000F01F03A4
S214400CF0012605F0605205EA06010091204606FAF4
S214400D0003F1B2F1605F14BF00220122C5F38003F5
S214400D10054CA047304600E0002002B070BD00BF42
S214400D20850A4000190B40004D0B4000D0F850316A
S214400D3043F00103C0F850310122014B1A6070475E
S214400D40C8AE0020D0F8503123F00103C0F850312F
S214400D500022014B1A607047C8AE00202DE9F843C8
S214400D6081468846124B984705464846114B984759
S214400D70054013D0104C04F160062368434508D163
S214400D806168294205D0E36840469847636825EA8B
S214400D900305B44202D01034002DEED1074B1B6839
S214400DA023B1074B1B680BB148469847BDE8F8830C
S214400DB0B10B4000B50B4000980C0020C8AE002098
S214400DC0940C0020F8B50C4C2468062C11D8154617
S214400DD00A4F2201BE18B9507560B360069AF26099
S214400DE00134054A146029461A46054B98470020A8
S214400DF0F8BD0120F8BD00BF900C0020980C0020E4
S214400E00750B400008B502480B21024B984708BDB9
S214400E10000E0E405D0D400008B502480C21024B06
S214400E20984708BD00100E405D0D400008B50248CA
S214400E300D21024B984708BD00120E405D0D400044
S214400E40174A136B23F0700318431063936E13F026
S214400E50080F03D009E0013B03D11CE04FF40063C8
S214400E600F498A6E12F0080FF5D00D4B1A6B42F000
S214400E7003021A63986E10F0080004D000207047F2
S214400E80013B03D109E04FF4006305498A6E12F036
S214400E90080FF5D07047012070470120704700BF0B
S214400EA000040E4038B111490B6A114A1A40114BE2
S214400EB013430B6270470D4A136A23F45C1323F006
S214400EC0030343F45C1343F00103090289B20B4366
S214400ED01362936E13F0010FFBD0044A136A43F07B
S214400EE09B7343F480331362704700BF00040E4088
S214400EF0FCFFC8FE02003701024B986E00F48030BB
S214400F00704700BF00040E4010B40C4C4FF0005326
S214400F10A3620B4B03EA004040F00050D2B20243BB
S214400F20090201F47C510A43A2622246936E13F0F2
S214400F30020FFBD05DF8044B704700BF00040E4024
S214400F400000FF070022014BDA62704700040E40A3
S214400F50024B986E00F00400704700BF00040E403D
S214400F6022281ED81F280CD8114B9A69012383408B
S214400F701A40934217D0012383400D4A1361002044
S214400F8070470B4BD3F808212038012383401A4082
S214400F9093420AD001238340054AC2F8003100201C
S214400FA0704701207047002070470020704700BF00
S214400FB000040E400F4B994219D84900B2FBF1F29B
S214400FC0043AFF2A07D9002301335208FF2A03D9DF
S214400FD0072BF9D100E00023110289B21B0403F469
S214400FE0E0230B43D2B21A4302610020704701202F
S214400FF0704700BF801A060038B504460D464FF0CD
S214401000FF338362036A80230360036B0823036015
S214401010202303600423036049682A68054B9847E9
S214401020012814BF002001206B7A012B04BF402307
S214401030236038BDB50F40002DE9F041CA688D6881
S214401040002A48D0002646604B681B0203F44073D3
S21440105043F480540B7C1B0403F4FE032343436099
S214401060C6604C685CB10B78012CC4BF4E7846EA2B
S2144010700323022C04DD897841EA032300E00023A1
S214401080C360012A03D10323036001272FE0012315
S214401090036000272BE02146036A13F4807F1DD1AE
S2144010A04C1EF1B1012A04D177BBC0F800806746D8
S2144010B02AE013F0020F05D0036B2B70013A01357E
S2144010C0314600E02146002AE6D1036A13F0010FBC
S2144010D0FBD0036A1CE04FF0010E19E04FF0050EFE
S2144010E016E04FF0090E13E04FF0050E10E0036ACD
S2144010F013F4807EF8D143F6972443F698264FF0B3
S21440110002084FF0010CCDE713F0020FC3D0D3E72F
S2144011107046BDE8F08100BF0346CA688868002A6A
S21440112040D070B400265E600C7C240404F4FE05B7
S2144011304C68240204F440742C435C60DE604D68C6
S2144011405DB10C78012DC4BF4E7846EA0424022DCA
S21440115004DD897841EA042400E00024DC600BE0EA
S214401160196A11F4807F1FD111F0040FF8D010F8DF
S214401170011B5963013A07D0196A11F4807F15D1D3
S21440118011F0040FECD0F2E71A6A12F480700FD117
S21440119012F0040FF8D002221A601A6A12F0010FF9
S2144011A0FBD006E001207047052002E0052000E065
S2144011B0052070BC704700BFFEE700BF08B5204B57
S2144011C0204A9A4213D9204B1D4A9A421FD21146B2
S2144011D0043203339B1A23F003030433194A13449F
S2144011E052F8040B41F8040B9A42F9D10FE0144B25
S2144011F0144A9A420BD2144B114A9A1A1348811831
S2144012002AB151F8042943F8042D8142F9D100BF90
S2144012100F4B104A9A420BD2131D0F4AD21A22F095
S21440122003021A44043B002143F8041B9342FBD1BB
S2144012300A4B0B4A9A600B4B98470B4B9847FEE776
S21440124000000020CC1D4100B4080020C81D41000D
S214401250DCAE0020B4080020DFAE002000ED00E049
S21440126000004000B1894000DD7B40003D4B1B6BD9
S21440127003F00303032B5DD8DFE803F0020E2B2BAD
S214401280394B5B6913F0800F14BF4FF400424FF4A4
S214401290FA42364B1A604DE0324B1B6A13F0807FA1
S2144012A003D0334A314B1A6044E0324A2F4B1A601F
S2144012B02C4B1B6A03F07003102B02D0202B04D05B
S2144012C038E02D4A294B1A6034E0294A274B1A60E9
S2144012D030E0244B1B6A13F0807F03D0244A234B14
S2144012E01A6012E0234A214B1A601E4B1B6A03F019
S2144012F07003102B02D0202B04D006E01E4A1B4B56
S2144013001A6002E01A4A194B1A60164B1B6B03F020
S2144013100303022B134A07BF936A926AD36AD26AC0
S2144013201248C3F30A41036801FB0333D2B2B3FB4E
S214401330F2F303600B4B1B6B03F07003702B07D16B
S2144013400A4A13680D49A1FB03135B0813607047F4
S214401350044B1A6B0549C2F302120B68D3400B606C
S214401360704700BF00040E4010140E400C000020D2
S214401370001BB70000093D0000127A00ABAAAAAADB
S214401380124B984204D84FF08062114B1A60704757
S214401390104B984203D8104A0D4B1A6070470F4BBB
S2144013A0984203D80E4A0A4B1A6070470D4B984233
S2144013B003D80D4A064B1A6070470C4B984294BFB0
S2144013C04FF004220A4A024B1A607047FF2C310144
S2144013D0000A0E40FF59620200010004FF86930394
S2144013E000020004FFB3C40400030004FFE0F50558
S2144013F000050004094B1B6813B9094A074B1A60DD
S214401400064B1B681A180749914204DB1046034AEC
S2144014101060184670474FF0FF307047080D0020A8
S214401420E0DE0020FCFF01204FF0FF30704700BF99
S2144014304FF400534B600020704700BF01207047B8
S2144014400020704708B501460148024B9847FEE722
S21440145070094100018A4000704700BF4FF0FF30DE
S214401460704700BF00F1080343604FF0FF328260D0
S214401470C360036100230360704700BF002303611D
S214401480704700BF43684B609A688A609A685160AC
S21440149099600861036801330360704730B40D6893
S2144014A0B5F1FF3F01D1026907E000F1080200E014
S2144014B01A4653681C68A542FAD253684B60996036
S2144014C08A605160086103680133036030BC70472E
S2144014D003694268816891608268416851605A68D1
S2144014E0824204BF92685A6000220261186801383E
S2144014F01860704706480068006880F3088862B63F
S21440150061B6BFF34F8FBFF36F8F00DF00BF0000A1
S21440151008ED00E04FF0807340F8043C40F8081CAB
S214401520034B40F80C3C40F8202C4038704700BF36
S21440153081154000074B19680868B0E8F00F80F343
S2144015400988BFF36F8F4FF0000080F311884EF08C
S2144015500D0E7047CCAD00204FF08052034B1A6002
S214401560BFF34F8FBFF36F8F704700BF04ED00E0AF
S214401570EFF311804FF0A00181F3118870470020EF
S21440158008B5054B1B68B3F1FF3F02D0034B9847A5
S214401590FEE7024B9847FEE710000020711540001A
S2144015A008B50A4B98470A4A136801331360BFF3DD
S2144015B04F8FBFF36F8F012B07D1064B1B6813F07D
S2144015C0FF0F02D0014B9847FEE708BD711540005B
S2144015D01000002004ED00E080F31188704700BF43
S2144015E008B5074B1B6813B9064B9847FEE7013B07
S2144015F0034A136013B90020034B984708BD00BF49
S2144016001000002071154000D9154000EFF3098006
S214401610BFF36F8F0D4B1A6820E9F00F10602DE96D
S21440162008404FF0A00080F3118801F093F84FF087
S214401630000080F31188BDE8084019680868B0E8E3
S214401640F00F80F30988BFF36F8F7047CCAD002052
S21440165008B5064B9847064B984718B14FF080524E
S214401660044B1A600020044B984708BD7115400093
S2144016701524400004ED00E0D9154000064B1B68D9
S214401680064AA2FB03239B09013B054A1360072237
S214401690044B1A60704700BF0C000020D34D621008
S2144016A014E000E010E000E000B583B0224B1A786A
S2144016B0D2B20192FF221A701B78DBB28DF803304B
S2144016C09DF8033003F0A0031C4A137007221C4BFE
S2144016D01A609DF8033013F0800F10D0062200E009
S2144016E00A469DF803305B00DBB28DF803309DF868
S2144016F00330511E13F0800FF2D1114B1A60104A7E
S21440170013681B0203F4E0631360019BDBB20A4AD2
S21440171013700C4B1A6842F470021A601A6842F052
S21440172070421A60084B98470022084B1A60084BD4
S2144017309847084B984700BF00E400E00C0D002097
S214401740100D002020ED00E07D1640001000002027
S214401750F51440008115400008B5EFF305830F2BC4
S21440176009D90B4A9B5CDBB20A4A12789A4202D9E4
S214401770094B9847FEE7094B1B6803F4E063084AA9
S2144017801268934202D9044B9847FEE708BD00BF53
S214401790F0E300E00C0D0020711540000CED00E079
S2144017A0100D0020134A00E01A4613688342FBD30C
S2144017B030B4114654681519854203D1686804440C
S2144017C054601046426884189C420CD10A4B1B68F1
S2144017D09C4206D063681A4442600B681B680360EC
S2144017E002E0046000E00360814218BF086030BC3D
S2144017F0704700BF1C0D0020180D0020F8B50446A9
S214401800414B9847414B1B6823BB414A12F0070F98
S21440181007D0D11D21F0070102F520435B1A0A4686
S21440182001E04FF420433B480260002141601344EE
S214401830083B23F007033548036059601960991A3E
S21440184051601360344B1960344B19604FF00042BE
S214401850334B1A60324B1E6834424CD1002C4DD06C
S21440186004F1080313F0070F1CBF23F007030833E7
S214401870002B40D0294A1768BB423CD8254A1468FA
S21440188001E022460C4661688B4202D92168002955
S214401890F7D11E4909688C422DD015680835216855
S2144018A011606268D21A102A0AD9E01810F0070FA1
S2144018B002D01C4B9847FEE7426063601A4B98473D
S2144018C06268BB1A15490B60134909688B423CBFD6
S2144018D011490B601643666000232360134B9847FC
S2144018E01DB9134B984700250BE015F0070F08D09D
S2144018F00C4B9847FEE70D4B9847F2E70B4B984743
S214401900EFE72846F8BD00BFF9234000180D002039
S214401910240D00201C0D002028AD0020140D0020B2
S21440192024AD002071154000A51740005125400009
S214401930C17B400038B501FB00F52846044B98476C
S214401940044618B100212A46024B9847204638BD27
S214401950FD1740002193400018B310B5044650F8D8
S214401960043C104A12681A4202D10F4B9847FEE7D1
S21440197050F8081C11B10C4B9847FEE723EA0203C7
S21440198040F8043C094B9847094A116854F8043C0F
S2144019900B441360A4F10800064B9847064B984743
S2144019A010BD704724AD002071154000F92340005B
S2144019B0140D0020A51740005125400038B50446B8
S2144019C01546026C4AB903680020002B30D1606887
S2144019D0194B9847002363602AE06DB98068174B1F
S2144019E09847A268236C1344A360626893421AD354
S2144019F02368A36000201BE0C068104B9847236C08
S214401A005B42E2681A44E26021688A4202D2626817
S214401A101344E360022D08D1A36B43B1A36B013B93
S214401A20A363002004E0002002E0002000E0002045
S214401A30A36B0133A36338BDF92A400025914000CB
S214401A4030B583B00190C46C14B9144B9847FEE788
S214401A500A46A16BE36B994202D3104B9847FEE7C8
S214401A60A16B8B4216D9204601A90D4B98470546D7
S214401A70A36CB3F1FF3F09D1636A63B104F124005C
S214401A80084B9847002818BF012504E0A36C013393
S214401A90A36400E00025284603B030BD7115400021
S214401AA0BD19400001294000026C72B110B5C368F0
S214401AB01344C3604468A34224BF0368C36003461C
S214401AC00846D968014B984710BD7047259140009D
S214401AD0F8B50446204B9847A36C002B18DD1F4DE5
S214401AE01F4F204EE36C33B120460021A847012803
S214401AF008D1B84706E0636A53B104F12400B04702
S214401B0000B1B847A36C013BA364A36C002BE9DC8F
S214401B104FF0FF33A364144B98470F4B9847636CC2
S214401B20002B13DD23691BB910E0236923B90DE0B0
S214401B3004F110060B4D0A4F3046A84700B1B8478F
S214401B40636C013B6364636C002BEEDC4FF0FF3349
S214401B506364054B9847F8BDA1154000411A400004
S214401B60252A400001294000E115400038B510B94B
S214401B70174B9847FEE70D460446164B9847226893
S214401B80216CE36B03FB01F3D01860600020A06378
S214401B90A2605B1A1344E3604FF0FF336364A364B0
S214401BA055B923697BB104F110000B4B98470128C7
S214401BB009D10A4B984706E004F11000084DA847A3
S214401BC004F12400A847074B9847012038BD00BFC2
S214401BD071154000A11540000129400059154000EC
S214401BE065144000E115400070B510B9134B984796
S214401BF0FEE70D46064681B101FB00F05130104B22
S214401C009847044610B905E024600DE000F1500303
S214401C10036009E0094B9847FEE75020084B984779
S214401C2004460028F0D1F5E7E66325642046012106
S214401C30044B98470023E364204670BD711540006E
S214401C40FD1740006D1B40002DE9F04F85B0009118
S214401C50019210B94B4B9847FEE71D460446009B41
S214401C6023B9036C13B1474B9847FEE7022D05D1C5
S214401C70E36B012B02D0434B9847FEE7424B984715
S214401C8020B9019B2BB13F4B9847FEE74FF0000829
S214401C9001E04FF000083D4FDFF81C913C4EB8473E
S214401CA0A26BE36B9A4201D3022D21D120460099C4
S214401CB02A46384B9847E36C43B120462946364B74
S214401CC09847012810D1354B98470DE0636A43B1D9
S214401CD004F12400324B9847012805D12F4B9847F2
S214401CE002E008B12D4B9847294B9847012045E024
S214401CF0019B1BB9264B984700203FE0B8F1000FE8
S214401D0003D102A8C8474FF00108B047254B984773
S214401D10B847636CB3F1FF3F04BF00236364A36C12
S214401D20B3F1FF3F04BF0023A364B04702A801A954
S214401D301D4B9847E0B9B847D4F838B0D4F83CA023
S214401D40B047D3450ED104F110000199174B984780
S214401D502046174B9847174B984700289FD10F4B64
S214401D6098479CE72046124B9847124B984796E771
S214401D7020460F4B98470F4B9847002005B0BDE8CC
S214401D80F08F00BF71154000312A4000A115400079
S214401D90E1154000BD194000411A40005915400069
S214401DA001294000F9234000AD2940001528400095
S214401DB0D11A400051254000892940002DE9F041C4
S214401DC010B92D4B9847FEE7884615461E460446F2
S214401DD021B9036C13B1284B9847FEE7022E3BD13E
S214401DE0E36B012B31D0244B9847FEE72046414613
S214401DF03246224B9847A36CB3F1FF3F16D1E36CB3
S214401E004BB1204631461E4B9847012813D1A5B109
S214401E1001242C602AE0636A8BB104F12400194B3C
S214401E20984770B17DB101242C601FE0A36C01334C
S214401E30A36401241AE0012418E0012416E00124DA
S214401E4014E0012412E0012410E00F4B98470A4B9F
S214401E5098470746A36BC9E70B4B9847064B9847EE
S214401E600746A26BE36B9A42C0D300243846074B22
S214401E7098472046BDE8F08171154000BD194000E6
S214401E80411A40000129400059174000D91540002A
S214401E9070B510B9264B9847FEE70D460446036CCE
S214401EA013B1234B9847FEE7036823B9436813B141
S214401EB01F4B9847FEE71F4B98471D4B98470646D3
S214401EC0A26BE36B9A4222D2A36B0133A363A36C4B
S214401ED0B3F1FF3F16D1E36C4BB120460021164BC1
S214401EE09847012815D1B5B101242C601AE0636AE1
S214401EF09BB104F12400114B984780B18DB1012469
S214401F002C600FE0A36C0133A36401240AE0002494
S214401F1008E0012406E0012404E0012402E0012454
S214401F2000E001243046064B9847204670BD00BF6F
S214401F307115400059174000411A400001294000E1
S214401F40D91540002DE9F04F85B0019210B9494BA4
S214401F509847FEE788469946044621B9036C13B174
S214401F60444B9847FEE7444B984720B9019B23B122
S214401F70404B9847FEE7002700E000273F4EDFF83B
S214401F802CA13F4DB047A36B43B3E568204641467E
S214401F903C4B9847B9F1000F12D1A36B013BA363AA
S214401FA0236813B9384B98476060236993B104F1AE
S214401FB01000364B984701280CD1354B984709E01E
S214401FC0E560636A33B104F12400304B984708B1AA
S214401FD02F4B98472A4B9847012048E0019B1BB956
S214401FE0274B9847002042E017B902A8D047012760
S214401FF0A847284B9847B047636CB3F1FF3F04BFF0
S21440200000236364A36CB3F1FF3F04BF0023A364C3
S214402010A84702A801A9204B984710BBB047D4F860
S21440202038B0A847BBF1000F15D1236823B9B04795
S21440203060681A4B9847A84704F124000199184B4A
S21440204098472046174B9847174B9847002899D1F2
S2144020500F4B984796E72046124B9847124B9847A7
S21440206090E720460F4B98470F4B9847002005B007
S214402070BDE8F08F71154000312A4000A1154000A0
S214402080E1154000A91A40009D2B40000129400060
S21440209059154000F9234000AD294000512A400020
S2144020A015284000D11A400051254000892940009B
S2144020B070B504460E4615460D4B9847636CB3F113
S2144020C0FF3F04BF00236364A36CB3F1FF3F04BF2C
S2144020D00023A364074B9847A36B2BB904F1240055
S2144020E031462A46044B98472046044B984770BDD5
S2144020F0A1154000E11540008D284000D11A40004F
S214402100084B1B681B6823B94FF0FF32064B1A601A
S2144021107047044B1B68DB68DB685A68024B1A60E2
S214402120704700BF30AD0020D0AD002010B504464B
S2144021300E4B1B6858600E4B1B68984207D20D4BDF
S21440214018680A4B196804310B4B984710BD0B4B67
S2144021501868064B19680431074B9847084B1B68AC
S2144021609C423CBF064B1C6010BD00BFCCAD00205F
S214402170D8AD0020DCAD00209D14400030AD0020DE
S214402180D0AD00202DE9F04F83B001930C9FDDF8D1
S21440219034A00E9D009010B9624B9847FEE70E465D
S2144021A09046042F02D95F4B9847FEE735B990001A
S2144021B05D4B98470546002800F0AE8050205A4BAD
S2144021C098470446A8B105632846A5214FEA8802E9
S2144021D0564B984708F1804808F1FF38236B03EBCD
S2144021E0880828F00705337884F83430337823B9E4
S2144021F00FE028464E4B98478EE0334604F13402B3
S214402200093613F8011F02F8011F197809B1B342C5
S214402210F7D14FF0000884F83D803E46042F28BF93
S2144022200426E6622664C4F8448004F1040948465D
S214402230DFF848B1D84704F11800D8472461C6F102
S2144022400506A6616462C4F8488084F84C80284637
S2144022500099019A374B98472060BAF1000F01D099
S214402260CAF80040344B9847344A13680133136029
S214402270334B1B680BBB324B1C601368012B26D1BB
S214402280304D05F16408304E2846B0471435454574
S214402290FAD1DFF8EC8040462B4DA8472B4E30460F
S2144022A0A8472B48A8472B48A8472B48A8472B4B5E
S2144022B0C3F800802A4B1E6009E02A4B1B6833B9DE
S2144022C01F4B1B68DB6A9F4224BF1D4B1C60264A7F
S2144022D0136801331360E06A24490B680122824088
S2144022E013430B6000EB8000164B03EB800049461F
S2144022F01F4B98471F4B98471A4B1B6843B1104BD0
S2144023001B68DB6A9F4205D91B4B9847012005E0B6
S214402310012003E0012001E04FF0FF3003B0BDE8AC
S214402320F08F00BF71154000FD174000219340001C
S2144023305919400015154000A1154000F8AD002081
S214402340CCAD002054AD002065144000FCAD00200C
S214402350E0AD0020B8AD002010AE002030AD00202B
S214402360DCAD002034AD0020F4AD002024AE0020CB
S21440237085144000E1154000591540007D1440008A
S2144023803CAD002010B584B0002300930193029327
S2144023900393104810498222104CA047012812D1BE
S2144023A00F4B984701280ED10E4B98474FF0FF32FF
S2144023B00D4B1A6001220D4B1A6000220C4B1A601E
S2144023C00C4B984703E010B9064B9847FEE704B01D
S2144023D010BD00BFC92640008C0941008521400041
S2144023E06D2C400071154000D0AD002034AD00206B
S2144023F0D8AD0020A9164000024A13680133136086
S214402400704700BFD4AD0020014B1868704700BF2E
S214402410D8AD00202DE9F0473D4B1B68002B67D117
S2144024203C4B1A6801321A601E6896B93A4B1B68D4
S2144024301B6813B1394B9847FEE7374A1168384B4B
S214402440186810601960374A136801331360364BBA
S2144024509847364B1B689E4201D2002437E0002442
S214402460DFF8B490DFF8E480314FD9F800301B68CD
S21440247023B94FF0FF322D4B1A6028E0D9F80030D0
S214402480DB68DD686B689E4202D2284A13601EE015
S21440249005F1040A5046C047AB6A13B105F118006F
S2144024A0C047E86A3B680122824013433B6000EB2A
S2144024B08000204B03EB800051461F4B98471F4B34
S2144024C01B68EA6ADB6A9A4228BF0124CDE71B4BA9
S2144024D01B68DB6A03EB8303164A52F82330022B51
S2144024E028BF0124164B1B684BB9164B984706E08D
S2144024F0134A136801331360124B98470024124B5B
S2144025001B68002B0CBF20460120BDE8F08700BFAB
S214402510D4AD0020D8AD002030AD0020711540006D
S214402520DCAD00202CAD002001214000D0AD0020C5
S21440253024AE002054AD002085144000CCAD0020D1
S21440254050AD0020D97B400028AE0020D11440007A
S2144025502DE9F8432F4B1B6813B92F4B9847FEE7DE
S2144025602E4B98472B4B1A68013A1A601B68002B73
S21440257047D12B4B1B680BBB002445E0FB68DC684F
S21440258004F11800B04704F104084046B047E06A3A
S2144025902B680122824013432B6000EB800009EB3E
S2144025A0800041461F4B98471F4B1B68E26ADB6A18
S2144025B09A4208D301221D4B1A6004E01C4F1D4E60
S2144025C01D4DDFF888903B68002BD7D11B4B1B680E
S2144025D07BB11A4B1B6863B1194E144D174CB0476C
S2144025E008B101232B602368013B23602368002B3E
S2144025F0F5D10E4B1B68012B05D1124B9847012491
S21440260002E0002400E000240F4B98472046BDE837
S214402610F88300BFD4AD002071154000A1154000DE
S214402620F8AD002085144000CCAD002028AE002038
S214402630E0AD0020D114400024AE002050AD002074
S2144026401524400059154000E115400054AD0020C7
S21440265010B508B30446124B1B6813B1114B98478C
S214402660FEE7114B9847114B1B681C44104B1868EB
S2144026700430104B984748B90D4B1A680E490B6802
S214402680D06A0122824023EA02030B6020460B4BAD
S21440269098470B4B984708B90A4B984710BD00BF60
S2144026A0D4AD002071154000F9234000D8AD00207D
S2144026B0CCAD0020D114400024AE00202D21400097
S2144026C0512540005915400080B5164DDFF87C80F6
S2144026D0154E164F19E0C0473468B847ACB1144B96
S2144026E09847F368DC68201D124B9847124A1368D7
S2144026F0013B13602B68013B2B60104B9847206BC7
S214402700DFF84C90C8472046C8472B68002BE2D1DC
S2144027100B4B1B68012B01D90A4B98470A4B98472D
S214402720F3E700BF38AD0020B8AD0020512540008B
S214402730A1154000D1144000F8AD0020E11540003E
S21440274054AD002059154000D57B4000F923400089
S21440275059194000284B1B681BB10122274B1A60B1
S214402760704710B50022254B1A60254B1B681B6B23
S2144027701A68B2F1A53F0BD15A68B2F1A53F07D10E
S2144027809A68B2F1A53F03D1DB68B3F1A53F05D007
S2144027901B4B1868196834311A4B98471A4B1B68FC
S2144027A0B3FA83F3DBB2C3F11F0303EB8301174A8B
S2144027B052F8212012B9164B9847FEE7134A990063
S2144027C0C81802EB800044686468446002460832D9
S2144027D0944206D1606803EB83010C4A02EB810207
S2144027E0506003EB8303094A02EB83035B68DA68B5
S2144027F0034B1A6010BD00BFD4AD002028AE0020A9
S214402800CCAD0020C57B400024AE002054AD002057
S2144028107115400038B510B9134B9847FEE70C4683
S214402820124D29681831124B984728680430114BCE
S214402830984740B92A6810490B68D06A01228240FE
S21440284023EA02030B60B4F1FF3F06D1074B196839
S2144028500A4804310A4B984738BD0A4B186820444A
S214402860094B984738BD00BF71154000CCAD0020DD
S2144028709D144000D114400024AE002010AE00202D
S21440288085144000D8AD00202D21400070B510B909
S214402890134B9847FEE70D461646124C21681831F2
S2144028A0114B984720680430104B984740B922682F
S2144028B00F490B68D06A0122824023EA02030B606C
S2144028C0012E06D1074B19680A480431064B984733
S2144028D070BD094B18682844084B984770BD00BF28
S2144028E071154000CCAD002085144000D114400046
S2144028F024AE002010AE0020D8AD00202D21400090
S21440290038B5C368DC6814B9164B9847FEE704F13F
S21440291018052846144B9847144B1B689BB9251D31
S2144029202846114B9847E06A11490B6801228240BD
S21440293013430B6000EB80000E4B03EB80002946F0
S2144029400D4B984703E00D4829460B4B98470C4BD8
S2144029501B68E26ADB6A9A4283BF0120094B186013
S214402960002038BD71154000D1144000D4AD002081
S21440297024AE002054AD002085144000E0AD002079
S214402980CCAD002028AE002008B510B9044B9847BF
S214402990FEE7044A12680260034A1268426008BDB5
S2144029A0711540002CAD0020D8AD002038B510B9C8
S2144029B0164B9847FEE70D46044611B9134B984709
S2144029C0FEE7134B9847134B19682B68B3F1FF3F4C
S2144029D013D0114A12682068904202D06268914231
S2144029E00DD26268881A83420BD9521A13442B6060
S2144029F020460A4B9847002404E0002402E00124C5
S214402A0000E00124064B9847204638BD711540002B
S214402A10A1154000D8AD00202CAD002089294000EB
S214402A20E11540000122014B1A60704728AE002095
S214402A30054B1B6833B1054B1B68002B0CBF0220AF
S214402A40002070470120704734AD0020D4AD0020F0
S214402A50002845D038B50346C26A22490968C96A83
S214402A608A423CD28169002905DB1E490968C96A49
S214402A70C1F10501816102EB82021B4901EB820232
S214402A805969914227D11C461D1D2846174B984729
S214402A9070B9E36A03EB8301134A52F821203AB92E
S214402AA013480268012101FA03F322EA0303036094
S214402AB00C4B1B68D86AE0620D490A6801238340C4
S214402AC013430B6000EB8000074B03EB8000294666
S214402AD0084B984738BD034A1268D26ADA6238BD56
S214402AE0704700BFCCAD002054AD0020D11440004C
S214402AF024AE00208514400000283DD038B504465A
S214402B00204B1B68984202D01F4B9847FEE7436C09
S214402B1013B91D4B9847FEE7013B4364C16A026CFC
S214402B2091422BD063BB051D2846184B984768B981
S214402B30E16A01EB8102164B53F8223033B915484F
S214402B40036801228A4023EA02030360206CE062A5
S214402B50C0F10503A3610F4A1368012404FA00F18B
S214402B600B43136000EB8000094B03EB80002946C3
S214402B70094B9847204638BD00207047002038BD96
S214402B80002038BDCCAD002071154000D114400067
S214402B9054AD002024AE002085144000054B1B6831
S214402BA023B1044B1A68536C01335364014B1868C5
S214402BB0704700BFCCAD002010B504464160206190
S214402BC091420AD8D21A83699A4211D20A4B18689F
S214402BD0211D0A4B9847002010BD9A4201D29942C7
S214402BE008D2074B1868211D044B9847002010BD9B
S214402BF0012010BD012010BD60AE00209D14400095
S214402C002CAE002070B50F4B98470F4B1B68ABB9E6
S214402C100E4D28460E4EB0470E4C2046B0470E4B43
S214402C201D600E4B1C600520102100220C4B98475F
S214402C30054B186010B90B4B9847FEE70A4B984770
S214402C4070BD00BFA11540005CAE002030AE002035
S214402C506514400044AE00202CAE002060AE00203C
S214402C60E91B400071154000E115400010B584B0E6
S214402C700B4B98470B4B1B6863B102230093002312
S214402C80019302930393084808494FF48272084C14
S214402C90A04710B9074B9847FEE704B010BD00BFE9
S214402CA0052C40005CAE0020C92D40009409410030
S214402CB0852140007115400010B584B010B9114B05
S214402CC09847FEE7044610480068C0B1009101925C
S214402CD0029405290DDC0D4B984702280A4B1868CC
S214402CE0694607BF069A002300221346084CA047B1
S214402CF006E069461A460023064CA04700E000203E
S214402D0004B010BD711540005CAE0020312A400072
S214402D10491C4000BD1D40002DE9F04782B080466A
S214402D20214B98470746214B1B68984233D223E0F5
S214402D30DB68D3F800A0DC6804F104094846B047D5
S214402D40636A20469847E369012B17D1A369534429
S214402D50534506D96360246128684946144B984712
S214402D600CE000230093204619465246114CA047DB
S214402D7020B9114B9847FEE7104D114E2B681A6844
S214402D80002AD5D10F4A10680C4908601360012309
S214402D90C8F8003002E00023C8F80030034B1F603C
S214402DA0384602B0BDE8F0870924400058AE0020FF
S214402DB09D144000B92C4000711540002CAE0020F8
S214402DC0D114400060AE00202DE9F04389B0594F41
S214402DD0594C5A4D3B681A685AB1DB68D3F80080A4
S214402DE0574B984704A8574B98470646049B4BB109
S214402DF049E0534B984704A8524B98470646049BD5
S214402E0063B340E0804588BF002230D84E4B984799
S214402E103B68DB68D3F80C9009F104004B4B9847AD
S214402E20D9F81C30012B14D1D9F818104846414423
S214402E3032464346464EB04701280AD10023009307
S214402E40484619464246434EB04710B9424B98470B
S214402E50FEE7D9F824304846984762E03F4B1B6867
S214402E601A68B2FA82F252094FF00008FFE720686B
S214402E70C6EB08013A4B9847334B9847002850D149
S214402E80384B98474DE0304B98474AE0049B002B20
S214402E9006DA06980799059B9847049B002B40DB6B
S214402EA0069E736913B1301D284B984703A8254BDF
S214402EB098478646049A092A33D8DFE802F0050583
S214402EC00532222F05053222059BB169304619444A
S214402ED07246DFF87CC0E047012822D1736A30464C
S214402EE09847F369012B1CD1B26900230093304602
S214402EF01946059E3244174EB04790B9164B984730
S214402F00FEE70599B16111B9134B9847FEE7304685
S214402F107144724673460E4EB04702E03046124B3E
S214402F209847206804A900221346A8470028ADD138
S214402F3050E700BF2CAE00205CAE0020451F40008E
S214402F40F9234000192D400051254000D11440007F
S214402F50B92B4000B92C40007115400060AE0020EF
S214402F60B120400059154000591940002DE9F04F56
S214402F708DB0017801F00F0500EB85056A68D0F842
S214402F8008311A448B1F03F00F0300EB83035B6882
S214402F90D21AC0F80821B0F8043143F30B13002BC3
S214402FA002DA01F0010316E090F80441C4F342034C
S214402FB0013303F0070363F3430480F80441062B10
S214402FC008D1E3B203F0010301F001041B1B18BF54
S214402FD0012300E00123002B40F04087044690F890
S214402FE004316FF3430380F80431042A40F2B1877A
S214402FF011F0010F58D04B1E03F00F0300EB830374
S21440300058686B68C518162303FB05F30133B3FBFA
S214403010F2F3033BC3F34703072B88BF4FF0FF335E
S2144030208D1E05F00F0504EB85056E6830441625A9
S21440303005FB00F00130B0FBF2F00338C0F3470068
S214403040072888BF4FF0FF30000240EA0333C81E0F
S21440305000F00F0004EB800040688519162606FB3A
S21440306005F50135B5FBF2F5033DC5F34705072DDC
S21440307088BF4FF0FF3543EA0515043901F00F01CC
S21440308004EB810149680844314601FB00F10131F7
S214403090B1FBF2F10339C1F34701072988BF4FF06E
S2144030A0FF3145EA01035BE00B1F03F00F0300EB23
S2144030B0830358684B1F03F00F0304EB83035B68DE
S2144030C0C518162303FB05F30133B3FBF2F3033BAA
S2144030D0C3F34703072B88BF4FF0FF33CD1E05F0E1
S2144030E00F0504EB85056E683044162505FB00F099
S2144030F00130B0FBF2F00338C0F34700072888BF22
S2144031004FF0FF30000240EA03308B1E03F00F03FF
S21440311004EB83035D682E44162303FB06F301335A
S214403120B3FBF2F3033BC3F34703072B88BF4FF0D1
S214403130FF3340EA0313013901F00F0104EB81012C
S21440314049680D44162101FB05F10131B1FBF2F14E
S2144031500339C1F34701072988BF4FF0FF310B43BE
S214403160002BC0F2F68644F244410B4276D013F46C
S214403170884F14BF01200020002800F07D861D11D6
S21440318005F0F005C3F303310D43190101F47061F6
S21440319029431B039BB20B4340F241318B423ED046
S2144031A014DC342B33D004DC142B46D0252B49D0EA
S2144031B000E140F243118B422DD040F243218B4236
S2144031C02BD0B3F59A7F40F0F58022E041F23411DF
S2144031D08B422CD00DDC41F224018B4223D041F2AD
S2144031E014118B4221D040F252318B4240F0E280A3
S2144031F017E041F243218B421DD041F241418B42C0
S21440320024D041F242218B4240F0D48011E0022388
S21440321016E0032314E0042312E0052310E00623FF
S2144032200EE007230CE008230AE0092308E00A23FF
S21440323006E00B2304E00C2302E0002300E000231A
S21440324008B906E001230E33DBB202E00D2300E0AE
S2144032500D23B5490B4493F851104CE0D81000F0BC
S2144032600600C3F340010843591101F01801014319
S214403270D81100F0600041EA0007AC49CD5D13F07C
S214403280010F14BF05F00F052D090F2D00F05686CF
S214403290C3F3402646EAE326F1B2072911D9A44AE9
S2144032A01268D068A34A0092A34A019202930397F9
S2144032B004950591A149A24A8623A24DA84700F04D
S2144032C03DBEA148405C0544EDB2502D11D9984A08
S2144032D01268D068974A00929C4A019202930397DC
S2144032E0049105959A49964A8A23964DA84700F038
S2144032F025BE8D4B595D4BB2B3F1FF3F00F029869A
S214403300237813F0010F13D0981E00F00F0004EB43
S21440331080001D1F05F00F0504EB850546686868AC
S214403320304403F00F0304EB83035B68184413E058
S214403330DD1E05F00F0504EB8505581E00F00F0056
S21440334004EB80006D6840682844053B03F00F039B
S21440335004EB83035B6818442C2303FB00F3B3FBA6
S214403360F2F211F0800F16D001F07F033C2B06D806
S2144033702F2B12D8172B0CBF202310230EE04F2BD9
S21440338004D84D2B0CBF2023102307E0672B34BFF7
S2144033902023102302E0182300E020235BB2D81F2E
S2144033A08242C0F0D68507339A4200F2D28501F0B9
S2144033B07F0602E0FF2600E0FF26B4F8043143F320
S2144033C00B139DB21BB2002B35DAF2B2A2F16703A3
S2144033D0DBB2042B00F2448573B26A2B00F04285C0
S2144033E02378063B03F00F0304EB83035B683BB193
S2144033F0D4F8081101EB4101B3EB910FC0F03485CE
S214403400B4F80431012161F30F13A4F8043171B20A
S2144034106B2994F804310CBF43F00F036FF300039D
S21440342084F8043184F80621D4F80831C4F80C3105
S214403430002000F0F0BD16F0800F1DD12DB20135F2
S214403440202D40F28E85636D9D42C0F08A85B5F58D
S214403450807F11D810339D4205D2B3F5807F28BFB8
S2144034604FF480731D46E06D29463A4B984718B195
S214403470E065656500F075BDB4F8043143F30B13A1
S214403480012B17DDB4F84630802B10D0284A12683E
S214403490D068314A0092314A0192029380230393C6
S2144034A02F49304A40F20713264DA84702E0002332
S2144034B0A4F84630B4F804314FF0FF3262F30F13ED
S2144034C0A4F80431002000F0A6BD991A00E0D11AF5
S2144034D0B3EB810F48D2B4F8043143F30B13012BFE
S2144034E017DDB4F84630802B10D0114A1268D068E9
S2144034F0194A0092194A019202938023039318496D
S214403500184A40F207130F4DA84702E00023A4F8DC
S2144035104630B4F804314FF0FF3262F30F13A4F88C
S2144035200431002000F077BDF00E4100C009410094
S214403530400400205C0F4100D40A41005C0A410070
S214403540AC0A4100A9834000E80E4100300B410020
S214403550E00A4100C5934000400A4100A80B4100E4
S2144035603C0B4100780B4100C4F80C21676DB4F861
S214403570045145F30B152BB29F421BD8AC4B1B682E
S214403580D3F80C80E06D3946AA4B9847AA4B009377
S214403590AA4B019302972DB2039571B20491059000
S2144035A04046A749A74A4FF40473A74CA0470020BB
S2144035B000F031BDB4F8043123F00F039BB2102B5A
S2144035C00BD1B4F84630002B40F0D4848023A4F8C6
S2144035D04630E36D94F806211A70E06DB4F8043175
S2144035E043F30B12C2F30B01013161F30F13A4F83E
S2144035F00431F3B212B28354B4F8041141F30B1100
S2144036000AB2022A40F3328494F8042112F00102EE
S21440361006D0673BDBB2022B08D9002000F0FBBC8B
S21440362076B26A2E05D0002000F0F5BC0BB2013B06
S21440363000E00023E06DC65C662E40F2A584673E3F
S2144036400FFA81FCBCF103075CD0662E20D902E05D
S214403650662E23D900E00025754B1B68D3F80C90E6
S21440366094F8048108F0010809B2724B9847774BEA
S2144036700093774B0193CDF8088003970496059501
S2144036800690484673496F4AFF236F4DA8479BE311
S2144036900BB2013BDB1B013F002501E0013F01333C
S2144036A007F10108002A14BF9E46C64610F80EE0F1
S2144036B07544662D1FD9673D662D1CD95C4B1B682B
S2144036C0D3F80C9094F8047107F0010709B2594BEF
S2144036D098475E4B0093604B01930297CDF80C8061
S2144036E004960595069048465A49564A4FF48373C1
S2144036F0554DA84768E32E44662E40F24D84673EFB
S214403700002FA5D112B9ACF1020C01E04FF0010C2C
S21440371010F80C30B34240F06C840023A36494F855
S214403720042102F001056B00C3F10103E36412F0CB
S214403730010F3ED0B4F8043143F30B1399B21BB2D9
S21440374003EBD3735B0815D000220BB2013B9B1AE8
S214403750E16D885CCD5C8D54E16DC8540132B4F89F
S214403760043143F30B1399B21BB203EBD373B2EBA2
S214403770630FEAD3E06D00FA81F313F8013C6B2B3C
S21440378036D02B4B1B68DE6894F8045105F00105D3
S21440379009B2284B9847314B0093314B0193029521
S2144037A0039030462F49274A40F25B13264DA847E0
S2144037B00AE3E06DB4F8041141F30B1100FA81F30B
S2144037C013F8013C6A2B13D0194B1B68DE6809B20C
S2144037D0184B9847214B0093234B01930295039037
S2144037E030462049174A4FF4B073174DA847EBE2CE
S2144037F0E06D03780A93A3F167095FFA89F9B9F196
S214403800020F37D90A4B1B68DD68B4F8041141F340
S2144038100B11084B9847114B0093144B01930290A1
S21440382028461349074A4FF4B273074DA847CBE2E0
S21440383040040020054C4000D00E4100040C4100DE
S214403840BC0B4100AC0A4100A98340009C094100E2
S214403850780C41002C0C4100840C4100500A410079
S214403860C80C4100900C4100F80C4100580D410036
S214403870280D41000A9B692B14BF0023012309939E
S214403880B4F8043143F30B1399B21BB2023B012B3D
S21440389040F2968190F8018018F0800F0AD14FF0E0
S2144038A0000B012725E0E06D10F8078018F0800F28
S2144038B01FD002E04FF0000B0127934B1B68DE68D9
S2144038C009B2924B9847924B0093924B01930297C2
S2144038D0CDF80CB0CDF81080CDF81490099B069327
S2144038E0079030468C498D4A40F26F138C4DA8475E
S2144038F06AE219F0020F00F05483B8F1630F40F209
S214403900538153E308F12003DBB2B9F1000F00F016
S2144039105783B9F1810F03D15BE3A8F14003DBB2D3
S2144039200BF1010200F80B3019F0800F00F03B81DC
S21440393009F07F09934637E1099BDBB9724B1B6858
S214403940DD6809B2714B9847714B0093754B0193F4
S2144039500297CDF80CB0CDF81080CDF81490002327
S2144039600693079028466C496C4A4FF4C3736C4DD7
S214403970A84729E2099BC3EB070A0AFA81F5202DDE
S21440398015D9666DB54212D3B5F5807F0FD810367F
S214403990B54205D2B6F5807F28BF4FF4807600E06A
S2144039A02E463146604B984708B1E0656665E16D46
S2144039B0B4F8042142F30B12C819099E3144921BF5
S2144039C05A4B9847B4F8043165F30F13A4F8043102
S2144039D0BAF1000F6DD05D460026E26DD3199B5DAF
S2144039E04FF030015155312B05D9323BDBB2E16DFA
S2144039F04A5D05324A551D2B05D91E3BDBB2E16DAB
S214403A004A5D03324A55132B05D9143BDBB2E16DB0
S214403A104A5D02324A55092B40F2DF820A3BDBB24E
S214403A20E16D4A5D01324A55E06D425D392A1BD947
S214403A30354B1B68DB680B93B4F8041141F30B114C
S214403A40324B98473A4B00933A4B0193099A02926D
S214403A5003970496059506900B9837492F4A4FF4DE
S214403A609F732F4DA84724E0092B1BD9264B1B6874
S214403A70DB680B93B4F8041141F30B11234B9847C2
S214403A802B4B00932D4B0193099A02920397049671
S214403A90059506900B982849204A40F24113204D40
S214403AA0A84706E028443033437001360235564571
S214403AB093D157440BEB4A0B00230993B8F1620F9E
S214403AC003D86AD149F0800967E0B8F1660F37D16C
S214403AD0012F04D1A36C43F00103A3645DE0022FE1
S214403AE004D1A36C43F00203A36456E0B4F8043157
S214403AF043F30B13033B9F424FD2E36D1D2203F863
S214403B000B200BF1010B48E040040020054C400020
S214403B10500A4100D40D41007C0D4100AC0A4100E2
S214403B20A9834000E40D4100C593400059924000EF
S214403B30B0094100380E4100EC0D4100500E4100E6
S214403B40B8F1660F00F24081C8F16503DBB2A8F118
S214403B506302D2B2022A1FD9AA4B1B68DD68B4F8AA
S214403B600411E06D41F30B11A74B9847A74B009308
S214403B70A74B01930297CDF80CB0CDF81080CDF846
S214403B801490099B069307902846A249A24A4FF4F0
S214403B90D573A24DA84717E1994619F0020F03D0F6
S214403BA07B1C099300E093460137B4F8043143F395
S214403BB00B1399B21BB2023B9F42FFF474AE02E075
S214403BC04FF0000B012719F0020F00F0C580099B4B
S214403BD0E3B98C4B1B68DD68E06D09B28A4B9847A9
S214403BE08A4B00938E4B01930297CDF80CB00A9BFC
S214403BF00493CDF8149000230693079028468549F1
S214403C00854A40F2B913854DA847DDE0099BFE1A68
S214403C1006FA81F8B8F1200F17D9636D984514D38A
S214403C20B8F5807F11D81033984506D2B3F5807F1B
S214403C3028BF4FF480731D4600E04546E06D294698
S214403C40784B984708B1E0656565E16DB4F80421A6
S214403C5042F30B12C819099D2944521B724B9847D0
S214403C60B4F8043168F30F13A4F80431002E71D071
S214403C705D464FF000083021E26DD31913F8083046
S214403C805155312B05D9323BDBB2E06D425D0532F2
S214403C9042551D2B05D91E3BDBB2E06D425D03321B
S214403CA04255132B05D9143BDBB2E06D425D023220
S214403CB04255092B40F297810A3BDBB2E06D425DEC
S214403CC001324255E06D425D392A1CD94D4B1B6886
S214403CD0D3F80C90B4F8041141F30B114A4B9847B3
S214403CE0524B0093524B0193099B02930397CDF896
S214403CF010800595069048464E49474A4FF49F73B4
S214403D00464DA84726E0092B1CD93E4B1B68D3F8E6
S214403D100C90B4F8041141F30B113B4B9847434BBE
S214403D200093454B0193099B02930397CDF810806F
S214403D300595069048463F49374A40F24113374D6D
S214403D40A84707E028443033437008F1010802359D
S214403D50B04591D10BEB460B636D5B4518D8294BAC
S214403D601B68DD68B4F80411E06D41F30B11264B77
S214403D709847264B0093314B0193CDF808B00390FB
S214403D8028462F49244A40F2BD13244DA8471BE03D
S214403D90C4F858B0E36D002203F80B20B4F80431A1
S214403DA06BF30F13A4F8043143F30B13D4F8142128
S214403DB09342C0F21E81D4F81821002A40F3228193
S214403DC0934200F316811DE1B4F804314FF0FF3200
S214403DD062F30F13A4F80431B4F84630802B39D080
S214403DE0084A1268174900911749019102938023A7
S214403DF00393D0681549164A40F20713074CA0476C
S214403E00002008E140040020054C4000500A4100D4
S214403E105C0E41007C0D4100AC0A4100A983400085
S214403E20E40D4100C593400059924000B00941005E
S214403E30380E4100EC0D4100500E4100B80E4100D6
S214403E40800E4100400A4100A80B41003C0B410057
S214403E50780B41000020A4F84600DCE00020DAE0C1
S214403E600020D8E00020D6E00020D4E00020D2E0B9
S214403E700020D0E00020CEE040F241318B424BD0D3
S214403E8016DC342B54D006DC142B3FF4D8A9252B53
S214403E9051D0FFF791BA40F243118B4242D040F2E4
S214403EA043218B423BD0B3F59A7F7FF485AA3CE012
S214403EB041F234118B4223D00DDC41F224018B4277
S214403EC024D041F214118B421DD040F252318B4225
S214403ED07FF472AA1DE041F243218B420AD041F2A0
S214403EE041418B423FF4B4A941F242218B427FF4D8
S214403EF063AA02E00C23FFF7A3B90B23FFF7A0B990
S214403F000A23FFF79DB90923FFF79AB90823FFF75D
S214403F1097B90723FFF794B90623FFF791B905230E
S214403F20FFF78EB90423FFF78BB90323FFF788B951
S214403F300223FFF785B90123FFF782B9B4F80431AD
S214403F4043F30B139DB21BB2002B91DBFF26FFF70A
S214403F5072BAB4F8043143F30B13002BBFF68CAAA5
S214403F6088E7D4F80C31D4F8082193423FF6ADAA3E
S214403F70FFF7ADBAB4F804314FF0FF3262F30F13D7
S214403F80A4F80431002046E00FFA81FCBCF1030798
S214403F907FF47EABFFF7B6BB002F7FF47FABFFF717
S214403FA0B1BBB8F15F0F7FF6ADAC87E5B8F15F0FF8
S214403FB07FF6A8ACC0E400F80B300BF1010BF3E53C
S214403FC05F2B3FF6AAACF6E70BF1010200F80B3088
S214403FD0AEE45F2B3FF6A1ACF6E7E06D425D392AD2
S214403FE07FF660AD24E5E06D425D392A7FF6AAAEE5
S214403FF06CE6B4F804314FF0FF3262F30F13A4F8C6
S2144040000431E9E6B4F804314FF0FF3262F30F139F
S214404010A4F8043180200DB0BDE8F08FF0B587B02D
S21440402004460778384607F00F0304EB83035D68C1
S214404030D4F8F0202A44A7F1090303F00F0304EB59
S21440404083035B68D21AC4F8F020D4F8EC3043F30C
S2144040504B1E0FFA8EF3002B80F2E28017F0010F12
S21440406000F06D83082A40F26E8300263146BB1B63
S21440407003F00F0304EB83035B6803EBC3031B01EE
S2144040800133B3FBF2F3033BC3F34703442B00F285
S2144040905A83DBB2122B00F2BB804900C9B2062B12
S2144040A088BF41F00101FF2900F04D83751CEDB239
S2144040B00136052EDBD11F290ED9B44B1B68B448F8
S2144040C00090B448019002910392D868B249B34A2E
S2144040D0A023B34CA04736E3B24B5E5CFF2E00F005
S2144040E03283082D22D8431B03F00F0304EB8303CF
S2144040F05B6803EBC3031B010133B3FBF2F3033BE3
S214404100C3F34703442B00F21E83DBB2122B00F2AC
S21440411081804900C9B2062B88BF41F00101FF29C2
S21440412000F011830135EDB2092DDCD106F0C00355
S214404130802B05D106F03F06C1F3C0031E440DE0B8
S214404140C02B05D106F03F06C1F380031E4405E0B0
S21440415023B106F03F06C1F381031E442B2E0FD930
S2144041608A4B1B688A4800908F48019002960391BC
S2144041700492D8688D49894AB423894CA047E2E224
S214404180334606EB46068A48805D884240F0DB822E
S214404190C4F8F42094F8EC2012F0010F04D0334613
S2144041A0834A13445B7804E003EB4303804A13449A
S2144041B09B785AB2192A01D02B2A2DD15BB294F89B
S2144041C0EC20C2F30001192B14BF0B4681F001030B
S2144041D063F3000284F8EC202378093B03F00F03D6
S2144041E004EB83035B6823B1D4F8F020B3EB520FA3
S2144041F014D394F8EC30092262F3440384F8EC308C
S214404200D4F8EC306FF35013C4F8EC300120DCE205
S2144042100020DAE20020D8E20020D6E20020D4E2F5
S21440422094F8EC10C1F34303013303F00F0363F338
S214404230440184F8EC10082B40F38382CEB206F09B
S2144042401E03142B40F00481D4F8EC20594B134045
S214404250002B00F08382E36D03FA8EF313F8013CE3
S2144042602B2B40F082820EF6FF7343F30B039BB278
S21440427063F35012C4F8EC202DB1D4F8F420B5EB1B
S214404280520FC0F062821BB2D4F8FC209342C0F2B8
S2144042905C82D4F80021002A02DD934200F3558266
S2144042A094F8EC2002F001035B00C3F10103E364E1
S2144042B012F0010F1DD0D4F8EC3043F34B139AB2F2
S2144042C01BB2012B15DD002113B2013B5B1AE26DD8
S2144042D0505CD55C5554E26DD0540131D4F8EC3086
S2144042E043F34B139AB21BB203EBD373B1EB630F9A
S2144042F0EADBD4F8EC3043F34B1399B21BB2002BF5
S21440430014DD00253F262C48E36D5A195B5D2A2BA9
S21440431094BFC35C334613700135D4F8EC3043F396
S2144043204B1399B21BB29D42EEDB00E00025636D55
S2144043309D421BD3154B1B68DE68E06D09B21F4BD0
S21440434098471F4B00931F4B0193029503903046AE
S2144043501D49124AEC23124DA847D4F8EC304FF0D2
S214404360FF3262F35013C4F8EC302FE0A565E26DDF
S21440437000235355A364D4F8EC304FF0FF3262F379
S2144043805013C4F8EC3027201FE200BF4004002042
S214404390C411410038104100D80F410014104100AC
S2144043A0A9834000B80F41008810410044104100E6
S2144043B02C114100E0FF0100680F4100054C400011
S2144043C0A40F4100CC10410094104100B4F8463090
S2144043D0272B11D0B14A1268D068B14A0092B14A30
S2144043E00192029327230393AF49B04A40F2071342
S2144043F0AF4CA0470020E8E10020A4F84600E4E1E6
S214404400B4F84630272B10D0A44A1268D068A44A85
S2144044100092A44A0192029327230393A249A34AF7
S21440442040F20713A24DA84702E00023A4F8463006
S214404430D4F8EC304FF0FF3262F35013C4F8EC304F
S21440444094F8EC306FF3440384F8EC300020BCE181
S214404450D4F8F4309D009100C3EB050E7145C0F0D2
S2144044608B812B44994240F28F8185E1B4F84630E7
S214404470272B10D0894A1268D068894A0092894A08
S21440448001920293272303938749884A40F20713F1
S214404490874DA84702E00023A4F84630D4F8EC3015
S2144044A04FF0FF3262F35013C4F8EC3000208CE13A
S2144044B04FF0000E7546CEEB070303F00F0304EBF8
S2144044C083035B6803EBC3031B010133B3FBF2F3C7
S2144044D0033BC3F34703442B00F25981DBB2122B54
S2144044E000F26B816D00EDB2062B88BF45F00105EA
S2144044F0FF2D00F04C810EF10101C9B20EF1010E04
S214404500BEF1050FD7D18E461F2D0ED9634B1B68C3
S214404510D868684B0093684B0193029503926749AD
S214404520674AA023624DA84731E1664B5F5DFF2F87
S21440453000F02D81082922D8431A03F00F0304EB1C
S21440454083035B6803EBC3031B010133B3FBF2F346
S214404550033BC3F34703442B00F21981DBB2122B13
S21440456000F22B816D00EDB2062B88BF45F00105A9
S214404570FF2D00F00C810131C9B20929DCD107F0CA
S214404580C003802B05D107F03F07C5F3C0031F4487
S2144045900DE0C02B05D107F03F07C5F380031F444D
S2144045A005E023B107F03F07C5F381031F442B2FD7
S2144045B00FD93A4B1B683F490091434901910297F6
S2144045C003950492D86841493D4AB423384DA847DC
S2144045D0DDE03B4607EB47073D49C95DA94240F051
S2144045E0D680C4F8F42016F0010F04D03B46384A73
S2144045F013445E7804E003EB4303354A13449E7845
S214404600D4F8EC20334B13407BB902E0FF2600E0A1
S214404610FF26B4F84630002B40F0C1802723A4F88C
S214404620463016F0800F03D058E016F0800F1FD1AA
S214404630D4F8EC5045F34B150135202D40F2B980A7
S214404640636DAB4200F2B580B5F5807F10D810336D
S2144046509D4205D2B3F5807F28BF4FF480731D4638
S214404660E06D29461C4B984710B1E0656565A0E0B3
S214404670B4F84630272B31D0084A1268D068084A2A
S2144046800092084A01920293272303930649074A59
S21440469040F20713064DA84723E000BF4004002021
S2144046A0940F4100A80B41003C0B4100780B4100A1
S2144046B0A9834000C411410038104100D80F410082
S2144046C014104100B80F41008810410044104100CA
S2144046D02C114100E0FF0100C59340000023A4F8E0
S2144046E04630D4F8EC304FF0FF3262F35013C4F843
S2144046F0EC30002069E0364B1B68D868354B009399
S214404700354B019376B20296D4F8F0300393334992
S214404710334A40F25113334CA047002055E0E06D39
S214404720D4F8EC3043F34B12C2F30B01013161F382
S2144047305013C4F8EC3012B28654002045E00020F6
S21440474043E0002041E000203FE0D4F8EC304FF05A
S214404750FF3262F35013C4F8EC3037E6D4F8F43046
S214404760B5EB530F3FF664AE6AE6D4F8F430B5EBDB
S214404770530F3FF645AE63E6D4F8EC201A4B134091
S214404780002B3FF48BAE71E6082A3FF691AED4F884
S214404790EC20154B1340002B3FF438AF68E7D4F8B5
S2144047A0EC304FF0FF3262F35013C4F8EC30012087
S2144047B00BE073B22B2BB2DD9DE7D4F8EC200A4B0E
S2144047C01340002B3FF424AF52E707B0F0BD00BFC4
S2144047D040040020B011410020114100E410410087
S2144047E014104100A9834000E0FF010010B50446C4
S2144047F0C06D08B1024B98472046014B984710BD04
S2144048005919400010B50446002154221A4B9847C7
S214404810FF2384F8783084F8683084F8983084F839
S21440482088300023C4F8B030A4F8AA30A4F8A830E2
S21440483094F8EC2002F0FE0263F3440284F8EC2085
S214404840D4F8EC204FF0FF3161F35012C4F8EC205E
S214404850C4F8F03094F8042102F0FE0263F34302F9
S21440486084F80421B4F8042161F30F12A4F804215B
S214404870C4F8083110BD00BF2193400010B5012098
S2144048804FF48E71114B9847044620206065104BBC
S2144048909847E065012384F8CA300522C4F8CC2046
S2144048A0C4F8D0200422C4F8D420C4F8D820C4F8D1
S2144048B0DC20C4F8E020C4F8F830C4F8FC30C4F873
S2144048C010312046034B9847204610BD351940000E
S2144048D0FD1740000548400010B50446043000214E
S2144048E040221A4B98470023A4F84630237023658D
S2144048F0FF2284F8782084F8682084F8982084F88A
S2144049008820C4F8B03094F8EC2002F0FE0263F33E
S214404910440284F8EC20D4F8EC204FF0FF3161F3E9
S2144049205012C4F8EC20C4F8F03094F8042102F099
S214404930FE0263F3430284F80421B4F8042161F3D1
S2144049400F12A4F80421C4F8083110BD219340008A
S214404950C06D7047806D7047C06C70470346406EB0
S2144049605966704701667047006E7047B0F844005D
S214404970704700BF806C704770B584B004460378BB
S21440498003F00F0200EB820251605A1E02F00F0243
S21440499000EB82025168026D0A44073B03F00F03A6
S2144049A000EB83035B68D21A026590F9CA301BB1EC
S2144049B0214B9847054600E00025D4F8F83013F020
S2144049C0010F05D020461D4B9847012888BF054655
S2144049D0D4F8103113F0010F05D02046184B9847F5
S2144049E0012888BF0546237801332370A4F8445035
S2144049F0FDB1B4F84630C3B1012D16D9402D14D0C0
S214404A009D420FD00F4A1268D0680F4A00920F4A54
S214404A100192029303950E490E4A40F207130E4E3A
S214404A20B04702E00023A4F84630636E0BB1204640
S214404A309847284604B070BDB14C40001D40400029
S214404A406D2F400040040020D4114100A80B4100C7
S214404A503C0B4100780B4100A98340000A2924D032
S214404A600AD8052919D002D8022914D026E00829E8
S214404A7015D0092917D021E00E2918D004D80C29C2
S214404A800FD00D2905D019E0272912D0802912D041
S214404A9014E0CC3013E0E83011E0E4300FE0D030E2
S214404AA00DE0D4300BE0D83009E0DC3007E0E030F1
S214404AB005E0F83003E000F5887000E0002008B11B
S214404AC00068704700207047F8B579B91E4615460D
S214404AD007460D214A4C38462A463346FFF7F4FF30
S214404AE034F8021F0029F6D10020F8BD0C46032AF0
S214404AF064D80A292AD00AD805291BD002D8022908
S214404B0015D070E0082918D009291CD06BE00E2972
S214404B101FD004D80C2913D00D2905D063E02729CF
S214404B201AD080291BD05EE000F1CC0165E000F190
S214404B30E80162E000F1E4015FE000F1D0015CE0F2
S214404B4000F1D40159E000F1D80156E000F1DC0153
S214404B5053E000F1E00150E000F1F8014DE000F5CF
S214404B6088714AE03BB9012303FA02F20B6823EA54
S214404B7002030B6005E0012B37D193400A681343CC
S214404B800B60D0F8E820D0F8CC301A43D0F8E430A8
S214404B901A43D0F8D0301A43D0F8D4301A43D0F85D
S214404BA0D8301A43D0F8DC301A43D0F8E0301343FC
S214404BB003F0010380F8CA300020F8BDA2F12001BE
S214404BC089B2012913D8272C02D0802C05D010E0BA
S214404BD000EB8202D3670020F8BD00EB8202C2F8E9
S214404BE094300020F8BD0120F8BD0120F8BD01201A
S214404BF0F8BD0120F8BD0120F8BD0029B2D1FAE782
S214404C00FC1141002DE9F04782B006460F4601EB05
S214404C1041040C341D4B186828B11D4B1B689C4240
S214404C2008D91C4B984720461B4B9847174B186093
S214404C30174B1C60154B1D6828460C21174A4FF62B
S214404C40FF73BB4228BF3B46154CA0470544C7B13F
S214404C50013E0024134BDFF85090DFF84480DFF825
S214404C604CA003E00F4B002C18BF534616F8012FFC
S214404C700092284604214A46C04705440134BC42B7
S214404C80F0D1024B186802B0BDE8F08768AE00204D
S214404C9064AE002059194000FD174000E81141005D
S214404CA0E597400000164100F4114100E411410030
S214404CB02DE9F04F91B08146037803F003020A9243
S214404CC003F00F0200EB82025168D0F8B0200A448D
S214404CD0043B03F00F0300EB83035B68D21AC0F873
S214404CE0B02082464FF00008C346CDF82480544694
S214404CF09AF8682012F0800F05D05FFA88F30A9978
S214404D008B4240F0C087D2B2511CC9B2CEB284F8B2
S214404D10686001F03F0599F8003013F0010C40F050
S214404D208B8211F0400F00F0B980092D02D0212D62
S214404D3040F0A98003F00F0009EB800040680B901C
S214404D40581EA3F1050E002700F00F0609EB860655
S214404D507668374401387045F6D10B9828B107EB92
S214404D604707B0EB970FC0F08480092D1FD1D9F8C4
S214404D70E80010F0010F00F0868094F8716094F817
S214404D807200C0F3001E06F01007FFB206F00F06D2
S214404D9006EB860600F00F0000EB4600C0434EEAE6
S214404DA0E70700F0030087426DD1022064E0D9F89F
S214404DB0E40010F0010F59D094F871E094F87200B6
S214404DC0074694F873600B9694F87460304694F8EF
S214404DD075600C960D9707F01006F6B237460B9E98
S214404DE006F01006F6B2B61046EA67060EF0100752
S214404DF03E430E9000F01007FFB246EAE7060C98D6
S214404E00C0F300173E430EF00F0E0D9800F00F0053
S214404E1000EB400070440B9F07F00F0738440E9F8E
S214404E2007F00F0707EB470707440C9800F00F0002
S214404E30384400EB4000C34F87FB007EC717C7EBE4
S214404E40AE0707EB8707A0EB4700C0B27708DFF84E
S214404E50F8E21EF8077016F0010F18BF3F0907F07A
S214404E600F07B84214BF6046052000E0604680B297
S214404E7010B9212D07D100200023C9F8AC30FF23FC
S214404E8084F8683066E301F00701012940F0D481D8
S214404E90033284F868200235EDB2CDE101F0010E10
S214404EA0A5F11002D2B2012A00F2B780D9F8D0207C
S214404EB012F0010F00F0B1800EF10402D2B20EF1F2
S214404EC00800C0B200210B941C460F46511CC9B2C4
S214404ED00C949A1A02F00F0209EB820252681744A9
S214404EE00A468142F2D10D970B9C03F00F0209EB64
S214404EF082025268BEF1000F0AD19AB107EB470111
S214404F00B2EB910F40F2898003220E9201200CE012
S214404F108EF001000EF1030211460E9242B28A4212
S214404F2003DB34E003220E92012000270F960B93FA
S214404F3001460C9E0D9B0C940E9CCAB2511CC9B2E5
S214404F40701A00F00F0009EB8000B21A02F00F0250
S214404F5009EB8202406852680244C2EBC202520029
S214404F600132B2FBF3F2033AC2F34702032A4FD8A8
S214404F70BF0007F0FC07174317F0800F4BD1C9B2AC
S214404F804AB2A242D9DB0F9E0B9B0C9C00E0002746
S214404F90002F42D194F8715094F8721094F8730030
S214404FA094F8747001F01003DAB205F01003DBB227
S214404FB05B1043EAA20300F01002D2B243EAE203D7
S214404FC0C7F30012134301D00F2B1CD1B3FA83F35F
S214404FD05B0973450BD166F07F0684F8686084F8F9
S214404FE0717084F8745084F8720084F87310002B43
S214404FF094F968304FEAD373C9F8AC3041F20800F0
S21440500008BF082000E00020FF2384F86830A1E2B3
S2144050100B9B0C9C01E00B9B0C9CA5F11802D2B29A
S214405020012A00F209810EF10402D2B20EF1080004
S214405030C0B200261F46511CC9B23D469A1A02F01D
S2144050400F0209EB8202526816440A468142F2D1A8
S21440505003F00F0309EB83035B68BEF1000F09D131
S21440506083B106EB4602B3EB920F40F2DE80032795
S214405070012109E08EF001010EF103074BB2BB425D
S21440508002DB2EE00327012100200A46D3B25A1C39
S214405090D2B2C2EB050C0CF00F0C09EB8C0CE91AE3
S2144050A001F00F0109EB8101DCF804C04B68634452
S2144050B0C3EBC3035B000133B3FBF6F3033BC3F31D
S2144050C04703032B00F2F785800000F0FC001843EE
S2144050D010F0800F40F0AB80D2B253B2BB42D5DB6B
S2144050E000E00020002840F0E68594F87530FF2B5D
S2144050F000F0E185BEF1000F28D094F8711001F061
S2144051001001C9B294F8732002F01002D2B25210C5
S21440511042EA410194F8722002F010020A4394F8E1
S214405120741001F01001C9B242EAA10203F0100364
S214405130DBB242EAE30394F87620C2F3001213434C
S21440514027E000BF676666662812410094F8712023
S214405150C2F3001294F8721001F01001C9B242EA8C
S214405160E10203F01003134394F8732002F0100298
S214405170D2B243EAA20394F8742002F01002D2B2EC
S21440518043EA620394F8762002F01002D2B243EA71
S21440519042035A08CA498A5C13F0010F18BF120925
S2144051A084F8702094F8702002F00F0284F8702083
S2144051B00F2A00F08085B3FA83F2520972451DD15A
S2144051C094F8681061F07F0184F8681094F87110C4
S2144051D094F8760084F8710084F8761094F872108B
S2144051E094F8750084F8720084F8751094F873107B
S2144051F094F8740084F8730084F87410D9F8CC10CE
S21440520011F0010F08D0002A40F0468513F0200F19
S21440521040F0458500F0BEBD002B00F04C8513F0F5
S214405220200F00F03E8500F046BD002000E0002044
S214405230FF2384F868308DE194F8681011F0400F31
S21440524018BF6D0815F0030F40F01D85142D00F2B1
S2144052501A85E66ED9F8B020002A00F01485002999
S21440526040F08480581F00F00F0009EB800047682C
S214405270981F00F00F0009EB80004568E819052AE2
S21440528040F22485C0EBC00040000130B0FBF2F095
S2144052900338C0F34700032862D8002840F016853C
S2144052A0181F00F00F0009EB800040683844C0EB40
S2144052B0C00040000130B0FBF2F00338C0F34700B6
S2144052C0032800F26A85C0B2BCF1000F18D000E097
S2144052D0FF20DD1F05F00F0509EB85056D682DB134
S2144052E002EB4207B5EB970F40F2F084002800F03F
S2144052F0E584012808BF402100F0E08400F0E6BCC9
S214405300002840F0E384D81F00F00F0009EB80002F
S2144053104768A3F1080000F00F0009EB80004068E2
S21440532038443D44C5EBC5056D000135B5FBF2F587
S214405330033DC5F34705032D12D8002D40F0C68423
S214405340C0EBC00040000130B0FBF2F00338C0F3C1
S2144053504700032804D8002800F0B08400F0B6BC0C
S214405360FF2384F86830E26600F08DBCF100D00080
S2144053708F1BB842C0F0C0843144884240F2AB84B0
S21440538000F0BABC0025BCF1000F0DD0591E01F04C
S2144053900F0109EB810103F00F0009EB80004E6816
S2144053A0416806EB010E0DE0D81E00F00F0009EB39
S2144053B08000991E01F00F0109EB810140684968A1
S2144053C000EB010E591E01F00F0109EB81014F68F9
S2144053D0991E01F00F0109EB810149680B91C8192C
S2144053E00C90052A40F28884CEEBCE01490001316C
S2144053F0B1FBF2F10339C1F34701032988BF4FF0EF
S214405400FF31C0EBC00040000130B0FBF2F0033883
S214405410C0F34700032861D840EA8101C9B211F0C1
S214405420800F40F0698448B206464FF4CC60304165
S21440543010F0010F00F05B84BCF1000F08D003F0C1
S2144054400F0309EB83035B680B981844074606E096
S214405450033B03F00F0309EB83035B681F44C7EB72
S214405460C7074FF48463334103F00103002B14BF96
S2144054700323042302FB03F39F4240F23884C1F324
S214405480410141F0100111F0800F00F0388426E011
S2144054900C4B1B68D8680C4B00930C4B019349B2DD
S2144054A00291CDF80CE00C9B04930592CDF818C001
S2144054B00749084A40F20113074EB04700F01CBCAB
S2144054C0281241004004002020124100D41241001E
S2144054D05C124100B0124100A9834000FF21102D0C
S2144054E022D194F8683013F0400F21D099F800305C
S2144054F0581F00F00F0009EB80001A1F02F00F0241
S21440550009EB8202406853680344C3EBC3035B0065
S2144055100133D9F8B020B3FBF2F3033BC3F34703A0
S214405520032B01D85BB21BB1FF2384F86830AAE393
S21440553011F0800F03D0FF2384F87530A3E3099B56
S21440554009EB031303EB9505C9B2BF4B5B5C85F8CB
S214405550713098E3002800F09683B9F8A83013B16C
S214405560C2B29A4205D1B9F8AA303BB1C2B29A4209
S21440557004D00023A9F8AA30A9F8A830D9F8A83052
S21440558063B1D9F8B430D900E26ED200CD1AAA423F
S214405590C0F0BA830B449A4200F2B68300F48053BC
S2144055A09BB293B3C0B2451EEDB2420802F0FF0371
S2144055B022B3AD1A099A09EB02160027D9B24A1946
S2144055C0D2B246FA83F393F8703003F00F03B9F87B
S2144055D0AAE0BEF1000F09D049FA82FE9EF9B8E073
S2144055E09E451CBFA9F8AA70A9F8A87049FA82F28D
S2144055F082F8B8304B1E13F0FF03DFD1A9F8AA009B
S214405600B9F8A8B000EA0B0BBDE00D2800F0828385
S214405610082829D17EE3CBB2EA1AD2B2FB1A46FA60
S21440562083F393F8703003F00F03B9F8A8C0BCF1C9
S214405630000F09D049FA82FC9CF9B8C09C451CBFB3
S214405640A9F8AAE0A9F8A8E049FA82F282F8B830A8
S21440565001316B1A13F0800FDDD0A9F8A800B9F815
S214405660AAB000EA0B0B8EE0092817D0C3B25AB294
S214405670002A10DD099A09EB02155AB209EB02011D
S2144056802A4492F8702002F00F0281F8B720013BBE
S21440569013F0FF03F1D1A9F8A80045E394F8703061
S2144056A089F8C43094F8763003F00F03002289F866
S2144056B0B82089F8B92094F8712002F00F0289F8D2
S2144056C0BA2094F8722002F00F0289F8BB20022B11
S2144056D002D8D9B2032204E094F8731001F00F0107
S2144056E0042289F8BC10032B09D9099909EB01114A
S2144056F0114491F8701001F00F01013200E00021D2
S21440570089F8BD10042B09D9099909EB01111144F8
S21440571091F8701001F00F01013200E0002189F885
S214405720BE10002189F8BF1089F8C010022B09D896
S214405730099909EB0111114491F8701001F00F011D
S214405740013200E0002189F8C110032B09D80999DD
S21440575009EB0111114491F8701001F00F0101326C
S21440576000E0002189F8C210042B08D8099B09EBF9
S2144057700313134493F8703003F00F0300E0DBB2DA
S21440578089F8C330D0E2E36EC9F8B430BBF1000FFD
S21440579000F071812BF004039BB2092B40F0D682B7
S2144057A0C7E209EB030292F8B860092E1BD902E063
S2144057B02E4600252F46254B1B68DC6809F1B800AD
S2144057C01221234B9847234B0093234B0193029778
S2144057D003960495059020462049214A40F20A2324
S2144057E0204CA047E1E03544EDB213F0010F07D05E
S2144057F005EB460505F0FF05132D84BF143DEDB2BD
S214405800092D84BF0A3DEDB20133DBB21F460B2B98
S214405810C7DD092D2CD90D4B1B68DC6809F1B80093
S21440582012210B4B98470B4B00930F4B019302955D
S2144058300C230393049020460C49094A40F2152352
S214405840084CA047B1E000BF481241004004002089
S214405850054C40001414410024134100E01241005E
S214405860B0124100A9834000681341002C13410048
S21440587015B1C5F10A05EDB299F8C460092E18D9DC
S214405880AF4B1B68DC6809F1B8001221AD4B984756
S214405890AD4B0093AD4B01930C23029303960495B6
S2144058A005902046AA49AB4A40F21A23AA4CA04784
S2144058B07BE0AE4200F0808277E009EB030292F88C
